:100000000C9434030C9451030C9451030C9451033D
:100010000C9451030C9451030C9451030C94510310
:100020000C9451030C945A060C9451030C945103F4
:100030000C9451030C9451030C9451030C945103F0
:100040000C9451030C9451030C9491030C945103A0
:100050000C945F030C942D060C9451030C945103E3
:100060000C9451030C9451038080808081818182A3
:1000700082838485858687898A8B8C8E8F909294E3
:100080009597999B9D9FA1A3A5A7AAACAEB1B3B626
:10009000B8BBBEC0C3C6C9CCCED1D4D7DADDE0E38D
:1000A000E6E9ECEFF3F6F9FCFF0205080B0F121579
:1000B000181B1E2124272A2D303235383B3E404361
:1000C00046484B4D50525457595B5D5F61636567BD
:1000D000696A6C6E6F7072737475777879797A7BF0
:1000E0007C7C7D7D7D7E7E7E7E7E7E7E7D7D7D7C3C
:1000F0007C7B7A7979787775747372706F6E6C6ABD
:1001000069676563615F5D5B59575452504D4B4859
:100110004643403E3B383532302D2A2724211E1BD2
:100120001815120F0B080502FFFCF9F6F3EFECE9C6
:10013000E6E3E0DDDAD7D4D1CECCC9C6C3C0BEBBBE
:10014000B8B6B3B1AEACAAA7A5A3A19F9D9B999742
:10015000959492908F8E8C8B8A89878685858483EF
:1001600082828181818080800001030507090B0D57
:1001700010121416181A1D1F212426282A2D2F317B
:10018000333537393B3D3F41434546484A4C4E5055
:10019000525557595C5E606365686A6D6F7174761D
:1001A00078797B7C7D7E7F7F7F7F7E7E7D7B7A788A
:1001B000777573706E6C696764625F5D5A585654E8
:1001C000514F4D4B4947454442403E3C3A38363406
:1001D00032302E2B29272522201E1C19171513110A
:1001E0000E0C0A0806040200FFFDFBF9F7F5F3F117
:1001F000EEECEAE8E6E3E1DFDDDAD8D6D4D1CFCD24
:10020000CBC9C7C5C3C1BFBDBBBAB8B6B4B2B0AE27
:10021000ABA9A7A5A2A09D9B989693918F8C8A8845
:1002200087858482818180808080818283848687A3
:10023000898B8E909295979A9C9FA1A3A6A8AAAD10
:10024000AFB1B3B5B7B9BABCBEC0C2C4C6C8CACCD8
:10025000CED0D2D5D7D9DBDEE0E2E5E7E9EBEDEFB2
:10026000F2F4F6F8FAFCFEFFD7D7D7D7D7D6D6D513
:10027000D4D3D1D0CECDCBC9C7C5C4C2C1C0BFBEF7
:10028000BDBDBDBDBDBDBDBDBDBDBDBDBCBCBBB9A6
:10029000B8B7B5B3B1AFAEACAAA9A7A6A5A5A4A49B
:1002A000A4A4A5A5A6A6A7A7A7A7A7A7A6A5A3A2F6
:1002B000A09E9C9A989694939190908F8F909192F3
:1002C000939597989A9C9D9E9E9F9E9D9C9A98958B
:1002D000928F8C8886838180808183868B9198A180
:1002E000ABB6C2D0DEECFB0A192735424F5A636C1D
:1002F00073787C7E7F7F7D7A76726D68625C575101
:100300004C4844413E3C3A39393939393A3A3B3B19
:100310003B3B3A3A38373533302D2B2825221F1DE9
:100320001B19171614141313131313131313131386
:100330001211100F0E0C0A0806040200FEFCFAF956
:10034000F7F6F5F5F4F4F4F3F3F3F3F3F3F3F2F271
:10035000F1F0EFEDECEAE8E6E4E2E1DFDDDCDBDA48
:10036000D9D8D8D7D7D7D7D7282828282829292A8D
:100370002B2C2E2F31323436383A3B3D3E3F404114
:100380004242424242424242424242424343444645
:1003900047484A4C4E505153555658595A5A5B5B30
:1003A0005B5B5A5A5959585858585858595A5C5DB5
:1003B0005F61636567696B6C6E6F6F70706F6E6D98
:1003C0006C6A686765636261616061626365676AE0
:1003D0006D707377797C7E7F7F7E7C79746E675ECB
:1003E00054493D2F211304F5E6D8CABDB0A59C930E
:1003F0008C87838180808285898D92979DA3A8AE0A
:10040000B3B7BBBEC1C3C5C6C6C6C6C6C5C5C4C4D0
:10041000C4C4C5C5C7C8CACCCFD2D4D7DADDE0E2E0
:10042000E4E6E8E9EBEBECECECECECECECECECEC23
:10043000EDEEEFF0F1F3F5F7F9FBFDFF0103050633
:1004400008090A0A0B0B0B0C0C0C0C0C0C0C0D0DF8
:100450000E0F1012131517191B1D1E202223242501
:100460002627272828282828FF0D1A2734404B55EF
:100470005E666D73777B7D7F7F7F7D7B7976737022
:100480006D6A686563626060606061626365676928
:100490006B6D6F70727374747474737371706E6D4E
:1004A0006B69686665646363636364646667686AEE
:1004B0006C6E6F717273747474747372716F6E6C2E
:1004C0006A68666462616060606061626466696CEB
:1004D0006F7275787A7C7E7F7F7E7C7975706A62B8
:1004E0005950453A2E211406F9EBDED1C5BAAFA614
:1004F0009D958F8A8683818080818385878A8D9070
:100500009396999B9D9E9F9F9F9F9E9D9B9997953C
:100510009391908E8D8C8B8B8B8B8C8D8E909193F9
:10052000959798999B9B9C9C9C9C9B9A9997969439
:1005300092918F8E8C8C8B8B8B8B8C8D8F909294D9
:1005400096989A9C9D9E9F9F9F9F9D9C9A979592FF
:100550008F8C898684828080808284888C9299A105
:10056000AAB4BFCBD8E5F2FF8080808080808080F5
:10057000808080808080808080808080808080807B
:10058000808080808080808080808080808080806B
:10059000808080808080808080808080808080805B
:1005A000808080808080808080808080808080804B
:1005B000808080808080808080808080808080803B
:1005C000808080808080808080808080808080802B
:1005D000808080808080808080808080808080801B
:1005E000808080808080808080808080808080800B
:1005F00080808080808080808080808080808080FB
:1006000080808080808080808080808080808080EA
:1006100080808080808080808080808080808080DA
:1006200080808080808080808080808080808080CA
:1006300080808080808080808080808080808080BA
:1006400080808080808080808080808080808080AA
:10065000808080808080808080808080808080809A
:10066000808080808080808011241FBECFEFD8E002
:10067000DEBFCDBF12E0A0E0B1E0E0E5F1E102C0F5
:1006800005900D92A837B107D9F724E0A8E7B2E0AA
:1006900001C01D92AD3CB207E1F70E94F4050C9435
:1006A000A6080C9400001092C5008FE18093C4004E
:1006B00088ED8093C10086E08093C20008951F9268
:1006C0000F920FB60F9211248F939F93EF93FF9386
:1006D00080917E0390917F03019790937F03809395
:1006E0007E03181619065CF4E0918003F0918103F3
:1006F000EE27F170EE57FC4F80818093C600809109
:1007000080039091810301969093810380938003ED
:10071000FF91EF919F918F910F900FBE0F901F90BF
:1007200018951F920F920FB60F9211242F933F939B
:100730004F935F936F937F938F939F93AF93BF93E9
:10074000EF93FF9380917C0290917D022091C600EF
:10075000FC01EE27F170E258FD4F20830196909343
:100760007D0280937C0280917A0290917B020196B7
:1007700090937B0280937A02E0917802F091790263
:10078000309709F00995FF91EF91BF91AF919F913B
:100790008F917F916F915F914F913F912F910F902A
:1007A0000FBE0F901F9018954F925F926F927F929D
:1007B0008F929F92AF92BF92CF92DF92EF92FF9271
:1007C0000F931F93CF93DF9300D000D0CDB7DEB748
:1007D00080E09DE8ACE8BAE78093860490938704B4
:1007E000A0938804B093890481E090E09C838B837C
:1007F0001A82198289809A80AB80BC809401A501FD
:1008000060E070E080E090E000E10E944E08A12CE2
:10081000EDE8BE2EFCE8CF2EAAE7DA2EE12CF12C73
:1008200000E010E00E94F1072093820430938304DB
:10083000409384045093850480E091E09C838B83F3
:1008400089809A80AB80BC809401A50160E070E053
:1008500080E090E000E10E944E08A12CBDE8BB2E94
:100860000CE8C02EEAE7DE2EE12CF12C00E00E941D
:10087000F107B22FA32FF42FE52F2B013C019D018F
:10088000CF0130938A0420938B0490938C0480933F
:100890008D041CEC812E1CE0912EA12CB12C809299
:1008A0008E0490928F04A0929004B09291042B2F0A
:1008B0003A2FC30103E00E944E08AB2EBA2ECF2E72
:1008C000DE2E720183010E94850801E00E944E081D
:1008D000062D0E94850859016A017B01E82F192F16
:1008E00006E00E944E080E2F0E94850802E00E943A
:1008F0004E0800E10E946908C901DA018093920460
:1009000090939304A0939404B09395048FE0809304
:100910007E0082E880937A000E9453038091B100A8
:1009200081608093B1008091B1008D7F8093B10090
:100930008091B1008B7F8093B1008091B0008F7B5C
:100940008093B0008091B00080688093B000809167
:10095000B00081608093B0008091B0008D7F809363
:10096000B0008091B100877F8093B100789420918E
:100970008E0430918F0440919004509191046091C5
:100980008A0470918B0480918C0490918D040E9454
:10099000C4070E946908C901DA0180939204909308
:1009A0009304A0939404B0939504F8942091B30415
:1009B000309109014091B5048091B40490E0840F16
:1009C000911D830F911D3CE0239F800D911D1124EB
:1009D000883591050CF0EAC0F8948091B304209119
:1009E0000901E091B504F0E09091B404E20FF11D2B
:1009F000E90FF11D9CE0899FE00DF11D1124EE0F20
:100A0000FF1FEE0FFF1FE65FFE4F80819181A281E5
:100A1000B3818093B9049093BA04A093BB04B093BC
:100A2000BC0478942091B6048091B7049091B804E6
:100A3000820F911D47E2489F9001499F300D11247C
:100A4000442737FD4095542FF8946091B904709174
:100A5000BA048091BB049091BC040E94A907BB27F3
:100A600097FDB095AB2F4091B9045091BA046091B5
:100A7000BB047091BC04840F951FA61FB71F809301
:100A8000B9049093BA04A093BB04B093BC047894C7
:100A900020919E04309105014091A00480919F0413
:100AA00090E0840F911D830F911D3CE0239F800DEA
:100AB000911D1124883591050CF087C0F894809120
:100AC0009E0420910501E091A004F0E090919F0424
:100AD000E20FF11DE90FF11D9CE0899FE00DF11D72
:100AE0001124EE0FFF1FEE0FFF1FE65FFE4F808108
:100AF0009181A281B3818093A4049093A504A093D3
:100B0000A604B093A70478942091A1048091A20434
:100B10009091A304820F911D47E2489F9001499F45
:100B2000300D1124442737FD4095542FF8946091DF
:100B3000A4047091A5048091A6049091A7040E943A
:100B4000A907BB2797FDB095AB2F4091A404509106
:100B5000A5046091A6047091A704840F951FA61F99
:100B6000B71F8093A4049093A504A093A604B09308
:100B7000A7047894239A809170008160809370001C
:100B800078940F900F900F900F90DF91CF911F915D
:100B90000F91FF90EF90DF90CF90BF90AF909F901C
:100BA0008F907F906F905F904F900895F89480E8B9
:100BB0009BE1A2E2B0E08093B9049093BA04A093C1
:100BC000BB04B093BC0478942DCFF89480E89BE1EB
:100BD000A2E2B0E08093A4049093A504A093A6049D
:100BE000B093A704789490CF0E94D40380E090E063
:100BF000843091058CF08091C4049091C504959542
:100C0000879595958795959587958093B20480E013
:100C100090E0843091057CF7209178003091790044
:100C2000FC01EE0FFF1FEC53FB4F318320838093B9
:100C30007C0020917A00206420937A0020917A0031
:100C400026FDFCCF20917A00206420937A00209129
:100C50007A0026FDFCCF0196CBCF1F920F920FB6E4
:100C60000F9211242F938F939F93EF93FF932091D3
:100C7000CC04E22FF0E08091780090917900EE0FA3
:100C8000FF1FEC53FB4F918380832F5F243078F05C
:100C90001092CC0420E020937C00FF91EF919F9173
:100CA0008F912F910F900FBE0F901F90189520934A
:100CB000CC04F1CF1F920F920FB60F9211249F9286
:100CC000AF92BF92CF92DF92EF92FF920F931F935A
:100CD0002F933F934F935F936F937F938F939F9344
:100CE000AF93BF93EF93FF93CF93DF9300D000D0E8
:100CF000CDB7DEB780910401882309F4D7C0809175
:100D00000001909101019C013595279580FD08C156
:100D100030930101209300018091B9049091BA04AD
:100D2000A091BB04B091BC044091BD045091BE049D
:100D30006091BF047091C004840F951FA61FB71F58
:100D40008093BD049093BE04A093BF04B093C004ED
:100D50009090C2049092C104A090C304A092C204D7
:100D6000B090BF04B092C30460910301E62FF0E09D
:100D7000EE0FFF1FE659FD4F4091B2044B0D01905D
:100D8000F081E02DE40FF11DE859FF4FE4914E2F63
:100D900050E05093B1044093B004E7FF03C04FEF1D
:100DA0004093B104653009F4B5C00091B0041091CE
:100DB000B104C090A404D090A504E090A604F090E3
:100DC000A7044091A8045091A9046091AA047091CD
:100DD000AB044C0D5D1D6E1D7F1D4093A804509308
:100DE000A9046093AA047093AB04409106014423C4
:100DF00019F0A91408F497C0A0910201A53009F4D4
:100E0000A3C080919D04E091AA04F0E0E80FF11DD9
:100E1000B0E0AA0FBB1FA659BD4F8D919C91E80F62
:100E2000F91FE859FF4F249130E030939C04209340
:100E30009B0427FF07C08FEF80939C0420919B04A5
:100E400030919C0440910801409FC001419F900D4A
:100E500011249093B1048093B00460910701629FC4
:100E6000A001639F500D112450939C0440939B0458
:100E7000209196042223D1F184279527AA2797FD54
:100E8000A095BA2F9058AF4FBF4F81302FEF9207E8
:100E9000A105B105C4F180E09FEFA0E0B0E0898337
:100EA0009A83AB83BC838A818093B3000F900F90A9
:100EB0000F900F90DF91CF91FF91EF91BF91AF9184
:100EC0009F918F917F916F915F914F913F912F9162
:100ED0001F910F91FF90EF90DF90CF90BF90AF9058
:100EE0009F900F900FBE0F901F901895AA2797FD07
:100EF000A095BA2F662757FD6095762F840F951F12
:100F0000A61FB71FBFCFB7FF1AC019821A821B8254
:100F10001C82C9CF3093B1042093B004890149CF1A
:100F200084EB3827F5CEAB1408F066CF8093A80485
:100F30009093A904A093AA04B093AB045DCF8983D6
:100F40009A83AB83BC83AFCF30939C0420939B04E4
:100F500070CFDB018F939F930E94B907BF91AF9130
:100F6000A29F800D911DA39F900DB29F900D112403
:100F700008950E948E08A59F900DB49F900DA49F88
:100F8000800D911D11240895E894DF93CF93FC0107
:100F9000DB010E948E087F936F93E9019A01AC01F7
:100FA000BF93AF933F932F93DF010E948E0826F4E7
:100FB0006C1B7D0B820B930B9E01EB01FC010E94CD
:100FC0009D08AF91BF912F913F910E949D08BE0156
:100FD000CF01F9012F913F91CF91DF91089568944E
:100FE00001C0E8948F929F92CF93DF930E94FD07F8
:100FF000DF91CF919F908F90089588249924F401D8
:10100000E401B0E49F93AA279A158B049C04ED0594
:10101000FE05CF05D007A10798F4AD2FDC2FCF2F09
:10102000FE2FE92D982C892E982F872F762F652F4C
:10103000542F432F322F2227B85031F7BF9127C0AA
:101040001B2EBF91BB27220F331F441F551F661F46
:10105000771F881F991F881C991CEE1FFF1FCC1F2C
:10106000DD1FAA1FBB1F8A149B04EC05FD05CE05DE
:10107000DF05A007B10748F08A189B08EC09FD09B5
:10108000CE09DF09A00BB10B21601A94E1F62EF412
:101090009401AF01BE01CD01000C08950F930830FB
:1010A00090F0982F872F762F652F542F432F322FB4
:1010B00022270850F4CF220F331F441F551F661FED
:1010C000771F881F991F0A95B2F70F91089597FB14
:1010D00010F8169400080F93083098F00850232F4A
:1010E000342F452F562F672F782F892F902DF4CF2F
:1010F0000594979587957795679557954795379573
:1011000027950A95AAF70F9108952A193B094C09CA
:101110005D096E097F09800B910B0895A29FB001B4
:10112000B39FC001A39F700D811D1124911DB29F1B
:10113000700D811D1124911D08950E948E08460F87
:10114000571FC81FD91F08F431960895F894FFCF90
:10115000E1AC0202012401807F245D390000C33C20
:101160000000634000003744000045480000924CF6
:1011700000001F510000F25500000E5B0000796076
:10118000000035660000496C0000BA7200008679E4
:101190000000C68000006E8800008A90000024993C
:1011A00000003EA20000E4AB00001CB60000F2C04C
:1011B00000006ACC000092D8000074E500000CF337
:1011C00000008C010100DC100100142101004832F4
:1011D00001007C440100C8570100386C0100E48123
:1011E0000100D498010024B10100E8CA010018E60A
:1011F000010018030200B821020028420200906496
:101200000200F888020090AF020070D80200C80304
:101210000300A831030048620300D095030030CCDE
:10122000030030060400704304005084040020C909
:101230000400F0110500205F0500E0B005009007F4
:1012400006005063060090C40600A02B07006098BB
:101250000700600C0800E0860800A0080900409222
:101260000900E0230A0040BE0A00C0610B00200F05
:101270000C00A0C60C0020890D0040570E00C030A5
:101280000F00C0181000C00D110040111200802482
:101290001300C0471400807C150080C31600401E58
:1012A0001800408D190040121B0080AE1C008061A8
:1012B0001E0080312000801B22000000000100027F
:0812C00000030004000000051A
:00000001FF
