S010000053796E74684C43442E737265632B
S11300000C9435030C945D030C945D030C945D0314
S11300100C945D030C945D030C945D030C945D03DC
S11300200C945D030C94D1060C945D030C945D0355
S11300300C945D030C945D030C945D030C945D03BC
S11300400C945D030C945D030C94AC030C945D035D
S11300500C947A030C9492060C945D030C945D0347
S11300600C945D030C945D03000000000101010287
S113007002030405050607090A0B0C0E0F101214DF
S11300801517191B1D1F212325272A2C2E31333622
S1130090383B3E404346494C4E5154575A5D606389
S11300A066696C6F7376797C7F8285888B8F929575
S11300B0989B9EA1A4A7AAADB0B2B5B8BBBEC0C35D
S11300C0C6C8CBCDD0D2D4D7D9DBDDDFE1E3E5E7B9
S11300D0E9EAECEEEFF0F2F3F4F5F7F8F9F9FAFBEC
S11300E0FCFCFDFDFDFEFEFEFEFEFEFEFDFDFDFC38
S11300F0FCFBFAF9F9F8F7F5F4F3F2F0EFEEECEAB9
S1130100E9E7E5E3E1DFDDDBD9D7D4D2D0CDCBC855
S1130110C6C3C0BEBBB8B5B2B0ADAAA7A4A19E9BCE
S11301209895928F8B8885827F7C7976736F6C69C2
S11301306663605D5A5754514E4C494643403E3BBA
S1130140383633312E2C2A272523211F1D1B19173E
S1130150151412100F0E0C0B0A09070605050403EB
S113016002020101010000008081838587898B8D53
S113017090929496989A9D9FA1A4A6A8AAADAFB177
S1130180B3B5B7B9BBBDBFC1C3C5C6C8CACCCED051
S1130190D2D5D7D9DCDEE0E3E5E8EAEDEFF1F4F619
S11301A0F8F9FBFCFDFEFFFFFFFFFEFEFDFBFAF886
S11301B0F7F5F3F0EEECE9E7E4E2DFDDDAD8D6D4E4
S11301C0D1CFCDCBC9C7C5C4C2C0BEBCBAB8B6B402
S11301D0B2B0AEABA9A7A5A2A09E9C999795939106
S11301E08E8C8A88868482807F7D7B797775737113
S11301F06E6C6A686663615F5D5A585654514F4D20
S11302004B49474543413F3D3B3A38363432302E23
S11302102B29272522201D1B181613110F0C0A0841
S1130220070504020101000000000102030406079F
S1130230090B0E101215171A1C1F212326282A2D0C
S11302402F31333537393A3C3E40424446484A4CD4
S11302504E50525557595B5E60626567696B6D6FAE
S1130260727476787A7C7E7F57575757575656550F
S1130270545351504E4D4B494745444241403F3EF3
S11302803D3D3D3D3D3D3D3D3D3D3D3D3C3C3B39A2
S113029038373533312F2E2C2A2927262525242497
S11302A024242525262627272727272726252322F2
S11302B0201E1C1A181614131110100F0F101112EF
S11302C0131517181A1C1D1E1E1F1E1D1C1A181587
S11302D0120F0C0806030100000103060B1118217C
S11302E02B3642505E6C7B8A99A7B5C2CFDAE3EC19
S11302F0F3F8FCFEFFFFFDFAF6F2EDE8E2DCD7D1FD
S1130300CCC8C4C1BEBCBAB9B9B9B9B9BABABBBB15
S1130310BBBBBABAB8B7B5B3B0ADABA8A5A29F9DE5
S11303209B99979694949393939393939393939382
S11303309291908F8E8C8A88868482807E7C7A7952
S1130340777675757474747373737373737372726D
S113035071706F6D6C6A68666462615F5D5C5B5A44
S11303605958585757575757A8A8A8A8A8A9A9AA89
S1130370ABACAEAFB1B2B4B6B8BABBBDBEBFC0C110
S1130380C2C2C2C2C2C2C2C2C2C2C2C2C3C3C4C641
S1130390C7C8CACCCED0D1D3D5D6D8D9DADADBDB2C
S11303A0DBDBDADAD9D9D8D8D8D8D8D8D9DADCDDB1
S11303B0DFE1E3E5E7E9EBECEEEFEFF0F0EFEEED94
S11303C0ECEAE8E7E5E3E2E1E1E0E1E2E3E5E7EADC
S11303D0EDF0F3F7F9FCFEFFFFFEFCF9F4EEE7DEC7
S11303E0D4C9BDAFA193847566584A3D30251C130A
S11303F00C07030100000205090D12171D23282E06
S113040033373B3E414345464646464645454444CC
S11304104444454547484A4C4F5254575A5D6062DC
S1130420646668696B6B6C6C6C6C6C6C6C6C6C6C1F
S11304306D6E6F7071737577797B7D7F818385862F
S113044088898A8A8B8B8B8C8C8C8C8C8C8C8D8DF4
S11304508E8F9092939597999B9D9EA0A2A3A4A5FD
S1130460A6A7A7A8A8A8A8A87F8D9AA7B4C0CBD5EB
S1130470DEE6EDF3F7FBFDFFFFFFFDFBF9F6F3F01E
S1130480EDEAE8E5E3E2E0E0E0E0E1E2E3E5E7E924
S1130490EBEDEFF0F2F3F4F4F4F4F3F3F1F0EEED4A
S11304A0EBE9E8E6E5E4E3E3E3E3E4E4E6E7E8EAEA
S11304B0ECEEEFF1F2F3F4F4F4F4F3F2F1EFEEEC2A
S11304C0EAE8E6E4E2E1E0E0E0E0E1E2E4E6E9ECE7
S11304D0EFF2F5F8FAFCFEFFFFFEFCF9F5F0EAE2B4
S11304E0D9D0C5BAAEA19486796B5E51453A2F2610
S11304F01D150F0A0603010000010305070A0D106C
S11305001316191B1D1E1F1F1F1F1E1D1B19171538
S11305101311100E0D0C0B0B0B0B0C0D0E101113F5
S1130520151718191B1B1C1C1C1C1B1A1917161435
S113053012110F0E0C0C0B0B0B0B0C0D0F101214D5
S113054016181A1C1D1E1F1F1F1F1D1C1A171512FB
S11305500F0C090604020000000204080C12192101
S11305602A343F4B5865727F0000000000000000F1
S11305700000000000000000000000000000000077
S11305800000000000000000000000000000000067
S11305900000000000000000000000000000000057
S11305A00000000000000000000000000000000047
S11305B00000000000000000000000000000000037
S11305C00000000000000000000000000000000027
S11305D00000000000000000000000000000000017
S11305E00000000000000000000000000000000007
S11305F000000000000000000000000000000000F7
S113060000000000000000000000000000000000E6
S113061000000000000000000000000000000000D6
S113062000000000000000000000000000000000C6
S113063000000000000000000000000000000000B6
S113064000000000000000000000000000000000A6
S11306500000000000000000000000000000000096
S11306600000000000000000470811241FBECFEF67
S1130670D8E0DEBFCDBF12E0A0E0B1E0E4E5F3E1F5
S113068002C005900D92A43AB107D9F725E0A4EA77
S1130690B2E001C01D92A131B207E1F716E0CAE64B
S11306A0D6E004C02297FE010E949509C836D107FE
S11306B0C9F70E948B060C94A8090C9400001092B0
S11306C0C5008FE18093C40088ED8093C10086E06B
S11306D08093C2000895FC012081222351F03196B9
S11306E08091C00085FFFCCF2093C6002191211189
S11306F0F7CF08951F920F920FB60F9211248F9384
S11307009F93EF93FF938091AA039091AB0301977A
S11307109093AB038093AA03181619065CF4E09136
S1130720AC03F091AD03EE27F170E255FC4F8081EC
S11307308093C6008091AC039091AD030196909391
S1130740AD038093AC03FF91EF919F918F910F9034
S11307500FBE0F901F9018951F920F920FB60F9215
S113076011242F933F934F935F936F937F938F93B2
S11307709F93AF93BF93EF93FF938091A8029091BF
S1130780A9022091C600FC01EE27F170E655FD4F49
S1130790208301969093A9028093A8028091A602D7
S11307A09091A70201969093A7028093A602E091EC
S11307B0A402F091A502309709F00995FF91EF91F9
S11307C0BF91AF919F918F917F916F915F914F9165
S11307D03F912F910F900FBE0F901F9018952F925D
S11307E03F924F925F926F927F928F929F92AF92BD
S11307F0BF92CF92DF92EF92FF920F931F93CF930A
S1130800DF9300D000D0CDB7DEB780E09DE8ACE840
S1130810BAE78093B3049093B404A093B504B0935F
S1130820B60481E090E09C838B831A8219828980CC
S11308309A80AB80BC809401A50160E070E080E008
S113084090E000E10E944A09A12CEDE8BE2EFCE8EC
S1130850CF2EAAE7DA2EE12CF12C00E010E00E9462
S1130860ED082093AF043093B0044093B104509347
S1130870B20480E091E09C838B8389809A80AB8072
S1130880BC809401A50160E070E080E090E000E1AC
S11308900E944A09A12CBDE8BB2E0CE8C02EEAE751
S11308A0DE2EE12CF12C00E00E94ED0839014A0112
S11308B01B012C01322F3093B7047092B80480923C
S11308C0B9049092BA0480E793E09093070580936B
S11308D00605109205051092040500910405109177
S11308E0050520910605309107055801690100E0CE
S11308F010E09301A401B101C2010E94670800E164
S11309000E9465092093F4043093F5044093F6049F
S11309105093F70480E793E09093E5048093E40414
S11309201092E3041092E2040091E2041091E304B3
S11309302091E4043091E5045801690100E010E0DD
S11309409301A401B101C2010E94670800E10E9461
S113095065092093DA043093DB044093DC0450935C
S1130960DD0489E999E1A0E0B0E08093BE049093AE
S1130970BF04A093C004B093C1049301A401B101C6
S1130980C20103E00E944A0953016401710182011A
S11309900E948A0901E00E944A09042D0E948A09E2
S11309A059016A017B01E82F192F06E00E944A09C8
S11309B00E2F0E948A0903E00E944A095301640130
S11309C0710182010E94810900E10E94650920935E
S11309D0CA043093CB044093CC045093CD048FE0ED
S11309E080937E0082E880937A000E945F03809166
S11309F0B10081608093B1008091B1008D7F8093BC
S1130A00B1008091B1008B7F8093B1008091B000E0
S1130A108F7B8093B0008091B00080688093B00099
S1130A208091B00081608093B0008091B0008D7F90
S1130A308093B0008091B100877F8093B100239AA6
S1130A408CE091E00E946B03809170008160809340
S1130A5070007894F8942091BE043091BF044091C2
S1130A60C0045091C1046091B7047091B80480919E
S1130A70B9049091BA040E94C0080E9465092093A9
S1130A80CA043093CB044093CC045093CD0478949F
S1130A902091EE0430910B014091F0048091EF0419
S1130AA0992787FD9095840F911D47FD9A95830F93
S1130AB0911D3CE02302800D911D112497FD1CC162
S1130AC0883591050CF0EBC0F8948091EE042091E8
S1130AD00B01E091F004FF27E7FDF0959091EF04FE
S1130AE0E20FF11DE90FF11D97FDFA959CE08902D3
S1130AF0E00DF11D1124EE0FFF1FEE0FFF1FEA5C46
S1130B00FE4F80819181A281B3818093F4049093FC
S1130B10F504A093F604B093F70478942091F104BB
S1130B208091F2049091F304820F911D27FD9A9510
S1130B3047E2489F9001499F300D1124442737FD17
S1130B404095542FF894C090F404D090F504E090AC
S1130B50F604F090F704C701B6010E944C08BB27C5
S1130B6097FDB095AB2F8C0D9D1DAE1DBF1D8093C1
S1130B70F4049093F504A093F604B093F7047894E6
S1130B802091D604309106014091D8048091D70475
S1130B90992787FD9095840F911D47FD9A95830FA2
S1130BA0911D3CE02302800D911D112497FD95C0F9
S1130BB0883591050CF082C0F8948091D604209178
S1130BC00601E091D804FF27E7FDF0959091D70442
S1130BD0E20FF11DE90FF11D97FDFA959CE08902E2
S1130BE0E00DF11D1124EE0FFF1FEE0FFF1FEA5C55
S1130BF0FE4F80819181A281B3818093DA04909326
S1130C00DB04A093DC04B093DD0478942091D90430
S1130C108091090190910A01820F911D27FD9A95F7
S1130C2047E2489F9001499F300D1124442737FD26
S1130C304095542FF894C090DA04D090DB04E090EF
S1130C40DC04F090DD04C701B6010E944C08BB2708
S1130C5097FDB095AB2F8C0D9D1DAE1DBF1D8093D0
S1130C60DA049093DB04A093DC04B093DD0478945D
S1130C700F900F900F900F90DF91CF911F910F91D4
S1130C80FF90EF90DF90CF90BF90AF909F908F90A8
S1130C907F906F905F904F903F902F900895F894BD
S1130CA080E89BE1A2E2B0E08093F4049093F50421
S1130CB0A093F604B093F704789430CFF89480E8C6
S1130CC09BE1A2E2B0E08093DA049093DB04A0936A
S1130CD0DC04B093DD04789499CFF8948DE599E31E
S1130CE0A0E0B0E08093DA049093DB04A093DC04EA
S1130CF0B093DD0478948ACFF8948DE599E3A0E06D
S1130D00B0E08093F4049093F504A093F604B093B8
S1130D10F704789403CF0E94EF0388E191E00E94E6
S1130D206B03FFCF1F920F920FB60F9211242F93D4
S1130D303F934F935F936F937F938F939F93AF935F
S1130D40BF93EF93FF9388E291E00E946B0320919D
S1130D501005E22FF0E08091780090917900EE0F79
S1130D60FF1FE85FFA4F918380832F5F2430B0F038
S1130D701092100520E020937C00FF91EF91BF9129
S1130D80AF919F918F917F916F915F914F913F911F
S1130D902F910F900FBE0F901F9018952093100560
S1130DA0EACF1F920F920FB60F921124CF92DF92C7
S1130DB0EF92FF922F933F934F935F936F937F93A1
S1130DC08F939F93AF93BF93EF93FF93CF93DF934F
S1130DD000D000D0CDB7DEB780910501882309F497
S1130DE01BC18091FC049091FD04A091FE04B0917C
S1130DF0FF048093F8049093F904A093FA04B09349
S1130E00FB04409100055091010560910205709129
S1130E1003054093FC045093FD046093FE04709317
S1130E20FF048091F4049091F504A091F604B0912C
S1130E30F704840F951FA61FB71F80930005909396
S1130E400105A0930205B09303054091DE0450917F
S1130E50DF046091E0047091E104C090DA04D09062
S1130E60DB04E090DC04F090DD044C0D5D1D6E1D90
S1130E707F1D4093DE045093DF046093E00470937D
S1130E80E10440910001509101019A0136952795A2
S1130E9040FDEEC030930101209300014091E8042D
S1130EA05091E9045093E7044093E6044091EA0426
S1130EB05091EB045093E9044093E80450910301EA
S1130EC0609102054091ED04460FE52FF0E0EE0F2E
S1130ED0FF1FEA56FD4F0190F081E02DE40FF11D54
S1130EE0E859FF4FE491553009F4BCC04E2F50E04F
S1130EF05093EB044093EA0470910701772339F08F
S1130F007091FE04E091FA047E1708F4B4C0A09135
S1130F100201A530B1F08091D504E091E004F0E045
S1130F20E80FF11D87FDFA95B0E0AA0FBB1FAA5682
S1130F30BD4F8D919C91E80FF91FE859FF4F249103
S1130F4030E08091C6049091C704A091C804B09188
S1130F50C904C090CA04D090CB04E090CC04F090B3
S1130F60CD048C0D9D1DAE1DBF1D8093C6049093B2
S1130F70C704A093C804B093C9046091C4047091D9
S1130F80C5047093C3046093C204E091BD04F0E00F
S1130F90EE0FFF1FEA56FD4F8091C8040190F081C7
S1130FA0E02DE80FF11DE859FF4FE491F0E0E0581F
S1130FB0F109F093C504E093C404A091EC04A49F48
S1130FC0C001A59F900D11249093EB048093EA0433
S1130FD0A0910801A29FA001A39F500D112450933A
S1130FE0D4044093D3042091CE04222381F1842796
S1130FF09527A0E0B0E089839A83AB83BC836E1706
S11310007F0739F0E091BB04F091BC04309709F0FC
S113101009958A818093B3000F900F900F900F90E1
S1131020DF91CF91FF91EF91BF91AF919F918F91FC
S11310307F916F915F914F913F912F91FF90EF902E
S1131040DF90CF900F900FBE0F901F901895A0E0E7
S1131050B0E0840F951FA11DB11D89839A83AB83D2
S1131060BC83CDCF3093EB042093EA04A90144CF91
S113107044EB34270FCF761708F049CF8093DE0472
S11310809093DF04A093E004B093E10440CF8091F7
S113109004018093AE040895DB018F939F930E9413
S11310A05C08BF91AF91A29F800D911DA39F900DED
S11310B0B29F900D112408950E949909A59F900D47
S11310C0B49F900DA49F800D911D11240895DF936A
S11310D0CF931F930F939A9DF02D219FF00D8B9D1D
S11310E0F00D8A9DE02DF10D039FF00D029FE00DA0
S11310F0F11D4E9DE00DF11D5E9DF00D4F9DF00D17
S11311007F936F93BF92AF925F934F93D5010E94E9
S113111099098B01AC01D7010E949909EB01E80FF1
S1131120F91FD6010E94B7082F913F91D6010E9462
S11311309909C60FD71FE81FF91FAF91BF910E94ED
S1131140B7082F913F910E949909C60FD71FE81F36
S1131150F91FD6010E949909E60FF71F9801BE01F5
S1131160CF0111240F911F91CF91DF9108950E9417
S11311709909460F571FC81FD91F08F431960895BF
S1131180E894DF93CF93FC01DB010E9499097F93DC
S11311906F93E9019A01AC01BF93AF933F932F93EF
S11311A0DF010E94990926F46C1B7D0B820B930BC3
S11311B09E01EB01FC010E94B708AF91BF912F91F2
S11311C03F910E94B708BE01CF01F9012F913F91D1
S11311D0CF91DF910895689401C0E8948F929F9213
S11311E0CF93DF930E94F908DF91CF919F908F9066
S11311F0089588249924F401E401B0E49F93AA2774
S11312009A158B049C04ED05FE05CF05D007A107B4
S113121098F4AD2FDC2FCF2FFE2FE92D982C892E9B
S1131220982F872F762F652F542F432F322F222765
S1131230B85031F7BF9127C01B2EBF91BB27220F97
S1131240331F441F551F661F771F881F991F881C53
S1131250991CEE1FFF1FCC1FDD1FAA1FBB1F8A1482
S11312609B04EC05FD05CE05DF05A007B10748F09A
S11312708A189B08EC09FD09CE09DF09A00BB10B04
S113128021601A94E1F62EF49401AF01BE01CD0160
S1131290000C08950F93083090F0982F872F762F25
S11312A0652F542F432F322F22270850F4CF220FBB
S11312B0331F441F551F661F771F881F991F0A95E8
S11312C0B2F70F91089597FB10F8169400080F9346
S11312D0083098F00850232F342F452F562F672FAE
S11312E0782F892F902DF4CF05949795879577952E
S11312F0679557954795379527950A95AAF70F91BE
S113130008952A0D3B1D4C1D5D1D6E1D7F1D801F04
S1131310911F08952A193B094C095D096E097F093B
S1131320800B910B0895EE0FFF1F0590F491E02DB3
S11313300994A29FB001B39FC001A39F700D811DAA
S11313401124911DB29F700D811D1124911D0895CA
S1071350F894FFCF3B
S1131354E1AC03020A013001800A00304144432015
S113136453657475700D0A0048454C4C4F20574F13
S1131374524C440D0A0D0A004144432055706461E3
S11313847465640D0A005D390000C33C00006340C9
S113139400003744000045480000924C00001F51EF
S11313A40000F25500000E5B000079600000356611
S11313B40000496C0000BA72000086790000C680FF
S11313C400006E8800008A900000249900003EA268
S11313D40000E4AB00001CB60000F2C000006ACCBC
S11313E4000092D8000074E500000CF300008C01A6
S11313F40100DC10010014210100483201007C4486
S11314040100C8570100386C0100E4810100D4983C
S1131414010024B10100E8CA010018E60100180320
S11314240200B82102002842020090640200F888F5
S1131434020090AF020070D80200C8030300A83170
S1131444030048620300D095030030CC0300300647
S11314540400704304005084040020C90400F01103
S11314640500205F0500E0B0050090070600506306
S1131474060090C40600A02B070060980700600CC7
S11314840800E0860800A008090040920900E0234F
S11314940A0040BE0A00C0610B00200F0C00A0C665
S11314A40C0020890D0040570E00C0300F00C018F6
S11314B41000C00D11004011120080241300C04715
S11314C41400807C150080C31600401E1800408D53
S11314D4190040121B0080AE1C0080611E00803184
S11314E42000801B2200000000010002000300040D
S10714F400000005EB
S9030000FC
