S010000053796E74684C43442E737265632B
S11300000C9480030C949D030C949D030C949D0309
S11300100C949D030C949D030C949D030C949D03DC
S11300200C949D030C944E220C949D030C949D03FC
S11300300C949D030C949D030C949D030C949D03BC
S11300400C949D030C949D030C94E8200C949D0344
S11300500C949D030C9417220C949D030C949D0303
S11300600C949D030C949D03000000000101010207
S113007002030405050607090A0B0C0E0F101214DF
S11300801517191B1D1F212325272A2C2E31333622
S1130090383B3E404346494C4E5154575A5D606389
S11300A066696C6F7376797C7F8285888B8F929575
S11300B0989B9EA1A4A7AAADB0B2B5B8BBBEC0C35D
S11300C0C6C8CBCDD0D2D4D7D9DBDDDFE1E3E5E7B9
S11300D0E9EAECEEEFF0F2F3F4F5F7F8F9F9FAFBEC
S11300E0FCFCFDFDFDFEFEFEFEFEFEFEFDFDFDFC38
S11300F0FCFBFAF9F9F8F7F5F4F3F2F0EFEEECEAB9
S1130100E9E7E5E3E1DFDDDBD9D7D4D2D0CDCBC855
S1130110C6C3C0BEBBB8B5B2B0ADAAA7A4A19E9BCE
S11301209895928F8B8885827F7C7976736F6C69C2
S11301306663605D5A5754514E4C494643403E3BBA
S1130140383633312E2C2A272523211F1D1B19173E
S1130150151412100F0E0C0B0A09070605050403EB
S113016002020101010000008081838587898B8D53
S113017090929496989A9D9FA1A4A6A8AAADAFB177
S1130180B3B5B7B9BBBDBFC1C3C5C6C8CACCCED051
S1130190D2D5D7D9DCDEE0E3E5E8EAEDEFF1F4F619
S11301A0F8F9FBFCFDFEFFFFFFFFFEFEFDFBFAF886
S11301B0F7F5F3F0EEECE9E7E4E2DFDDDAD8D6D4E4
S11301C0D1CFCDCBC9C7C5C4C2C0BEBCBAB8B6B402
S11301D0B2B0AEABA9A7A5A2A09E9C999795939106
S11301E08E8C8A88868482807F7D7B797775737113
S11301F06E6C6A686663615F5D5A585654514F4D20
S11302004B49474543413F3D3B3A38363432302E23
S11302102B29272522201D1B181613110F0C0A0841
S1130220070504020101000000000102030406079F
S1130230090B0E101215171A1C1F212326282A2D0C
S11302402F31333537393A3C3E40424446484A4CD4
S11302504E50525557595B5E60626567696B6D6FAE
S1130260727476787A7C7E7F57575757575656550F
S1130270545351504E4D4B494745444241403F3EF3
S11302803D3D3D3D3D3D3D3D3D3D3D3D3C3C3B39A2
S113029038373533312F2E2C2A2927262525242497
S11302A024242525262627272727272726252322F2
S11302B0201E1C1A181614131110100F0F101112EF
S11302C0131517181A1C1D1E1E1F1E1D1C1A181587
S11302D0120F0C0806030100000103060B1118217C
S11302E02B3642505E6C7B8A99A7B5C2CFDAE3EC19
S11302F0F3F8FCFEFFFFFDFAF6F2EDE8E2DCD7D1FD
S1130300CCC8C4C1BEBCBAB9B9B9B9B9BABABBBB15
S1130310BBBBBABAB8B7B5B3B0ADABA8A5A29F9DE5
S11303209B99979694949393939393939393939382
S11303309291908F8E8C8A88868482807E7C7A7952
S1130340777675757474747373737373737372726D
S113035071706F6D6C6A68666462615F5D5C5B5A44
S11303605958585757575757A8A8A8A8A8A9A9AA89
S1130370ABACAEAFB1B2B4B6B8BABBBDBEBFC0C110
S1130380C2C2C2C2C2C2C2C2C2C2C2C2C3C3C4C641
S1130390C7C8CACCCED0D1D3D5D6D8D9DADADBDB2C
S11303A0DBDBDADAD9D9D8D8D8D8D8D8D9DADCDDB1
S11303B0DFE1E3E5E7E9EBECEEEFEFF0F0EFEEED94
S11303C0ECEAE8E7E5E3E2E1E1E0E1E2E3E5E7EADC
S11303D0EDF0F3F7F9FCFEFFFFFEFCF9F4EEE7DEC7
S11303E0D4C9BDAFA193847566584A3D30251C130A
S11303F00C07030100000205090D12171D23282E06
S113040033373B3E414345464646464645454444CC
S11304104444454547484A4C4F5254575A5D6062DC
S1130420646668696B6B6C6C6C6C6C6C6C6C6C6C1F
S11304306D6E6F7071737577797B7D7F818385862F
S113044088898A8A8B8B8B8C8C8C8C8C8C8C8D8DF4
S11304508E8F9092939597999B9D9EA0A2A3A4A5FD
S1130460A6A7A7A8A8A8A8A87F8D9AA7B4C0CBD5EB
S1130470DEE6EDF3F7FBFDFFFFFFFDFBF9F6F3F01E
S1130480EDEAE8E5E3E2E0E0E0E0E1E2E3E5E7E924
S1130490EBEDEFF0F2F3F4F4F4F4F3F3F1F0EEED4A
S11304A0EBE9E8E6E5E4E3E3E3E3E4E4E6E7E8EAEA
S11304B0ECEEEFF1F2F3F4F4F4F4F3F2F1EFEEEC2A
S11304C0EAE8E6E4E2E1E0E0E0E0E1E2E4E6E9ECE7
S11304D0EFF2F5F8FAFCFEFFFFFEFCF9F5F0EAE2B4
S11304E0D9D0C5BAAEA19486796B5E51453A2F2610
S11304F01D150F0A0603010000010305070A0D106C
S11305001316191B1D1E1F1F1F1F1E1D1B19171538
S11305101311100E0D0C0B0B0B0B0C0D0E101113F5
S1130520151718191B1B1C1C1C1C1B1A1917161435
S113053012110F0E0C0C0B0B0B0B0C0D0F101214D5
S113054016181A1C1D1E1F1F1F1F1D1C1A171512FB
S11305500F0C090604020000000204080C12192101
S11305602A343F4B5865727F0000000000000000F1
S11305700000000000000000000000000000000077
S11305800000000000000000000000000000000067
S11305900000000000000000000000000000000057
S11305A00000000000000000000000000000000047
S11305B00000000000000000000000000000000037
S11305C00000000000000000000000000000000027
S11305D00000000000000000000000000000000017
S11305E00000000000000000000000000000000007
S11305F000000000000000000000000000000000F7
S113060000000000000000000000000000000000E6
S113061000000000000000000000000000000000D6
S113062000000000000000000000000000000000C6
S113063000000000000000000000000000000000B6
S113064000000000000000000000000000000000A6
S11306500000000000000000000000000000000096
S11306600000000000000000D806D306CC06C50632
S1130670BE06B706B006A906A3069D0696068E0614
S1130680FA06F606F106EC06E806E206DD06462E54
S1130690204D4F4445004355544F4646005741565C
S11306A045320057415645310050484153453200C8
S11306B05048415345310053454D49533200534549
S11306C04D4953310043454E5453320043454E5433
S11306D05331004F534332004F53433100464C4192
S11306E054004E4F495345005351550052534157FE
S11306F0004C534157005452490053494E450000A1
S113070011241FBECFEFD8E0DEBFCDBF14E0A0E0C0
S1130710B1E0E4E4FFE402C005900D92A03FB1070C
S1130720D9F725E0A0EFB4E001C01D92A23AB207C8
S1130730E1F70E94ED0D0C94A0270C940000CF93D8
S1130740DF93CDB7DEB72D970FB6F894DEBF0FBE9B
S1130750CDBF9CE0FB01DE01119601900D929A95AC
S1130760E1F71D862D9844985C985D9A5C9A5C9894
S11307705D985C9A5C985D985C9A5C985D985C9ACC
S11307805C985D985C9A5C985D985C9A5C985D98BE
S11307905C9A5C985D985C9A5C98449A2D9844980D
S11307A080645C98282F30E0A901440F452F441F32
S11307B0550B452B09F0D6C05D985C9A5C9826FDD4
S11307C0CFC05D985C9A5C9825FDC8C05D985C9A22
S11307D05C9824FDC1C05D985C9A5C9823FDBAC006
S11307E05D985C9A5C9822FDB3C05D985C9A5C98B5
S11307F021FDACC05D985C9A5C9880FFA5C05D9AB1
S11308005C9A5C98449A8981882309F481C0DE014A
S113081012962D9A44985C985D985C9A5C985D98C1
S11308205C9A5C985D985C9A5C985D985C9A5C981C
S11308305D985C9A5C985D985C9A5C985D985C9A0B
S11308405C985D985C9A5C98449A992787FD90958A
S11308508097FC01EE0FFF1FEE0FFF1FE80FF91F3B
S1130860E05FFC4F35E021912D9A44985C98822FEB
S113087090E0880F892F881F990B892B09F05DC0A0
S11308805D985C9A5C9826FD5DC05D985C9A5C9866
S113089025FD51C05D985C9A5C9824FD4AC05D9822
S11308A05C9A5C9823FD43C05D985C9A5C9822FD39
S11308B03CC05D985C9A5C9821FD35C05D985C9A5B
S11308C05C9820FD2EC05D985C9A5C98449A3150E7
S11308D051F62D9A44985C985D985C9A5C985D9862
S11308E05C9A5C985D985C9A5C985D985C9A5C985C
S11308F05D985C9A5C985D985C9A5C985D985C9A4B
S11309005C985D985C9A5C98449A8D91811181CF32
S11309102D960FB6F894DEBF0FBECDBFDF91CF91F9
S113092008955D9AD1CF5D9ACACF5D9AC3CF5D9A7F
S1130930BCCF5D9AB5CF5D9AAECF5D9A5C9A5C9858
S113094026FFA3CF5D9AA2CF5D985ACF5D9A53CF6D
S11309505D9A4CCF5D9A45CF5D9A3ECF5D9A37CF75
S11309605D9A30CF5D9A29CFEF92FF920F931F9338
S1130970CF93DF93CDB7DEB7E5970FB6F894DEBF1C
S11309800FBECDBF8DE0EBE0F1E0DE0155960190A6
S11309900D928A95E1F78CE0FE0175968E010F5F4A
S11309A01F4FD80101900D928A95E1F71D862D986D
S11309B044985C985D9A5C9A5C985D985C9A5C98A3
S11309C05D985C9A5C985D985C9A5C985D985C9A7A
S11309D05C985D985C9A5C985D985C9A5C985D986C
S11309E05C9A5C98449A2D9844985C985D985C9ABB
S11309F05C985D9A5C9A5C985D985C9A5C985D984A
S1130A005C9A5C985D985C9A5C985D985C9A5C983A
S1130A105D985C9A5C985D985C9A5C98449A89812C
S1130A20882309F482C0DE0112962D9A44985C98BA
S1130A305D985C9A5C985D985C9A5C985D985C9A09
S1130A405C985D985C9A5C985D985C9A5C985D98FB
S1130A505C9A5C985D985C9A5C985D985C9A5C98EA
S1130A60449A992787FD90958097FC01EE0FFF1F0C
S1130A70EE0FFF1FE80FF91FE05FFC4F30E02191FC
S1130A802D9A44985C98822F90E0880F892F881FB4
S1130A90990B892B09F060C45D985C9A5C9826FDDB
S1130AA060C45D985C9A5C9825FD54C45D985C9A1A
S1130AB05C9824FD4DC45D985C9A5C9823FD46C403
S1130AC05D985C9A5C9822FD3FC45D985C9A5C9842
S1130AD021FD38C45D985C9A5C9820FD2FC45D9814
S1130AE05C9A5C98449A3F5F353049F62D9A449855
S1130AF05C985D985C9A5C985D985C9A5C985D984B
S1130B005C9A5C985D985C9A5C985D985C9A5C9839
S1130B105D985C9A5C985D985C9A5C985D985C9A28
S1130B205C98449A8D91811180CF87E0E8E1F1E0EF
S1130B30D80101900D928A95E1F7E0910301F0E06C
S1130B40EE0FFF1FE058F94F659174918E010F5F0E
S1130B501F4FC8010E94C424D8010D900020E9F75A
S1130B60119788E0E2E4F1E001900D928A95E1F7B3
S1130B708CE0F801DE01999601900D928A95E1F7D7
S1130B801DAA2D9844985C985D9A5C9A5C985D982F
S1130B905C9A5C985D985C9A5C985D985C9A5C98A9
S1130BA05D985C9A5C985D985C9A5C985D985C9A98
S1130BB05C985D985C9A5C98449A2D9844985C98EB
S1130BC05D985C9A5C985D9A5C9A5C985D985C9A76
S1130BD05C985D985C9A5C985D985C9A5C985D986A
S1130BE05C9A5C985D9A5C9A5C985D985C9A5C9857
S1130BF0449A89A5882309F481C0DE019A962D9A26
S1130C0044985C985D985C9A5C985D985C9A5C9852
S1130C105D985C9A5C985D985C9A5C985D985C9A27
S1130C205C985D985C9A5C985D985C9A5C985D9819
S1130C305C9A5C98449A992787FD90958097FC016B
S1130C40EE0FFF1FEE0FFF1FE80FF91FE05FFC4FD1
S1130C5035E021912D9A44985C98822F90E0880F7A
S1130C60892F881F990B892B09F06AC35D985C9AB8
S1130C705C9826FD61C35D985C9A5C9825FD5AC317
S1130C805D985C9A5C9824FD53C35D985C9A5C986B
S1130C9023FD4CC35D985C9A5C9822FD45C35D9826
S1130CA05C9A5C9821FD3EC35D985C9A5C9820FD3B
S1130CB037C35D985C9A5C98449A315051F62D9AEA
S1130CC044985C985D985C9A5C985D985C9A5C9892
S1130CD05D985C9A5C985D985C9A5C985D985C9A67
S1130CE05C985D985C9A5C985D985C9A5C985D9859
S1130CF05C9A5C98449A8D91811181CF88E0EFE1F0
S1130D00F1E0D80101900D928A95E1F720917C05DC
S1130D10822F992787FD90959F932F9388E091E0E8
S1130D209F938F937E0188E0E80EF11CFF92EF926F
S1130D300E94CF24D8010D900020E9F7119788E094
S1130D40E2E4F1E001900D928A95E1F78CE0F8017C
S1130D50DE01999601900D928A95E1F71DAA2D98CE
S1130D6044985C985D9A5C9A5C985D985C9A5C98EF
S1130D705D985C9A5C985D985C9A5C985D985C9AC6
S1130D805C985D985C9A5C985D985C9A5C985D98B8
S1130D905C9A5C98449A2D9844985C985D985C9A07
S1130DA05C985D9A5C9A5C985D985C9A5C985D9896
S1130DB05C9A5C985D985C9A5C985D9A5C9A5C9885
S1130DC05D985C9A5C985D985C9A5C98449A89A555
S1130DD00F900F900F900F900F900F90882309F4AD
S1130DE082C0DE019A962D9A44985C985D985C9A2C
S1130DF05C985D985C9A5C985D985C9A5C985D9848
S1130E005C9A5C985D985C9A5C985D985C9A5C9836
S1130E105D985C9A5C985D985C9A5C98449A992772
S1130E2087FD90958097FC01EE0FFF1FEE0FFF1FCB
S1130E30E80FF91FE05FFC4F30E021912D9A4498B0
S1130E405C98822F90E0880F892F881F990B892B3B
S1130E5009F05AC25D985C9A5C9826FD5AC25D9866
S1130E605C9A5C9825FD5AC25D985C9A5C9824FD56
S1130E7049C25D985C9A5C9823FD42C25D985C9A75
S1130E805C9822FD3BC25D985C9A5C9821FD34C25B
S1130E905D985C9A5C9820FD29C25D985C9A5C9888
S1130EA0449A3F5F353049F62D9A44985C985D9892
S1130EB05C9A5C985D985C9A5C985D985C9A5C9886
S1130EC05D985C9A5C985D985C9A5C985D985C9A75
S1130ED05C985D985C9A5C985D985C9A5C98449A7E
S1130EE08D91811180CF88E0E7E2F1E0D801019093
S1130EF00D928A95E1F720917B05822F992787FD32
S1130F0090959F932F9388E091E09F938F93FF9206
S1130F10EF920E94CF24D8010D900020E9F7119799
S1130F2088E0E2E4F1E001900D928A95E1F78CE02B
S1130F30F801DE01999601900D928A95E1F71DAAB8
S1130F402D9844985C985D9A5C9A5C985D985C9A3C
S1130F505C985D985C9A5C985D985C9A5C985D98E6
S1130F605C9A5C985D985C9A5C985D985C9A5C98D5
S1130F705D985C9A5C98449A2D9844985C985D9826
S1130F805C9A5C985D9A5C9A5C985D985C9A5C98B3
S1130F905D985C9A5C985D985C9A5C985D985C9AA4
S1130FA05C985D9A5C9A5C985D9A5C9A5C98449AA9
S1130FB089A50F900F900F900F900F900F9088239A
S1130FC009F482C0DE019A962D9A44985C985D9843
S1130FD05C9A5C985D985C9A5C985D985C9A5C9865
S1130FE05D985C9A5C985D985C9A5C985D985C9A54
S1130FF05C985D985C9A5C985D985C9A5C98449A5D
S1131000992787FD90958097FC01EE0FFF1FEE0F47
S1131010FF1FE80FF91FE05FFC4F90E081912D9ACC
S113102044985C98282F30E0220F232F221F330B83
S1131030232B09F05FC15D985C9A5C9886FD58C1CA
S11310405D985C9A5C9885FD4FC15D985C9A5C984C
S113105084FD48C15D985C9A5C9883FD41C15D98AC
S11310605C9A5C9882FD3AC15D985C9A5C9881FDBB
S113107033C15D985C9A5C9880FD2CC15D985C9A44
S11310805C98449A9F5F953049F62D9A44985C98F1
S11310905D985C9A5C985D985C9A5C985D985C9AA3
S11310A05C985D985C9A5C985D985C9A5C985D9895
S11310B05C9A5C985D985C9A5C985D985C9A5C9884
S11310C0449A8D91811180CF87E0EFE2F1E0D8015D
S11310D001900D928A95E1F780917305811143C1C6
S11310E04FE456E466E470E04F83588769877A8753
S11310F0D8010D900020E9F7119788E0E2E4F1E0CF
S113110001900D928A95E1F78CE0F801DE01999641
S113111001900D928A95E1F71DAA2D9844985C9848
S11311205D9A5C9A5C985D985C9A5C985D985C9A10
S11311305C985D985C9A5C985D985C9A5C985D9804
S11311405C9A5C985D985C9A5C985D985C9A5C98F3
S1131150449A2D9844985C985D985C9A5C985D9A42
S11311605C9A5C985D985C9A5C985D985C9A5C98D3
S11311705D985C9A5C985D9A5C9A5C985D985C9AC0
S11311805C985D9A5C9A5C98449A89A5882309F4D2
S113119081C0DE019A962D9A44985C985D985C9A79
S11311A05C985D985C9A5C985D985C9A5C985D9894
S11311B05C9A5C985D985C9A5C985D985C9A5C9883
S11311C05D985C9A5C985D985C9A5C98449A9927BF
S11311D087FD90958097FC01EE0FFF1FEE0FFF1F18
S11311E0E80FF91FE05FFC4F35E021912D9A4498F8
S11311F05C98822F90E0880F892F881F990B892B88
S113120009F061C05D985C9A5C9826FD61C05D98A8
S11312105C9A5C9825FD55C05D985C9A5C9824FDA9
S11312204EC05D985C9A5C9823FD47C05D985C9ABB
S11312305C9822FD40C05D985C9A5C9821FD39C0A1
S11312405D985C9A5C9820FD32C05D985C9A5C98CD
S1131250449A315051F62D9A44985C985D985C9A62
S11312605C985D985C9A5C985D985C9A5C985D98D3
S11312705C9A5C985D985C9A5C985D985C9A5C98C2
S11312805D985C9A5C985D985C9A5C98449A8D91A0
S1131290811181CFE5960FB6F894DEBF0FBECDBFA6
S11312A0DF91CF911F910F91FF90EF9008955D9A78
S11312B0CDCF5D9AC6CF5D9ABFCF5D9AB8CF5D9A08
S11312C0B1CF5D9AAACF5D9A5C9A5C9826FF9FCFB6
S11312D05D9A9ECF5D9AD3CE5D9ACCCE5D9AC5CEF3
S11312E05D9ABECE5D9AB7CE5D9AB0CE5D9AD6CDEC
S11312F05D9AA7CE5D9AA0CE5D9ACBCD5D9AC4CD02
S11313005D9ABDCD5D9AB6CD5D9A5C9A5C9826FFD8
S1131310A6CD5D9A5C9A5C9825FFA6CD5D9AA5CD75
S11313205D9AC8CC5D9AC1CC5D9ABACC5D9AB3CCB7
S11313305D9AACCC5D9AA5CC5D9A9ECC5D9AD0CBDF
S11313405D9A95CC5D9AC7CB5D9AC0CB5D9AB9CBBB
S11313505D9AB2CB5D9AABCB5D9A5C9A5C9826FFA2
S1131360A0CB5D9A9FCB2FE43EE440E02F833887E7
S11313704987BECE0F931F93CF93DF93CDB7DEB7CC
S1131380A1970FB6F894DEBF0FBECDBF87E0E6E3AA
S1131390F1E0DE01119601900D928A95E1F7E0915A
S11313A05B05F0E0EE0FFF1FE859F94F659174916A
S11313B08E010F5F1F4FC8010E94C424D8010D90F5
S11313C00020E9F7119785E0E5E4F1E001900D9242
S11313D08A95E1F78CE0F801DE01559601900D92B3
S11313E08A95E1F719A22D9844985C985D9A5C9AC5
S11313F05C985D985C9A5C985D985C9A5C985D9842
S11314005C9A5C985D985C9A5C985D985C9A5C9830
S11314105D985C9A5C985D985C9A5C98449A2D9867
S113142044985C985D985C9A5C985D9A5C9A5C9828
S11314305D985C9A5C985D985C9A5C985D985C9AFF
S11314405C985D9A5C9A5C985D985C9A5C985D9AED
S11314505C9A5C98449A8D89882309F481C0DE01E2
S113146056962D9A44985C985D985C9A5C985D9821
S11314705C9A5C985D985C9A5C985D985C9A5C98C0
S11314805D985C9A5C985D985C9A5C985D985C9AAF
S11314905C985D985C9A5C98449A992787FD90952E
S11314A08097FC01EE0FFF1FEE0FFF1FE80FF91FDF
S11314B0E05FFC4F35E021912D9A44985C98822F8F
S11314C090E0880F892F881F990B892B09F05FC042
S11314D05D985C9A5C9826FD5FC05D985C9A5C9808
S11314E025FD53C05D985C9A5C9824FD4CC05D98C2
S11314F05C9A5C9823FD45C05D985C9A5C9822FDDB
S11315003EC05D985C9A5C9821FD37C05D985C9AFA
S11315105C9820FD30C05D985C9A5C98449A315088
S113152051F62D9A44985C985D985C9A5C985D9805
S11315305C9A5C985D985C9A5C985D985C9A5C98FF
S11315405D985C9A5C985D985C9A5C985D985C9AEE
S11315505C985D985C9A5C98449A8D91811181CFD6
S1131560A1960FB6F894DEBF0FBECDBFDF91CF9129
S11315701F910F9108955D9ACFCF5D9AC8CF5D9A60
S1131580C1CF5D9ABACF5D9AB3CF5D9AACCF5D9A65
S11315905C9A5C9826FFA1CF5D9AA0CF3C9A3D9AB5
S11315A0259A559A549A4598459A2D9844985C984A
S11315B05D985C9A5C985D985C9A5C985D9A5C9A7C
S11315C05C985D985C9A5C985D985C9A5C985D9870
S11315D05C9A5C985D985C9A5C985D9A5C9A5C985D
S11315E0449A2D9844985C985D9A5C9A5C985D98AE
S11315F05C9A5C985D9A5C9A5C985D9A5C9A5C983B
S11316005D985C9A5C985D985C9A5C985D985C9A2D
S11316105C985D985C9A5C98449A2D9844985C9880
S11316205D985C9A5C985D985C9A5C985D985C9A0D
S11316305C985D985C9A5C985D985C9A5C985D9AFD
S11316405C9A5C985D985C9A5C985D985C9A5C98EE
S1131650449A2D9844985C985D985C9A5C985D983F
S11316605C9A5C985D985C9A5C985D9A5C9A5C98CC
S11316705D985C9A5C985D9A5C9A5C985D985C9ABB
S11316805C985D985C9A5C98449A2D9844985C9810
S11316905D985C9A5C985D985C9A5C985D9A5C9A9B
S11316A05C985D985C9A5C985D985C9A5C985D988F
S11316B05C9A5C985D985C9A5C985D985C9A5C987E
S11316C0449A2D9844985C985D985C9A5C985D98CF
S11316D05C9A5C985D985C9A5C985D985C9A5C985E
S11316E05D9A5C9A5C985D9A5C9A5C985D985C9A49
S11316F05C985D985C9A5C98449A08952F923F9206
S11317004F925F926F927F928F929F92AF92BF920D
S1131710CF92DF92EF92FF920F931F93CF93DF93B9
S1131720CDB7DEB72F970FB6F894DEBF0FBECDBF8F
S113173080E090E8ACE8BAE7809308059093090547
S1131740A0930A05B0930B0581E090E09C838B8302
S11317501A82198289809A80AB80BC809401A50189
S113176060E070E080E090E000E10E946C24A12C35
S1131770E0E8BE2EFCE8CF2EAAE7DA2EE12CF12C0D
S113178000E010E00E940F24209304053093050527
S1131790409306055093070580E091E09C838B837A
S11317A089809A80AB80BC809401A50160E070E0E0
S11317B080E090E000E10E946C24A12CB0E8BB2EF4
S11317C00CE8C02EEAE7DE2EE12CF12C00E00E94AA
S11317D00F2439014A011B012C01322F30930C05CF
S11317E070920D0580920E0590920F0588EB91E0A2
S11317F09093900580938F0510928E0510928D051D
S113180000918D0510918E0520918F0530919005E2
S11318105801690100E010E09301A401B101C20183
S11318200E94892300E10E948724C901DA01809380
S11318307D0590937E05A0937F05B093800580E09D
S113184090E8A8EBB1E080936F0590937005A093A6
S11318507105B09372059301A401B101C20103E0C3
S11318600E946C2453016401710182010E94AC2422
S113187007E00E946C24042D0E94AC2406E00E9420
S11318806C24042D0E94AC2459016A017B01E82FC9
S1131890192F03E00E946C240E2F0E94AC2403E055
S11318A00E946C2453016401710182010E94AC24E2
S11318B02D833D874E875F87B62FA72FF82FE92FFB
S11318C07A2F8F2F9E2F03E00E946C2459016A0106
S11318D07B018C012D813D854E855F856B2F7A2F91
S11318E08F2F9E2F0E94A324530164017101820152
S11318F00E94A32400E10E948724C901DA01809395
S1131900670590936805A0936905B0936A050E94E2
S1131910CE0A88EF91E02D9A44985C985D985C9A81
S11319205C985D985C9A5C985D985C9A5C985D980C
S11319305C9A5C985D985C9A5C985D985C9A5C98FB
S11319405D985C9A5C985D985C9A5C98449A01975F
S1131950009709F72D9844985C985D9A5C9A5C9876
S11319605D985C9A5C985D985C9A5C985D985C9ACA
S11319705C985D985C9A5C985D985C9A5C985D98BC
S11319805C9A5C985D985C9A5C98449A2D9844980B
S11319905C985D985C9A5C985D9A5C9A5C985D989A
S11319A05C9A5C985D985C9A5C985D985C9A5C988B
S11319B05D985C9A5C985D985C9A5C985D985C9A7A
S11319C05C98449A8FE080937E008AE880937A0042
S11319D01092C5008FE18093C40088E98093C10010
S11319E086E08093C2008091B10081608093B10051
S11319F08091B1008D7F8093B1008091B1008B7F85
S1131A008093B1008091B0008F7B8093B00080916F
S1131A10B00080688093B0008091B00081608093B2
S1131A20B0008091B0008D7F8093B0008091B100B0
S1131A30877F8093B10056985E9A57985F9A209852
S1131A40289A24982C9A22982A9A2198299A239A97
S1131A50809170008160809370007894809104017B
S1131A60E0917B05FF27E7FDF095E80FF11DEE0FF0
S1131A70FF1FEE0FFF1FEE55FE4FC080D180E280A6
S1131A80F3809091040180916405E0916505FF273E
S1131A90E7FDF095E90FF11D9CE08902E00DF11DD1
S1131AA01124EE0FFF1FEE0FFF1FEE55FE4F808037
S1131AB09180A280B38060917C05A7E26A02B001A4
S1131AC01124882777FD8095982FA70196010E94FD
S1131AD0E22300E10E9487242D833E834F835887AD
S1131AE08D819E81AF81B885C80ED91EEA1EFB1E6A
S1131AF0C0928D05D0928E05E0928F05F0929005EC
S1131B002091660597E2290290011124442737FDAC
S1131B104095542FC501B4010E94E2230E948724FA
S1131B202D833E834F83588769877A878B879C8769
S1131B308D819E81AF81B885880E991EAA1EBB1E19
S1131B4080926F0590927005A0927105B092720513
S1131B5040900C0550900D0560900E0570900F0597
S1131B60C701B601A30192010E94E2230E948724C7
S1131B70C901DA0180937D0590937E05A0937F05CA
S1131B80B0938005C501B401A30192010E94E22330
S1131B900E948724C901DA01809367059093680540
S1131BA0A0936905B0936A052F960FB6F894DEBF2B
S1131BB00FBECDBFDF91CF911F910F91FF90EF909A
S1131BC0DF90CF90BF90AF909F908F907F906F9059
S1131BD05F904F903F902F900895CF93DF93CDB7B0
S1131BE0DEB7C355D1090FB6F894DEBF0FBECDBF23
S1131BF00E947E0B0E94B40480E092E09093290539
S1131C008093280590932B0580932A0590932D05A6
S1131C1080932C0590932F0580932E051092100528
S1131C20109211051092120510921305909331052C
S1131C308093300590933305809332059093350556
S1131C4080933405909337058093360510921405DC
S1131C5010921505109216051092170590933905E8
S1131C608093380590933B0580933A0590933D0506
S1131C7080933C0590933F0580933E051092180590
S1131C801092190510921A0510921B0590934105A4
S1131C9080934005909343058093420590934505B6
S1131CA080934405909347058093460510921C0544
S1131CB010921D0510921E0510921F059093490560
S1131CC08093480590934B0580934A0590934D0566
S1131CD080934C0590934F0580934E0510922005F8
S1131CE0109221051092220510922305AE014B5E3D
S1131CF05F4F5FAF4EAFCE0101965C01DE011896D7
S1131D00BBAFAAAF4F5051095FAB4EAB069699AF2C
S1131D1088AF1296BDAFACAFBEAD6196BFAF619751
S1131D202FAD62962FAF6297A5E02A2E45011A2D9A
S1131D303B2C01E02DE03CE0F7E0FF2E8091F00425
S1131D408F5F8093F0048B3038F080917A00806448
S1131D5080937A001092F00499B1892F807496FDD3
S1131D60B4C59091FD049111C0C59091F7049923D5
S1131D7009F4BBC59091580591110C949A1C4F9984
S1131D80B8C59091FE049111BBC19091F8049923B8
S1131D9009F4B6C1813009F4B3C11092F20400937E
S1131DA058051092140510921505109216051092FC
S1131DB01705EAE4F1E06196AFAD61976296BFADB5
S1131DC06297822F01900D928A95E1F7BE016B5EB6
S1131DD07F4F80E063962FAF639764963FAF64971D
S1131DE00E949F03E8E1F1E0D5018F2D01900D924F
S1131DF08A95E1F7E0910201F0E0EE0FFF1FE05851
S1131E00F94F65917491A12EB32C812F932D0E94CB
S1131E10C424D4010D900020E9F7119788E0E2E48E
S1131E20F1E001900D928A95E1F7612F732D82E024
S1131E300E949F0388E0E7E2F1E0A12FB32D019017
S1131E400D928A95E1F740916505842F992787FDC6
S1131E5090959F934F93A8E0B1E0BF93AF935BAD90
S1131E605F938AAD8F930E94CF24D4010D900020FC
S1131E70E9F7119788E0E2E4F1E001900D928A9588
S1131E80E1F7612F732D83E00E949F0388E0EFE167
S1131E90F1E0A12FB32D01900D928A95E1F74091C5
S1131EA06605842F992787FD90959F934F93A8E00B
S1131EB0B1E0BF93AF935BAD5F938AAD8F930E9404
S1131EC0CF24D4010D900020E9F7119788E0E2E4D3
S1131ED0F1E001900D928A95E1F7E12FF32DDE01F7
S1131EE0999664963FAD6497832F01900D928A95DD
S1131EF0E1F71DAA2D9844985C985D9A5C9A5C98C9
S1131F005D985C9A5C985D985C9A5C985D985C9A24
S1131F105C985D985C9A5C985D985C9A5C985D9816
S1131F205C9A5C985D985C9A5C98449A2D98449865
S1131F305C985D985C9A5C985D9A5C9A5C985D98F4
S1131F405C9A5C985D985C9A5C985D985C9A5C98E5
S1131F505D9A5C9A5C985D985C9A5C985D985C9AD2
S1131F605C98449A49A50FB6F894DEBF0FBECDBF66
S1131F7063962FAD6397442309F482C0DE019A96D9
S1131F802D9A44985C985D985C9A5C985D985C9AEC
S1131F905C985D985C9A5C985D985C9A5C985D9896
S1131FA05C9A5C985D985C9A5C985D985C9A5C9885
S1131FB05D985C9A5C98449A842F992787FD909544
S1131FC08097FC01EE0FFF1FEE0FFF1FE80FF91FB4
S1131FD0E05FFC4F55E041912D9A44985C98842F22
S1131FE090E0880F892F881F990B892B09F046C42C
S1131FF05D985C9A5C9846FD2BC45D985C9A5C98ED
S113200045FD2BC45D985C9A5C9844FD2BC45D9897
S11320105C9A5C9843FD2BC45D985C9A5C9842FD85
S11320202BC45D985C9A5C9841FD10C45D985C9AE1
S11320305C9840FD09C45D985C9A5C98449A515040
S113204051F62D9A44985C985D985C9A5C985D98DA
S11320505C9A5C985D985C9A5C985D985C9A5C98D4
S11320605D985C9A5C985D985C9A5C985D985C9AC3
S11320705C985D985C9A5C98449A4D91411180CF2C
S113208086E0E7E5F1E0A12FB32D01900D928A954A
S1132090E1F740916405842F992787FD90959F93DC
S11320A04F93A8E0B1E0BF93AF935FA95F938EA96C
S11320B08F9363962FAF639764963FAF64970E94A4
S11320C0CF24D4010D900020E9F7119789E0E1E4D1
S11320D0F1E001900D928A95E1F7612F732D85E06F
S11320E00E949F03809158050F900F900F900F90BE
S11320F00F900F9063962FAD639764963FAD6497EE
S113210018990AC49091FF049111DCC09091F904CC
S1132110992309F4D7C0823009F4D4C01092F3048F
S113212082E08093580510921805109219051092B8
S11321301A0510921B05EDE5F1E06196AFAD6197CC
S11321406296BFAD6297822F01900D928A95E1F756
S1132150BE016B5E7F4F80E063962FAF63976496FA
S11321603FAF64970E949F03E8E1F1E0D5018F2D12
S113217001900D928A95E1F78091050190E0880F16
S1132180991F8058994FFC0165917491812F932D6B
S11321900E94C424D4010D900020E9F71197E5E4CE
S11321A0F1E0822D01900D928A95E1F7612F732D54
S11321B082E00E949F03EAE6F1E0A12FB32D8F2D68
S11321C001900D928A95E1F780915A051F928F93A1
S11321D0A8E0B1E0BF93AF9359AD5F9388AD8F93FF
S11321E00E94CF24D4010D900020E9F71197E5E473
S11321F0F1E0822D01900D928A95E1F7612F732D04
S113220083E00E949F03E1E7F1E0A12FB32D8F2D1E
S113221001900D928A95E1F7809159051F928F9351
S1132220A8E0B1E0BF93AF9359AD5F9388AD8F93AE
S11322300E94CF24D4010D900020E9F71197E5E422
S1132240F1E0822D01900D928A95E1F7612F732DB3
S113225084E00E949F03E6E3F1E0A12FB32D8F2DCC
S113226001900D928A95E1F780915B0590E0880FCB
S1132270991F8859994FFC0165917491A12EB32C33
S1132280812F932D0E94C424D4010D900020E9F7DE
S11322901197E5E4F1E0822D01900D928A95E1F722
S11322A0612F732D85E00E949F03809158050FB61E
S11322B0F894DEBF0FBECDBF63962FAD63976496CF
S11322C03FAD64971C993BC3909100059111BDC02B
S11322D09091FA04992309F4B8C0833009F4C1C079
S11322E01092F40483E08093580510921C05109218
S11322F01D0510921E0510921F05E8E7F1E0619696
S1132300AFAD61976296BFAD6297822F01900D9237
S11323108A95E1F7BE016B5E7F4F80E063962FAF35
S1132320639764963FAF64970E949F038AE0E5E851
S1132330F1E0D50101900D928A95E1F780910701B2
S11323401F928F93A8E0B1E0BF93AF935DAD5F930D
S11323508CAD8F930E94CF24D5010D900020E9F716
S11323601197E5E4F1E0822D01900D928A95E1F751
S1132370B50182E00E949F038AE0EFE8F1E0D50115
S113238001900D928A95E1F7809162051F928F93D7
S1132390A8E0B1E0BF93AF935DAD5F938CAD8F9335
S11323A00E94CF24D5010D900020E9F71197E5E4B0
S11323B0F1E0822D01900D928A95E1F7B50183E059
S11323C00E949F0389E0E9E9F1E0D50101900D92B3
S11323D08A95E1F7809106010FB6F894DEBF0FBE2F
S11323E0CDBF63962FAD639764963FAD649781111B
S11323F00C945B1E8FE496E4A6E4B0E089879A8788
S1132400AB87BC87D5010D900020E9F71197E5E46F
S1132410F1E0822D01900D928A95E1F7B50184E0F7
S113242063962FAF639764963FAF64970E949F03B0
S11324306DE371E085E00E949F03809158056396E7
S11324402FAD639764963FAD6497813009F48BC2D6
S1132450813008F422C6823009F4D3C4833009F0F1
S11324606DCC809195058823E1F080914005909191
S113247041052091990530919A05AC01475F5F4F62
S11324804217530774F08B30910514F40C94911E89
S11324900A97821793072CF481E080931C0510920D
S11324A09505809196058823E1F0809142059091ED
S11324B0430520919B0530919C05AC01475F5F4F1C
S11324C04217530774F08B30910514F40C94951E45
S11324D00A97821793072CF481E080931D051092CC
S11324E09605809197058823E1F0809144059091A9
S11324F0450520919D0530919E05AC01475F5F4FD6
S11325004217530774F08B30910514F40C948D1E0C
S11325100A97821793072CF481E080931E0510928A
S1132520970580919805882311F40C94351C20910B
S113253046053091470580919F059091A005A9011A
S1132540475F5F4F4817590714F40C94351C2B3020
S1132550310514F40C94541E2A50310928173907F4
S113256014F00C94351C21E020931F05109298055B
S11325709C0135952795359527954091070150E0A5
S11325802417350709F424C120930701422F4095ED
S11325904093620590934705809346058AE0E5E8F9
S11325A0F1E0D50101900D928A95E1F733273F932D
S11325B02F93A8E0B1E0BF93AF934DAD4F935CADC3
S11325C05F930E94CF24D5010D900020E9F7119765
S11325D0E5E4F1E0822D01900D928A95E1F78CE01B
S11325E0F501DE01559601900D928A95E1F719A245
S11325F02D9844985C985D9A5C9A5C985D985C9A76
S11326005C985D985C9A5C985D985C9A5C985D981F
S11326105C9A5C985D985C9A5C985D985C9A5C980E
S11326205D985C9A5C98449A2D9844985C985D985F
S11326305C9A5C985D9A5C9A5C985D985C9A5C98EC
S11326405D985C9A5C985D985C9A5C985D985C9ADD
S11326505C985D9A5C9A5C985D985C9A5C98449AE4
S11326608D890F900F900F900F900F900F908823EB
S113267009F482C0DE0156962D9A44985C985D98C0
S11326805C9A5C985D985C9A5C985D985C9A5C989E
S11326905D985C9A5C985D985C9A5C985D985C9A8D
S11326A05C985D985C9A5C985D985C9A5C98449A96
S11326B0992787FD90958097FC01EE0FFF1FEE0F81
S11326C0FF1FE80FF91FE05FFC4F30E021912D9AC6
S11326D044985C98822F90E0880F892F881F990B6B
S11326E0892B09F0CDC05D985C9A5C9826FDCDC01D
S11326F05D985C9A5C9825FDCDC05D985C9A5C9869
S113270024FDCDC05D985C9A5C9823FDCDC05D9896
S11327105C9A5C9822FDCDC05D985C9A5C9821FD22
S1132720CDC05D985C9A5C9820FDCDC05D985C9AA4
S11327305C98449A3F5F353049F62D9A44985C98EA
S11327405D985C9A5C985D985C9A5C985D985C9ADC
S11327505C985D985C9A5C985D985C9A5C985D98CE
S11327605C9A5C985D985C9A5C985D985C9A5C98BD
S1132770449A8D91811180CF8AE0EFE8F1E0D50190
S113278001900D928A95E1F7809162051F928F93D3
S1132790A8E0B1E0BF93AF934DAD4F935CAD5F93B1
S11327A00E94CF24D5010D900020E9F71197E5E4AC
S11327B0F1E0822D01900D928A95E1F7B50183E055
S11327C00E949F030F900F900F900F900F900F9007
S11327D080911D05882309F4ACCA80919B059091D2
S11327E09C058130A2E09A0714F40C94471C809154
S11327F0060181119ECA81E08093060189E0E9E91E
S1132800F1E0D50101900D928A95E1F780910601DE
S113281081110C94FF1E8FE496E4A6E4B0E089874E
S11328209A87AB87BC87D5010D900020E9F71197F3
S1132830E5E4F1E0822D01900D928A95E1F7B5016E
S113284084E00E949F0375CA5D9AF6CB5D9AEFCB34
S11328505D9A5C9A5C9845FFD5CB5D9A5C9A5C98CE
S113286044FFD5CB5D9A5C9A5C9843FFD5CB5D9AC7
S11328705C9A5C9842FFD5CB5D9AD4CB5D9AB9CB78
S11328805D9A5C9A5C9826FF33CF5D9A5C9A5C985B
S113289025FF33CF5D9A5C9A5C9824FF33CF5D9A11
S11328A05C9A5C9823FF33CF5D9A5C9A5C9822FF14
S11328B033CF5D9A5C9A5C9821FF33CF5D9A5C9A22
S11328C05C9820FF33CF5D9A32CF8091FD04811153
S11328D01092FD048091F704882309F486C2809144
S11328E0F104853610F00093F704809158054F9B4E
S11328F048CA9091FE0491111092FE049091F8043C
S1132900992309F4BEC79091F204953608F4F8CBE4
S11329100093F804189BF6CB9091FF049111109248
S1132920FF049091F904992309F459C29091F30496
S1132930953608F4C7CC0093F9041C9BC5CC909140
S113294000059111109200059091FA04992309F45D
S113295052C29091F404953608F477CD0093FA04AA
S1132960813009F075CD809195058823E1F080913F
S11329703005909131052091990530919A05AC016B
S1132980475F5F4F4217530774F08B30910514F47F
S11329900C94DF1E0A97821793072CF481E080932E
S11329A0140510929505809196058823C1F0209115
S11329B032053091330580919B0590919C05A901C6
S11329C0475F5F4F4817590754F029503109821760
S11329D093072CF081E08093150510929605809161
S11329E097058823C1F020913405309135058091F5
S11329F09D0590919E05A901475F5F4F48175907B0
S1132A0054F029503109821793072CF081E0809308
S1132A1016051092970580919805882309F450C6ED
S1132A20209136053091370580919F059091A0053E
S1132A30A901475F5F4F481759070CF441C6295055
S1132A403109821793070CF43BC621E02093170544
S1132A5010929805823991050CF03FC680910201CD
S1132A6081110C94551F80911605882309F426C101
S1132A7080919D0590919E059C01359527953595EE
S1132A802795359527953595279560916505772781
S1132A9067FD7095A901405251096417750709F43F
S1132AA00DC120522093650590933505809334051C
S1132AB088E0E7E2F1E0D50101900D928A95E1F713
S1132AC0822F992787FD90959F932F93A8E0B1E0DB
S1132AD0BF93AF934BAD4F935AAD5F930E94CF24F6
S1132AE0D5010D900020E9F7119788E0E2E4F1E0C8
S1132AF001900D928A95E1F7B50183E00E949F034E
S1132B0080910401E0917B05FF27E7FDF095E80F34
S1132B10F11DEE0FFF1FEE0FFF1FEE55FE4F40801D
S1132B205180628073809091040180916405E091EA
S1132B306505FF27E7FDF095E90FF11D9CE089028B
S1132B40E00DF11D1124EE0FFF1FEE0FFF1FEE55D8
S1132B50FE4FC080D180E280F38060917C05A7E2C3
S1132B606A02B0011124882777FD8095982FA3016C
S1132B7092010E94E22300E10E94872421962FAF54
S1132B80219722963FAF229723964FAF23972496FF
S1132B905FAF249725966FAF259726967FAF26972C
S1132BA027968FAF279728969FAF289724968CADAA
S1132BB09DADAEADBFAD2497840D951DA61DB71D6B
S1132BC024968CAF9DAFAEAFBFAF249780938D0595
S1132BD090938E05A0938F05B09390052091660580
S1132BE097E2290290011124442737FD4095542F80
S1132BF0C701B6010E94E2230E94872429962FAFC1
S1132C0029972A963FAF2A972B964FAF2B972C964E
S1132C105FAF2C972D966FAF2D972E967FAF2E9783
S1132C202F968FAF2F9760969FAF60972C964CACE2
S1132C305DAC6EAC7FAC2C974C0C5D1C6E1C7F1C89
S1132C4040926F0550927005609271057092720502
S1132C50C0900C05D0900D05E0900E05F0900F0586
S1132C6024966CAD7DAD8EAD9FAD2497A7019601E2
S1132C700E94E2230E948724C901DA0180937D0522
S1132C8090937E05A0937F05B0938005C301B201A4
S1132C90A70196010E94E2230E948724C901DA0158
S1132CA08093670590936805A0936905B0936A05BE
S1132CB00F900F900F900F900F900F90809115052B
S1132CC0882309F442C060916605862F992787FD01
S1132CD0909520919B0530919C05A90155954795A8
S1132CE055954795405851098417950771F13093CC
S1132CF033052093320588E0EFE1F1E0D50101903E
S1132D000D928A95E1F79F936F93A8E0B1E0BF938A
S1132D10AF934BAD4F935AAD5F930E94CF24D5012F
S1132D200D900020E9F7119788E0E2E4F1E00190CA
S1132D300D928A95E1F7B50184E00E949F030F90FC
S1132D400F900F900F900F900F908091140588238F
S1132D5011F40C94990E8091990590919A058D3CEB
S1132D6091050CF0A3C5809164058E3F11F40C9479
S1132D70990E2EEF2093640586E690E0909331053A
S1132D808093300586E0E7E5F1E0D50101900D92EE
S1132D908A95E1F78FEF8F932F93A8E0B1E0BF936B
S1132DA0AF934FA94F935EA95F930E94CF24D5019F
S1132DB00D900020E9F7119789E0E1E4F1E001903A
S1132DC00D928A95E1F7B50185E00E949F030F906B
S1132DD00F900F900F900F900F900C94990E90916C
S1132DE0F3049F5F9093F304A3CD8091F1048F5F6C
S1132DF08093F10476CD9091F4049F5F9093F40452
S1132E00AACD809195058823D9F0809138059091B9
S1132E1039052091990530919A05AC01475F5F4FC0
S1132E20421753076CF08B3091050CF482C70A9754
S1132E30821793072CF481E080931805109295056E
S1132E40809196058823D9F080913A0590913B05AD
S1132E5020919B0530919C05AC01475F5F4F421761
S1132E6053076CF08B3091050CF466C70A978217F0
S1132E7093072CF481E080931905109296058091B4
S1132E8097058823D9F080913C0590913D052091C8
S1132E909D0530919E05AC01475F5F4F4217530774
S1132EA06CF08B3091050CF435C70A9782179307A1
S1132EB02CF481E080931A0510929705809198056F
S1132EC0882309F48FC420913E0530913F058091F9
S1132ED09F059091A005A901475F5F4F48175907C7
S1132EE00CF480C42B3031050CF486C72A50310908
S1132EF0281739070CF076C421E020931B051092A3
S1132F0098058B3A91050CF07AC4809105018111E2
S1132F10B2C780911A05882309F440C020919D0509
S1132F2030919E05C9019595879595958795409112
S1132F305A0550E08417950789F180935A05309318
S1132F403D0520933C0527E0EAE6F1E0D501019038
S1132F500D922A95E1F799279F938F93A8E0B1E00A
S1132F60BF93AF9349AD4F9358AD5F930E94CF2465
S1132F70D5010D900020E9F71197E5E4F1E0822DE9
S1132F8001900D928A95E1F7B50183E00E949F03B9
S1132F900F900F900F900F900F900F908091190544
S1132FA0882309F440C020919B0530919C05C901F8
S1132FB095958795959587954091590550E0841787
S1132FC0950789F18093590530933B0520933A0581
S1132FD027E0E1E7F1E0D50101900D922A95E1F7B0
S1132FE099279F938F93A8E0B1E0BF93AF9349AD26
S1132FF04F9358AD5F930E94CF24D5010D900020CC
S1133000E9F71197E5E4F1E0822D01900D928A959C
S1133010E1F7B50184E00E949F030F900F900F9099
S11330200F900F900F9080911805882311F40C9441
S1133030990E8091990590919A058D3591050CF022
S113304053C480915B05882311F40C94990E10925B
S11330505B0587E0E6E3F1E0D50101900D928A95E6
S1133060E1F7E8E6F6E0659174915401812F932D20
S11330700E94C424D4010D900020E9F71197E5E4DF
S1133080F1E0822D01900D928A95E1F7612F732D65
S113309085E00E949F030C94990E809195058823E6
S11330A0D9F08091280590912905209199053091B6
S11330B09A05AC01475F5F4F421753076CF08B30A2
S11330C091050CF4F5C50A97821793072CF481E057
S11330D08093100510929505809196058823D9F068
S11330E080912A0590912B0520919B0530919C0598
S11330F0AC01475F5F4F421753076CF08B3091056B
S11331000CF4E1C50A97821793072CF481E08093AD
S1133110110510929605809197058823D9F0809126
S11331202C0590912D0520919D0530919E05AC01B3
S1133130475F5F4F421753076CF08B3091050CF4D7
S1133140C5C50A97821793072CF481E08093120572
S11331501092970580919805882309F4FAC220916A
S11331602E0530912F0580919F059091A005A9010E
S1133170475F5F4F481759070CF4EBC22B303105FA
S11331800CF4C5C52A503109281739070CF0E1C2DF
S113319021E02093130510929805823991050CF0D3
S11331A0E5C280910301811132C680911205882302
S11331B009F426C180919D0590919E059C01359549
S11331C027953595279535952795359527956091BC
S11331D07B05772767FD7095A90140525109641753
S11331E0750709F40DC1205220937B0590932D059A
S11331F080932C0588E0E7E2F1E0D50101900D927F
S11332008A95E1F7822F992787FD90959F932F93B5
S1133210A8E0B1E0BF93AF934BAD4F935AAD5F932A
S11332200E94CF24D5010D900020E9F7119788E082
S1133230E2E4F1E001900D928A95E1F7B50183E0B3
S11332400E949F0380910401E0917B05FF27E7FD25
S1133250F095E80FF11DEE0FFF1FEE0FFF1FEE5567
S1133260FE4F408051806280738090910401809170
S11332706405E0916505FF27E7FDF095E90FF11D71
S11332809CE08902E00DF11D1124EE0FFF1FEE0FEB
S1133290FF1FEE55FE4FC080D180E280F380609125
S11332A07C05A7E26A02B0011124882777FD809586
S11332B0982FA30192010E94E22300E10E94872437
S11332C021962FAF219722963FAF229723964FAF97
S11332D0239724965FAF249725966FAF259726965C
S11332E07FAF269727968FAF279728969FAF28976B
S11332F024968CAD9DADAEADBFAD2497840D951DC8
S1133300A61DB71D24968CAF9DAFAEAFBFAF24975B
S113331080938D0590938E05A0938F05B0939005AF
S11333202091660597E2290290011124442737FD74
S11333304095542FC701B6010E94E2230E948724BE
S113334029962FAF29972A963FAF2A972B964FAFEE
S11333502B972C965FAF2C972D966FAF2D972E96AB
S11333607FAF2E972F968FAF2F9760969FAF609762
S11333702C964CAC5DAC6EAC7FAC2C974C0C5D1CAD
S11333806E1C7F1C40926F0550927005609271050F
S113339070927205C0900C05D0900D05E0900E055A
S11333A0F0900F0524966CAD7DAD8EAD9FAD249746
S11333B0A70196010E94E2230E948724C901DA0131
S11333C080937D0590937E05A0937F05B09380053F
S11333D0C301B201A70196010E94E2230E9487243F
S11333E0C901DA018093670590936805A093690584
S11333F0B0936A050F900F900F900F900F900F905D
S113340080911105882309F41EC160917C05262F43
S1133410332727FD309540919B0550919C05CA01A7
S11334209595879595958795959587959595879580
S113343080972817390709F406C150932B05409348
S11334402A0588E0EFE1F1E0D50101900D928A951B
S1133450E1F73F936F93A8E0B1E0BF93AF934BAD17
S11334604F935AAD5F930E94CF24D5010D90002055
S1133470E9F7119788E0E2E4F1E001900D928A9572
S1133480E1F7B50184E00E949F0380910401E0917B
S11334907B05FF27E7FDF095E80FF11DEE0FFF1FF9
S11334A0EE0FFF1FEE55FE4F408051806280738007
S11334B09091040180916405E0916505FF27E7FD83
S11334C0F095E90FF11D9CE08902E00DF11D112436
S11334D0EE0FFF1FEE0FFF1FEE55FE4FC080D18091
S11334E0E280F38060917C05A7E26A02B0011124B6
S11334F0882777FD8095982FA30192010E94E223EB
S113350000E10E94872421962FAF219722963FAF96
S1133510229723964FAF239724965FAF249725963F
S11335206FAF259726967FAF269727968FAF27975D
S113353028969FAF289724968CAD9DADAEADBFADB8
S11335402497840D951DA61DB71D24968CAF9DAFA1
S1133550AEAFBFAF249780938D0590938E05A09353
S11335608F05B09390052091660597E2290290019A
S11335701124442737FD4095542FC701B6010E94FA
S1133580E2230E94872429962FAF29972A963FAFDA
S11335902A972B964FAF2B972C965FAF2C972D968F
S11335A06FAF2D972E967FAF2E972F968FAF2F97B5
S11335B060969FAF60972C964CAC5DAC6EAC7FACC4
S11335C02C974C0C5D1C6E1C7F1C40926F05509216
S11335D070056092710570927205C0900C05D090D0
S11335E00D05E0900E05F0900F0524966CAD7DADB1
S11335F08EAD9FAD2497A70196010E94E2230E94FD
S11336008724C901DA0180937D0590937E05A093F8
S11336107F05B0938005C301B201A70196010E9402
S1133620E2230E948724C901DA01809367059093FD
S11336306805A0936905B0936A050F900F900F90E9
S11336400F900F900F9080911005882311F40C9423
S1133650990E8091990590919A058115A2E09A0797
S11336600CF05AC180917305882311F40C94990EBF
S11336701092730587E0EFE2F1E0D50101900D921D
S11336808A95E1F78091730581115CC48FE496E417
S1133690A6E4B0E08F839887A987BA87D5010D90F7
S11336A00020E9F7119788E0E2E4F1E001900D923F
S11336B08A95E1F7B50185E00E949F030C94990E69
S11336C080911705882309F4CEC980919F059091B4
S11336D0A005823991050CF4C1C98432A1E09A078E
S11336E00CF03DC380910201813009F4BCC981E032
S11336F0809302018BED90E090933705809336051B
S113370087E0E8E1F1E0D50101900D928A95E1F7B7
S11337108091020190E0880F991F8058994FFC0115
S1133720659174915401812F932D0E94C424D40176
S11337300D900020E9F7119788E0E2E4F1E00190B0
S11337400D928A95E1F7612F732D82E00E949F0309
S11337508AC980911305882309F427CD80919F0598
S11337609091A005823991050CF41BCD8432A1E01F
S11337709A070CF0E4C280910301813009F415CD5D
S113378081E0809303018BED90E090932F0580936B
S11337902E0587E0E8E1F1E0D50101900D928A95CC
S11337A0E1F78091030190E0880F991F8058994FA9
S11337B0FC01659174915401812F932D0E94C424BE
S11337C0D4010D900020E9F7119788E0E2E4F1E0DC
S11337D001900D928A95E1F7612F732D82E00E948A
S11337E09F03E3CC80911B05882309F492CB80913D
S11337F09F059091A0058B3A91050CF486CB8535F5
S1133800A1E09A070CF065C280910501813009F4AA
S113381080CB81E08093050180E091E090933F05A7
S113382080933E0587E0E8E1F1E0D50101900D9237
S11338308A95E1F7E2E8F6E0659174915401812FED
S1133840932D0E94C424D4010D900020E9F7119710
S1133850E5E4F1E0822D01900D928A95E1F7612F64
S1133860732D82E00E949F0354CB80911F0588230F
S113387011F40C94E81380919F059091A0050C9489
S1133880B8129091F2049F5F9093F2043EC88115A0
S1133890924014F00C94990E80910601882311F43F
S11338A00C94990E109206010C94FE138A39A1E02F
S11338B09A070CF065C2809164058F3F11F40C9453
S11338C0990E2FEF2093640583E391E090933105E3
S11338D08093300586E0E7E5F1E0D50101900D9293
S11338E08A95E1F72F9358CA8A3B91050CF06BC275
S11338F080915B05813011F40C94990E81E08093E2
S11339005B0587E0E6E3F1E0D50101900D928A952D
S1133910E1F7EAE6F6E0A7CB8F3F934014F00C946E
S1133920990E8091730581110C94990E81E0809316
S11339307305A0CE1092F104109258051092100550
S1133940109211051092120510921305EBE0F1E0AC
S11339506196AFAD61976296BFAD6297822F019079
S11339600D928A95E1F7FE017596D501832F01909A
S11339700D928A95E1F71D862D9844985C985D9A7E
S11339805C9A5C985D985C9A5C985D985C9A5C988B
S11339905D985C9A5C985D985C9A5C985D985C9A7A
S11339A05C985D985C9A5C985D985C9A5C98449A83
S11339B02D9844985C985D985C9A5C985D9A5C9AA2
S11339C05C985D985C9A5C985D985C9A5C985D984C
S11339D05C9A5C985D985C9A5C985D985C9A5C983B
S11339E05D985C9A5C98449A8981882309F481C023
S11339F0DE0112962D9A44985C985D985C9A5C98C6
S1133A005D985C9A5C985D985C9A5C985D985C9A09
S1133A105C985D985C9A5C985D985C9A5C985D98FB
S1133A205C9A5C985D985C9A5C98449A992787FDA7
S1133A3090958097FC01EE0FFF1FEE0FFF1FE80F1C
S1133A40F91FE05FFC4F55E041912D9A44985C9832
S1133A50842F90E0880F892F881F990B892B09F0F8
S1133A601CC15D985C9A5C9846FD1CC15D985C9A8B
S1133A705C9845FD10C15D985C9A5C9844FD09C151
S1133A805D985C9A5C9843FD02C15D985C9A5C9871
S1133A9042FDFBC05D985C9A5C9841FDF4C05D9862
S1133AA05C9A5C9840FDEDC05D985C9A5C98449A81
S1133AB0515051F62D9A44985C985D985C9A5C98A4
S1133AC05D985C9A5C985D985C9A5C985D985C9A49
S1133AD05C985D985C9A5C985D985C9A5C985D983B
S1133AE05C9A5C985D985C9A5C98449A8D9181117B
S1133AF081CFE8E1F1E0D5018F2D01900D928A95F7
S1133B00E1F78091030190E0880F991F8058994F45
S1133B10FC0165917491A12EB32C812F932D639692
S1133B202FAF639764963FAF64970E94C424D40177
S1133B300D900020E9F7119788E0E2E4F1E00190AC
S1133B400D928A95E1F7612F732D82E00E949F0305
S1133B5088E0EFE1F1E0A12FB32D01900D928A9559
S1133B60E1F740917C05842F992787FD90959F93D9
S1133B704F93A8E0B1E0BF93AF935BAD5F938AAD81
S1133B808F930E94CF24D4010D900020E9F7119760
S1133B9088E0E2E4F1E001900D928A95E1F7612F6B
S1133BA0732D84E00E949F0388E0E7E2F1E0A12FF7
S1133BB0B32D01900D928A95E1F740917B05842FF6
S1133BC0992787FD90959F934F93A8E0B1E0BF9309
S1133BD0AF935BAD5F938AAD8F930E94CF24D401E2
S1133BE00D900020E9F7119788E0E2E4F1E00190FC
S1133BF00D928A95E1F7612F732D83E00E949F0354
S1133C00EFE2F1E0A12FB32D8F2D01900D928A9553
S1133C10E1F7809173050FB6F894DEBF0FBECDBFF8
S1133C2063962FAD639764963FAD6497811136C157
S1133C308FE496E4A6E4B0E08F839887A987BA87D7
S1133C40D4010D900020E9F7119788E0E2E4F1E057
S1133C5001900D928A95E1F7612F732D85E06396AB
S1133C602FAF639764963FAF64970E949F03809140
S1133C70580563962FAD639764963FAD64970C9493
S1133C80BF0E5D9A12CF5D9A0BCF5D9A04CF5D9AF9
S1133C90FDCE5D9AF6CE5D9AEFCE5D9A5C9A5C9805
S1133CA046FFE4CE5D9AE3CE20E030E00C94AE1201
S1133CB080E090E009CA8FE49EE4A0E089879A87B7
S1133CC0AB870C94021280E090E01DCA80E090E083
S1133CD039CA8F3FB1E09B070CF0ECC0809105011D
S1133CE0823009F416C982E0809305018AEA91E0E2
S1133CF090933F0580933E0587E0E8E1F1E0D5012C
S1133D0001900D928A95E1F7E4E8F6E095CD20E084
S1133D1030E03ACA80E090E0C9C880E090E00C94BA
S1133D20891280E090E00C94491280E090E00C94B9
S1133D30691280E090E07CC880E090E098C8863BFF
S1133D40B1E09B070CF068C080910301823009F454
S1133D502CCA82E0809303018DE691E016CD863B68
S1133D60B1E09B070CF0DDC080910201823011F4B8
S1133D700C94331582E0809302018DE691E0BCCC73
S1133D808736A2E09A070CF057C080916405882317
S1133D9011F40C94990E1092640580E092E09093D3
S1133DA031058093300586E0E7E5F1E0D501019027
S1133DB00D928A95E1F71F921F920C94CD1680E024
S1133DC090E00C94CB148731A1E09A070CF090C0DA
S1133DD080915B05823011F40C94990E82E08093FB
S1133DE05B0587E0E6E3F1E0D50101900D928A9549
S1133DF0E1F7ECE6F6E037C920E030E079C88FE47B
S1133E009EE4A0E089879A87AB870C9413141092E0
S1133E10030189E490E0B9CC883422E092070CF0E5
S1133E20C8C080910301833009F4BFC983E0809343
S1133E3003018FEF91E0A9CC8433A3E09A070CF03F
S1133E40A7C080916405813011F40C94990E21E08F
S1133E50209364058DEC92E09093310580933005B6
S1133E6086E0E7E5F1E0D50101900D928A95E1F74E
S1133E701F920C94CC161092050185E590E0909366
S1133E803F0580933E0587E0E8E1F1E0D50101902C
S1133E900D928A95E1F7E0E8F6E0CECC8FE49EE45B
S1133EA0A0E08F839887A987CBCE1092020189E482
S1133EB090E022CC8A3A22E092070CF04AC080912A
S1133EC00501833009F425C883E08093050184E566
S1133ED092E090933F0580933E0587E0E8E1F1E0AE
S1133EE0D50101900D928A95E1F7E6E8F6E0A4CCBD
S1133EF08437B1E09B070CF09CC080915B05833054
S1133F0011F40C94990E83E080935B0587E0E6E35B
S1133F10F1E0D50101900D928A95E1F7EEE6F6E025
S1133F20A2C8883422E092070CF052C080910201AA
S1133F30833011F40C94331583E0809302018FEFE6
S1133F4091E0DACB8FE49EE4A0E08F839887A98781
S1133F50A5CB843543E094070CF084C0809105011F
S1133F60843011F40C94891784E0809305018FEF59
S1133F7092E090933F0580933E0587E0E8E1F1E00D
S1133F80D50101900D928A95E1F7E8E8F6E054CC6A
S1133F908F3F934014F00C94990E80916405823005
S1133FA011F40C94990E22E0209364058AE993E0BD
S1133FB053CF8A3D42E09407DCF4809103018430BE
S1133FC009F4F3C884E08093030181E992E0DDCB36
S1133FD08A3D42E09407E4F480910201843011F4B4
S1133FE00C94331584E08093020181E992E084CB40
S1133FF08C3653E095070CF06DC080910301853039
S113400009F4D3C885E08093030183E293E0BDCB38
S11340108C3653E095070CF06CC08091020185301A
S113402011F40C94331585E08093020183E293E04C
S113403063CB813D21E09207A4F580915B05843038
S113404011F40C94990E84E080935B0587E0E6E319
S1134050F1E0D50101900D928A95E1F7E0E7F6E0F1
S11340600C9433188F3F934014F00C94891780916B
S11340700501863011F40C94891786E080930501BC
S113408089EA93E090933F0580933E0587E0E8E159
S1134090F1E0D50101900D928A95E1F7ECE8F6E0A4
S11340A0CBCB8E3242E09407ACF580915B05853032
S11340B011F40C94990E55E050935B0587E0E6E308
S11340C0F1E0D50101900D928A95E1F7E2E7F6E07F
S11340D00C9433188F3F93400CF067C88091030110
S11340E0863009F462C886E08093030185EB93E08F
S11340F04CCB8F3F934014F00C9433158091020104
S1134100863011F40C94331586E08093020185EB1C
S113411093E0F2CA8B38A2E09A07ACF480915B0575
S1134120863011F40C94990E86E080935B0587E049
S1134130E6E3F1E0D50101900D928A95E1F7E4E719
S1134140F6E00C943318883EB2E09B076CF480913F
S11341505B05873011F40C94990E87E080935B051E
S11341600E94BA090C94990E853423E092076CF4EA
S113417080915B05883011F40C94990E88E080934B
S11341805B050E94BA090C94990E823A43E09407A5
S11341906CF480915B05893011F40C94990E89E0DC
S11341A080935B050E94BA090C94990E8F3F93404B
S11341B014F00C94990E80915B058A3011F40C94E0
S11341C0990E8AE080935B050E94BA090C94990EBB
S11341D01F920F920FB60F9211244F925F926F921B
S11341E07F928F929F92AF92BF92CF92DF92EF9283
S11341F0FF920F932F933F934F935F936F937F930C
S11342008F939F93AF93BF93EF93FF93CF93DF93DA
S1134210CDB7DEB72897DEBFCDBF8091C60087FD3E
S113422049C090919105E92FF0E0EE56FA4F808352
S113423081E0890F80939105833031F128960FB680
S1134240F894DEBF0FBECDBFDF91CF91FF91EF9108
S1134250BF91AF919F918F917F916F915F914F919A
S11342603F912F910F91FF90EF90DF90CF90BF90EF
S1134270AF909F908F907F906F905F904F900F9032
S11342800FBE0F901F90189591E090939105809127
S113429092058039B1F0803889F62091040130E02C
S11342A08091930590E045972817390739F61092C5
S11342B00305C4CF807F8093920581E080939105AC
S11342C0BDCF80919405811104C080E8809392054C
S11342D0E4CF809193058551809304019093030565
S11342E080910401E0917B05FF27E7FDF095E80F3D
S11342F0F11DEE0FFF1FEE0FFF1FEE55FE4FC080A6
S1134300D180E280F3809091040180916405E09172
S11343106505FF27E7FDF095E90FF11D9CE0890293
S1134320E00DF11D1124EE0FFF1FEE0FFF1FEE55E0
S1134330FE4F80809180A280B38060917C05A7E2CB
S11343406A02B0011124882777FD8095982FA70170
S113435096010E94E22300E10E94872429833A8384
S11343604B835C8389819A81AB81BC81C80ED91E41
S1134370EA1EFB1EC0928D05D0928E05E0928F0539
S1134380F09290052091660597E22902900111248C
S1134390442737FD4095542FC501B4010E94E22300
S11343A00E94872429833A834B835C836D837E83B5
S11343B08F83988789819A81AB81BC81880E991EED
S11343C0AA1EBB1E80926F0590927005A092710583
S11343D0B092720540900C0550900D0560900E054A
S11343E070900F05C701B601A30192010E94E22358
S11343F00E948724C901DA0180937D0590937E058C
S1134400A0937F05B0938005C501B401A301920177
S11344100E94E2230E948724C901DA018093670580
S113442090936805A0936905B0936A0507CF1F921E
S11344300F920FB60F9211242F933F934F938F93A4
S11344409F93EF93FF934091A105842F90E02091D7
S1134450780030917900FC01EE0FFF1FE756FA4F08
S113446031832083FC01EB56FA4F21E020834F5F18
S1134470443088F01092A10540E040937C00FF9105
S1134480EF919F918F914F913F912F910F900FBE7C
S11344900F901F9018954093A105EFCF1F920F9294
S11344A00FB60F9211242F933F934F935F936F9303
S11344B07F938F939F93AF93BF93EF93FF93CF9388
S11344C0DF9300D000D0CDB7DEB7809103058823F9
S11344D009F4F6C08091850590918605A091870521
S11344E0B09188058093810590938205A0938305FC
S11344F0B09384058091890590918A05A0918B05DC
S1134500B0918C058093850590938605A0938705CB
S1134510B093880540917D0550917E0560917F059B
S1134520709180058091890590918A05A0918B05F1
S1134530B0918C05840F951FA61FB71F8093890522
S113454090938A05A0938B05B0938C0540916705E1
S1134550509168056091690570916A0580916B05B9
S113456090916C05A0916D05B0916E05840F951F17
S1134570A61FB71F80936B0590936C05A0936D05E0
S1134580B0936E0580910001909101019C013695D4
S1134590279580FDBBC030930101209300018091D9
S11345A076059091770590937505809374058091B5
S11345B07805909179059093770580937605E0913D
S11345C0030190918B0580917A05890FF0E0EE0F3D
S11345D0FF1FEE5FFC4F0190F081E02DE80FF11D0D
S11345E0E859FF4FE491F0E0F0937905E093780502
S11345F080910301853009F47AC0809106018823F3
S113460081F08091870540918305841750F48917C0
S113461040F410926B0510926C0510926D05109287
S11346206E05E09102018091630590916D05890FFB
S1134630F0E0EE0FFF1FEE5FFC4F0190F081E02DE4
S1134640E80FF11DE859FF4FE491F0E0F0936105A4
S1134650E093600580910201853009F452C02091F5
S113466078053091790540910701429FC001439F2D
S1134670900D11249093790580937805209160051D
S11346803091610540916205429FC001439F900DA6
S113469011249093610580936005209178053091F1
S11346A079058091600590916105820F931FA0E0C8
S11346B0B0E089839A83AB83BC838A818093B300FF
S11346C00F900F900F900F90DF91CF91FF91EF918A
S11346D0BF91AF919F918F917F916F915F914F9116
S11346E03F912F910F900FBE0F901F90189530930C
S11346F079052093780580910601882309F491CFE8
S113470080CF3093610520936005A9CF84EB3827CF
S113471042CFDF93CF931F930F939A9DF02D219F48
S1134720F00D8B9DF00D8A9DE02DF10D039FF00D92
S1134730029FE00DF11D4E9DE00DF11D5E9DF00DFB
S11347404F9DF00D7F936F93BF92AF925F934F9302
S1134750D5010E94B5248B01AC01D7010E94B52478
S1134760EB01E80FF91FD6010E94D9232F913F9145
S1134770D6010E94B524C60FD71FE81FF91FAF91B9
S1134780BF910E94D9232F913F910E94B524C60F57
S1134790D71FE81FF91FD6010E94B524E60FF71FA3
S11347A09801BE01CF0111240F911F91CF91DF9188
S11347B008950E94B524460F571FC81FD91F08F437
S11347C031960895E894DF93CF93FC01DB010E94B6
S11347D0B5247F936F93E9019A01AC01BF93AF9322
S11347E03F932F93DF010E94B52426F46C1B7D0BAD
S11347F0820B930B9E01EB01FC010E94D923AF9124
S1134800BF912F913F910E94D923BE01CF01F9019D
S11348102F913F91CF91DF910895689401C0E8945E
S11348208F929F92CF93DF930E941B24DF91CF91AD
S11348309F908F90089588249924F401E401B0E4B2
S11348409F93AA279A158B049C04ED05FE05CF05BA
S1134850D007A10798F4AD2FDC2FCF2FFE2FE92D21
S1134860982C892E982F872F762F652F542F432F1E
S1134870322F2227B85031F7BF9127C01B2EBF918A
S1134880BB27220F331F441F551F661F771F881F26
S1134890991F881C991CEE1FFF1FCC1FDD1FAA1F28
S11348A0BB1F8A149B04EC05FD05CE05DF05A0079C
S11348B0B10748F08A189B08EC09FD09CE09DF0905
S11348C0A00BB10B21601A94E1F62EF49401AF0110
S11348D0BE01CD01000C08950F93083090F0982F7D
S11348E0872F762F652F542F432F322F22270850DE
S11348F0F4CF220F331F441F551F661F771F881FD5
S1134900991F0A95B2F70F91089597FB10F8169422
S113491000080F93083098F00850232F342F452FA8
S1134920562F672F782F892F902DF4CF05949795C4
S113493087957795679557954795379527950A9560
S1134940AAF70F9108952A0D3B1D4C1D5D1D6E1D88
S11349507F1D801F911F08952A193B094C095D0989
S11349606E097F09800B910B0895A29FB001B39F3C
S1134970C001A39F700D811D1124911DB29F700D64
S1134980811D1124911D0895FB01DC010D9000206F
S1134990E9F7119705900D920020E1F70895AEE034
S11349A0B0E0E5EDF4E20C9477270D891E8986E0EA
S11349B08C831A8309838FEF9FE79E838D83AE01D7
S11349C0475E5F4F6F89788DCE0101960E94F12476
S11349D0EF81F885E00FF11F10822E96E4E00C942D
S11349E09327ACE0B0E0E7EFF4E20C9469277C0194
S11349F06B018A01FC0117821682838181FFBDC18C
S1134A00CE0101964C01F7019381F60193FD859146
S1134A1093FF81916F01882309F4ABC1853239F486
S1134A2093FD859193FF81916F01853229F4B7013C
S1134A3090E00E94D926E7CF512C312C20E020327F
S1134A40A0F48B3269F030F4803259F0833269F487
S1134A5020612CC08D3239F0803339F4216026C0B6
S1134A602260246023C0286021C027FD27C030EDC8
S1134A70380F3A3078F426FF06C0FAE05F9E300D16
S1134A801124532E13C08AE0389E300D1124332E86
S1134A9020620CC08E3221F426FD6BC1206406C056
S1134AA08C3611F4206802C0883641F4F60193FD77
S1134AB0859193FF81916F018111C1CF982F9F7DC3
S1134AC09554933028F40C5F1F4FFFE3F9830DC016
S1134AD0833631F0833771F0833509F05BC022C02F
S1134AE0F801808189830E5F1F4F44244394512C25
S1134AF0540115C03801F2E06F0E711CF801A0805A
S1134B00B18026FF03C0652D70E002C06FEF7FEF18
S1134B10C5012C870E94CE262C0183012C852F777A
S1134B20222E17C03801F2E06F0E711CF801A0802C
S1134B30B18026FF03C0652D70E002C06FEF7FEFE8
S1134B40C5012C870E94C3262C012C852068222EA7
S1134B50830123FC1BC0832D90E048165906B0F452
S1134B60B70180E290E00E94D9263A94F4CFF5018F
S1134B7027FC859127FE81915F01B70190E00E9497
S1134B80D92631103A94F1E04F1A510841145104D6
S1134B9071F7E5C0843611F0893639F5F80127FF3D
S1134BA007C060817181828193810C5F1F4F08C0AF
S1134BB060817181882777FD8095982F0E5F1F4F44
S1134BC02F76B22E97FF09C09095809570956195C8
S1134BD07F4F8F4F9F4F2068B22E2AE030E0A40110
S1134BE00E940B27A82EA81844C0853729F42F7ECD
S1134BF0B22E2AE030E025C0F22FF97FBF2E8F3687
S1134C00C1F018F4883579F0B4C0803719F08837CA
S1134C1021F0AFC02F2F2061B22EB4FE0DC08B2D1A
S1134C208460B82E09C024FF0AC09F2F9660B92E55
S1134C3006C028E030E005C020E130E002C020E1F9
S1134C4032E0F801B7FE07C06081718182819381EF
S1134C500C5F1F4F06C06081718180E090E00E5FA1
S1134C601F4FA4010E940B27A82EA818FB2DFF7725
S1134C70BF2EB6FE0BC02B2D2E7FA51450F4B4FE10
S1134C800AC0B2FC08C02B2D2E7E05C07A2C2B2D19
S1134C9003C07A2C01C0752C24FF0DC0FE01EA0D5F
S1134CA0F11D8081803311F4297E09C022FF06C0E2
S1134CB07394739404C0822F867809F0739423FD4F
S1134CC013C020FF06C05A2C731418F4530C571841
S1134CD0732C731468F4B70180E290E02C870E946F
S1134CE0D92673942C85F5CF731410F4371801C0AA
S1134CF0312C24FF12C0B70180E390E02C870E947E
S1134D00D9262C8522FF17C021FF03C088E590E037
S1134D1002C088E790E0B7010CC0822F867859F072
S1134D2021FD02C080E201C08BE227FD8DE2B701C4
S1134D3090E00E94D926A51438F4B70180E390E0EE
S1134D400E94D9265A94F7CFAA94F401EA0DF11DD2
S1134D508081B70190E00E94D926A110F5CF3320BD
S1134D6009F451CEB70180E290E00E94D9263A942A
S1134D70F6CFF7018681978102C08FEF9FEF2C96C3
S1134D80E2E10C948527FC0105906150704001100C
S1134D90D8F7809590958E0F9F1F0895FC01615060
S1134DA0704001900110D8F7809590958E0F9F1F49
S1134DB008950F931F93CF93DF93182F092FEB01BF
S1134DC08B8181FD03C08FEF9FEF20C082FF10C055
S1134DD04E815F812C813D81421753077CF4E88129
S1134DE0F9819F012F5F3F4F39832883108306C0C9
S1134DF0E885F985812F0995892B29F72E813F8133
S1134E002F5F3F4F3F832E83812F902FDF91CF91D0
S1134E101F910F910895FA01AA27283051F12031EA
S1134E2081F1E8946F936E7F6E5F7F4F8F4F9F4F3A
S1134E30AF4FB1E03ED0B4E03CD0670F781F891F7C
S1134E409A1FA11D680F791F8A1F911DA11D6A0F4A
S1134E50711D811D911DA11D20D009F468943F91FD
S1134E602AE0269F11243019305D3193DEF6CF01FC
S1134E700895462F4770405D4193B3E00FD0C9F7C2
S1134E80F6CF462F4F70405D4A3318F0495D31FD2F
S1134E904052419302D0A9F7EACFB4E0A695979582
S1134EA0879577956795BA95C9F700976105710558
S1134EB008959B01AC010A2E0694579547953795A2
S1134EC02795BA95C9F7620F731F841F951FA01DFC
S1134ED008952F923F924F925F926F927F928F929A
S1134EE09F92AF92BF92CF92DF92EF92FF920F9375
S1134EF01F93CF93DF93CDB7DEB7CA1BDB0B0FB67F
S1134F00F894DEBF0FBECDBF09942A88398848883B
S1134F105F846E847D848C849B84AA84B984C884D1
S1134F20DF80EE80FD800C811B81AA81B981CE0FC8
S1134F30D11D0FB6F894DEBF0FBECDBFED010895AD
S1074F40F894FFCF0F
S1134F44E1AC0302300601FF256400204F534331D2
S1134F54204354524C2E2000574156453A200043D6
S1134F64454E54533A200053454D49533A20005377
S1134F74594E433A2000525554453A2000202020EB
S1134F8420202020202020202000204F53433220A2
S1134F944354524C2E20004F43543A2000204C4694
S1134FA44F20204354524C2E2000465245513A205F
S1134FB400445054483A20004D4958494E47204330
S1134FC454524C2E00574549474854313A2000570F
S1134FD44549474854323A200053594E4320323A03
S1134FE4200000801B004E211D0021DE1E0004B49D
S1134FF42000D6A5220046B5240012E4260012346B
S113500429004BA72B00D23F2E00D8FF3000C0E963
S11350143300000037009C423A0042BC3D0008685B
S11350244100AC4B45008C6A490024C84D002468F7
S11350345200964E5700A47F5C00B0FF610080D3F9
S1135044670000006E003885740084787B0010D0FB
S1135054820058978A0018D5920048909B0048D043
S1135064A4002C9DAE0048FFB80060FFC30000A755
S1135074CF000000DC00700AE90008F1F60020A06B
S11350840501B02E150130AA25019020370190A006
S113509449015E3A5D0190FE7101C0FE8701004E34
S11350A49F010000B801E014D20110E2ED01404078
S11350B40B02605D2A0260544B0220416E022041BF
S11350C49302B074BA0220FDE30280FD0F03009C36
S11350D43E0300007003C029A40320C4DB038080C2
S11350E41604C0BA5404C0A896044082DC04408266
S11350F4260560E9740540FAC70500FB1F0600385D
S11351047D060000E006805348074088B707000185
S11351142D088075A90880512D098094B009800454
S11351244D0AC0D2E90A80F48F0B00F63F0C0070DC
S1135134FA0C0000C00D00A7900E80106F0F00023F
S11351445A100000000100020003000400000005DE
S1135154000000000000005F0000000700070014C6
S11351647F147F14242A7F2A122313086462364985
S11351745522500005030000001C22410000412276
S11351841C0014083E081408083E080800503000A7
S113519400080808080800606000002010080402E1
S11351A43E5149453E00427F4000426151494621F7
S11351B441454B311814127F1027454545393C4A63
S11351C449493001710905033649494936064949B3
S11351D4291E003636000000563600000814224109
S11351E40014141414140041221408020151090671
S11351F4324979413E7E1111117E7F494949363E37
S1135204414141227F4141221C7F494949417F094F
S11352140909013E4149497A7F0808087F00417F12
S113522441002040413F017F081422417F40404017
S1135234407F020C027F7F0408107F3E4141413EBF
S11352447F090909063E4151215E7F091929464611
S11352544949493101017F01013F4040403F1F203A
S113526440201F3F4038403F63140814630708700C
S113527408076151494543007F4141000204081075
S1135284200041417F0004020102044040404040A8
S1135294000102040020545454787F4844443838AC
S11352A444444420384444487F3854545418087EB1
S11352B40901020C5252523E7F0804047800447DD2
S11352C440002040443D007F1028440000417F40BA
S11352D4007C041804787C08040478384444443872
S11352E47C14141408081414187C7C080404084856
S11352F454545420043F4440203C4040207C1C200F
S113530440201C3C4030403C44281028440C50505D
S1135314503C4464544C44000836410000007F006F
S11353240000413608001008081008784641467801
S9030000FC
