:100000000C9434030C9451030C9451030C9451033D
:100010000C9451030C9451030C9451030C94510310
:100020000C9451030C9458060C9451030C945103F6
:100030000C9451030C9451030C9451030C945103F0
:100040000C9451030C9451030C9453030C945103DE
:100050000C9451030C942B060C9451030C945103F3
:100060000C9451030C9451030000000001010102A3
:1000700002030405050607090A0B0C0E0F101214E3
:100080001517191B1D1F212325272A2C2E31333626
:10009000383B3E404346494C4E5154575A5D60638D
:1000A00066696C6F7376797C7F8285888B8F929579
:1000B000989B9EA1A4A7AAADB0B2B5B8BBBEC0C361
:1000C000C6C8CBCDD0D2D4D7D9DBDDDFE1E3E5E7BD
:1000D000E9EAECEEEFF0F2F3F4F5F7F8F9F9FAFBF0
:1000E000FCFCFDFDFDFEFEFEFEFEFEFEFDFDFDFC3C
:1000F000FCFBFAF9F9F8F7F5F4F3F2F0EFEEECEABD
:10010000E9E7E5E3E1DFDDDBD9D7D4D2D0CDCBC859
:10011000C6C3C0BEBBB8B5B2B0ADAAA7A4A19E9BD2
:100120009895928F8B8885827F7C7976736F6C69C6
:100130006663605D5A5754514E4C494643403E3BBE
:10014000383633312E2C2A272523211F1D1B191742
:10015000151412100F0E0C0B0A09070605050403EF
:1001600002020101010000008081838587898B8D57
:1001700090929496989A9D9FA1A4A6A8AAADAFB17B
:10018000B3B5B7B9BBBDBFC1C3C5C6C8CACCCED055
:10019000D2D5D7D9DCDEE0E3E5E8EAEDEFF1F4F61D
:1001A000F8F9FBFCFDFEFFFFFFFFFEFEFDFBFAF88A
:1001B000F7F5F3F0EEECE9E7E4E2DFDDDAD8D6D4E8
:1001C000D1CFCDCBC9C7C5C4C2C0BEBCBAB8B6B406
:1001D000B2B0AEABA9A7A5A2A09E9C99979593910A
:1001E0008E8C8A88868482807F7D7B797775737117
:1001F0006E6C6A686663615F5D5A585654514F4D24
:100200004B49474543413F3D3B3A38363432302E27
:100210002B29272522201D1B181613110F0C0A0845
:1002200007050402010100000000010203040607A3
:10023000090B0E101215171A1C1F212326282A2D10
:100240002F31333537393A3C3E40424446484A4CD8
:100250004E50525557595B5E60626567696B6D6FB2
:10026000727476787A7C7E7F575757575756565513
:10027000545351504E4D4B494745444241403F3EF7
:100280003D3D3D3D3D3D3D3D3D3D3D3D3C3C3B39A6
:1002900038373533312F2E2C2A292726252524249B
:1002A00024242525262627272727272726252322F6
:1002B000201E1C1A181614131110100F0F101112F3
:1002C000131517181A1C1D1E1E1F1E1D1C1A18158B
:1002D000120F0C0806030100000103060B11182180
:1002E0002B3642505E6C7B8A99A7B5C2CFDAE3EC1D
:1002F000F3F8FCFEFFFFFDFAF6F2EDE8E2DCD7D101
:10030000CCC8C4C1BEBCBAB9B9B9B9B9BABABBBB19
:10031000BBBBBABAB8B7B5B3B0ADABA8A5A29F9DE9
:100320009B99979694949393939393939393939386
:100330009291908F8E8C8A88868482807E7C7A7956
:100340007776757574747473737373737373727271
:1003500071706F6D6C6A68666462615F5D5C5B5A48
:100360005958585757575757A8A8A8A8A8A9A9AA8D
:10037000ABACAEAFB1B2B4B6B8BABBBDBEBFC0C114
:10038000C2C2C2C2C2C2C2C2C2C2C2C2C3C3C4C645
:10039000C7C8CACCCED0D1D3D5D6D8D9DADADBDB30
:1003A000DBDBDADAD9D9D8D8D8D8D8D8D9DADCDDB5
:1003B000DFE1E3E5E7E9EBECEEEFEFF0F0EFEEED98
:1003C000ECEAE8E7E5E3E2E1E1E0E1E2E3E5E7EAE0
:1003D000EDF0F3F7F9FCFEFFFFFEFCF9F4EEE7DECB
:1003E000D4C9BDAFA193847566584A3D30251C130E
:1003F0000C07030100000205090D12171D23282E0A
:1004000033373B3E414345464646464645454444D0
:100410004444454547484A4C4F5254575A5D6062E0
:10042000646668696B6B6C6C6C6C6C6C6C6C6C6C23
:100430006D6E6F7071737577797B7D7F8183858633
:1004400088898A8A8B8B8B8C8C8C8C8C8C8C8D8DF8
:100450008E8F9092939597999B9D9EA0A2A3A4A501
:10046000A6A7A7A8A8A8A8A87F8D9AA7B4C0CBD5EF
:10047000DEE6EDF3F7FBFDFFFFFFFDFBF9F6F3F022
:10048000EDEAE8E5E3E2E0E0E0E0E1E2E3E5E7E928
:10049000EBEDEFF0F2F3F4F4F4F4F3F3F1F0EEED4E
:1004A000EBE9E8E6E5E4E3E3E3E3E4E4E6E7E8EAEE
:1004B000ECEEEFF1F2F3F4F4F4F4F3F2F1EFEEEC2E
:1004C000EAE8E6E4E2E1E0E0E0E0E1E2E4E6E9ECEB
:1004D000EFF2F5F8FAFCFEFFFFFEFCF9F5F0EAE2B8
:1004E000D9D0C5BAAEA19486796B5E51453A2F2614
:1004F0001D150F0A0603010000010305070A0D1070
:100500001316191B1D1E1F1F1F1F1E1D1B1917153C
:100510001311100E0D0C0B0B0B0B0C0D0E101113F9
:10052000151718191B1B1C1C1C1C1B1A1917161439
:1005300012110F0E0C0C0B0B0B0B0C0D0F101214D9
:1005400016181A1C1D1E1F1F1F1F1D1C1A171512FF
:100550000F0C090604020000000204080C12192105
:100560002A343F4B5865727F0000000000000000F5
:10057000000000000000000000000000000000007B
:10058000000000000000000000000000000000006B
:10059000000000000000000000000000000000005B
:1005A000000000000000000000000000000000004B
:1005B000000000000000000000000000000000003B
:1005C000000000000000000000000000000000002B
:1005D000000000000000000000000000000000001B
:1005E000000000000000000000000000000000000B
:1005F00000000000000000000000000000000000FB
:1006000000000000000000000000000000000000EA
:1006100000000000000000000000000000000000DA
:1006200000000000000000000000000000000000CA
:1006300000000000000000000000000000000000BA
:1006400000000000000000000000000000000000AA
:10065000000000000000000000000000000000009A
:10066000000000000000000011241FBECFEFD8E002
:10067000DEBFCDBF12E0A0E0B1E0E2ECF3E102C0EA
:1006800005900D92AC37B107D9F722E0ACE7B2E0A4
:1006900001C01D92A73EB207E1F70E9428060C9404
:1006A000DF090C9400001F920F920FB60F921124D5
:1006B0000F900FBE0F901F9018951092C5008FE1FC
:1006C0008093C40088ED8093C10086E08093C200CF
:1006D0000895CF93DF9300D0CDB7DEB720919A0273
:1006E00030919B0221153105F1F44FEF5FEF429FEE
:1006F000C001439F900D529F900D112490939B0237
:1007000080939A0240910701489F9001499F300DC4
:1007100011243A8329838A8180937C020F900F9061
:10072000DF91CF91089541E050E0E1CF2F923F92C9
:100730004F925F926F927F928F929F92AF92BF92F1
:10074000CF92DF92EF92FF920F931F93CF93DF939D
:1007500000D000D0CDB7DEB780E09DE8ACE8BAE7C6
:100760008093890290938A02A0938B02B0938C02AB
:1007700081E090E09C838B831A82198289809A8021
:10078000AB80BC809401A50160E070E080E090E067
:1007900000E10E949909A12CEDE8BE2EFCE8CF2EC5
:1007A000AAE7DA2EE12CF12C00E010E00E943C09CF
:1007B00020938502309386024093870250938802EB
:1007C00080E091E09C838B8389809A80AB80BC80A1
:1007D0009401A50160E070E080E090E000E10E94FB
:1007E0009909A12CBDE8BB2E0CE8C02EEAE7DE2E4D
:1007F000E12CF12C00E00E943C0939014A011B0167
:100800002C01322F30938D0270928E0280928F02D3
:100810009092900280E793E09093DD028093DC0257
:100820001092DB021092DA020091DA021091DB02E0
:100830002091DC023091DD025801690100E010E0F6
:100840009301A401B101C2010E94B60800E10E9417
:10085000B409C901DA018093CA029093CB02A09334
:10086000CC02B093CD0280E793E09093BC028093DA
:10087000BB021092BA021092B9020091B902109113
:10088000BA022091BB023091BC025801690100E01C
:1008900010E09301A401B101C2010E94B60800E179
:1008A0000E94B409C901DA018093B1029093B202A7
:1008B000A093B302B093B40280E090E8A0E0B0E06F
:1008C0008093940290939502A0939602B09397021E
:1008D0009301A401B101C2010FE00E94990900E156
:1008E0000E94B409C901DA018093A0029093A10289
:1008F000A093A202B093A3028FE080937E0082E8CF
:1009000080937A000E945D038091B10081608093A2
:10091000B1008091B1008D7F8093B1008091B100D2
:100920008B7F8093B1008091B0008F7B8093B0006B
:100930008091B00080688093B0008091B0008160A9
:100940008093B0008091B0008D7F8093B000809143
:10095000B100877F8093B100789420919402309108
:100960009502409196025091970260918D0270918C
:100970008E0280918F02909190020E940F090E9436
:10098000B409C901DA018093A0029093A102A09357
:10099000A202B093A302F8942091C40230910D01F9
:1009A0004091C6028091C502992787FD9095840FDA
:1009B000911D47FD9A95830F911D3CE02302800D08
:1009C000911D112497FD35C1883591050CF004C1A6
:1009D000F8948091C40220910D01E091C602FF2796
:1009E000E7FDF0959091C502E20FF11DE90FF11DB1
:1009F00097FDFA959CE08902E00DF11D1124EE0FA0
:100A0000FF1FEE0FFF1FE25FFE4F80819181A281E9
:100A1000B3818093CA029093CB02A093CC02B0938F
:100A2000CD0278942091C7028091C8029091C902AA
:100A3000820F911D27FD9A9547E2489F9001499F9B
:100A4000300D1124442737FD4095542FF8946091C0
:100A5000CA027091CB028091CC029091CD020E948B
:100A60009B08BB2797FDB095AB2F4091CA025091D0
:100A7000CB026091CC027091CD02840F951FA61F0E
:100A8000B71F8093CA029093CB02A093CC02B0937D
:100A9000CD0278942091AD02309108014091AF02CF
:100AA0008091AE02992787FD9095840F911D47FD97
:100AB0009A95830F911D3CE02302800D911D112416
:100AC00097FDA8C0883591050CF095C0F8948091E9
:100AD000AD0220910801E091AF02FF27E7FDF095FC
:100AE0009091AE02E20FF11DE90FF11D97FDFA950D
:100AF0009CE08902E00DF11D1124EE0FFF1FEE0FA7
:100B0000FF1FE25FFE4F80819181A281B3818093BC
:100B1000B1029093B202A093B302B093B40278945E
:100B20002091B00280910A0190910B01820F911DDA
:100B300027FD9A9547E2489F9001499F300D112467
:100B4000442737FD4095542FF8946091B10270917D
:100B5000B2028091B3029091B4020E949B08BB271D
:100B600097FDB095AB2F4091B1025091B2026091C8
:100B7000B3027091B402840F951FA61FB71F809314
:100B8000B1029093B202A093B302B093B4027894EE
:100B9000239A80917000816080937000789489E638
:100BA00093E090939202809391020F900F900F9098
:100BB0000F90DF91CF911F910F91FF90EF90DF90F9
:100BC000CF90BF90AF909F908F907F906F905F90ED
:100BD0004F903F902F900895F89480E89BE1A2E217
:100BE000B0E08093CA029093CB02A093CC02B09362
:100BF000CD02789417CFF89480E89BE1A2E2B0E0B0
:100C00008093B1029093B202A093B302B093B40266
:100C1000789486CFF8948DE599E3A0E0B0E08093D6
:100C2000B1029093B202A093B302B093B40278944D
:100C300077CFF8948DE599E3A0E0B0E08093CA0205
:100C40009093CB02A093CC02B093CD027894EACEDD
:100C50000E949603FFCF1F920F920FB60F9211249E
:100C60002F938F939F93EF93FF932091E602E22FB0
:100C7000F0E08091780090917900EE0FFF1FE25232
:100C8000FD4F918380832F5F243078F01092E6022D
:100C900020E020937C00FF91EF919F918F912F9105
:100CA0000F900FBE0F901F9018952093E602F1CF82
:100CB0001F920F920FB60F9211248F929F92AF92B4
:100CC000BF92CF92DF92EF92FF921F932F933F93A9
:100CD0004F935F936F937F938F939F93AF93BF9344
:100CE000EF93FF93CF93DF9300D0CDB7DEB7809122
:100CF0000601882309F45BC18091000190910101F4
:100D00009C013695279580FDB8C130930101209351
:100D100000018091D2029091D302A091D402B091AF
:100D2000D5028093CE029093CF02A093D002B093CD
:100D3000D1024091D6025091D7026091D8027091B1
:100D4000D9024093D2025093D3026093D40270939D
:100D5000D5028091CA029091CB02A091CC02B091B1
:100D6000CD02840F951FA61FB71F8093D6029093C4
:100D7000D702A093D802B093D9024091BF025091FC
:100D8000C0025093BE024093BD024091C1025091F7
:100D9000C2025093C0024093BF025091050160917E
:100DA000D8024091C302460FE52FF0E0EE0FFF1F7F
:100DB000E259FD4F0190F081E02DE40FF11DE8595B
:100DC000FF4FE491553009F452C14E2F50E050933B
:100DD000C2024093C1028090B1029090B202A090F2
:100DE000B302B090B402C090B502D090B602E090C9
:100DF000B702F090B802C80CD91CEA1CFB1CC092C8
:100E0000B502D092B602E092B702F092B8027091A9
:100E1000A502772339F07091D402E091D0027E17B9
:100E200008F42EC1A0910401A530B1F08091AC026C
:100E3000E091B702F0E0E80FF11D87FDFA95B0E010
:100E4000AA0FBB1FA259BD4F8D919C91E80FF91FAE
:100E5000E859FF4F249130E0C090A002D090A10249
:100E6000E090A202F090A30280919C0290919D02DA
:100E7000A0919E02B0919F028C0D9D1DAE1DBF1DC5
:100E800080939C0290939D02A0939E02B0939F0238
:100E900060919A0270919B027093990260939802FC
:100EA000E0919302F0E0EE0FFF1FE259FD4F8091B9
:100EB0009E020190F081E02DE80FF11DE859FF4FEF
:100EC000E491F0E0E058F109F0939B02E0939A027C
:100ED000A0910C01A49FC001A59F900D1124909397
:100EE000C2028093C102A0910901A29FA001A39F09
:100EF000500D11245093AB024093AA022091A402FA
:100F0000222309F472C0482759275A834983481776
:100F1000590720F480E09FEF9A8389838A81282FE4
:100F200030E03A83298390910201923009F4D6C0CF
:100F300008F060C0992309F4AFC0913009F0EDC00A
:100F400040917D0250917E0280917C02A09103012C
:100F5000B0E0A80FB11D87FDBA95B7FDE0C0AF3F67
:100F6000B10519F014F0AFEFB0E0241B350BA29FD0
:100F7000C001A39F900DB29F900D11249A83898385
:100F80008A819B81840F951F9A83898390937E0227
:100F900080937D02182F6E177F0739F0E091910240
:100FA000F0919202309709F009951093B3000F90D9
:100FB0000F90DF91CF91FF91EF91BF91AF919F91F2
:100FC0008F917F916F915F914F913F912F911F91E1
:100FD000FF90EF90DF90CF90BF90AF909F908F9059
:100FE0000F900FBE0F901F901895480F591F5A83EE
:100FF00049838DCF933009F452C0943009F08DC0ED
:101000004091030180917C02992787FD9095840F80
:10101000911D97FD8DC0A0917D02B0917E028F3F02
:10102000910519F014F08FEF90E02A1B3B0B829F83
:10103000A001839F500D929F500D11245A83498324
:101040004A815B814A0F5B1FA0E0B0E0BA83A983AD
:101050008A819B81840F951FA0E0B0E0BA83A983A9
:101060004A815B81480F591F80E090E087CF309321
:10107000C2022093C102A901AECE84EB382745CE2F
:10108000761708F0CFCE8093B5029093B602A09366
:10109000B702B093B802C6CE0000182F7CCF4091A3
:1010A0007D0250917E02A091030180917C029927DC
:1010B00087FD90958A0F911D97FD37C08F3F910551
:1010C00019F014F08FEF90E0241B350B829FD001B4
:1010D000839FB00D929FB00D1124B8CF80917D02F7
:1010E00090917E02A091030140917C02552747FD1B
:1010F00050954A0F511D57FD15C04F3F510519F02E
:1011000014F04FEF50E0281B390B429FD001439F52
:10111000B00D529FB00D1124A1CF182F3CCFA0E0ED
:10112000B0E01DCF40E050E0E8CF80E090E0C6CFD7
:1011300080E090E070CFDB018F939F930E94AB081B
:10114000BF91AF91A29F800D911DA39F900DB29F63
:10115000900D112408950E94D009A59F900DB49F71
:10116000900DA49F800D911D11240895DF93CF93BE
:101170001F930F939A9DF02D219FF00D8B9DF00DE5
:101180008A9DE02DF10D039FF00D029FE00DF11DF2
:101190004E9DE00DF11D5E9DF00D4F9DF00D7F9376
:1011A0006F93BF92AF925F934F93D5010E94D00986
:1011B0008B01AC01D7010E94D009EB01E80FF91FA8
:1011C000D6010E9406092F913F91D6010E94D009B5
:1011D000C60FD71FE81FF91FAF91BF910E940609E4
:1011E0002F913F910E94D009C60FD71FE81FF91F0A
:1011F000D6010E94D009E60FF71F9801BE01CF016A
:1012000011240F911F91CF91DF9108950E94D00971
:10121000460F571FC81FD91F08F431960895E89448
:10122000DF93CF93FC01DB010E94D0097F936F9382
:10123000E9019A01AC01BF93AF933F932F93DF0174
:101240000E94D00926F46C1B7D0B820B930B9E0130
:10125000EB01FC010E940609AF91BF912F913F91D4
:101260000E940609BE01CF01F9012F913F91CF9154
:10127000DF910895689401C0E8948F929F92CF9374
:10128000DF930E944809DF91CF919F908F9008953E
:1012900088249924F401E401B0E49F93AA279A15C5
:1012A0008B049C04ED05FE05CF05D007A10798F43B
:1012B000AD2FDC2FCF2FFE2FE92D982C892E982FC4
:1012C000872F762F652F542F432F322F2227B85088
:1012D00031F7BF9127C01B2EBF91BB27220F331FB1
:1012E000441F551F661F771F881F991F881C991C54
:1012F000EE1FFF1FCC1FDD1FAA1FBB1F8A149B04FC
:10130000EC05FD05CE05DF05A007B10748F08A18FA
:101310009B08EC09FD09CE09DF09A00BB10B216088
:101320001A94E1F62EF49401AF01BE01CD01000C38
:1013300008950F93083090F0982F872F762F652F00
:10134000542F432F322F22270850F4CF220F331F60
:10135000441F551F661F771F881F991F0A95B2F7F4
:101360000F91089597FB10F8169400080F9308301A
:1013700098F00850232F342F452F562F672F782FA2
:10138000892F902DF4CF059497958795779567953C
:1013900057954795379527950A95AAF70F91089580
:1013A000A29FB001B39FC001A39F700D811D1124A6
:1013B000911DB29F700D811D1124911D0895F89407
:0213C000FFCF5D
:1013C200E1AC01FF020201FF308001007F305D3994
:1013D2000000C33C00006340000037440000454861
:1013E2000000924C00001F510000F25500000E5BFD
:1013F20000007960000035660000496C0000BA7296
:10140200000086790000C68000006E8800008A9085
:101412000000249900003EA20000E4AB00001CB6CC
:101422000000F2C000006ACC000092D8000074E50F
:1014320000000CF300008C010100DC1001001421FB
:101442000100483201007C440100C8570100386C99
:101452000100E4810100D498010024B10100E8CA2E
:10146200010018E6010018030200B8210200284218
:10147200020090640200F888020090AF020070D867
:101482000200C8030300A831030048620300D0959C
:10149200030030CC03003006040070430400508483
:1014A200040020C90400F0110500205F0500E0B02F
:1014B2000500900706005063060090C40600A02BAA
:1014C200070060980700600C0800E0860800A0088A
:1014D200090040920900E0230A0040BE0A00C061F0
:1014E2000B00200F0C00A0C60C0020890D004057F5
:1014F2000E00C0300F00C0181000C00D11004011C6
:10150200120080241300C0471400807C150080C3A1
:101512001600401E1800408D190040121B0080AEBC
:101522001C0080611E0080312000801B2200000010
:0C1532000001000200030004000000059E
:00000001FF
