S010000053796E74684C43442E737265632B
S11300000C9434030C9451030C9451030C94510339
S11300100C9451030C9451030C9451030C9451030C
S11300200C9451030C9460070C9451030C945103E9
S11300300C9451030C9451030C9451030C945103EC
S11300400C9451030C9451030C9491030C9451039C
S11300500C945F030C9433070C9451030C945103D8
S11300600C9451030C94510300000000010101029F
S113007002030405050607090A0B0C0E0F101214DF
S11300801517191B1D1F212325272A2C2E31333622
S1130090383B3E404346494C4E5154575A5D606389
S11300A066696C6F7376797C7F8285888B8F929575
S11300B0989B9EA1A4A7AAADB0B2B5B8BBBEC0C35D
S11300C0C6C8CBCDD0D2D4D7D9DBDDDFE1E3E5E7B9
S11300D0E9EAECEEEFF0F2F3F4F5F7F8F9F9FAFBEC
S11300E0FCFCFDFDFDFEFEFEFEFEFEFEFDFDFDFC38
S11300F0FCFBFAF9F9F8F7F5F4F3F2F0EFEEECEAB9
S1130100E9E7E5E3E1DFDDDBD9D7D4D2D0CDCBC855
S1130110C6C3C0BEBBB8B5B2B0ADAAA7A4A19E9BCE
S11301209895928F8B8885827F7C7976736F6C69C2
S11301306663605D5A5754514E4C494643403E3BBA
S1130140383633312E2C2A272523211F1D1B19173E
S1130150151412100F0E0C0B0A09070605050403EB
S113016002020101010000008081838587898B8D53
S113017090929496989A9D9FA1A4A6A8AAADAFB177
S1130180B3B5B7B9BBBDBFC1C3C5C6C8CACCCED051
S1130190D2D5D7D9DCDEE0E3E5E8EAEDEFF1F4F619
S11301A0F8F9FBFCFDFEFFFFFFFFFEFEFDFBFAF886
S11301B0F7F5F3F0EEECE9E7E4E2DFDDDAD8D6D4E4
S11301C0D1CFCDCBC9C7C5C4C2C0BEBCBAB8B6B402
S11301D0B2B0AEABA9A7A5A2A09E9C999795939106
S11301E08E8C8A88868482807F7D7B797775737113
S11301F06E6C6A686663615F5D5A585654514F4D20
S11302004B49474543413F3D3B3A38363432302E23
S11302102B29272522201D1B181613110F0C0A0841
S1130220070504020101000000000102030406079F
S1130230090B0E101215171A1C1F212326282A2D0C
S11302402F31333537393A3C3E40424446484A4CD4
S11302504E50525557595B5E60626567696B6D6FAE
S1130260727476787A7C7E7F57575757575656550F
S1130270545351504E4D4B494745444241403F3EF3
S11302803D3D3D3D3D3D3D3D3D3D3D3D3C3C3B39A2
S113029038373533312F2E2C2A2927262525242497
S11302A024242525262627272727272726252322F2
S11302B0201E1C1A181614131110100F0F101112EF
S11302C0131517181A1C1D1E1E1F1E1D1C1A181587
S11302D0120F0C0806030100000103060B1118217C
S11302E02B3642505E6C7B8A99A7B5C2CFDAE3EC19
S11302F0F3F8FCFEFFFFFDFAF6F2EDE8E2DCD7D1FD
S1130300CCC8C4C1BEBCBAB9B9B9B9B9BABABBBB15
S1130310BBBBBABAB8B7B5B3B0ADABA8A5A29F9DE5
S11303209B99979694949393939393939393939382
S11303309291908F8E8C8A88868482807E7C7A7952
S1130340777675757474747373737373737372726D
S113035071706F6D6C6A68666462615F5D5C5B5A44
S11303605958585757575757A8A8A8A8A8A9A9AA89
S1130370ABACAEAFB1B2B4B6B8BABBBDBEBFC0C110
S1130380C2C2C2C2C2C2C2C2C2C2C2C2C3C3C4C641
S1130390C7C8CACCCED0D1D3D5D6D8D9DADADBDB2C
S11303A0DBDBDADAD9D9D8D8D8D8D8D8D9DADCDDB1
S11303B0DFE1E3E5E7E9EBECEEEFEFF0F0EFEEED94
S11303C0ECEAE8E7E5E3E2E1E1E0E1E2E3E5E7EADC
S11303D0EDF0F3F7F9FCFEFFFFFEFCF9F4EEE7DEC7
S11303E0D4C9BDAFA193847566584A3D30251C130A
S11303F00C07030100000205090D12171D23282E06
S113040033373B3E414345464646464645454444CC
S11304104444454547484A4C4F5254575A5D6062DC
S1130420646668696B6B6C6C6C6C6C6C6C6C6C6C1F
S11304306D6E6F7071737577797B7D7F818385862F
S113044088898A8A8B8B8B8C8C8C8C8C8C8C8D8DF4
S11304508E8F9092939597999B9D9EA0A2A3A4A5FD
S1130460A6A7A7A8A8A8A8A87F8D9AA7B4C0CBD5EB
S1130470DEE6EDF3F7FBFDFFFFFFFDFBF9F6F3F01E
S1130480EDEAE8E5E3E2E0E0E0E0E1E2E3E5E7E924
S1130490EBEDEFF0F2F3F4F4F4F4F3F3F1F0EEED4A
S11304A0EBE9E8E6E5E4E3E3E3E3E4E4E6E7E8EAEA
S11304B0ECEEEFF1F2F3F4F4F4F4F3F2F1EFEEEC2A
S11304C0EAE8E6E4E2E1E0E0E0E0E1E2E4E6E9ECE7
S11304D0EFF2F5F8FAFCFEFFFFFEFCF9F5F0EAE2B4
S11304E0D9D0C5BAAEA19486796B5E51453A2F2610
S11304F01D150F0A0603010000010305070A0D106C
S11305001316191B1D1E1F1F1F1F1E1D1B19171538
S11305101311100E0D0C0B0B0B0B0C0D0E101113F5
S1130520151718191B1B1C1C1C1C1B1A1917161435
S113053012110F0E0C0C0B0B0B0B0C0D0F101214D5
S113054016181A1C1D1E1F1F1F1F1D1C1A171512FB
S11305500F0C090604020000000204080C12192101
S11305602A343F4B5865727F0000000000000000F1
S11305700000000000000000000000000000000077
S11305800000000000000000000000000000000067
S11305900000000000000000000000000000000057
S11305A00000000000000000000000000000000047
S11305B00000000000000000000000000000000037
S11305C00000000000000000000000000000000027
S11305D00000000000000000000000000000000017
S11305E00000000000000000000000000000000007
S11305F000000000000000000000000000000000F7
S113060000000000000000000000000000000000E6
S113061000000000000000000000000000000000D6
S113062000000000000000000000000000000000C6
S113063000000000000000000000000000000000B6
S113064000000000000000000000000000000000A6
S11306500000000000000000000000000000000096
S1130660000000000000000011241FBECFEFD8E0FE
S1130670DEBFCDBF12E0A0E0B1E0E8E4F4E102C0E7
S113068005900D92AA37B107D9F724E0AAE7B2E0A2
S113069001C01D92A63EB207E1F70E9430070C94F8
S11306A0220A0C9400001092C5008FE18093C400CC
S11306B088ED8093C10086E08093C20008951F9264
S11306C00F920FB60F9211248F939F93EF93FF9382
S11306D0809180039091810301979093810380938B
S11306E08003181619065CF4E0918203F0918303E9
S11306F0EE27F170EC57FC4F80818093C600809107
S113070082039091830301969093830380938203E1
S1130710FF91EF919F918F910F900FBE0F901F90BB
S113072018951F920F920FB60F9211242F933F9397
S11307304F935F936F937F938F939F93AF93BF93E5
S1130740EF93FF9380917E0290917F022091C600E7
S1130750FC01EE27F170E058FD4F20830196909341
S11307607F0280937E0280917C0290917D020196AB
S113077090937D0280937C02E0917A02F0917B0257
S1130780309709F00995FF91EF91BF91AF919F9137
S11307908F917F916F915F914F913F912F910F9026
S11307A00FBE0F901F901895CF93DF9300D0CDB755
S11307B0DEB72091990430919A042115310509F08E
S11307C0ABC04FEF5FEF429FC001439F900D529F1C
S11307D0900D112490939A048093990440910501FB
S11307E0489F9001499F300D11243A8329838A81BF
S11307F08093AF042091AC04309106014091AE0483
S11308008091AD04992787FD9095840F911D47FD34
S11308109A95830F911D3CE02302800D911D1124B4
S113082097FD7DC0883591050CF067C0F8948091E0
S1130830AC0420910601E091AE04FF27E7FDF0959A
S11308409091AD04E20FF11DE90FF11D97FDFA95AA
S11308509CE08902E00DF11D1124EE0FFF1FEE0F45
S1130860FF1FE45FFE4F80819181A281B381809359
S1130870B0049093B104A093B204B093B3047894F9
S11308802091AF048091080190910901820F911D7C
S113089027FD9A9547E2489F9001499F300D112406
S11308A0442737FD4095542FF8946091B00470911B
S11308B0B1048091B2049091B3040E94DE08BB2776
S11308C097FDB095AB2F4091B0045091B104609165
S11308D0B2047091B304840F951FA61FB71F8093B1
S11308E0B0049093B104A093B204B093B304789489
S11308F00F900F90DF91CF910895F89480E89BE1D9
S1130900A2E2B0E08093B0049093B104A093B20447
S1130910B093B3047894B4CF41E050E054CFF8944A
S11309208DE599E3A0E0B0E08093B0049093B10426
S1130930A093B204B093B3047894A2CF2F923F92C1
S11309404F925F926F927F928F929F92AF92BF92DB
S1130950CF92DF92EF92FF920F931F93CF93DF9387
S113096000D000D0CDB7DEB780E09DE8ACE8BAE7B0
S11309708093880490938904A0938A04B0938B0491
S113098081E090E09C838B831A82198289809A800B
S1130990AB80BC809401A50160E070E080E090E051
S11309A000E10E94DC09A12CBDE8BB2E1CE8C12E8D
S11309B00AE7D02EE12CF12C00E010E00E947F0920
S11309C020938404309385044093860450938704D1
S11309D080E091E09C838B8389809A80AB80BC808B
S11309E09401A50160E070E080E090E000E10E94E5
S11309F0DC09A12CEDE8BE2EFCE8CF2EAAE7DA2E06
S1130A00E12CF12C00E00E947F0939014A011B010D
S1130A102C01322F30938C0470928D0480928E04BA
S1130A2090928F0480E793E09093DC048093DB043E
S1130A301092DA041092D9040091D9041091DA04C6
S1130A402091DB043091DC045801690100E010E0DE
S1130A509301A401B101C2010E94F90800E10E94BE
S1130A60F709C901DA018093C9049093CA04A093D9
S1130A70CB04B093CC0480E793E09093BB048093C1
S1130A80BA041092B9041092B8040091B8041091F9
S1130A90B9042091BA043091BB045801690100E003
S1130AA010E09301A401B101C2010E94F90800E120
S1130AB00E94F709C901DA018093B0049093B1044C
S1130AC0A093B204B093B30480E090E8A0E0B0E057
S1130AD08093930490939404A0939504B093960404
S1130AE09301A401B101C2010FE00E94DC0900E1FD
S1130AF00E94F709C901DA0180939F049093A0042E
S1130B00A093A104B093A2048FE080937E0082E8B6
S1130B1080937A000E9453038091B1008160809396
S1130B20B1008091B1008D7F8093B1008091B100BC
S1130B308B7F8093B1008091B0008F7B8093B00055
S1130B408091B00080688093B0008091B000816093
S1130B508093B0008091B0008D7F8093B00080912D
S1130B60B100877F8093B1007894209193043091F1
S1130B709404409195045091960460918C04709172
S1130B808D0480918E0490918F040E9452090E94DA
S1130B90F709C901DA0180939F049093A004A093FC
S1130BA0A104B093A204F8942091C30430910B01E2
S1130BB04091C5048091C404992787FD9095840FC2
S1130BC0911D47FD9A95830F911D3CE02302800DF2
S1130BD0911D112497FD35C1883591050CF004C190
S1130BE0F8948091C30420910B01E091C504FF2780
S1130BF0E7FDF0959091C404E20FF11DE90FF11D9A
S1130C0097FDFA959CE08902E00DF11D1124EE0F89
S1130C10FF1FEE0FFF1FE45FFE4F80819181A281D1
S1130C20B3818093C9049093CA04A093CB04B09376
S1130C30CC0478942091C6048091C7049091C80490
S1130C40820F911D27FD9A9547E2489F9001499F85
S1130C50300D1124442737FD4095542FF8946091AA
S1130C60C9047091CA048091CB049091CC040E9471
S1130C70DE08BB2797FDB095AB2F4091C904509176
S1130C80CA046091CB047091CC04840F951FA61FF5
S1130C90B71F8093C9049093CA04A093CB04B09364
S1130CA0CC0478942091AC04309106014091AE04B8
S1130CB08091AD04992787FD9095840F911D47FD80
S1130CC09A95830F911D3CE02302800D911D112400
S1130CD097FDA8C0883591050CF095C0F8948091D3
S1130CE0AC0420910601E091AE04FF27E7FDF095E6
S1130CF09091AD04E20FF11DE90FF11D97FDFA95F6
S1130D009CE08902E00DF11D1124EE0FFF1FEE0F90
S1130D10FF1FE45FFE4F80819181A281B3818093A4
S1130D20B0049093B104A093B204B093B304789444
S1130D302091AF048091080190910901820F911DC7
S1130D4027FD9A9547E2489F9001499F300D112451
S1130D50442737FD4095542FF8946091B004709166
S1130D60B1048091B2049091B3040E94DE08BB27C1
S1130D7097FDB095AB2F4091B0045091B1046091B0
S1130D80B2047091B304840F951FA61FB71F8093FC
S1130D90B0049093B104A093B204B093B3047894D4
S1130DA0239A80917000816080937000789484ED20
S1130DB093E090939104809390040F900F900F9080
S1130DC00F90DF91CF911F910F91FF90EF90DF90E3
S1130DD0CF90BF90AF909F908F907F906F905F90D7
S1130DE04F903F902F900895F89480E89BE1A2E201
S1130DF0B0E08093C9049093CA04A093CB04B09349
S1130E00CC04789417CFF89480E89BE1A2E2B0E098
S1130E108093B0049093B104A093B204B093B3044C
S1130E20789486CFF8948DE599E3A0E0B0E08093C0
S1130E30B0049093B104A093B204B093B304789433
S1130E4077CFF8948DE599E3A0E0B0E08093C904EE
S1130E509093CA04A093CB04B093CC047894EACEC4
S1130E600E949E04FFCF1F920F920FB60F9211247F
S1130E702F938F939F93EF93FF932091E504E22F99
S1130E80F0E08091780090917900EE0FFF1FE3521B
S1130E90FB4F918380832F5F243078F01092E50418
S1130EA020E020937C00FF91EF919F918F912F91EF
S1130EB00F900FBE0F901F9018952093E504F1CF6B
S1130EC01F920F920FB60F9211248F929F92AF929E
S1130ED0BF92CF92DF92EF92FF922F933F934F9363
S1130EE05F936F937F938F939F93AF93BF93EF938E
S1130EF0FF93CF93DF9300D000D0CDB7DEB78091BE
S1130F000401882309F41BC180910001909101011F
S1130F109C013695279580FD42C1309301012093B1
S1130F2000018091D1049091D204A091D304B09196
S1130F30D4048093CD049093CE04A093CF04B093B3
S1130F40D0044091D5045091D6046091D704709197
S1130F50D8044093D1045093D2046093D304709383
S1130F60D4048091C9049091CA04A091CB04B09197
S1130F70CC04840F951FA61FB71F8093D5049093AC
S1130F80D604A093D704B093D8044091BE045091E2
S1130F90BF045093BD044093BC044091C0045091DD
S1130FA0C1045093BF044093BE0450910301609167
S1130FB0D7044091C204460FE52FF0E0EE0FFF1F67
S1130FC0E459FD4F0190F081E02DE40FF11DE85943
S1130FD0FF4FE491553009F4DCC04E2F50E050939C
S1130FE0C1044093C0048090B0049090B104A090D8
S1130FF0B204B090B304C090B404D090B504E090AF
S1131000B604F090B704C80CD91CEA1CFB1CC092AF
S1131010B404D092B504E092B604F092B70470918F
S1131020A404772339F07091D304E091CF047E17A0
S113103008F4B8C0A0910201A530B1F08091AB04CE
S1131040E091B604F0E0E80FF11D87FDFA95B0E0F9
S1131050AA0FBB1FA459BD4F8D919C91E80FF91F96
S1131060E859FF4F249130E0C0909F04D090A00431
S1131070E090A104F090A20480919B0490919C04C0
S1131080A0919D04B0919E048C0D9D1DAE1DBF1DAD
S113109080939B0490939C04A0939D04B0939E041E
S11310A06091990470919A047093980460939704E2
S11310B0E0919204F0E0EE0FFF1FE459FD4F8091A0
S11310C09D040190F081E02DE80FF11DE859FF4FD8
S11310D0E491F0E0E058F109F0939A04E093990464
S11310E0A0910A01A49FC001A59F900D1124909383
S11310F0C1048093C004A0910701A29FA001A39FF3
S1131100500D11245093AA044093A9042091A304E0
S11311102223A1F184279527A0E0B0E089839A8354
S1131120AB83BC836E177F0739F0E0919004F09194
S11311309104309709F009958A818093B3000F9048
S11311400F900F900F90DF91CF91FF91EF91BF918E
S1131150AF919F918F917F916F915F914F913F914B
S11311602F91FF90EF90DF90CF90BF90AF909F9022
S11311708F900F900FBE0F901F901895A0E0B0E0D5
S1131180840F951FA11DB11D89839A83AB83BC83F2
S1131190C9CF3093C1042093C004A90124CF84EBA8
S11311A03827BBCE761708F045CF8093B4049093CC
S11311B0B504A093B604B093B7043CCFDB018F937E
S11311C09F930E94EE08BF91AF91A29F800D911D45
S11311D0A39F900DB29F900D112408950E94130AAD
S11311E0A59F900DB49F900DA49F800D911D112477
S11311F00895DF93CF931F930F939A9DF02D219F12
S1131200F00D8B9DF00D8A9DE02DF10D039FF00DE7
S1131210029FE00DF11D4E9DE00DF11D5E9DF00D50
S11312204F9DF00D7F936F93BF92AF925F934F9357
S1131230D5010E94130A8B01AC01D7010E94130A45
S1131240EB01E80FF91FD6010E9449092F913F9144
S1131250D6010E94130AC60FD71FE81FF91FAF91CA
S1131260BF910E9449092F913F910E94130AC60F12
S1131270D71FE81FF91FD6010E94130AE60FF71FB4
S11312809801BE01CF0111240F911F91CF91DF91DD
S113129008950E94130A460F571FC81FD91F08F448
S11312A031960895E894DF93CF93FC01DB010E940B
S11312B0130A7F936F93E9019A01AC01BF93AF9333
S11312C03F932F93DF010E94130A26F46C1B7D0BBE
S11312D0820B930B9E01EB01FC010E944909AF9123
S11312E0BF912F913F910E944909BE01CF01F9019D
S11312F02F913F91CF91DF910895689401C0E894B4
S11313008F929F92CF93DF930E948B09DF91CF91AD
S11313109F908F90089588249924F401E401B0E407
S11313209F93AA279A158B049C04ED05FE05CF050F
S1131330D007A10798F4AD2FDC2FCF2FFE2FE92D76
S1131340982C892E982F872F762F652F542F432F73
S1131350322F2227B85031F7BF9127C01B2EBF91DF
S1131360BB27220F331F441F551F661F771F881F7B
S1131370991F881C991CEE1FFF1FCC1FDD1FAA1F7D
S1131380BB1F8A149B04EC05FD05CE05DF05A007F1
S1131390B10748F08A189B08EC09FD09CE09DF095A
S11313A0A00BB10B21601A94E1F62EF49401AF0165
S11313B0BE01CD01000C08950F93083090F0982FD2
S11313C0872F762F652F542F432F322F2227085033
S11313D0F4CF220F331F441F551F661F771F881F2A
S11313E0991F0A95B2F70F91089597FB10F8169478
S11313F000080F93083098F00850232F342F452FFE
S1131400562F672F782F892F902DF4CF0594979519
S113141087957795679557954795379527950A95B5
S1131420AAF70F910895A29FB001B39FC001A39F93
S1131430700D811D1124911DB29F700D811D112409
S10B1440911D0895F894FFCFFB
S1131448E1AC020201FF308001007F305D39000009
S1131458C33C0000634000003744000045480000D6
S1131468924C00001F510000F25500000E5B000072
S11314787960000035660000496C0000BA7200000B
S113148886790000C68000006E8800008A900000FB
S1131498249900003EA20000E4AB00001CB6000042
S11314A8F2C000006ACC000092D8000074E5000085
S11314B80CF300008C010100DC1001001421010070
S11314C8483201007C440100C8570100386C01000F
S11314D8E4810100D498010024B10100E8CA0100A4
S11314E818E6010018030200B8210200284202008D
S11314F890640200F888020090AF020070D80200DD
S1131508C8030300A831030048620300D095030010
S113151830CC0300300604007043040050840400F7
S113152820C90400F0110500205F0500E0B00500A3
S1131538900706005063060090C40600A02B07001D
S113154860980700600C0800E0860800A0080900FD
S113155840920900E0230A0040BE0A00C0610B0063
S1131568200F0C00A0C60C0020890D0040570E0067
S1131578C0300F00C0181000C00D11004011120037
S113158880241300C0471400807C150080C3160013
S1131598401E1800408D190040121B0080AE1C002C
S11315A880611E0080312000801B220000000001A1
S10D15B80002000300040000000517
S9030000FC
