:100000000C9480030C949D030C949D030C949D030D
:100010000C949D030C949D030C949D030C949D03E0
:100020000C949D030C9411230C949D030C949D033C
:100030000C949D030C949D030C949D030C949D03C0
:100040000C949D030C949D030C9466210C949D03C9
:100050000C949D030C94DA220C949D030C949D0344
:100060000C949D030C949D0300000000010101020B
:1000700002030405050607090A0B0C0E0F101214E3
:100080001517191B1D1F212325272A2C2E31333626
:10009000383B3E404346494C4E5154575A5D60638D
:1000A00066696C6F7376797C7F8285888B8F929579
:1000B000989B9EA1A4A7AAADB0B2B5B8BBBEC0C361
:1000C000C6C8CBCDD0D2D4D7D9DBDDDFE1E3E5E7BD
:1000D000E9EAECEEEFF0F2F3F4F5F7F8F9F9FAFBF0
:1000E000FCFCFDFDFDFEFEFEFEFEFEFEFDFDFDFC3C
:1000F000FCFBFAF9F9F8F7F5F4F3F2F0EFEEECEABD
:10010000E9E7E5E3E1DFDDDBD9D7D4D2D0CDCBC859
:10011000C6C3C0BEBBB8B5B2B0ADAAA7A4A19E9BD2
:100120009895928F8B8885827F7C7976736F6C69C6
:100130006663605D5A5754514E4C494643403E3BBE
:10014000383633312E2C2A272523211F1D1B191742
:10015000151412100F0E0C0B0A09070605050403EF
:1001600002020101010000008081838587898B8D57
:1001700090929496989A9D9FA1A4A6A8AAADAFB17B
:10018000B3B5B7B9BBBDBFC1C3C5C6C8CACCCED055
:10019000D2D5D7D9DCDEE0E3E5E8EAEDEFF1F4F61D
:1001A000F8F9FBFCFDFEFFFFFFFFFEFEFDFBFAF88A
:1001B000F7F5F3F0EEECE9E7E4E2DFDDDAD8D6D4E8
:1001C000D1CFCDCBC9C7C5C4C2C0BEBCBAB8B6B406
:1001D000B2B0AEABA9A7A5A2A09E9C99979593910A
:1001E0008E8C8A88868482807F7D7B797775737117
:1001F0006E6C6A686663615F5D5A585654514F4D24
:100200004B49474543413F3D3B3A38363432302E27
:100210002B29272522201D1B181613110F0C0A0845
:1002200007050402010100000000010203040607A3
:10023000090B0E101215171A1C1F212326282A2D10
:100240002F31333537393A3C3E40424446484A4CD8
:100250004E50525557595B5E60626567696B6D6FB2
:10026000727476787A7C7E7F575757575756565513
:10027000545351504E4D4B494745444241403F3EF7
:100280003D3D3D3D3D3D3D3D3D3D3D3D3C3C3B39A6
:1002900038373533312F2E2C2A292726252524249B
:1002A00024242525262627272727272726252322F6
:1002B000201E1C1A181614131110100F0F101112F3
:1002C000131517181A1C1D1E1E1F1E1D1C1A18158B
:1002D000120F0C0806030100000103060B11182180
:1002E0002B3642505E6C7B8A99A7B5C2CFDAE3EC1D
:1002F000F3F8FCFEFFFFFDFAF6F2EDE8E2DCD7D101
:10030000CCC8C4C1BEBCBAB9B9B9B9B9BABABBBB19
:10031000BBBBBABAB8B7B5B3B0ADABA8A5A29F9DE9
:100320009B99979694949393939393939393939386
:100330009291908F8E8C8A88868482807E7C7A7956
:100340007776757574747473737373737373727271
:1003500071706F6D6C6A68666462615F5D5C5B5A48
:100360005958585757575757A8A8A8A8A8A9A9AA8D
:10037000ABACAEAFB1B2B4B6B8BABBBDBEBFC0C114
:10038000C2C2C2C2C2C2C2C2C2C2C2C2C3C3C4C645
:10039000C7C8CACCCED0D1D3D5D6D8D9DADADBDB30
:1003A000DBDBDADAD9D9D8D8D8D8D8D8D9DADCDDB5
:1003B000DFE1E3E5E7E9EBECEEEFEFF0F0EFEEED98
:1003C000ECEAE8E7E5E3E2E1E1E0E1E2E3E5E7EAE0
:1003D000EDF0F3F7F9FCFEFFFFFEFCF9F4EEE7DECB
:1003E000D4C9BDAFA193847566584A3D30251C130E
:1003F0000C07030100000205090D12171D23282E0A
:1004000033373B3E414345464646464645454444D0
:100410004444454547484A4C4F5254575A5D6062E0
:10042000646668696B6B6C6C6C6C6C6C6C6C6C6C23
:100430006D6E6F7071737577797B7D7F8183858633
:1004400088898A8A8B8B8B8C8C8C8C8C8C8C8D8DF8
:100450008E8F9092939597999B9D9EA0A2A3A4A501
:10046000A6A7A7A8A8A8A8A87F8D9AA7B4C0CBD5EF
:10047000DEE6EDF3F7FBFDFFFFFFFDFBF9F6F3F022
:10048000EDEAE8E5E3E2E0E0E0E0E1E2E3E5E7E928
:10049000EBEDEFF0F2F3F4F4F4F4F3F3F1F0EEED4E
:1004A000EBE9E8E6E5E4E3E3E3E3E4E4E6E7E8EAEE
:1004B000ECEEEFF1F2F3F4F4F4F4F3F2F1EFEEEC2E
:1004C000EAE8E6E4E2E1E0E0E0E0E1E2E4E6E9ECEB
:1004D000EFF2F5F8FAFCFEFFFFFEFCF9F5F0EAE2B8
:1004E000D9D0C5BAAEA19486796B5E51453A2F2614
:1004F0001D150F0A0603010000010305070A0D1070
:100500001316191B1D1E1F1F1F1F1E1D1B1917153C
:100510001311100E0D0C0B0B0B0B0C0D0E101113F9
:10052000151718191B1B1C1C1C1C1B1A1917161439
:1005300012110F0E0C0C0B0B0B0B0C0D0F101214D9
:1005400016181A1C1D1E1F1F1F1F1D1C1A171512FF
:100550000F0C090604020000000204080C12192105
:100560002A343F4B5865727F0000000000000000F5
:10057000000000000000000000000000000000007B
:10058000000000000000000000000000000000006B
:10059000000000000000000000000000000000005B
:1005A000000000000000000000000000000000004B
:1005B000000000000000000000000000000000003B
:1005C000000000000000000000000000000000002B
:1005D000000000000000000000000000000000001B
:1005E000000000000000000000000000000000000B
:1005F00000000000000000000000000000000000FB
:1006000000000000000000000000000000000000EA
:1006100000000000000000000000000000000000DA
:1006200000000000000000000000000000000000CA
:1006300000000000000000000000000000000000BA
:1006400000000000000000000000000000000000AA
:10065000000000000000000000000000000000009A
:100660000000000000000000D806D306CC06C50636
:10067000BE06B706B006A906A3069D0696068E0618
:10068000FA06F606F106EC06E806E206DD06462E58
:10069000204D4F4445004355544F46460057415660
:1006A00045320057415645310050484153453200CC
:1006B0005048415345310053454D4953320053454D
:1006C0004D4953310043454E5453320043454E5437
:1006D0005331004F534332004F53433100464C4196
:1006E00054004E4F49534500535155005253415702
:1006F000004C534157005452490053494E450000A5
:1007000011241FBECFEFD8E0DEBFCDBF14E0A0E0C4
:10071000B1E0E4E0F1E502C005900D92A23FB1071F
:10072000D9F726E0A2EFB4E001C01D92AC30B207C9
:10073000E1F70E94050E0C9480280C940000CF93E2
:10074000DF93CDB7DEB72D970FB6F894DEBF0FBE9F
:10075000CDBF9CE0FB01DE01119601900D929A95B0
:10076000E1F71D862D9844985C985D9A5C9A5C9898
:100770005D985C9A5C985D985C9A5C985D985C9AD0
:100780005C985D985C9A5C985D985C9A5C985D98C2
:100790005C9A5C985D985C9A5C98449A2D98449811
:1007A00080645C98282F30E0A901440F452F441F36
:1007B000550B452B09F0D6C05D985C9A5C9826FDD8
:1007C000CFC05D985C9A5C9825FDC8C05D985C9A26
:1007D0005C9824FDC1C05D985C9A5C9823FDBAC00A
:1007E0005D985C9A5C9822FDB3C05D985C9A5C98B9
:1007F00021FDACC05D985C9A5C9880FFA5C05D9AB5
:100800005C9A5C98449A8981882309F481C0DE014E
:1008100012962D9A44985C985D985C9A5C985D98C5
:100820005C9A5C985D985C9A5C985D985C9A5C9820
:100830005D985C9A5C985D985C9A5C985D985C9A0F
:100840005C985D985C9A5C98449A992787FD90958E
:100850008097FC01EE0FFF1FEE0FFF1FE80FF91F3F
:10086000EF5EFC4F35E021912D9A44985C98822FE1
:1008700090E0880F892F881F990B892B09F05DC0A4
:100880005D985C9A5C9826FD5DC05D985C9A5C986A
:1008900025FD51C05D985C9A5C9824FD4AC05D9826
:1008A0005C9A5C9823FD43C05D985C9A5C9822FD3D
:1008B0003CC05D985C9A5C9821FD35C05D985C9A5F
:1008C0005C9820FD2EC05D985C9A5C98449A3150EB
:1008D00051F62D9A44985C985D985C9A5C985D9866
:1008E0005C9A5C985D985C9A5C985D985C9A5C9860
:1008F0005D985C9A5C985D985C9A5C985D985C9A4F
:100900005C985D985C9A5C98449A8D91811181CF36
:100910002D960FB6F894DEBF0FBECDBFDF91CF91FD
:1009200008955D9AD1CF5D9ACACF5D9AC3CF5D9A83
:10093000BCCF5D9AB5CF5D9AAECF5D9A5C9A5C985C
:1009400026FFA3CF5D9AA2CF5D985ACF5D9A53CF71
:100950005D9A4CCF5D9A45CF5D9A3ECF5D9A37CF79
:100960005D9A30CF5D9A29CFEF92FF920F931F933C
:10097000CF93DF93CDB7DEB7E5970FB6F894DEBF20
:100980000FBECDBF8DE0E9E0F1E0DE0155960190AC
:100990000D928A95E1F78CE0FE0175968E010F5F4E
:1009A0001F4FD80101900D928A95E1F71D862D9871
:1009B00044985C985D9A5C9A5C985D985C9A5C98A7
:1009C0005D985C9A5C985D985C9A5C985D985C9A7E
:1009D0005C985D985C9A5C985D985C9A5C985D9870
:1009E0005C9A5C98449A2D9844985C985D985C9ABF
:1009F0005C985D9A5C9A5C985D985C9A5C985D984E
:100A00005C9A5C985D985C9A5C985D985C9A5C983E
:100A10005D985C9A5C985D985C9A5C98449A898130
:100A2000882309F482C0DE0112962D9A44985C98BE
:100A30005D985C9A5C985D985C9A5C985D985C9A0D
:100A40005C985D985C9A5C985D985C9A5C985D98FF
:100A50005C9A5C985D985C9A5C985D985C9A5C98EE
:100A6000449A992787FD90958097FC01EE0FFF1F10
:100A7000EE0FFF1FE80FF91FEF5EFC4F30E02191F2
:100A80002D9A44985C98822F90E0880F892F881FB8
:100A9000990B892B09F060C45D985C9A5C9826FDDF
:100AA00060C45D985C9A5C9825FD54C45D985C9A1E
:100AB0005C9824FD4DC45D985C9A5C9823FD46C407
:100AC0005D985C9A5C9822FD3FC45D985C9A5C9846
:100AD00021FD38C45D985C9A5C9820FD2FC45D9818
:100AE0005C9A5C98449A3F5F353049F62D9A449859
:100AF0005C985D985C9A5C985D985C9A5C985D984F
:100B00005C9A5C985D985C9A5C985D985C9A5C983D
:100B10005D985C9A5C985D985C9A5C985D985C9A2C
:100B20005C98449A8D91811180CF87E0E6E1F1E0F5
:100B3000D80101900D928A95E1F7E0910301F0E070
:100B4000EE0FFF1FE058F94F659174918E010F5F12
:100B50001F4FC8010E94A425D8010D900020E9F77D
:100B6000119788E0ECE3F1E001900D928A95E1F7AE
:100B70008CE0F801DE01999601900D928A95E1F7DB
:100B80001DAA2D9844985C985D9A5C9A5C985D9833
:100B90005C9A5C985D985C9A5C985D985C9A5C98AD
:100BA0005D985C9A5C985D985C9A5C985D985C9A9C
:100BB0005C985D985C9A5C98449A2D9844985C98EF
:100BC0005D985C9A5C985D9A5C9A5C985D985C9A7A
:100BD0005C985D985C9A5C985D985C9A5C985D986E
:100BE0005C9A5C985D9A5C9A5C985D985C9A5C985B
:100BF000449A89A5882309F481C0DE019A962D9A2A
:100C000044985C985D985C9A5C985D985C9A5C9856
:100C10005D985C9A5C985D985C9A5C985D985C9A2B
:100C20005C985D985C9A5C985D985C9A5C985D981D
:100C30005C9A5C98449A992787FD90958097FC016F
:100C4000EE0FFF1FEE0FFF1FE80FF91FEF5EFC4FC7
:100C500035E021912D9A44985C98822F90E0880F7E
:100C6000892F881F990B892B09F06AC35D985C9ABC
:100C70005C9826FD61C35D985C9A5C9825FD5AC31B
:100C80005D985C9A5C9824FD53C35D985C9A5C986F
:100C900023FD4CC35D985C9A5C9822FD45C35D982A
:100CA0005C9A5C9821FD3EC35D985C9A5C9820FD3F
:100CB00037C35D985C9A5C98449A315051F62D9AEE
:100CC00044985C985D985C9A5C985D985C9A5C9896
:100CD0005D985C9A5C985D985C9A5C985D985C9A6B
:100CE0005C985D985C9A5C985D985C9A5C985D985D
:100CF0005C9A5C98449A8D91811181CF88E0EDE1F6
:100D0000F1E0D80101900D928A95E1F72091E60576
:100D1000822F992787FD90959F932F9386E091E0EE
:100D20009F938F937E0188E0E80EF11CFF92EF9273
:100D30000E94AF25D8010D900020E9F7119788E0B7
:100D4000ECE3F1E001900D928A95E1F78CE0F80177
:100D5000DE01999601900D928A95E1F71DAA2D98D2
:100D600044985C985D9A5C9A5C985D985C9A5C98F3
:100D70005D985C9A5C985D985C9A5C985D985C9ACA
:100D80005C985D985C9A5C985D985C9A5C985D98BC
:100D90005C9A5C98449A2D9844985C985D985C9A0B
:100DA0005C985D9A5C9A5C985D985C9A5C985D989A
:100DB0005C9A5C985D985C9A5C985D9A5C9A5C9889
:100DC0005D985C9A5C985D985C9A5C98449A89A559
:100DD0000F900F900F900F900F900F90882309F4B1
:100DE00082C0DE019A962D9A44985C985D985C9A30
:100DF0005C985D985C9A5C985D985C9A5C985D984C
:100E00005C9A5C985D985C9A5C985D985C9A5C983A
:100E10005D985C9A5C985D985C9A5C98449A992776
:100E200087FD90958097FC01EE0FFF1FEE0FFF1FCF
:100E3000E80FF91FEF5EFC4F30E021912D9A4498A6
:100E40005C98822F90E0880F892F881F990B892B3F
:100E500009F05AC25D985C9A5C9826FD5AC25D986A
:100E60005C9A5C9825FD5AC25D985C9A5C9824FD5A
:100E700049C25D985C9A5C9823FD42C25D985C9A79
:100E80005C9822FD3BC25D985C9A5C9821FD34C25F
:100E90005D985C9A5C9820FD29C25D985C9A5C988C
:100EA000449A3F5F353049F62D9A44985C985D9896
:100EB0005C9A5C985D985C9A5C985D985C9A5C988A
:100EC0005D985C9A5C985D985C9A5C985D985C9A79
:100ED0005C985D985C9A5C985D985C9A5C98449A82
:100EE0008D91811180CF88E0E5E2F1E0D801019099
:100EF0000D928A95E1F72091E505822F992787FDCC
:100F000090959F932F9386E091E09F938F93FF920C
:100F1000EF920E94AF25D8010D900020E9F71197BC
:100F200088E0ECE3F1E001900D928A95E1F78CE026
:100F3000F801DE01999601900D928A95E1F71DAABC
:100F40002D9844985C985D9A5C9A5C985D985C9A40
:100F50005C985D985C9A5C985D985C9A5C985D98EA
:100F60005C9A5C985D985C9A5C985D985C9A5C98D9
:100F70005D985C9A5C98449A2D9844985C985D982A
:100F80005C9A5C985D9A5C9A5C985D985C9A5C98B7
:100F90005D985C9A5C985D985C9A5C985D985C9AA8
:100FA0005C985D9A5C9A5C985D9A5C9A5C98449AAD
:100FB00089A50F900F900F900F900F900F9088239E
:100FC00009F482C0DE019A962D9A44985C985D9847
:100FD0005C9A5C985D985C9A5C985D985C9A5C9869
:100FE0005D985C9A5C985D985C9A5C985D985C9A58
:100FF0005C985D985C9A5C985D985C9A5C98449A61
:10100000992787FD90958097FC01EE0FFF1FEE0F4B
:10101000FF1FE80FF91FEF5EFC4F90E081912D9AC2
:1010200044985C98282F30E0220F232F221F330B87
:10103000232B09F05FC15D985C9A5C9886FD58C1CE
:101040005D985C9A5C9885FD4FC15D985C9A5C9850
:1010500084FD48C15D985C9A5C9883FD41C15D98B0
:101060005C9A5C9882FD3AC15D985C9A5C9881FDBF
:1010700033C15D985C9A5C9880FD2CC15D985C9A48
:101080005C98449A9F5F953049F62D9A44985C98F5
:101090005D985C9A5C985D985C9A5C985D985C9AA7
:1010A0005C985D985C9A5C985D985C9A5C985D9899
:1010B0005C9A5C985D985C9A5C985D985C9A5C9888
:1010C000449A8D91811180CF87E0EDE2F1E0D80163
:1010D00001900D928A95E1F78091DD05811143C160
:1010E0004FE456E466E470E04F83588769877A8757
:1010F000D8010D900020E9F7119788E0ECE3F1E0CA
:1011000001900D928A95E1F78CE0F801DE01999645
:1011100001900D928A95E1F71DAA2D9844985C984C
:101120005D9A5C9A5C985D985C9A5C985D985C9A14
:101130005C985D985C9A5C985D985C9A5C985D9808
:101140005C9A5C985D985C9A5C985D985C9A5C98F7
:10115000449A2D9844985C985D985C9A5C985D9A46
:101160005C9A5C985D985C9A5C985D985C9A5C98D7
:101170005D985C9A5C985D9A5C9A5C985D985C9AC4
:101180005C985D9A5C9A5C98449A89A5882309F4D6
:1011900081C0DE019A962D9A44985C985D985C9A7D
:1011A0005C985D985C9A5C985D985C9A5C985D9898
:1011B0005C9A5C985D985C9A5C985D985C9A5C9887
:1011C0005D985C9A5C985D985C9A5C98449A9927C3
:1011D00087FD90958097FC01EE0FFF1FEE0FFF1F1C
:1011E000E80FF91FEF5EFC4F35E021912D9A4498EE
:1011F0005C98822F90E0880F892F881F990B892B8C
:1012000009F061C05D985C9A5C9826FD61C05D98AC
:101210005C9A5C9825FD55C05D985C9A5C9824FDAD
:101220004EC05D985C9A5C9823FD47C05D985C9ABF
:101230005C9822FD40C05D985C9A5C9821FD39C0A5
:101240005D985C9A5C9820FD32C05D985C9A5C98D1
:10125000449A315051F62D9A44985C985D985C9A66
:101260005C985D985C9A5C985D985C9A5C985D98D7
:101270005C9A5C985D985C9A5C985D985C9A5C98C6
:101280005D985C9A5C985D985C9A5C98449A8D91A4
:10129000811181CFE5960FB6F894DEBF0FBECDBFAA
:1012A000DF91CF911F910F91FF90EF9008955D9A7C
:1012B000CDCF5D9AC6CF5D9ABFCF5D9AB8CF5D9A0C
:1012C000B1CF5D9AAACF5D9A5C9A5C9826FF9FCFBA
:1012D0005D9A9ECF5D9AD3CE5D9ACCCE5D9AC5CEF7
:1012E0005D9ABECE5D9AB7CE5D9AB0CE5D9AD6CDF0
:1012F0005D9AA7CE5D9AA0CE5D9ACBCD5D9AC4CD06
:101300005D9ABDCD5D9AB6CD5D9A5C9A5C9826FFDC
:10131000A6CD5D9A5C9A5C9825FFA6CD5D9AA5CD79
:101320005D9AC8CC5D9AC1CC5D9ABACC5D9AB3CCBB
:101330005D9AACCC5D9AA5CC5D9A9ECC5D9AD0CBE3
:101340005D9A95CC5D9AC7CB5D9AC0CB5D9AB9CBBF
:101350005D9AB2CB5D9AABCB5D9A5C9A5C9826FFA6
:10136000A0CB5D9A9FCB2FE43EE440E02F833887EB
:101370004987BECE0F931F93CF93DF93CDB7DEB7D0
:10138000A1970FB6F894DEBF0FBECDBF87E0E4E3B0
:10139000F1E0DE01119601900D928A95E1F7E0915E
:1013A000B605F0E0EE0FFF1FE859F94F6591749113
:1013B0008E010F5F1F4FC8010E94A425D8010D9018
:1013C0000020E9F7119785E0EFE3F1E001900D923D
:1013D0008A95E1F78CE0F801DE01559601900D92B7
:1013E0008A95E1F719A22D9844985C985D9A5C9AC9
:1013F0005C985D985C9A5C985D985C9A5C985D9846
:101400005C9A5C985D985C9A5C985D985C9A5C9834
:101410005D985C9A5C985D985C9A5C98449A2D986B
:1014200044985C985D985C9A5C985D9A5C9A5C982C
:101430005D985C9A5C985D985C9A5C985D985C9A03
:101440005C985D9A5C9A5C985D985C9A5C985D9AF1
:101450005C9A5C98449A8D89882309F481C0DE01E6
:1014600056962D9A44985C985D985C9A5C985D9825
:101470005C9A5C985D985C9A5C985D985C9A5C98C4
:101480005D985C9A5C985D985C9A5C985D985C9AB3
:101490005C985D985C9A5C98449A992787FD909532
:1014A0008097FC01EE0FFF1FEE0FFF1FE80FF91FE3
:1014B000EF5EFC4F35E021912D9A44985C98822F85
:1014C00090E0880F892F881F990B892B09F05FC046
:1014D0005D985C9A5C9826FD5FC05D985C9A5C980C
:1014E00025FD53C05D985C9A5C9824FD4CC05D98C6
:1014F0005C9A5C9823FD45C05D985C9A5C9822FDDF
:101500003EC05D985C9A5C9821FD37C05D985C9AFE
:101510005C9820FD30C05D985C9A5C98449A31508C
:1015200051F62D9A44985C985D985C9A5C985D9809
:101530005C9A5C985D985C9A5C985D985C9A5C9803
:101540005D985C9A5C985D985C9A5C985D985C9AF2
:101550005C985D985C9A5C98449A8D91811181CFDA
:10156000A1960FB6F894DEBF0FBECDBFDF91CF912D
:101570001F910F9108955D9ACFCF5D9AC8CF5D9A64
:10158000C1CF5D9ABACF5D9AB3CF5D9AACCF5D9A69
:101590005C9A5C9826FFA1CF5D9AA0CF3C9A3D9AB9
:1015A000259A559A549A4598459A2D9844985C984E
:1015B0005D985C9A5C985D985C9A5C985D9A5C9A80
:1015C0005C985D985C9A5C985D985C9A5C985D9874
:1015D0005C9A5C985D985C9A5C985D9A5C9A5C9861
:1015E000449A2D9844985C985D9A5C9A5C985D98B2
:1015F0005C9A5C985D9A5C9A5C985D9A5C9A5C983F
:101600005D985C9A5C985D985C9A5C985D985C9A31
:101610005C985D985C9A5C98449A2D9844985C9884
:101620005D985C9A5C985D985C9A5C985D985C9A11
:101630005C985D985C9A5C985D985C9A5C985D9A01
:101640005C9A5C985D985C9A5C985D985C9A5C98F2
:10165000449A2D9844985C985D985C9A5C985D9843
:101660005C9A5C985D985C9A5C985D9A5C9A5C98D0
:101670005D985C9A5C985D9A5C9A5C985D985C9ABF
:101680005C985D985C9A5C98449A2D9844985C9814
:101690005D985C9A5C985D985C9A5C985D9A5C9A9F
:1016A0005C985D985C9A5C985D985C9A5C985D9893
:1016B0005C9A5C985D985C9A5C985D985C9A5C9882
:1016C000449A2D9844985C985D985C9A5C985D98D3
:1016D0005C9A5C985D985C9A5C985D985C9A5C9862
:1016E0005D9A5C9A5C985D9A5C9A5C985D985C9A4D
:1016F0005C985D985C9A5C98449A08952F923F920A
:101700004F925F926F927F928F929F92AF92BF9211
:10171000CF92DF92EF92FF920F931F93CF93DF93BD
:10172000CDB7DEB72F970FB6F894DEBF0FBECDBF93
:1017300080E090E8ACE8BAE7809363059093640595
:10174000A0936505B093660581E090E09C838B8350
:101750001A82198289809A80AB80BC809401A5018D
:1017600060E070E080E090E000E10E944C25A12C58
:10177000E0E8BE2EFCE8CF2EAAE7DA2EE12CF12C11
:1017800000E010E00E94EF2420935F053093600595
:10179000409361055093620580E091E09C838B83C8
:1017A00089809A80AB80BC809401A50160E070E0E4
:1017B00080E090E000E10E944C25A12CB0E8BB2E17
:1017C0000CE8C02EEAE7DE2EE12CF12C00E00E94AE
:1017D000EF2439014A011B012C01322F3093670598
:1017E000709268058092690590926A0588EB91E095
:1017F0009093FA058093F9051092F8051092F70579
:101800000091F7051091F8052091F9053091FA053E
:101810005801690100E010E09301A401B101C20187
:101820000E94692400E10E946725C901DA018093C2
:10183000E7059093E805A093E905B093EA0580E0F9
:1018400090E8A8EBB1E08093D7059093D805A093DA
:10185000D905B093DA059301A401B101C20103E0F7
:101860000E944C2553016401710182010E948C2564
:1018700007E00E944C25042D0E948C2506E00E9462
:101880004C25042D0E948C2559016A017B01E82F0B
:10189000192F03E00E944C250E2F0E948C2503E097
:1018A0000E944C2553016401710182010E948C2524
:1018B0002D833D874E875F87B62FA72FF82FE92FFF
:1018C0007A2F8F2F9E2F03E00E944C2559016A0129
:1018D0007B018C012D813D854E855F856B2F7A2F95
:1018E0008F2F9E2F0E948325530164017101820175
:1018F0000E94832500E10E946725C901DA018093D7
:10190000CF059093D005A093D105B093D2050E9446
:10191000CE0A88EF91E02D9A44985C985D985C9A85
:101920005C985D985C9A5C985D985C9A5C985D9810
:101930005C9A5C985D985C9A5C985D985C9A5C98FF
:101940005D985C9A5C985D985C9A5C98449A019763
:10195000009709F72D9844985C985D9A5C9A5C987A
:101960005D985C9A5C985D985C9A5C985D985C9ACE
:101970005C985D985C9A5C985D985C9A5C985D98C0
:101980005C9A5C985D985C9A5C98449A2D9844980F
:101990005C985D985C9A5C985D9A5C9A5C985D989E
:1019A0005C9A5C985D985C9A5C985D985C9A5C988F
:1019B0005D985C9A5C985D985C9A5C985D985C9A7E
:1019C0005C98449A8FE080937E008AE880937A0046
:1019D0001092C5008FE18093C40088E98093C10014
:1019E00086E08093C2008091B10081608093B10055
:1019F0008091B1008D7F8093B1008091B1008B7F89
:101A00008093B1008091B0008F7B8093B000809173
:101A1000B00080688093B0008091B00081608093B6
:101A2000B0008091B0008D7F8093B0008091B100B4
:101A3000877F8093B10056985E9A57985F9A209856
:101A4000289A24982C9A22982A9A2198299A239A9B
:101A50008091700081608093700078948091DB05A4
:101A6000E091E505FF27E7FDF095E80FF11DEE0F8A
:101A7000FF1FEE0FFF1FED55FE4FC080D180E280AB
:101A8000F3808091CC059091C205E091CD05FF27B0
:101A9000E7FDF095E90FF11D9CE08902E00DF11DD5
:101AA0001124EE0FFF1FEE0FFF1FED55FE4F80803C
:101AB0009180A280B3806091E605A7E26A02B0013E
:101AC0001124882777FD8095982FA70196010E9401
:101AD000C22400E10E9467252D833E834F835887EF
:101AE0008D819E81AF81B885C80ED91EEA1EFB1E6E
:101AF000C092F705D092F805E092F905F092FA0548
:101B00002091CE0597E2290290011124442737FD48
:101B10004095542FC501B4010E94C2240E9467253C
:101B20002D833E834F83588769877A878B879C876D
:101B30008D819E81AF81B885880E991EAA1EBB1E1D
:101B40008092D7059092D805A092D905B092DA0577
:101B500040906705509068056090690570906A052F
:101B6000C701B601A30192010E94C2240E94672509
:101B7000C901DA018093E7059093E805A093E90590
:101B8000B093EA05C501B401A30192010E94C224E9
:101B90000E946725C901DA018093CF059093D00593
:101BA000A093D105B093D2056091B7057091B805A7
:101BB0008091B9059091BA05A30192010E94C224B7
:101BC0000E946725C901DA018093BB059093BC058B
:101BD000A093BD05B093BE052F960FB6F894DEBF57
:101BE0000FBECDBFDF91CF911F910F91FF90EF906E
:101BF000DF90CF90BF90AF909F908F907F906F902D
:101C00005F904F903F902F900895CF93DF93CDB783
:101C1000DEB7C155D1090FB6F894DEBF0FBECDBFF8
:101C20000E947E0B0E94B40480E092E090938405B1
:101C3000809383059093860580938505909388050E
:101C40008093870590938A058093890510926B0590
:101C500010926C0510926D0510926E0590938C0594
:101C600080938B0590938E0580938D0590939005BE
:101C700080938F05909392058093910510926F0544
:101C80001092700510927105109272059093940550
:101C9000809393059093960580939505909398056E
:101CA0008093970590939A058093990510927305F8
:101CB00010927405109275051092760590939C050C
:101CC00080939B0590939E0580939D059093A0051E
:101CD00080939F059093A2058093A10510927705AC
:101CE000109278051092790510927A059093A405C8
:101CF0008093A3059093A6058093A5059093A805CE
:101D00008093A7059093AA058093A90510927B055F
:101D100010927C0510927D0510927E059E012B5E2F
:101D20003F4F3FAF2EAFCE0101965C01DE0118960A
:101D3000BBAFAAAF2F5031093FAB2EAB069699AF80
:101D400088AF1296BDAFACAFBEAD6196BFAF619725
:101D50002FAD62962FAF62971501882483941A2DB8
:101D60009B2C0DE0D02E87E0E82E08E096E0F92EBF
:101D700029E0C22E3CE0732E8091F2048F5F8093A5
:101D8000F2048B3038F080917A00806480937A007E
:101D90001092F20499B1892F807496FDB0C590918C
:101DA000FF049111BCC59091F904992309F4B7C5BA
:101DB0009091B30591110C94F41D4F99B4C5909175
:101DC00000059111DAC09091FA04992309F4D5C065
:101DD000813009F4D2C01092F4048092B3051092BD
:101DE0006F05109270051092710510927205E4E46F
:101DF000F1E06196AFAD61976296BFAD62978D2DB0
:101E000001900D928A95E1F7BE016B5E7F4F80E0F5
:101E10000E949F03E6E1F1E0D5018E2D01900D9225
:101E20008A95E1F7E0910201F0E0EE0FFF1FE05824
:101E3000F94F65917491A12EB92C812F992D0E9493
:101E4000A425D1010D900020E9F71197ECE3F1E012
:101E5000802F01900D928A95E1F7612F792D82E014
:101E60000E949F03E5E2F1E0A12FB92D802F0190A0
:101E70000D928A95E1F72091CD05822F992787FD54
:101E800090959F932F93A6E0B1E0BF93AF933BADA6
:101E90003F938AAD8F930E94AF25D1010D90002012
:101EA000E9F71197ECE3F1E0802F01900D928A950C
:101EB000E1F7612F792D83E00E949F03EDE1F1E0CE
:101EC000A12FB92D802F01900D928A95E1F72091D5
:101ED000CE05822F992787FD90959F932F93A6E09B
:101EE000B1E0BF93AF933BAD3F938AAD8F930E9418
:101EF000AF25D1010D900020E9F71197ECE3F1E057
:101F0000802F01900D928A95E1F7612F792D84E061
:101F10000E949F03E1E5F1E0A12FB92D8F2D0190E3
:101F20000D928A95E1F72091CC05822F992787FDA4
:101F300090959F932F93A6E0B1E0BF93AF933FA9F5
:101F40003F938EA98F930E94AF25D1010D90002061
:101F5000E9F71197EBE3F1E08C2D01900D928A9552
:101F6000E1F7612F792D85E00E949F038091B305F1
:101F70000FB6F894DEBF0FBECDBF1899E8C490919C
:101F80000105911197C19091FB04992309F492C125
:101F9000823009F48FC11092F50482E08093B3057A
:101FA00010927305109274051092750510927605C3
:101FB000E7E5F1E06196AFAD61976296BFAD6297DC
:101FC0008D2D01900D928A95E1F7BE016B5E7F4FDA
:101FD00080E00E949F03E6E1F1E0D5018E2D0190A3
:101FE0000D928A95E1F7E0910401F0E0EE0FFF1FFA
:101FF000E058F94F65917491812F992D0E94A42585
:10200000D1010D900020E9F7119785E0EFE3F1E0B1
:1020100001900D928A95E1F7612F792D82E00E945F
:102020009F03E4E6F1E0A12FB92D8E2D01900D92D2
:102030008A95E1F78091B5051F928F93A6E0B1E0F4
:10204000BF93AF9339AD3F9388AD8F930E94AF2577
:10205000D1010D900020E9F7119785E0EFE3F1E061
:1020600001900D928A95E1F7E12FF92DDE01999605
:10207000872D01900D928A95E1F71DAA2D9844981D
:102080005C985D9A5C9A5C985D985C9A5C985D98A7
:102090005C9A5C985D985C9A5C985D985C9A5C9898
:1020A0005D985C9A5C985D985C9A5C985D985C9A87
:1020B0005C98449A2D9844985C985D985C9A5C98DA
:1020C0005D9A5C9A5C985D985C9A5C985D985C9A65
:1020D0005C985D985C9A5C985D985C9A5C985D9A57
:1020E0005C9A5C985D9A5C9A5C98449A89A50F907A
:1020F0000F900F900F900F900F90882309F481C0DC
:10210000DE019A962D9A44985C985D985C9A5C984A
:102110005D985C9A5C985D985C9A5C985D985C9A16
:102120005C985D985C9A5C985D985C9A5C985D9808
:102130005C9A5C985D985C9A5C98449A992787FDB4
:1021400090958097FC01EE0FFF1FEE0FFF1FE80F29
:10215000F91FEF5EFC4F35E021912D9A44985C9871
:10216000822F90E0880F892F881F990B892B09F007
:10217000A1C35D985C9A5C9826FDA1C35D985C9AAA
:102180005C9825FDA1C35D985C9A5C9824FDA1C371
:102190005D985C9A5C9823FDA1C35D985C9A5C98FD
:1021A00022FDA1C35D985C9A5C9821FDA1C35D9856
:1021B0005C9A5C9820FDA1C35D985C9A5C98449AF7
:1021C000315051F62D9A44985C985D985C9A5C98D1
:1021D0005D985C9A5C985D985C9A5C985D985C9A56
:1021E0005C985D985C9A5C985D985C9A5C985D9848
:1021F0005C9A5C985D985C9A5C98449A8D91811188
:1022000081CFEBE6F1E0A12FB92D8E2D01900D923B
:102210008A95E1F78091B4051F928F93A6E0B1E013
:10222000BF93AF9339AD3F9388AD8F930E94AF2595
:10223000D1010D900020E9F7119785E0EFE3F1E07F
:1022400001900D928A95E1F7612F792D84E00E942B
:102250009F03E4E3F1E0A12FB92D8E2D01900D92A3
:102260008A95E1F7E091B605F0E0EE0FFF1FE8591F
:10227000F94F65917491A12EB92C812F992D0E944F
:10228000A425D1010D900020E9F7119785E0EFE337
:10229000F1E001900D928A95E1F7612F792D85E0AB
:1022A0000E949F038091B3050F900F900F900F90A5
:1022B0000F900F901C995EC390910205911187C1F8
:1022C0009091FC04992309F482C1833009F48CC1F4
:1022D0001092F60483E08093B30510927705109274
:1022E00078051092790510927A05E2E7F1E061969F
:1022F000AFAD61976296BFAD62978D2D01900D9243
:102300008A95E1F7BE016B5E7F4F80E00E949F03DC
:102310008AE0EFE7F1E0D50101900D928A95E1F7AF
:10232000809105011F928F93A6E0B1E0BF93AF9318
:102330003DAD3F938CAD8F930E94AF25D5010D909D
:102340000020E9F7119785E0EFE3F1E001900D92AD
:102350008A95E1F7B50182E00E949F038AE0E9E8EF
:10236000F1E0D50101900D928A95E1F78091CA05BF
:102370001F928F93A6E0B1E0BF93AF933DAD3F9323
:102380008CAD8F930E94AF25D5010D900020E9F709
:10239000119785E0EFE3F1E001900D928A95E1F766
:1023A000F501DE019996872D01900D928A95E1F74E
:1023B0001DAA2D9844985C985D9A5C9A5C985D98EB
:1023C0005C9A5C985D985C9A5C985D985C9A5C9865
:1023D0005D985C9A5C985D985C9A5C985D985C9A54
:1023E0005C985D985C9A5C98449A2D9844985C98A7
:1023F0005D985C9A5C985D9A5C9A5C985D985C9A32
:102400005C985D985C9A5C985D985C9A5C985D9825
:102410005C9A5C985D9A5C9A5C985D9A5C9A5C9810
:10242000449A89A50FB6F894DEBF0FBECDBF8823AE
:1024300009F481C0DE019A962D9A44985C985D98C3
:102440005C9A5C985D985C9A5C985D985C9A5C98E4
:102450005D985C9A5C985D985C9A5C985D985C9AD3
:102460005C985D985C9A5C985D985C9A5C98449ADC
:10247000992787FD90958097FC01EE0FFF1FEE0FC7
:10248000FF1FE80FF91FEF5EFC4F35E021912D9AF9
:1024900044985C98822F90E0880F892F881F990BB1
:1024A000892B09F005C25D985C9A5C9826FDFEC1F7
:1024B0005D985C9A5C9825FDF7C15D985C9A5C9884
:1024C00024FDF0C15D985C9A5C9823FDE9C15D989C
:1024D0005C9A5C9822FDE2C15D985C9A5C9821FD53
:1024E000DBC15D985C9A5C9820FDD4C15D985C9AD4
:1024F0005C98449A315051F62D9A44985C985D98B6
:102500005C9A5C985D985C9A5C985D985C9A5C9823
:102510005D985C9A5C985D985C9A5C985D985C9A12
:102520005C985D985C9A5C985D985C9A5C98449A1B
:102530008D91811181CFE3E9F1E0D5018C2D0190DE
:102540000D928A95E1F78091C30581110C946E1F5D
:102550008FE496E4A6E4B0E089879A87AB87BC87CE
:10256000D5010D900020E9F7119785E0EFE3F1E048
:1025700001900D928A95E1F7B50184E00E949F03D6
:10258000ECE9F1E0D5018E2D01900D928A95E1F7ED
:102590008091BF0581110C94201F8FE496E4A6E47E
:1025A000B0E08F839887A987BA87D5010D90002066
:1025B000E9F7119785E0EFE3F1E001900D928A953C
:1025C000E1F7B50185E00E949F038091B30581305A
:1025D00009F4E4C1813008F443C4823011F40C944E
:1025E000571B833009F0C8CB8091FF058823D9F0B1
:1025F00080919B0590919C052091030630910406E3
:10260000AC01475F5F4F421753076CF08B30910569
:1026100014F40C94371F0A978217930724F48092BE
:1026200077051092FF05809100068823D9F08091EC
:102630009D0590919E052091050630910606AC01FE
:10264000475F5F4F421753076CF08B30910514F4CE
:102650000C942F1F0A978217930724F48092780511
:1026600010920006809101068823D9F080919F0581
:102670009091A0052091070630910806AC01475FB4
:102680005F4F421753076CF08B30910514F40C9494
:10269000331F0A978217930724F4809279051092CA
:1026A000010680910206882311F40C94711D20917B
:1026B000A1053091A2058091090690910A06A90111
:1026C000475F5F4F4817590714F40C94711D2B3066
:1026D000310514F40C942B1F2A503109281739079F
:1026E00014F00C94711D80927A05109202069C01E0
:1026F00035952795359527954091050150E024178C
:10270000350709F45AC020930501422F40954093A4
:10271000CA059093A2058093A1058AE0EFE7F1E056
:10272000D50101900D928A95E1F733273F932F93BE
:10273000A6E0B1E0BF93AF933DAD3F938CAD8F93D7
:102740000E94AF25D5010D900020E9F7119785E093
:10275000EFE3F1E001900D928A95E1F7B50182E097
:102760000E949F038AE0E9E8F1E0D50101900D9213
:102770008A95E1F78091CA051F928F93A6E0B1E098
:10278000BF93AF933DAD3F938CAD8F930E94AF2528
:10279000D5010D900020E9F7119785E0EFE3F1E016
:1027A00001900D928A95E1F7B50183E00E949F03A5
:1027B0000FB6F894DEBF0FBECDBF80917805882399
:1027C000A9F180910506909106068130B2E09B0741
:1027D00014F40C94E51D8091C305811127C08092EB
:1027E000C30589E0E3E9F1E0D50101900D928A95F6
:1027F000E1F78091C30581110C94761F8FE496E474
:10280000A6E4B0E089879A87AB87BC87D5010D9095
:102810000020E9F7119785E0EFE3F1E001900D92D8
:102820008A95E1F7B50184E00E949F0380917705C6
:10283000882309F496CA809103069091040681309A
:10284000A2E09A0714F40C94841D8091BF058111B5
:1028500088CA8092BF0587E0ECE9F1E0D5010190DC
:102860000D928A95E1F78FE49EE4A0E08F8398872C
:10287000A987D5010D900020E9F7119785E0EFE3D6
:10288000F1E001900D928A95E1F7B50185E00E9493
:102890009F0367CA5D9A2BCE5D9A24CE5D9A1DCEAA
:1028A0005D9A16CE5D9A0FCE5D9A08CE5D9A01CEE6
:1028B0005D9AFACD5D9A5C9A5C9826FF5FCC5D9A32
:1028C0005C9A5C9825FF5FCC5D9A5C9A5C9824FFCB
:1028D0005FCC5D9A5C9A5C9823FF5FCC5D9A5C9AB2
:1028E0005C9822FF5FCC5D9A5C9A5C9821FF5FCC7C
:1028F0005D9A5C9A5C9820FF5FCC5D9A5ECC80917B
:10290000FF0481111092FF048091F904882309F4D7
:102910009BC28091F304853610F08092F904809177
:10292000B3054F9B4CCA9091000591111092000580
:102930009091FA04992311F40C947D1D9091F40464
:10294000953608F41ACB8092FA04189B18CB909114
:1029500001059111109201059091FB04992309F44E
:102960006DC29091F504953608F4A4CC8092FB04D6
:102970001C9BA2CC9091020591111092020590919E
:10298000FC04992309F466C29091F604953608F484
:102990001ECE8092FC04813009F01CCE8091FF0590
:1029A0008823D9F080918B0590918C0520910306A6
:1029B00030910406AC01475F5F4F421753076CF03C
:1029C0008B30910514F40C944B1F0A9782179307D0
:1029D00024F480926F051092FF05809100068823F1
:1029E000B9F020918D0530918E058091050690916A
:1029F0000606A901475F5F4F481759074CF0295059
:102A000031098217930724F0809270051092000616
:102A1000809101068823B9F020918F0530919005AF
:102A20008091070690910806A901475F5F4F4817FC
:102A300059074CF0295031098217930724F08092EE
:102A400071051092010680910206882309F4B9C726
:102A500020919105309192058091090690910A0686
:102A6000A901475F5F4F481759070CF4AAC72950BF
:102A70003109821793070CF4A4C780927205109253
:102A80000206823991050CF0A9C7809102018111DB
:102A90000C94831F80917105882309F43EC18091B5
:102AA0000706909108069C01359527953595279541
:102AB00035952795359527956091CD05772767FD45
:102AC0007095A901405251096417750709F425C191
:102AD00020522093CD059093900580938F0588E038
:102AE000E5E2F1E0D50101900D928A95E1F7822FA0
:102AF000992787FD90959F932F93A6E0B1E0BF9310
:102B0000AF933BAD3F938AAD8F930E94AF25D50124
:102B10000D900020E9F7119788E0ECE3F1E00190D7
:102B20000D928A95E1F7B50183E00E949F038091A1
:102B3000DB05E091E505FF27E7FDF095E80FF11DC6
:102B4000EE0FFF1FEE0FFF1FED55FE4F408051802F
:102B5000628073808091CC059091C205E091CD0593
:102B6000FF27E7FDF095E90FF11D9CE08902E00DDC
:102B7000F11D1124EE0FFF1FEE0FFF1FED55FE4F4D
:102B8000C080D180E280F3806091E605A7E26A020E
:102B9000B0011124882777FD8095982FA301920119
:102BA0000E94C22400E10E94672521962FAF219741
:102BB00022963FAF229723964FAF239724965FAF7D
:102BC000249725966FAF259726967FAF2697279651
:102BD0008FAF279728969FAF289724968CAD9DADF1
:102BE000AEADBFAD2497840D951DA61DB71D2496CF
:102BF0008CAF9DAFAEAFBFAF24978093F705909396
:102C0000F805A093F905B093FA052091CE0597E257
:102C1000290290011124442737FD4095542FC70104
:102C2000B6010E94C2240E94672529962FAF2997DA
:102C30002A963FAF2A972B964FAF2B972C965FAFD4
:102C40002C972D966FAF2D972E967FAF2E972F96A0
:102C50008FAF2F9760969FAF60972C964CAC5DAC72
:102C60006EAC7FAC2C974C0C5D1C6E1C7F1C409294
:102C7000D7055092D8056092D9057092DA05C090B8
:102C80006705D0906805E0906905F0906A05249684
:102C90006CAD7DAD8EAD9FAD2497A70196010E94CE
:102CA000C2240E946725C901DA018093E705909349
:102CB000E805A093E905B093EA05C301B201A701B5
:102CC00096010E94C2240E946725C901DA018093FF
:102CD000CF059093D005A093D105B093D205609114
:102CE000B7057091B8058091B9059091BA05A70113
:102CF00096010E94C2240E946725C901DA018093CF
:102D0000BB059093BC05A093BD05B093BE050F9085
:102D10000F900F900F900F900F9080917005882367
:102D200009F442C06091CE05862F992787FD9095C2
:102D30002091050630910606A901559547955595B0
:102D40004795405851098417950771F130938E05C6
:102D500020938D0588E0EDE1F1E0D50101900D9221
:102D60008A95E1F79F936F93A6E0B1E0BF93AF938D
:102D70003BAD3F938AAD8F930E94AF25D5010D9057
:102D80000020E9F7119788E0ECE3F1E001900D9263
:102D90008A95E1F7B50184E00E949F030F900F90A0
:102DA0000F900F900F900F9080916F05882311F472
:102DB0000C94B10E80910306909104068D3C910510
:102DC0000CF0E5C68091CC058E3F11F40C94B10E49
:102DD0002EEF2093CC0586E690E090938C058093AF
:102DE0008B0586E0E1E5F1E0D50101900D928A9531
:102DF000E1F78FEF8F932F93A6E0B1E0BF93AF93EE
:102E00003FA93F938EA98F930E94AF25D5010D90C6
:102E10000020E9F7119789E0EBE3F1E001900D92D2
:102E20008A95E1F7B50185E00E949F030F900F900E
:102E30000F900F900F900F900C94B10E9091F5049D
:102E40009F5F9093F5048FCD8091F3048F5F809303
:102E5000F30461CD9091F6049F5F9093F60496CDB4
:102E60008091FF058823D1F080918305909184059E
:102E70002091030630910406AC01475F5F4F421773
:102E8000530764F08B3091050CF4C0C70A97821782
:102E9000930724F480926B051092FF058091000641
:102EA0008823D1F0809185059091860520910506B3
:102EB00030910606AC01475F5F4F4217530764F03D
:102EC0008B3091050CF4A5C70A978217930724F459
:102ED00080926C0510920006809101068823D1F043
:102EE000809187059091880520910706309108060A
:102EF000AC01475F5F4F4217530764F08B30910579
:102F00000CF4A6C70A978217930724F480926D05E4
:102F10001092010680910206882309F49AC5209137
:102F2000890530918A058091090690910A06A901C8
:102F3000475F5F4F481759070CF48BC52B3031059D
:102F40000CF46AC72A503109281739070CF081C5DB
:102F500080926E0510920206823991050CF086C5AA
:102F6000809103018111CAC780916D05882309F4FE
:102F70003EC180910706909108069C0135952795E2
:102F80003595279535952795359527956091E505D4
:102F9000772767FD7095A90140525109641775079D
:102FA00009F425C120522093E5059093880580936C
:102FB000870588E0E5E2F1E0D50101900D928A9560
:102FC000E1F7822F992787FD90959F932F93A6E095
:102FD000B1E0BF93AF933BAD3F938AAD8F930E9417
:102FE000AF25D5010D900020E9F7119788E0ECE3BB
:102FF000F1E001900D928A95E1F7B50183E00E941E
:103000009F038091DB05E091E505FF27E7FDF09543
:10301000E80FF11DEE0FFF1FEE0FFF1FED55FE4FE6
:1030200040805180628073808091CC059091C20570
:10303000E091CD05FF27E7FDF095E90FF11D9CE03C
:103040008902E00DF11D1124EE0FFF1FEE0FFF1F8F
:10305000ED55FE4FC080D180E280F3806091E6059F
:10306000A7E26A02B0011124882777FD8095982F86
:10307000A30192010E94C22400E10E9467252196CB
:103080002FAF219722963FAF229723964FAF2397DA
:1030900024965FAF249725966FAF259726967FAF2E
:1030A000269727968FAF279728969FAF2897249625
:1030B0008CAD9DADAEADBFAD2497840D951DA61D05
:1030C000B71D24968CAF9DAFAEAFBFAF2497809352
:1030D000F7059093F805A093F905B093FA052091B0
:1030E000CE0597E2290290011124442737FD40952F
:1030F000542FC701B6010E94C2240E946725299659
:103100002FAF29972A963FAF2A972B964FAF2B9731
:103110002C965FAF2C972D966FAF2D972E967FAF85
:103120002E972F968FAF2F9760969FAF60972C9614
:103130004CAC5DAC6EAC7FAC2C974C0C5D1C6E1C2B
:103140007F1C4092D7055092D8056092D9057092A5
:10315000DA05C0906705D0906805E0906905F090A9
:103160006A0524966CAD7DAD8EAD9FAD2497A70109
:1031700096010E94C2240E946725C901DA0180934A
:10318000E7059093E805A093E905B093EA05C3012C
:10319000B201A70196010E94C2240E946725C901BD
:1031A000DA018093CF059093D005A093D105B09319
:1031B000D2056091B7057091B8058091B9059091DD
:1031C000BA05A70196010E94C2240E946725C90181
:1031D000DA018093BB059093BC05A093BD05B09325
:1031E000BE050F900F900F900F900F900F90809151
:1031F0006C05882309F4F9C16091E605262F332771
:1032000027FD30954091050650910606CA01959517
:1032100087959595879595958795959587958097A9
:103220002817390709F4E1C15093860540938505B5
:1032300088E0EDE1F1E0D50101900D928A95E1F78A
:103240003F936F93A6E0B1E0BF93AF933BAD3F9345
:103250008AAD8F930E94AF25D5010D900020E9F72C
:10326000119788E0ECE3F1E001900D928A95E1F787
:103270008CE0F501DE01559601900D928A95E1F7FB
:1032800019A22D9844985C985D9A5C9A5C985D9818
:103290005C9A5C985D985C9A5C985D985C9A5C9886
:1032A0005D985C9A5C985D985C9A5C985D985C9A75
:1032B0005C985D985C9A5C98449A2D9844985C98C8
:1032C0005D985C9A5C985D9A5C9A5C985D985C9A53
:1032D0005C985D985C9A5C985D985C9A5C985D9A45
:1032E0005C9A5C985D985C9A5C985D985C9A5C9836
:1032F000449A8D890F900F900F900F900F900F9020
:10330000882309F482C0DE0156962D9A44985C9871
:103310005D985C9A5C985D985C9A5C985D985C9A04
:103320005C985D985C9A5C985D985C9A5C985D98F6
:103330005C9A5C985D985C9A5C985D985C9A5C98E5
:10334000449A992787FD90958097FC01EE0FFF1F07
:10335000EE0FFF1FE80FF91FEF5EFC4F30E02191E9
:103360002D9A44985C98822F90E0880F892F881FAF
:10337000990B892B09F076C15D985C9A5C9826FDC3
:1033800076C15D985C9A5C9825FD76C15D985C9AE3
:103390005C9824FD76C15D985C9A5C9823FD76C1AB
:1033A0005D985C9A5C9822FD76C15D985C9A5C9809
:1033B00021FD76C15D985C9A5C9820FD76C15D9890
:1033C0005C9A5C98449A3F5F353049F62D9A449850
:1033D0005C985D985C9A5C985D985C9A5C985D9846
:1033E0005C9A5C985D985C9A5C985D985C9A5C9835
:1033F0005D985C9A5C985D985C9A5C985D985C9A24
:103400005C98449A8D91811180CF8091DB05E09189
:10341000E505FF27E7FDF095E80FF11DEE0FFF1F13
:10342000EE0FFF1FED55FE4F40805180628073808C
:103430008091CC059091C205E091CD05FF27E7FD75
:10344000F095E90FF11D9CE08902E00DF11D1124BA
:10345000EE0FFF1FEE0FFF1FED55FE4FC080D18016
:10346000E280F3806091E605A7E26A02B0011124D0
:10347000882777FD8095982FA30192010E94C2248E
:1034800000E10E94672521962FAF219722963FAF3A
:10349000229723964FAF239724965FAF24972596C4
:1034A0006FAF259726967FAF269727968FAF2797E2
:1034B00028969FAF289724968CAD9DADAEADBFAD3D
:1034C0002497840D951DA61DB71D24968CAF9DAF26
:1034D000AEAFBFAF24978093F7059093F805A09304
:1034E000F905B093FA052091CE0597E229029001E3
:1034F0001124442737FD4095542FC701B6010E947F
:10350000C2240E94672529962FAF29972A963FAF9C
:103510002A972B964FAF2B972C965FAF2C972D9613
:103520006FAF2D972E967FAF2E972F968FAF2F9739
:1035300060969FAF60972C964CAC5DAC6EAC7FAC48
:103540002C974C0C5D1C6E1C7F1C4092D705509232
:10355000D8056092D9057092DA05C0906705D090C1
:103560006805E0906905F0906A0524966CAD7DAD24
:103570008EAD9FAD2497A70196010E94C2240E94A0
:103580006725C901DA018093E7059093E805A093C8
:10359000E905B093EA05C301B201A70196010E94B3
:1035A000C2240E946725C901DA018093CF05909358
:1035B000D005A093D105B093D2056091B705709165
:1035C000B8058091B9059091BA05A70196010E94AE
:1035D000C2240E946725C901DA018093BB0590933C
:1035E000BC05A093BD05B093BE0580916B058823F3
:1035F00011F40C94B10E809103069091040681158C
:10360000A2E09A070CF09FC28091DD05882311F497
:103610000C94B10E1092DD0587E0EDE2F1E0D501EA
:1036200001900D928A95E1F78091DD05811102C527
:103630008FE496E4A6E4B0E08F839887A987BA87E1
:10364000D5010D900020E9F7119788E0ECE3F1E057
:1036500001900D928A95E1F7B50185E00E949F03E4
:103660000C94B10E5D9A5C9A5C9826FF8ACE5D9AA6
:103670005C9A5C9825FF8ACE5D9A5C9A5C9824FFE0
:103680008ACE5D9A5C9A5C9823FF8ACE5D9A5C9A9A
:103690005C9822FF8ACE5D9A5C9A5C9821FF8ACE64
:1036A0005D9A5C9A5C9820FF8ACE5D9A89CE809163
:1036B000FF058823D1F08091930590919405209186
:1036C000030630910406AC01475F5F4F4217530772
:1036D00064F08B3091050CF459C30A978217930755
:1036E00024F4809273051092FF05809100068823D0
:1036F000D1F0809195059091960520910506309125
:103700000606AC01475F5F4F4217530764F08B30EA
:1037100091050CF43EC30A978217930724F4809214
:10372000740510920006809101068823D1F08091E3
:103730009705909198052091070630910806AC01F5
:10374000475F5F4F4217530764F08B3091050CF4CD
:103750005AC30A978217930724F480927505109232
:10376000010680910206882309F4E9C02091990599
:1037700030919A058091090690910A06A901475F48
:103780005F4F481759070CF4DAC02B3031050CF4A1
:10379000FAC22A503109281739070CF0D0C080929C
:1037A0007605109202068B3A91050CF0D5C08091F7
:1037B00004018111ADC380917505882309F440C0CF
:1037C0002091070630910806C90195958795959532
:1037D00087954091B50550E08417950789F180934E
:1037E000B505309398052093970527E0E4E6F1E0CE
:1037F000D50101900D922A95E1F799279F938F9318
:10380000A6E0B1E0BF93AF9339AD3F9388AD8F93FE
:103810000E94AF25D5010D900020E9F7119785E0B2
:10382000EFE3F1E001900D928A95E1F7B50183E0B5
:103830000E949F030F900F900F900F900F900F908A
:1038400080917405882309F440C0209105063091C9
:103850000606C90195958795959587954091B4057C
:1038600050E08417950789F18093B405309396054D
:103870002093950527E0EBE6F1E0D50101900D924C
:103880002A95E1F799279F938F93A6E0B1E0BF9324
:10389000AF9339AD3F9388AD8F930E94AF25D5018B
:1038A0000D900020E9F7119785E0EFE3F1E001903A
:1038B0000D928A95E1F7B50184E00E949F030F9075
:1038C0000F900F900F900F900F90809173058823A9
:1038D00011F40C94B10E80910306909104068D357D
:1038E00091050CF03DC18091B605882311F40C942C
:1038F000B10E1092B60587E0E4E3F1E0D501019046
:103900000D928A95E1F7E8E6F6E065917491510130
:10391000812F992D0E94A425D1010D900020E9F757
:10392000119785E0EFE3F1E001900D928A95E1F7C0
:10393000612F792D85E00E949F030C94B10E809138
:103940007605882309F437CF8091090690910A06FD
:103950008B3A91050CF42BCF8535A1E09A070CF03A
:103960001BC280910401813009F425CF80920401AB
:1039700080E091E090939A058093990587E0E6E1D5
:10398000F1E0D50101900D928A95E1F7E2E8F6E0C9
:10399000659174915101812F992D0E94A425D10127
:1039A0000D900020E9F7119785E0EFE3F1E0019039
:1039B0000D928A95E1F7612F792D82E00E949F0395
:1039C000FACE80917205882309F464C880910906B3
:1039D00090910A06823991050CF457C88432A1E00F
:1039E0009A070CF01CC280910201813009F452C880
:1039F000809202018BED90E0909392058093910567
:103A000087E0E6E1F1E0D50101900D928A95E1F7BA
:103A10008091020190E0880F991F8058994FFC0116
:103A2000659174915101812F992D0E94A425D10196
:103A30000D900020E9F7119788E0ECE3F1E00190A8
:103A40000D928A95E1F7612F792D82E00E949F0304
:103A500021C880916E05882309F486CA80910906E1
:103A600090910A06823991050CF47ACA8432A1E059
:103A70009A070CF000C280910301813009F474CAE6
:103A8000809203018BED90E090938A0580938905E5
:103A900087E0E6E1F1E0D50101900D928A95E1F72A
:103AA0008091030190E0880F991F8058994FFC0185
:103AB000659174915101812F992D0E94A425D10106
:103AC0000D900020E9F7119788E0ECE3F1E0019018
:103AD0000D928A95E1F7612F792D82E00E949F0374
:103AE00043CA80917A05882311F40C94DD138091E8
:103AF000090690910A060C9477139091F4049F5F45
:103B00009093F4040C94A0148115924011F40C9439
:103B1000B10E8091BF05882311F40C94B10E109260
:103B2000BF0587E0ECE9F1E0D50101900D928A959F
:103B3000E1F78FE496E4A6E4B0E08F839887A98745
:103B4000BA870C9439148F3F934014F00C94B10E43
:103B50008091DD0581110C94B10E8092DD055CCD64
:103B60008A3B91050CF036C18091B605813011F485
:103B70000C94B10E8092B60587E0E4E3F1E0D50144
:103B800001900D928A95E1F7EAE6F6E0BECE8A3919
:103B9000A1E09A070CF083C18091CC058F3F11F40E
:103BA0000C94B10E2FEF2093CC0583E391E090931A
:103BB0008C0580938B0586E0E1E5F1E0D50101906D
:103BC0000D928A95E1F72F9316C98115924014F052
:103BD0000C9416148091C305882311F40C941614C8
:103BE0001092C3050C94F1131092F3041092B305D4
:103BF00010926B0510926C0510926D0510926E0577
:103C0000E9E0F1E06196AFAD61976296BFAD629772
:103C10008D2D01900D928A95E1F7BE016B5E7F4F6D
:103C200080E00E949F03E6E1F1E0D5018E2D019036
:103C30000D928A95E1F78091030190E0880F991F1A
:103C40008058994FFC0165917491A12EB92C812F58
:103C5000992D0E94A425D1010D900020E9F711971C
:103C6000ECE3F1E0802F01900D928A95E1F7612F4E
:103C7000792D82E00E949F03EDE1F1E0A12FB92DA3
:103C8000802F01900D928A95E1F72091E605822F11
:103C9000992787FD90959F932F93A6E0B1E0BF935E
:103CA000AF933BAD3F938AAD8F930E94AF25D10177
:103CB0000D900020E9F71197ECE3F1E0802F0190DF
:103CC0000D928A95E1F7612F792D84E00E949F0380
:103CD000E5E2F1E0A12FB92D802F01900D928A9598
:103CE000E1F72091E505822F992787FD90959F9315
:103CF0002F93A6E0B1E0BF93AF933BAD3F938AAD66
:103D00008F930E94AF25D1010D900020E9F7119704
:103D1000ECE3F1E0802F01900D928A95E1F7612F9D
:103D2000792D83E00E949F03EDE2F1E0A12FB92DF0
:103D30008E2D01900D928A95E1F78091DD050FB6E9
:103D4000F894DEBF0FBECDBF8111F5C08FE496E4BD
:103D5000A6E4B0E08F839887A987BA87D1010D9038
:103D60000020E9F71197ECE3F1E0802F01900D922C
:103D70008A95E1F7612F792D85E00E949F0380915C
:103D8000B3050C94DD0E20E030E005CD80E090E03E
:103D9000A5CC80E090E0C0CC8F3FB1E09B070CF059
:103DA000D1C080910401823009F405CD82E0809376
:103DB00004018AEA91E090939A058093990587E03F
:103DC000E6E1F1E0D50101900D928A95E1F7E4E892
:103DD000F6E0DECD8731A1E09A070CF0E2C08091D9
:103DE000B605823011F40C94B10E82E08093B605D2
:103DF00087E0E4E3F1E0D50101900D928A95E1F7C7
:103E0000ECE6F6E082CD80E090E0A4CC80E090E0AB
:103E10003EC880E090E059C820E030E095C8863B7D
:103E2000B1E09B070CF0ACC080910201823011F42C
:103E30000C944A1582E0809302018DE691E0DCCD7E
:103E40008FE49EE4A0E08F839887A9870C94D51215
:103E500080E090E058C820E030E00C946E1380E0E1
:103E600090E00C942B1380E090E00C944A1380E0D7
:103E700090E00C940C13863BB1E09B070CF0CAC099
:103E800080910301823009F46FC882E080930301BE
:103E90008DE691E0F9CD80E090E00C94E614873651
:103EA000A2E09A070CF096C08091CC05882311F40B
:103EB0000C94B10E1092CC0580E092E090938C05AA
:103EC00080938B0586E0E1E5F1E0D50101900D924C
:103ED0008A95E1F71F921F920C94FC168FE49EE4E2
:103EE000A0E089879A87AB870C94B0128FE49EE498
:103EF000A0E089879A87AB870C940614109203017F
:103F000089E490E0C1CD1092020189E490E074CD83
:103F10001092040185E590E090939A0580939905AD
:103F200087E0E6E1F1E0D50101900D928A95E1F795
:103F3000E0E8F6E02DCD8FE49EE4A0E08F83988743
:103F4000A9870CCF8A3A22E092070CF08BC08091AF
:103F50000401833009F42FCC83E08093040184E5CD
:103F600092E090939A058093990587E0E6E1F1E06D
:103F7000D50101900D928A95E1F7E6E8F6E008CDCB
:103F8000883422E092070CF08BC0809102018330CC
:103F900011F40C944A1583E0809302018FEF91E0B5
:103FA0002BCD8437B1E09B070CF08BC08091B60518
:103FB000833011F40C94B10E83E08093B60587E052
:103FC000E4E3F1E0D50101900D928A95E1F7EEE688
:103FD000F6E09BCC8433A3E09A070CF08BC0809171
:103FE000CC05813011F40C94B10E8092CC058DEC8F
:103FF00092E090938C0580938B0586E0E1E5F1E0FB
:10400000D50101900D928A95E1F71F92B1E0BF931F
:104010000C94FC16883422E092079CF480910301F2
:10402000833011F40C94B41783E0809303018FEF75
:1040300091E02ACD8FE49EE4A0E08F839887A98742
:10404000FFCA8A3D32E093070CF073C080910301F0
:10405000843011F40C94B41784E08093030181E957
:1040600092E012CD843533E093070CF0A4C0809128
:104070000401843009F49FCB84E0809304018FEF26
:1040800092E090939A058093990587E0E6E1F1E04C
:10409000D50101900D928A95E1F7E8E8F6E078CC39
:1040A0008A3D32E093070CF054C0809102018430C5
:1040B00011F40C944A1584E08093020181E992E0A6
:1040C0009BCC813D21E092070CF092C08091B60517
:1040D000843011F40C94B10E84E08093B60587E02F
:1040E000E4E3F1E0D50101900D928A95E1F7E0E774
:1040F000F6E00BCC8F3F934014F00C94B10E8091FE
:10410000CC05823011F40C94B10E22E02093CC0542
:104110008AE993E090938C0580938B0586E0E1E536
:10412000F1E0D50101900D928A95E1F71F920C9470
:10413000FB168C36A3E09A07E4F4809103018530E6
:1041400011F40C94B41785E08093030183E293E0AB
:104150009BCC8C36A3E09A07ECF480910201853069
:1041600011F40C944A1585E08093020183E293E0F8
:1041700043CC8F3F934014F00C94B417809103010B
:10418000863011F40C94B41786E08093030185EB1C
:1041900093E07ACC8F3F934014F00C944A158091B1
:1041A0000201863011F40C944A1586E080930201D6
:1041B00085EB93E021CC8F3F93400CF0FCCA8091BB
:1041C0000401863009F4F7CA86E08093040189EA85
:1041D00093E090939A058093990587E0E6E1F1E0FA
:1041E000D50101900D928A95E1F7ECE8F6E0D0CB8D
:1041F0008E3232E09307A4F48091B605853011F435
:104200000C94B10E85E08093B60587E0E4E3F1E01D
:10421000D50101900D928A95E1F7E2E7F6E075CBC2
:104220008B38A2E09A076CF48091B605863011F4C1
:104230000C94B10E86E08093B6050E94BA090C94E6
:10424000B10E883EB2E09B076CF48091B6058730D2
:1042500011F40C94B10E87E08093B6050E94BA0960
:104260000C94B10E853423E092076CF48091B6056E
:10427000883011F40C94B10E88E08093B6050E944A
:10428000BA090C94B10E823A33E093076CF4809132
:10429000B605893011F40C94B10E89E08093B6050F
:1042A0000E94BA090C94B10E8F3F934014F00C9405
:1042B000B10E8091B6058A3011F40C94B10E8AE0EB
:1042C0008093B6050E94BA090C94B10E1F920F920A
:1042D0000FB60F9211244F925F926F927F928F923E
:1042E0009F92AF92BF92CF92DF92EF92FF920F9385
:1042F0002F933F934F935F936F937F938F939F93EE
:10430000AF93BF93EF93FF93CF93DF93CDB7DEB718
:104310002897DEBFCDBF8091C60087FD56C0909123
:10432000FB05E92FF0E0E450FA4F808381E0890F2C
:104330008093FB05833031F128960FB6F894DEBFE9
:104340000FBECDBFDF91CF91FF91EF91BF91AF91A4
:104350009F918F917F916F915F914F913F912F919D
:104360000F91FF90EF90DF90CF90BF90AF909F9014
:104370008F907F906F905F904F900F900FBE0F9037
:104380001F90189521E02093FB058091FC05803952
:1043900019F1803889F68091FD0590E04597FC0180
:1043A000EA5FFA4F10822091C0052111C5CF2091FC
:1043B000DB0530E08217930709F0BECF10925E054F
:1043C0001092C1051092DC05B7CF807F8093FC0569
:1043D00081E08093FB05B0CF8091FE05882309F42E
:1043E000E0C04091FD05842F90E04597FC01EA5F15
:1043F000FA4F20832091050530E02817390724F46F
:104400008BEE840F809305058091C0058111CDC08E
:1044100045514093DB054093C20581E08093C1057F
:104420008093DC05942F81E080935E05E091E505A3
:10443000FF27E7FDF095E90FF11DEE0FFF1FEE0FCF
:10444000FF1FED55FE4FC080D180E280F380809148
:10445000CC05E091CD05FF27E7FDF095E40FF11DB8
:104460009CE08902E00DF11D1124EE0FFF1FEE0FFD
:10447000FF1FED55FE4F80809180A280B380209178
:10448000E605A7E22A0290011124442737FD409552
:10449000542FC701B6010E94C22400E10E94672583
:1044A00029833A834B835C8389819A81AB81BC8168
:1044B000C80ED91EEA1EFB1EC092F705D092F80561
:1044C000E092F905F092FA052091CE0597E22902D3
:1044D00090011124442737FD4095542FC501B401A4
:1044E0000E94C2240E94672529833A834B835C8300
:1044F0006D837E838F83988789819A81AB81BC810C
:10450000880E991EAA1EBB1E8092D7059092D805D0
:10451000A092D905B092DA054090670550906805E1
:104520006090690570906A05C701B601A301920108
:104530000E94C2240E946725C901DA018093E70521
:104540009093E805A093E905B093EA05C501B4018D
:10455000A30192010E94C2240E946725C901DA01C9
:104560008093CF059093D005A093D105B093D20549
:104570006091B7057091B8058091B9059091BA0521
:10458000A30192010E94C2240E946725C901DA0199
:104590008093BB059093BC05A093BD05B093BE0569
:1045A000CBCE80E88093FC05F6CE9091DB05409160
:1045B000C20539CF1F920F920FB60F9211242F937D
:1045C0003F934F938F939F93EF93FF9340910B06ED
:1045D000842F90E02091780030917900FC01EE0F5B
:1045E000FF1FED5FF94F31832083FC01E150FA4F4B
:1045F00021E020834F5F443088F010920B0640E0AA
:1046000040937C00FF91EF919F918F914F913F914B
:104610002F910F900FBE0F901F90189540930B068F
:10462000EFCF1F920F920FB60F9211242F933F934B
:104630004F935F936F937F938F939F93AF93BF93AA
:10464000EF93FF93CF93DF9300D000D0CDB7DEB7C9
:1046500080915E05882309F406C18091EF05909151
:10466000F005A091F105B091F2058093EB059093D0
:10467000EC05A093ED05B093EE058091F3059091C4
:10468000F405A091F505B091F6058093EF059093A0
:10469000F005A093F105B093F2054091E705509124
:1046A000E8056091E9057091EA058091F305909124
:1046B000F405A091F505B091F605840F951FA61F8E
:1046C000B71F8093F3059093F405A093F505B0937D
:1046D000F6054091CF055091D0056091D1057091BC
:1046E000D2058091D3059091D405A091D505B091C4
:1046F000D605840F951FA61FB71F8093D3059093EF
:10470000D405A093D505B093D60580910001909172
:1047100001019C013695279580FDCEC030930101A3
:10472000209300018091E0059091E1059093DF05D1
:104730008093DE058091E2059091E3059093E10579
:104740008093E005E09103019091F5058091E405E7
:10475000890FF0E0EE0FFF1FED5FFC4F0190F0813D
:10476000E02DE80FF11DE859FF4FE491F0E0F093E0
:10477000E305E093E20580910301853009F49FC0D1
:104780008091C3058823C1F08091F1054091ED052A
:10479000841790F4891780F48091F3059091F405C3
:1047A000A091F505B091F6058093D3059093D405BB
:1047B000A093D505B093D605E09102018091CB0579
:1047C0009091D505890FF0E0EE0FFF1FED5FFC4FD4
:1047D0000190F081E02DE80FF11DE859FF4FE491C1
:1047E000F0E0F093C905E093C8058091020185309F
:1047F00009F45DC019821A821B821C822091E20595
:104800003091E30540910501429FC001439F900D07
:1048100011249093E3058093E2052091C80530911F
:10482000C9054091CA05429FC001439F900D1124C4
:104830009093C9058093C8058091BF052091E2053A
:104840003091E305811126C08091C8059091C9057A
:10485000820F931FA0E0B0E089839A83AB83BC836F
:104860008A818093B3000F900F900F900F90DF918B
:10487000CF91FF91EF91BF91AF919F918F917F91D8
:104880006F915F914F913F912F910F900FBE0F90BD
:104890001F9018958091C8059091C905822793278C
:1048A000A0E0B0E089839A83AB83BC83D9CF3093F7
:1048B000C9052093C8059ECF84EB38272FCF3093AE
:1048C000E3052093E2058091C305882309F474CFA2
:1048D0005BCFDF93CF931F930F939A9DF02D219F72
:1048E000F00D8B9DF00D8A9DE02DF10D039FF00DD5
:1048F000029FE00DF11D4E9DE00DF11D5E9DF00D3E
:104900004F9DF00D7F936F93BF92AF925F934F9344
:10491000D5010E9495258B01AC01D7010E949525F8
:10492000EB01E80FF91FD6010E94B9242F913F91A6
:10493000D6010E949525C60FD71FE81FF91FAF911A
:10494000BF910E94B9242F913F910E949525C60FD7
:10495000D71FE81FF91FD6010E949525E60FF71F04
:104960009801BE01CF0111240F911F91CF91DF91CA
:1049700008950E949525460F571FC81FD91F08F498
:1049800031960895E894DF93CF93FC01DB010E94F8
:1049900095257F936F93E9019A01AC01BF93AF9383
:1049A0003F932F93DF010E94952526F46C1B7D0B0E
:1049B000820B930B9E01EB01FC010E94B924AF9185
:1049C000BF912F913F910E94B924BE01CF01F901FF
:1049D0002F913F91CF91DF910895689401C0E894A1
:1049E0008F929F92CF93DF930E94FB24DF91CF9110
:1049F0009F908F90089588249924F401E401B0E4F5
:104A00009F93AA279A158B049C04ED05FE05CF05FC
:104A1000D007A10798F4AD2FDC2FCF2FFE2FE92D63
:104A2000982C892E982F872F762F652F542F432F60
:104A3000322F2227B85031F7BF9127C01B2EBF91CC
:104A4000BB27220F331F441F551F661F771F881F68
:104A5000991F881C991CEE1FFF1FCC1FDD1FAA1F6A
:104A6000BB1F8A149B04EC05FD05CE05DF05A007DE
:104A7000B10748F08A189B08EC09FD09CE09DF0947
:104A8000A00BB10B21601A94E1F62EF49401AF0152
:104A9000BE01CD01000C08950F93083090F0982FBF
:104AA000872F762F652F542F432F322F2227085020
:104AB000F4CF220F331F441F551F661F771F881F17
:104AC000991F0A95B2F70F91089597FB10F8169465
:104AD00000080F93083098F00850232F342F452FEB
:104AE000562F672F782F892F902DF4CF0594979507
:104AF00087957795679557954795379527950A95A3
:104B0000AAF70F9108952A0D3B1D4C1D5D1D6E1DCA
:104B10007F1D801F911F08952A193B094C095D09CB
:104B20006E097F09800B910B0895A29FB001B39F7E
:104B3000C001A39F700D811D1124911DB29F700DA6
:104B4000811D1124911D0895FB01DC010D900020B1
:104B5000E9F7119705900D920020E1F70895AEE076
:104B6000B0E0E5EBF5E20C9457280D891E8986E04C
:104B70008C831A8309838FEF9FE79E838D83AE0119
:104B8000475E5F4F6F89788DCE0101960E94D125D7
:104B9000EF81F885E00FF11F10822E96E4E00C946F
:104BA0007328ACE0B0E0E7EDF5E20C9449287C0115
:104BB0006B018A01FC0117821682838181FFBDC1CE
:104BC000CE0101964C01F7019381F60193FD859189
:104BD00093FF81916F01882309F4ABC1853239F4C9
:104BE00093FD859193FF81916F01853229F4B7017F
:104BF00090E00E94B927E7CF512C312C20E02032E1
:104C0000A0F48B3269F030F4803259F0833269F4C9
:104C100020612CC08D3239F0803339F4216026C0F8
:104C20002260246023C0286021C027FD27C030ED0A
:104C3000380F3A3078F426FF06C0FAE05F9E300D58
:104C40001124532E13C08AE0389E300D1124332EC8
:104C500020620CC08E3221F426FD6BC1206406C098
:104C60008C3611F4206802C0883641F4F60193FDB9
:104C7000859193FF81916F018111C1CF982F9F7D05
:104C80009554933028F40C5F1F4FFFE3F9830DC058
:104C9000833631F0833771F0833509F05BC022C071
:104CA000F801808189830E5F1F4F44244394512C67
:104CB000540115C03801F2E06F0E711CF801A0809C
:104CC000B18026FF03C0652D70E002C06FEF7FEF5B
:104CD000C5012C870E94AE272C0183012C852F77DC
:104CE000222E17C03801F2E06F0E711CF801A0806F
:104CF000B18026FF03C0652D70E002C06FEF7FEF2B
:104D0000C5012C870E94A3272C012C852068222E08
:104D1000830123FC1BC0832D90E048165906B0F494
:104D2000B70180E290E00E94B9273A94F4CFF501F0
:104D300027FC859127FE81915F01B70190E00E94D9
:104D4000B92731103A94F1E04F1A51084114510437
:104D500071F7E5C0843611F0893639F5F80127FF7F
:104D600007C060817181828193810C5F1F4F08C0F1
:104D700060817181882777FD8095982F0E5F1F4F86
:104D80002F76B22E97FF09C090958095709561950A
:104D90007F4F8F4F9F4F2068B22E2AE030E0A40152
:104DA0000E94EB27A82EA81844C0853729F42F7E2F
:104DB000B22E2AE030E025C0F22FF97FBF2E8F36C9
:104DC000C1F018F4883579F0B4C0803719F088370D
:104DD00021F0AFC02F2F2061B22EB4FE0DC08B2D5D
:104DE0008460B82E09C024FF0AC09F2F9660B92E98
:104DF00006C028E030E005C020E130E002C020E13C
:104E000032E0F801B7FE07C0608171818281938131
:104E10000C5F1F4F06C06081718180E090E00E5FE3
:104E20001F4FA4010E94EB27A82EA818FB2DFF7787
:104E3000BF2EB6FE0BC02B2D2E7FA51450F4B4FE52
:104E40000AC0B2FC08C02B2D2E7E05C07A2C2B2D5B
:104E500003C07A2C01C0752C24FF0DC0FE01EA0DA1
:104E6000F11D8081803311F4297E09C022FF06C024
:104E70007394739404C0822F867809F0739423FD91
:104E800013C020FF06C05A2C731418F4530C571883
:104E9000732C731468F4B70180E290E02C870E94B1
:104EA000B92773942C85F5CF731410F4371801C00B
:104EB000312C24FF12C0B70180E390E02C870E94C0
:104EC000B9272C8522FF17C021FF03C088E590E099
:104ED00002C088E790E0B7010CC0822F867859F0B5
:104EE00021FD02C080E201C08BE227FD8DE2B70107
:104EF00090E00E94B927A51438F4B70180E390E050
:104F00000E94B9275A94F7CFAA94F401EA0DF11D33
:104F10008081B70190E00E94B927A110F5CF33201E
:104F200009F451CEB70180E290E00E94B9273A948B
:104F3000F6CFF7018681978102C08FEF9FEF2C9605
:104F4000E2E10C946528FC0105906150704001106D
:104F5000D8F7809590958E0F9F1F0895FC016150A2
:104F6000704001900110D8F7809590958E0F9F1F8B
:104F700008950F931F93CF93DF93182F092FEB0101
:104F80008B8181FD03C08FEF9FEF20C082FF10C097
:104F90004E815F812C813D81421753077CF4E8816B
:104FA000F9819F012F5F3F4F39832883108306C00B
:104FB000E885F985812F0995892B29F72E813F8175
:104FC0002F5F3F4F3F832E83812F902FDF91CF9113
:104FD0001F910F910895FA01AA27283051F120312D
:104FE00081F1E8946F936E7F6E5F7F4F8F4F9F4F7D
:104FF000AF4FB1E03ED0B4E03CD0670F781F891FBF
:105000009A1FA11D680F791F8A1F911DA11D6A0F8C
:10501000711D811D911DA11D20D009F468943F913F
:105020002AE0269F11243019305D3193DEF6CF013E
:105030000895462F4770405D4193B3E00FD0C9F704
:10504000F6CF462F4F70405D4A3318F0495D31FD71
:105050004052419302D0A9F7EACFB4E0A6959795C4
:10506000879577956795BA95C9F70097610571059A
:1050700008959B01AC010A2E0694579547953795E4
:105080002795BA95C9F7620F731F841F951FA01D3E
:1050900008952F923F924F925F926F927F928F92DC
:1050A0009F92AF92BF92CF92DF92EF92FF920F93B7
:1050B0001F93CF93DF93CDB7DEB7CA1BDB0B0FB6C1
:1050C000F894DEBF0FBECDBF09942A88398848887E
:1050D0005F846E847D848C849B84AA84B984C88414
:1050E000DF80EE80FD800C811B81AA81B981CE0F0B
:1050F000D11D0FB6F894DEBF0FBECDBFED010895F0
:04510000F894FFCF51
:10510400E1AC030206FF256400204F5343312043E2
:1051140054524C2E2000574156453A200043454EE8
:1051240054533A200053454D49533A200053594EA5
:10513400433A2000525554453A2000202020202094
:1051440020202000204F534332204354524C2E2021
:10515400004F43543A2000204C464F2020435452E1
:105164004C2E2000465245513A2000445054483AAF
:1051740020004D4958494E47204354524C2E005765
:105184004549474854313A20005745494748543225
:105194003A200053594E4320323A200052494E4798
:1051A4003A200000801B004E211D0021DE1E000459
:1051B400B42000D6A5220046B5240012E42600122D
:1051C4003429004BA72B00D23F2E00D8FF3000C05B
:1051D400E93300000037009C423A0042BC3D00081D
:1051E400684100AC4B45008C6A490024C84D00243A
:1051F400685200964E5700A47F5C00B0FF610080A7
:10520400D3670000006E003885740084787B00103A
:10521400D0820058978A0018D5920048909B004885
:10522400D0A4002C9DAE0048FFB80060FFC300006E
:10523400A7CF000000DC00700AE90008F1F60020A6
:10524400A00501B02E150130AA2501902037019048
:10525400A049015E3A5D0190FE7101C0FE87010024
:105264004E9F010000B801E014D20110E2ED0140AC
:10527400400B02605D2A0260544B0220416E022002
:10528400419302B074BA0220FDE30280FD0F0300D3
:105294009C3E0300007003C029A40320C4DB0380E8
:1052A400801604C0BA5404C0A896044082DC0440AA
:1052B40082260560E9740540FAC70500FB1F060055
:1052C400387D060000E006805348074088B7070091
:1052D400012D088075A90880512D098094B009809A
:1052E400044D0AC0D2E90A80F48F0B00F63F0C008B
:1052F40070FA0C0000C00D00A7900E80106F0F0014
:10530400025A100000000100020003000400000023
:1053140005000000000000005F0000000700070017
:10532400147F147F14242A7F2A12231308646236FC
:10533400495522500005030000001C224100004191
:10534400221C0014083E081408083E0808005030C7
:105354000000080808080800606000002010080425
:10536400023E5149453E00427F4000426151494658
:105374002141454B311814127F1027454545393CCE
:105384004A494930017109050336494949360649F4
:1053940049291E0036360000005636000008142243
:1053A4004100141414141400412214080201510978
:1053B40006324979413E7E1111117E7F49494936B1
:1053C4003E414141227F4141221C7F494949417F5D
:1053D400090909013E4149497A7F0808087F0041CB
:1053E4007F41002040413F017F081422417F40401B
:1053F40040407F020C027F7F0408107F3E41414100
:105404003E7F090909063E4151215E7F091929465B
:10541400464949493101017F01013F4040403F1F56
:105424002040201F3F4038403F631408146307089E
:105434007008076151494543007F41410002040857
:1054440010200041417F000402010204404040401A
:1054540040000102040020545454787F48444438E6
:105464003844444420384444487F38545454180839
:105474007E0901020C5252523E7F08040478004413
:105484007D40002040443D007F1028440000417FBF
:1054940040007C041804787C0804047838444444AC
:1054A400387C14141408081414187C7C08040408A8
:1054B4004854545420043F4440203C4040207C1C29
:1054C4002040201C3C4030403C44281028440C50D0
:1054D40050503C4464544C44000836410000007F62
:1054E40000000041360800100808100878464146BC
:0254F40078003E
:00000001FF
