S010000053796E74684C43442E737265632B
S11300000C9434030C9451030C9451030C94510339
S11300100C9451030C9451030C9451030C9451030C
S11300200C9451030C9497060C9451030C945103B3
S11300300C9451030C9451030C9451030C945103EC
S11300400C9451030C9451030C9491030C9451039C
S11300500C945F030C946A060C9451030C945103A2
S11300600C9451030C94510380808080818181829F
S113007082838485858687898A8B8C8E8F909294DF
S11300809597999B9D9FA1A3A5A7AAACAEB1B3B622
S1130090B8BBBEC0C3C6C9CCCED1D4D7DADDE0E389
S11300A0E6E9ECEFF3F6F9FCFF0205080B0F121575
S11300B0181B1E2124272A2D303235383B3E40435D
S11300C046484B4D50525457595B5D5F61636567B9
S11300D0696A6C6E6F7072737475777879797A7BEC
S11300E07C7C7D7D7D7E7E7E7E7E7E7E7D7D7D7C38
S11300F07C7B7A7979787775747372706F6E6C6AB9
S113010069676563615F5D5B59575452504D4B4855
S11301104643403E3B383532302D2A2724211E1BCE
S11301201815120F0B080502FFFCF9F6F3EFECE9C2
S1130130E6E3E0DDDAD7D4D1CECCC9C6C3C0BEBBBA
S1130140B8B6B3B1AEACAAA7A5A3A19F9D9B99973E
S1130150959492908F8E8C8B8A89878685858483EB
S113016082828181818080800001030507090B0D53
S113017010121416181A1D1F212426282A2D2F3177
S1130180333537393B3D3F41434546484A4C4E5051
S1130190525557595C5E606365686A6D6F71747619
S11301A078797B7C7D7E7F7F7F7F7E7E7D7B7A7886
S11301B0777573706E6C696764625F5D5A585654E4
S11301C0514F4D4B4947454442403E3C3A38363402
S11301D032302E2B29272522201E1C191715131106
S11301E00E0C0A0806040200FFFDFBF9F7F5F3F113
S11301F0EEECEAE8E6E3E1DFDDDAD8D6D4D1CFCD20
S1130200CBC9C7C5C3C1BFBDBBBAB8B6B4B2B0AE23
S1130210ABA9A7A5A2A09D9B989693918F8C8A8841
S1130220878584828181808080808182838486879F
S1130230898B8E909295979A9C9FA1A3A6A8AAAD0C
S1130240AFB1B3B5B7B9BABCBEC0C2C4C6C8CACCD4
S1130250CED0D2D5D7D9DBDEE0E2E5E7E9EBEDEFAE
S1130260F2F4F6F8FAFCFEFFD7D7D7D7D7D6D6D50F
S1130270D4D3D1D0CECDCBC9C7C5C4C2C1C0BFBEF3
S1130280BDBDBDBDBDBDBDBDBDBDBDBDBCBCBBB9A2
S1130290B8B7B5B3B1AFAEACAAA9A7A6A5A5A4A497
S11302A0A4A4A5A5A6A6A7A7A7A7A7A7A6A5A3A2F2
S11302B0A09E9C9A989694939190908F8F909192EF
S11302C0939597989A9C9D9E9E9F9E9D9C9A989587
S11302D0928F8C8886838180808183868B9198A17C
S11302E0ABB6C2D0DEECFB0A192735424F5A636C19
S11302F073787C7E7F7F7D7A76726D68625C5751FD
S11303004C4844413E3C3A39393939393A3A3B3B15
S11303103B3B3A3A38373533302D2B2825221F1DE5
S11303201B19171614141313131313131313131382
S11303301211100F0E0C0A0806040200FEFCFAF952
S1130340F7F6F5F5F4F4F4F3F3F3F3F3F3F3F2F26D
S1130350F1F0EFEDECEAE8E6E4E2E1DFDDDCDBDA44
S1130360D9D8D8D7D7D7D7D7282828282829292A89
S11303702B2C2E2F31323436383A3B3D3E3F404110
S11303804242424242424242424242424343444641
S113039047484A4C4E505153555658595A5A5B5B2C
S11303A05B5B5A5A5959585858585858595A5C5DB1
S11303B05F61636567696B6C6E6F6F70706F6E6D94
S11303C06C6A686765636261616061626365676ADC
S11303D06D707377797C7E7F7F7E7C79746E675EC7
S11303E054493D2F211304F5E6D8CABDB0A59C930A
S11303F08C87838180808285898D92979DA3A8AE06
S1130400B3B7BBBEC1C3C5C6C6C6C6C6C5C5C4C4CC
S1130410C4C4C5C5C7C8CACCCFD2D4D7DADDE0E2DC
S1130420E4E6E8E9EBEBECECECECECECECECECEC1F
S1130430EDEEEFF0F1F3F5F7F9FBFDFF010305062F
S113044008090A0A0B0B0B0C0C0C0C0C0C0C0D0DF4
S11304500E0F1012131517191B1D1E2022232425FD
S11304602627272828282828FF0D1A2734404B55EB
S11304705E666D73777B7D7F7F7F7D7B797673701E
S11304806D6A686563626060606061626365676924
S11304906B6D6F70727374747474737371706E6D4A
S11304A06B69686665646363636364646667686AEA
S11304B06C6E6F717273747474747372716F6E6C2A
S11304C06A68666462616060606061626466696CE7
S11304D06F7275787A7C7E7F7F7E7C7975706A62B4
S11304E05950453A2E211406F9EBDED1C5BAAFA610
S11304F09D958F8A8683818080818385878A8D906C
S11305009396999B9D9E9F9F9F9F9E9D9B99979538
S11305109391908E8D8C8B8B8B8B8C8D8E909193F5
S1130520959798999B9B9C9C9C9C9B9A9997969435
S113053092918F8E8C8C8B8B8B8B8C8D8F909294D5
S113054096989A9C9D9E9F9F9F9F9D9C9A979592FB
S11305508F8C898684828080808284888C9299A101
S1130560AAB4BFCBD8E5F2FF8080808080808080F1
S11305708080808080808080808080808080808077
S11305808080808080808080808080808080808067
S11305908080808080808080808080808080808057
S11305A08080808080808080808080808080808047
S11305B08080808080808080808080808080808037
S11305C08080808080808080808080808080808027
S11305D08080808080808080808080808080808017
S11305E08080808080808080808080808080808007
S11305F080808080808080808080808080808080F7
S113060080808080808080808080808080808080E6
S113061080808080808080808080808080808080D6
S113062080808080808080808080808080808080C6
S113063080808080808080808080808080808080B6
S113064080808080808080808080808080808080A6
S11306508080808080808080808080808080808096
S1130660808080808080808011241FBECFEFD8E0FE
S1130670DEBFCDBF12E0A0E0B1E0E4E1F3E102C0EF
S113068005900D92AA37B107D9F724E0AAE7B2E0A2
S113069001C01D92A63DB207E1F70E9427060C9403
S11306A088090C9400001092C5008FE18093C40067
S11306B088ED8093C10086E08093C20008951F9264
S11306C00F920FB60F9211248F939F93EF93FF9382
S11306D0809180039091810301979093810380938B
S11306E08003181619065CF4E0918203F0918303E9
S11306F0EE27F170EC57FC4F80818093C600809107
S113070082039091830301969093830380938203E1
S1130710FF91EF919F918F910F900FBE0F901F90BB
S113072018951F920F920FB60F9211242F933F9397
S11307304F935F936F937F938F939F93AF93BF93E5
S1130740EF93FF9380917E0290917F022091C600E7
S1130750FC01EE27F170E058FD4F20830196909341
S11307607F0280937E0280917C0290917D020196AB
S113077090937D0280937C02E0917A02F0917B0257
S1130780309709F00995FF91EF91BF91AF919F9137
S11307908F917F916F915F914F913F912F910F9026
S11307A00FBE0F901F9018956F927F928F929F9219
S11307B0AF92BF92CF92DF92EF92FF920F931F936B
S11307C0CF93DF9300D000D0CDB7DEB780E09DE8B3
S11307D0ACE8BAE780938E0490938F04A0939004BE
S11307E0B093910481E090E09C838B831A821982F8
S11307F089809A80AB80BC809401A50160E070E0A0
S113080080E090E000E10E943009A12CEDE8BE2ECA
S1130810FCE8CF2EAAE7DA2EE12CF12C00E010E060
S11308200E94D30820938A0430938B0440938C0451
S113083050938D0480E091E09C838B8389809A801F
S1130840AB80BC809401A50160E070E080E090E0A2
S113085000E10E943009A12CBDE8BB2E0CE8C02E9B
S1130860EAE7DE2EE12CF12C00E00E94D3083B01E4
S11308704C01B22FA32FF42FE52F20939204309331
S1130880930440939404509395044CEC5CE060E032
S113089070E0409396045093970460939804709387
S11308A099042B2F3A2F4F2F5E2FB301C40103E07D
S11308B00E943009AB2EBA2ECF2EDE2E7301840196
S11308C00E94670901E00E943009082D0E9467090F
S11308D059016A017B01E82F192F06E00E943009B3
S11308E00E2F0E94670902E00E94300900E10E9475
S11308F04B09C901DA0180939A0490939B04A09355
S11309009C04B0939D048FE080937E0082E88093E2
S11309107A000E9453038091B10081608093B100FA
S11309208091B1008D7F8093B1008091B1008B7F65
S11309308093B1008091B0008F7B8093B000809150
S1130940B00080688093B0008091B0008160809393
S1130950B0008091B0008D7F8093B0008091B10091
S1130960877F8093B1007894209196043091970406
S11309704091980450919904609192047091930469
S113098080919404909195040E94A6080E944B09BA
S1130990C901DA0180939A0490939B04A0939C0468
S11309A0B0939D04F8942091BC0430910B014091C4
S11309B0BE048091BD04082E000C990B840F911D78
S11309C047FD9A95830F911D3CE02302800D911DF4
S11309D0112497FD2DC1883591050CF0FCC0F894C5
S11309E08091BC0420910B01E091BE040E2E000CFA
S11309F0FF0B9091BD04E20FF11DE90FF11D97FD6E
S1130A00FA959CE08902E00DF11D1124EE0FFF1F01
S1130A10EE0FFF1FE45FFE4F80819181A281B381BD
S1130A208093C2049093C304A093C404B093C504F8
S1130A3078942091BF048091C0049091C104820FE6
S1130A40911D27FD9A9547E2489F9001499F300DDB
S1130A501124032E000C440B550BF8946091C2042E
S1130A607091C3048091C4049091C5040E948B08C2
S1130A70AC01772757FD7095672F8091C204909140
S1130A80C304A091C404B091C504840F951FA61F8C
S1130A90B71F8093C2049093C304A093C404B0937B
S1130AA0C50478942091A704309108014091A904C9
S1130AB08091A804082E000C990B840F911D47FD0A
S1130AC09A95830F911D3CE02302800D911D112402
S1130AD097FD9FC0883591050CF08CC0F8948091E7
S1130AE0A70420910801E091A9040E2E000CFF0B2D
S1130AF09091A804E20FF11DE90FF11D97FDFA95FD
S1130B009CE08902E00DF11D1124EE0FFF1FEE0F92
S1130B10FF1FE45FFE4F80819181A281B3818093A6
S1130B20AD049093AE04A093AF04B093B004789452
S1130B302091AA048091AB049091AC04820F911D82
S1130B4027FD9A9547E2489F9001499F300D112453
S1130B50032E000C440B550BF8946091AD04709176
S1130B60AE048091AF049091B0040E948B08AC0154
S1130B70772757FD7095672F8091AD049091AE044F
S1130B80A091AF04B091B004840F951FA61FB71FA6
S1130B908093AD049093AE04A093AF04B093B004DB
S1130BA07894239A80917000816080937000789487
S1130BB00F900F900F900F90DF91CF911F910F9195
S1130BC0FF90EF90DF90CF90BF90AF909F908F9069
S1130BD07F906F900895F89480E89BE1A2E2B0E0E2
S1130BE08093C2049093C304A093C404B093C50437
S1130BF078941FCFF89480E89BE1A2E2B0E0809360
S1130C00AD049093AE04A093AF04B093B004789471
S1130C108FCFF8948DE599E3A0E0B0E08093AD0424
S1130C209093AE04A093AF04B093B004789480CFB3
S1130C30F8948DE599E3A0E0B0E08093C20490932A
S1130C40C304A093C404B093C5047894F2CE0E9464
S1130C50D40320E030E08091780090917900F9018C
S1130C60EE0FFF1FE353FB4F9183808320937C009F
S1130C7080917A00806480937A0080917A0086FD66
S1130C80FCCF80917A00806480937A0080917A000E
S1130C9086FDFCCF2F5F3F4F24303105E1F6809174
S1130CA0BB048F5F8093BB042FEF80E792E0215059
S1130CB080409040E1F700C000008091CF04909103
S1130CC0D004909306018091D1049091D204909322
S1130CD00501BFCF1F920F920FB60F9211242F93CD
S1130CE03F938F93EF93FF938091D504E82FF0E027
S1130CF02091780030917900EE0FFF1FE353FB4FF2
S1130D00318320838F5F843078F01092D50480E0A3
S1130D1080937C00FF91EF918F913F912F910F90E1
S1130D200FBE0F901F9018958093D504F1CF1F929A
S1130D300F920FB60F9211248F929F92AF92BF928F
S1130D40CF92DF92EF92FF921F932F933F934F9393
S1130D505F936F937F938F939F93AF93BF93EF931F
S1130D60FF93CF93DF93CDB7DEB72897DEBFCDBF18
S1130D702091030130910401C9019595879520FDC7
S1130D8052C190930401809303012091070122230F
S1130D9009F406C120918804309189042F5F3F4FE4
S1130DA021304DE7340708F01DC1309389042093A6
S1130DB08804C090C204D090C304E090C404F090AE
S1130DC0C5044091C6045091C7046091C804709151
S1130DD0C9044C0D5D1D6E1D7F1D4093C6045093C8
S1130DE0C7046093C8047093C9041091CB04109392
S1130DF0CA04B091CC04B093CB04A091C804A093CE
S1130E00CC04309106012091BB042A0FE32FF0E0BB
S1130E10EE0FFF1FE459FD4F0190F081E02DE20F2A
S1130E20F11DE859FF4FE491EE2EF12CF092BA0433
S1130E30E092B904E7FF03C02FEF2093BA043530E2
S1130E4009F440C12091B9043091BA04C090AD04B2
S1130E50D090AE04E090AF04F090B0048090B10460
S1130E609090B204A090B304B090B404C80CD91C00
S1130E70EA1CFB1CC092B104D092B204E092B30409
S1130E80F092B404E0919F04EE2319F0B11708F432
S1130E90D6C0A0910501A53009F41AC18091A60419
S1130EA0E091B304F0E0E80FF11D87FDFA95B0E09E
S1130EB0AA0FBB1FA459BD4F4D915C91E40FF51FC0
S1130EC0E859FF4FE4918E2F90E09093A50480930E
S1130ED0A40487FF07C08FEF8093A5048091A40426
S1130EE09091A50460910A01629FA001639F500D37
S1130EF011245093BA044093B90460910901689F86
S1130F009001699F300D11243093A5042093A4040B
S1130F1080919E04882309F46AC0C9018427952717
S1130F20092E000CAA0BBB0B8D839E83AF83B8875D
S1130F308091840481111DC08091020181118BC0B4
S1130F4081E08093840480E09FEF909387048093F2
S1130F508604809101018111C0C090910001909399
S1130F608704109286049111D2C084E08093840493
S1130F7008C0813071F3833009F487C080918704FD
S1130F80982F8E81899FC0011124092E000CAA0B71
S1130F90BB0B8D839E83AF83B8878E818093B30010
S1130FA028960FB6F894DEBF0FBECDBFDF91CF9168
S1130FB0FF91EF91BF91AF919F918F917F916F912D
S1130FC05F914F913F912F911F91FF90EF90DF9090
S1130FD0CF90BF90AF909F908F900F900FBE0F90C7
S1130FE01F9018951092890410928804E2CE052E61
S1130FF0000C660B770BC901330FAA0BBB0B840FD4
S1131000951FA61FB71F9058AF4FBF4F81305FEF9A
S11310109507A105B10554F4B7FF74C01D821E8263
S11310201F82188685CF24EB9227ABCE80E09FEFFA
S1131030A0E0B0E08D839E83AF83B88779CFBA17E1
S113104008F027CF4093B1045093B2046093B304E3
S11310507093B4041ECF2091860430918704A901B3
S1131060480F511D50938704409386048091870450
S11310708F3F09F085CF80E09FEF909387048093A2
S1131080860481E08093840464CF8091850488235E
S113109079F02091860430918704A901481B5109F5
S11310A0509387044093860490918704911169CFEB
S11310B0109287041092860484E0809384049091B3
S11310C087045FCF9093BA048093B9049C01BECE89
S11310D09093A5048093A404FCCE209186043091BF
S11310E08704A901481B510950938704409386043F
S11310F09091000180918704981708F030CF809177
S1131100840439CF8D839E83AF83B88711CF82E067
S11311108093840436CFDB018F939F930E949B08B6
S1131120BF91AF91A29F800D911DA39F900DB29F7F
S1131130900D112408950E947009A59F900DB49FED
S1131140900DA49F800D911D11240895E894DF93C0
S1131150CF93FC01DB010E9470097F936F93E90137
S11311609A01AC01BF93AF933F932F93DF010E9489
S1131170700926F46C1B7D0B820B930B9E01EB0113
S1131180FC010E947F09AF91BF912F913F910E9472
S11311907F09BE01CF01F9012F913F91CF91DF91DA
S11311A00895689401C0E8948F929F92CF93DF933F
S11311B00E94DF08DF91CF919F908F90089588243B
S11311C09924F401E401B0E49F93AA279A158B04AF
S11311D09C04ED05FE05CF05D007A10798F4AD2FBB
S11311E0DC2FCF2FFE2FE92D982C892E982F872FB7
S11311F0762F652F542F432F322F2227B85031F7E3
S1131200BF9127C01B2EBF91BB27220F331F441F42
S1131210551F661F771F881F991F881C991CEE1F76
S1131220FF1FCC1FDD1FAA1FBB1F8A149B04EC05E4
S1131230FD05CE05DF05A007B10748F08A189B0815
S1131240EC09FD09CE09DF09A00BB10B21601A944A
S1131250E1F62EF49401AF01BE01CD01000C089516
S11312600F93083090F0982F872F762F652F542FE7
S1131270432F322F22270850F4CF220F331F441F4D
S1131280551F661F771F881F991F0A95B2F70F9184
S1131290089597FB10F8169400080F93083098F0FF
S11312A00850232F342F452F562F672F782F892F3F
S11312B0902DF4CF059497958795779567955795D5
S11312C04795379527950A95AAF70F9108952A19F6
S11312D03B094C095D096E097F09800B910B089548
S11312E0A29FB001B39FC001A39F700D811D112463
S11312F0911DB29F700D811D1124911D08950E94AE
S11313007009460F571FC81FD91F08F43196089556
S1071310F894FFCF7B
S1131314FFFF0AE1AC020201247D7D245D39000053
S1131324C33C00006340000037440000454800000B
S1131334924C00001F510000F25500000E5B0000A7
S11313447960000035660000496C0000BA72000040
S113135486790000C68000006E8800008A90000030
S1131364249900003EA20000E4AB00001CB6000077
S1131374F2C000006ACC000092D8000074E50000BA
S11313840CF300008C010100DC10010014210100A5
S1131394483201007C440100C8570100386C010044
S11313A4E4810100D498010024B10100E8CA0100D9
S11313B418E6010018030200B821020028420200C2
S11313C490640200F888020090AF020070D8020012
S11313D4C8030300A831030048620300D095030046
S11313E430CC03003006040070430400508404002D
S11313F420C90400F0110500205F0500E0B00500D9
S1131404900706005063060090C40600A02B070052
S113141460980700600C0800E0860800A008090032
S113142440920900E0230A0040BE0A00C0610B0098
S1131434200F0C00A0C60C0020890D0040570E009C
S1131444C0300F00C0181000C00D1100401112006C
S113145480241300C0471400807C150080C3160048
S1131464401E1800408D190040121B0080AE1C0061
S113147480611E0080312000801B220000000001D6
S10D1484000200030004000000054C
S9030000FC
