:100000000C9435030C945D030C945D030C945D0318
:100010000C945D030C945D030C945D030C945D03E0
:100020000C945D030C94D8060C945D030C945D0352
:100030000C945D030C945D030C945D030C945D03C0
:100040000C945D030C945D030C943B050C945D03D0
:100050000C945D030C94A1060C945D030C945D0359
:100060000C945D030C945D0300000000010101028B
:1000700002030405050607090A0B0C0E0F101214E3
:100080001517191B1D1F212325272A2C2E31333626
:10009000383B3E404346494C4E5154575A5D60638D
:1000A00066696C6F7376797C7F8285888B8F929579
:1000B000989B9EA1A4A7AAADB0B2B5B8BBBEC0C361
:1000C000C6C8CBCDD0D2D4D7D9DBDDDFE1E3E5E7BD
:1000D000E9EAECEEEFF0F2F3F4F5F7F8F9F9FAFBF0
:1000E000FCFCFDFDFDFEFEFEFEFEFEFEFDFDFDFC3C
:1000F000FCFBFAF9F9F8F7F5F4F3F2F0EFEEECEABD
:10010000E9E7E5E3E1DFDDDBD9D7D4D2D0CDCBC859
:10011000C6C3C0BEBBB8B5B2B0ADAAA7A4A19E9BD2
:100120009895928F8B8885827F7C7976736F6C69C6
:100130006663605D5A5754514E4C494643403E3BBE
:10014000383633312E2C2A272523211F1D1B191742
:10015000151412100F0E0C0B0A09070605050403EF
:1001600002020101010000008081838587898B8D57
:1001700090929496989A9D9FA1A4A6A8AAADAFB17B
:10018000B3B5B7B9BBBDBFC1C3C5C6C8CACCCED055
:10019000D2D5D7D9DCDEE0E3E5E8EAEDEFF1F4F61D
:1001A000F8F9FBFCFDFEFFFFFFFFFEFEFDFBFAF88A
:1001B000F7F5F3F0EEECE9E7E4E2DFDDDAD8D6D4E8
:1001C000D1CFCDCBC9C7C5C4C2C0BEBCBAB8B6B406
:1001D000B2B0AEABA9A7A5A2A09E9C99979593910A
:1001E0008E8C8A88868482807F7D7B797775737117
:1001F0006E6C6A686663615F5D5A585654514F4D24
:100200004B49474543413F3D3B3A38363432302E27
:100210002B29272522201D1B181613110F0C0A0845
:1002200007050402010100000000010203040607A3
:10023000090B0E101215171A1C1F212326282A2D10
:100240002F31333537393A3C3E40424446484A4CD8
:100250004E50525557595B5E60626567696B6D6FB2
:10026000727476787A7C7E7F575757575756565513
:10027000545351504E4D4B494745444241403F3EF7
:100280003D3D3D3D3D3D3D3D3D3D3D3D3C3C3B39A6
:1002900038373533312F2E2C2A292726252524249B
:1002A00024242525262627272727272726252322F6
:1002B000201E1C1A181614131110100F0F101112F3
:1002C000131517181A1C1D1E1E1F1E1D1C1A18158B
:1002D000120F0C0806030100000103060B11182180
:1002E0002B3642505E6C7B8A99A7B5C2CFDAE3EC1D
:1002F000F3F8FCFEFFFFFDFAF6F2EDE8E2DCD7D101
:10030000CCC8C4C1BEBCBAB9B9B9B9B9BABABBBB19
:10031000BBBBBABAB8B7B5B3B0ADABA8A5A29F9DE9
:100320009B99979694949393939393939393939386
:100330009291908F8E8C8A88868482807E7C7A7956
:100340007776757574747473737373737373727271
:1003500071706F6D6C6A68666462615F5D5C5B5A48
:100360005958585757575757A8A8A8A8A8A9A9AA8D
:10037000ABACAEAFB1B2B4B6B8BABBBDBEBFC0C114
:10038000C2C2C2C2C2C2C2C2C2C2C2C2C3C3C4C645
:10039000C7C8CACCCED0D1D3D5D6D8D9DADADBDB30
:1003A000DBDBDADAD9D9D8D8D8D8D8D8D9DADCDDB5
:1003B000DFE1E3E5E7E9EBECEEEFEFF0F0EFEEED98
:1003C000ECEAE8E7E5E3E2E1E1E0E1E2E3E5E7EAE0
:1003D000EDF0F3F7F9FCFEFFFFFEFCF9F4EEE7DECB
:1003E000D4C9BDAFA193847566584A3D30251C130E
:1003F0000C07030100000205090D12171D23282E0A
:1004000033373B3E414345464646464645454444D0
:100410004444454547484A4C4F5254575A5D6062E0
:10042000646668696B6B6C6C6C6C6C6C6C6C6C6C23
:100430006D6E6F7071737577797B7D7F8183858633
:1004400088898A8A8B8B8B8C8C8C8C8C8C8C8D8DF8
:100450008E8F9092939597999B9D9EA0A2A3A4A501
:10046000A6A7A7A8A8A8A8A87F8D9AA7B4C0CBD5EF
:10047000DEE6EDF3F7FBFDFFFFFFFDFBF9F6F3F022
:10048000EDEAE8E5E3E2E0E0E0E0E1E2E3E5E7E928
:10049000EBEDEFF0F2F3F4F4F4F4F3F3F1F0EEED4E
:1004A000EBE9E8E6E5E4E3E3E3E3E4E4E6E7E8EAEE
:1004B000ECEEEFF1F2F3F4F4F4F4F3F2F1EFEEEC2E
:1004C000EAE8E6E4E2E1E0E0E0E0E1E2E4E6E9ECEB
:1004D000EFF2F5F8FAFCFEFFFFFEFCF9F5F0EAE2B8
:1004E000D9D0C5BAAEA19486796B5E51453A2F2614
:1004F0001D150F0A0603010000010305070A0D1070
:100500001316191B1D1E1F1F1F1F1E1D1B1917153C
:100510001311100E0D0C0B0B0B0B0C0D0E101113F9
:10052000151718191B1B1C1C1C1C1B1A1917161439
:1005300012110F0E0C0C0B0B0B0B0C0D0F101214D9
:1005400016181A1C1D1E1F1F1F1F1D1C1A171512FF
:100550000F0C090604020000000204080C12192105
:100560002A343F4B5865727F0000000000000000F5
:10057000000000000000000000000000000000007B
:10058000000000000000000000000000000000006B
:10059000000000000000000000000000000000005B
:1005A000000000000000000000000000000000004B
:1005B000000000000000000000000000000000003B
:1005C000000000000000000000000000000000002B
:1005D000000000000000000000000000000000001B
:1005E000000000000000000000000000000000000B
:1005F00000000000000000000000000000000000FB
:1006000000000000000000000000000000000000EA
:1006100000000000000000000000000000000000DA
:1006200000000000000000000000000000000000CA
:1006300000000000000000000000000000000000BA
:1006400000000000000000000000000000000000AA
:10065000000000000000000000000000000000009A
:100660000000000000000000820811241FBECFEF30
:10067000D8E0DEBFCDBF12E0A0E0B1E0E6E8F3E1F4
:1006800002C005900D92A837B107D9F723E0A8E77B
:10069000B2E001C01D92A03FB207E1F716E0CAE642
:1006A000D6E004C02297FE010E94AE09C836D107E9
:1006B000C9F70E942D050C94C1090C9400002F92DB
:1006C0003F924F925F926F927F928F929F92AF92E2
:1006D000BF92CF92DF92EF92FF920F931F93CF932F
:1006E000DF93CDB7DEB72C970FB6F894DEBF0FBE01
:1006F000CDBF80E090E8ACE8BAE780939603909392
:100700009703A0939803B093990381E090E09C83B2
:100710008B831A82198289809A80AB80BC80940175
:10072000A50160E070E080E090E000E10E947509C2
:10073000A12CE0E8BE2EFCE8CF2EAAE7DA2EE12CB1
:10074000F12C00E010E00E941809209392033093EE
:100750009303409394035093950380E091E09C832E
:100760008B8389809A80AB80BC809401A50160E076
:1007700070E080E090E000E10E947509A12CB0E8F3
:10078000BB2E0CE8C02EEAE7DE2EE12CF12C00E0B7
:100790000E94180939014A011B012C01322F3093A4
:1007A0009A0370929B0380929C0390929D03EBEDC1
:1007B000F3E080E793E093838283118210820091BB
:1007C000DB031091DC032091DD033091DE0358013F
:1007D000690100E010E09301A401B101C2010E948F
:1007E000920800E10E9490092093D0033093D10336
:1007F0004093D2035093D303E2ECF3E0A0E7B3E0DD
:10080000B383A283118210820091C2031091C303AB
:100810002091C4033091C5035801690100E010E044
:100820009301A401B101C2010E94920800E10E945B
:1008300090092093BA033093BB034093BC035093B9
:10084000BD038FE080937E008AE880937A00109247
:10085000C5008FE18093C40088E98093C10086E0E1
:100860008093C200E1EBF0E0808181608083808131
:100870008D7F808380818B7F8083A0EBB0E08C9123
:100880008F7B8C938C9180688C938C9181608C93FE
:100890008C918D7F8C938081877F8083239AE0E782
:1008A000F0E080818160808378948091C603E0913C
:1008B000CE03FF27E7FDF095E80FF11DEE0FFF1FB8
:1008C000EE0FFF1FE65FFE4FC080D180E280F38015
:1008D0008091B7039091AE03E091B803FF27E7FD45
:1008E000F095E90FF11DBCE08B02E00DF11D112424
:1008F000EE0FFF1FEE0FFF1FE65FFE4F408051809F
:10090000628073806091CF0387E26802B001112496
:10091000882777FD8095982FA70196010E94EB0804
:100920000E9490092D833E834F83588769877A8779
:100930008B879C878D819E81AF81B885C80ED91E1B
:10094000EA1EFB1EC092DB03D092DC03E092DD03C3
:10095000F092DE032091B90397E22902900111245D
:10096000442737FD4095542FC301B2010E94EB0884
:100970000E94900949015A01840C951CA61CB71CC1
:100980008092C2039092C303A092C403B092C503A5
:10099000F8942091DB033091DC034091DD0350910A
:1009A000DE03C0909A03D0909B03E0909C03F090EC
:1009B0009D03C701B6010E94EB080E949009209395
:1009C000D0033093D1034093D2035093D30360916B
:1009D000C2037091C3038091C4039091C503A70122
:1009E00096010E94EB080E9490092093BA0330936D
:1009F000BB034093BC035093BD0360919F03709170
:100A0000A0038091A1039091A203A70196010E94E7
:100A1000EB080E9490092093A9033093AA03409306
:100A2000AB035093AC0378942C960FB6F894DEBFCA
:100A30000FBECDBFDF91CF911F910F91FF90EF902F
:100A4000DF90CF90BF90AF909F908F907F906F90EE
:100A50005F904F903F902F9008950E945F03809188
:100A60007A00806480937A008FE891E00197F1F733
:100A700000C00000F4CF1F920F920FB60F92112406
:100A80004F925F926F927F928F929F92AF92BF929E
:100A9000CF92DF92EF92FF920F932F933F934F935A
:100AA0005F936F937F938F939F93AF93BF93EF93D6
:100AB000FF93CF93DF93CDB7DEB72897DEBFCDBFCF
:100AC0008091C60087FD59C09091DF03E92FF0E0C7
:100AD000E052FC4F808381E0890F8093DF038330F5
:100AE00031F128960FB6F894DEBF0FBECDBFDF916F
:100AF000CF91FF91EF91BF91AF919F918F917F9196
:100B00006F915F914F913F912F910F91FF90EF90D7
:100B1000DF90CF90BF90AF909F908F907F906F901D
:100B20005F904F900F900FBE0F901F90189591E01F
:100B30009093DF038091E003803931F1803889F6AA
:100B40002091C60330E08091E10390E0459728179B
:100B5000390739F6E0917903EE2309F4EFC0E1504B
:100B6000E0937903FF27E7FDF095E658FC4F80817D
:100B70008093C6038093AE03B4CF807F8093E0035D
:100B800081E08093DF03ADCF8091E203811104C047
:100B900080E88093E003D4CF90930601E091E103D5
:100BA000E551E093C603E093AE0380917903A82F4B
:100BB000BB27A7FDB095A658BC4FEC938F5F8093E1
:100BC0007903F0E08091CE03DF01A80FB11D87FD0E
:100BD000BA95AA0FBB1FAA0FBB1FA65FBE4FCD9031
:100BE000DD90ED90FC908091B7039091B803E90FF0
:100BF000F11D97FDFA959CE08902E00DF11D11248D
:100C0000EE0FFF1FEE0FFF1FE65FFE4F408051808B
:100C1000628073802091CF03A7E22A029001112401
:100C2000442737FD4095542FC701B6010E94EB08B9
:100C300000E10E94900929833A834B835C836D8392
:100C40007E838F83988789819A81AB81BC81C80E0E
:100C5000D91EEA1EFB1EC092DB03D092DC03E09299
:100C6000DD03F092DE032091B90397E2290290019F
:100C70001124442737FD4095542FC301B2010E942F
:100C8000EB080E94900949015A01840C951CA61C8E
:100C9000B71C8092C2039092C303A092C403B09287
:100CA000C503F8942091DB033091DC034091DD0310
:100CB0005091DE03C0909A03D0909B03E0909C0378
:100CC000F0909D03C701B6010E94EB080E949009B5
:100CD0002093D0033093D1034093D2035093D30396
:100CE0006091C2037091C3038091C4039091C503C6
:100CF000A70196010E94EB080E9490092093BA0375
:100D00003093BB034093BC035093BD0360919F039A
:100D10007091A0038091A1039091A203A701960175
:100D20000E94EB080E9490092093A9033093AA0324
:100D30004093AB035093AC037894D3CE109206014A
:100D4000D0CE1F920F920FB60F9211242F933F9384
:100D50004F938F939F93EF93FF934091EF03842FD3
:100D600090E02091780030917900FC01EE0FFF1F98
:100D7000E951FC4F31832083FC01ED51FC4F21E010
:100D800020834F5F443088F01092EF0340E040939F
:100D90007C00FF91EF919F918F914F913F912F9107
:100DA0000F900FBE0F901F9018954093EF03EFCF59
:100DB0001F920F920FB60F9211249F92AF92BF9283
:100DC000CF92DF92EF92FF920F931F932F933F9357
:100DD0004F935F936F937F938F939F93AF93BF9343
:100DE000EF93FF93CF93DF9300D000D0CDB7DEB762
:100DF00080910601882309F42EC180910001909111
:100E00000101AC015695479580FD64C150930101E5
:100E1000409300019090D9039092D803A090DA03F8
:100E2000A092D903B090D603B092DA038091D00398
:100E30009091D103A091D203B091D3030091D40338
:100E40001091D5032091D6033091D703800F911FC5
:100E5000A21FB31F8093D4039093D503A093D6030E
:100E6000B093D7032091C9033091CA033093C803CC
:100E70002093C7032091CB033091CC033093CA0356
:100E80002093C903709104012091CD030B2D10E034
:100E9000020F111D27FD1A95272F30E0220F331F57
:100EA00026593D4FF90120813181020F131F085946
:100EB0001F4FF8010491753009F406C1602F70E0EE
:100EC0007093CC036093CB030091BE031091BF03DA
:100ED0002091C0033091C103C090BA03D090BB03EE
:100EE000E090BC03F090BD030C0D1D1D2E1D3F1D99
:100EF0000093BE031093BF032093C0033093C1033C
:100F00002091AF03222319F0A91408F4E6C0A091A0
:100F10000301A530B1F08091B603E091C003F0E089
:100F2000E80FF11D87FDFA95B0E0AA0FBB1FA65987
:100F3000BD4F8D919C91E80FF91FE859FF4F4491E7
:100F400050E08091A5039091A603A091A703B091D2
:100F5000A8030091A9031091AA032091AB0330913B
:100F6000AC03800F911FA21FB31F8093A503909322
:100F7000A603A093A703B093A803E0910701F0E0B4
:100F8000EE0FFF1FE659FD4F8091A7030190F081FE
:100F9000E02DE80FF11DE859FF4FE49180919E0389
:100FA000E89FF0011124F093A403E093A303809140
:100FB0000901869F9001879F300D11243093CC0347
:100FC0002093CB0360910801649FC001659F900D41
:100FD00011249093B5038093B4034091AD0344234F
:100FE00009F459C028273927C901A0E0B0E0E091F1
:100FF0008A03F0918B039C01AD012E1B3F0B41092D
:101000005109A0910201B0E00E94870869837A83A8
:101010008B839C838A819B818E0F9F1F90938B0370
:1010200080938A03A0E0B0E089839A83AB83BC837A
:10103000909178028A81E92FF0E0E758FD4F808394
:1010400091509093780220910501291710F4209374
:1010500078028093B3000F900F900F900F90DF9164
:10106000CF91FF91EF91BF91AF919F918F917F9120
:101070006F915F914F913F912F911F910F91FF9031
:10108000EF90DF90CF90BF90AF909F900F900FBEEA
:101090000F901F901895890120E030E009831A8392
:1010A0002B833C836091B5037091CC03672767FF66
:1010B00020C060E070E8681B790BD901C801861B6D
:1010C000970BA109B10993CF5093CC034093CB0365
:1010D000BA01FACE64EB562799CEAB1408F017CFBD
:1010E0008093BE039093BF03A093C003B093C1034A
:1010F0000ECFB901A801480F591F611D711DDB01F9
:10110000CA0175CF809105018093780208950E94ED
:10111000B209A59F900DB49F900DA49F800D911DC5
:1011200011240895DF93CF931F930F939A9DF02D71
:10113000219FF00D8B9DF00D8A9DE02DF10D039FF9
:10114000F00D029FE00DF11D4E9DE00DF11D5E9D25
:10115000F00D4F9DF00D7F936F93BF92AF925F9311
:101160004F93D5010E94B2098B01AC01D7010E94B7
:10117000B209EB01E80FF91FD6010E94E2082F9196
:101180003F91D6010E94B209C60FD71FE81FF91F71
:10119000AF91BF910E94E2082F913F910E94B20946
:1011A000C60FD71FE81FF91FD6010E94B209E60F2C
:1011B000F71F9801BE01CF0111240F911F91CF910C
:1011C000DF9108950E94B209460F571FC81FD91F0B
:1011D00008F431960895E894DF93CF93FC01DB0186
:1011E0000E94B2097F936F93E9019A01AC01BF930A
:1011F000AF933F932F93DF010E94B20926F46C1B3B
:101200007D0B820B930B9E01EB01FC010E94E20817
:10121000AF91BF912F913F910E94E208BE01CF0193
:10122000F9012F913F91CF91DF910895689401C00A
:10123000E8948F929F92CF93DF930E942409DF91CD
:10124000CF919F908F90089588249924F401E40110
:10125000B0E49F93AA279A158B049C04ED05FE0524
:10126000CF05D007A10798F4AD2FDC2FCF2FFE2F8D
:10127000E92D982C892E982F872F762F652F542FA4
:10128000432F322F2227B85031F7BF9127C01B2E92
:10129000BF91BB27220F331F441F551F661F771FA7
:1012A000881F991F881C991CEE1FFF1FCC1FDD1F74
:1012B000AA1FBB1F8A149B04EC05FD05CE05DF05A4
:1012C000A007B10748F08A189B08EC09FD09CE0970
:1012D000DF09A00BB10B21601A94E1F62EF4940102
:1012E000AF01BE01CD01000C08950F93083090F0BE
:1012F000982F872F762F652F542F432F322F222799
:101300000850F4CF220F331F441F551F661F771F4D
:10131000881F991F0A95B2F70F91089597FB10F84F
:10132000169400080F93083098F00850232F342F9C
:10133000452F562F672F782F892F902DF4CF0594A6
:1013400097958795779567955795479537952795FD
:101350000A95AAF70F910895EE0FFF1F0590F491DB
:10136000E02D0994A29FB001B39FC001A39F700D0F
:10137000811D1124911DB29F700D811D1124911D9D
:061380000895F894FFCF70
:10138600E1ACFF03020A0106FFFF00801B004E21AD
:101396001D0021DE1E0004B42000D6A5220046B59D
:1013A600240012E42600123429004BA72B00D23F5A
:1013B6002E00D8FF3000C0E93300000037009C4201
:1013C6003A0042BC3D0008684100AC4B45008C6ABF
:1013D600490024C84D0024685200964E5700A47F49
:1013E6005C00B0FF610080D3670000006E003885A6
:1013F600740084787B0010D0820058978A0018D534
:10140600920048909B0048D0A4002C9DAE0048FF57
:10141600B80060FFC30000A7CF000000DC00700A20
:10142600E90008F1F60020A00501B02E150130AA4A
:1014360025019020370190A049015E3A5D0190FE9A
:101446007101C0FE8701004E9F010000B801E01443
:10145600D20110E2ED0140400B02605D2A026054A9
:101466004B0220416E0220419302B074BA0220FD65
:10147600E30280FD0F03009C3E0300007003C029B9
:10148600A40320C4DB0380801604C0BA5404C0A899
:1014960096044082DC044082260560E9740540FA21
:1014A600C70500FB1F0600387D060000E0068053D6
:1014B60048074088B70700012D088075A9088051A4
:1014C6002D098094B00980044D0AC0D2E90A80F43F
:1014D6008F0B00F63F0C0070FA0C0000C00D00A741
:1014E600900E80106F0F00025A10000000010002DB
:0814F6000003000400000005E2
:00000001FF
