S010000053796E74684C43442E737265632B
S11300000C9434030C9451030C9451030C94510339
S11300100C9451030C9451030C9451030C9451030C
S11300200C9451030C9497060C9451030C945103B3
S11300300C9451030C9451030C9451030C945103EC
S11300400C9451030C9451030C9491030C9451039C
S11300500C945F030C946A060C9451030C945103A2
S11300600C9451030C94510380808080818181829F
S113007082838485858687898A8B8C8E8F909294DF
S11300809597999B9D9FA1A3A5A7AAACAEB1B3B622
S1130090B8BBBEC0C3C6C9CCCED1D4D7DADDE0E389
S11300A0E6E9ECEFF3F6F9FCFF0205080B0F121575
S11300B0181B1E2124272A2D303235383B3E40435D
S11300C046484B4D50525457595B5D5F61636567B9
S11300D0696A6C6E6F7072737475777879797A7BEC
S11300E07C7C7D7D7D7E7E7E7E7E7E7E7D7D7D7C38
S11300F07C7B7A7979787775747372706F6E6C6AB9
S113010069676563615F5D5B59575452504D4B4855
S11301104643403E3B383532302D2A2724211E1BCE
S11301201815120F0B080502FFFCF9F6F3EFECE9C2
S1130130E6E3E0DDDAD7D4D1CECCC9C6C3C0BEBBBA
S1130140B8B6B3B1AEACAAA7A5A3A19F9D9B99973E
S1130150959492908F8E8C8B8A89878685858483EB
S113016082828181818080800001030507090B0D53
S113017010121416181A1D1F212426282A2D2F3177
S1130180333537393B3D3F41434546484A4C4E5051
S1130190525557595C5E606365686A6D6F71747619
S11301A078797B7C7D7E7F7F7F7F7E7E7D7B7A7886
S11301B0777573706E6C696764625F5D5A585654E4
S11301C0514F4D4B4947454442403E3C3A38363402
S11301D032302E2B29272522201E1C191715131106
S11301E00E0C0A0806040200FFFDFBF9F7F5F3F113
S11301F0EEECEAE8E6E3E1DFDDDAD8D6D4D1CFCD20
S1130200CBC9C7C5C3C1BFBDBBBAB8B6B4B2B0AE23
S1130210ABA9A7A5A2A09D9B989693918F8C8A8841
S1130220878584828181808080808182838486879F
S1130230898B8E909295979A9C9FA1A3A6A8AAAD0C
S1130240AFB1B3B5B7B9BABCBEC0C2C4C6C8CACCD4
S1130250CED0D2D5D7D9DBDEE0E2E5E7E9EBEDEFAE
S1130260F2F4F6F8FAFCFEFFD7D7D7D7D7D6D6D50F
S1130270D4D3D1D0CECDCBC9C7C5C4C2C1C0BFBEF3
S1130280BDBDBDBDBDBDBDBDBDBDBDBDBCBCBBB9A2
S1130290B8B7B5B3B1AFAEACAAA9A7A6A5A5A4A497
S11302A0A4A4A5A5A6A6A7A7A7A7A7A7A6A5A3A2F2
S11302B0A09E9C9A989694939190908F8F909192EF
S11302C0939597989A9C9D9E9E9F9E9D9C9A989587
S11302D0928F8C8886838180808183868B9198A17C
S11302E0ABB6C2D0DEECFB0A192735424F5A636C19
S11302F073787C7E7F7F7D7A76726D68625C5751FD
S11303004C4844413E3C3A39393939393A3A3B3B15
S11303103B3B3A3A38373533302D2B2825221F1DE5
S11303201B19171614141313131313131313131382
S11303301211100F0E0C0A0806040200FEFCFAF952
S1130340F7F6F5F5F4F4F4F3F3F3F3F3F3F3F2F26D
S1130350F1F0EFEDECEAE8E6E4E2E1DFDDDCDBDA44
S1130360D9D8D8D7D7D7D7D7282828282829292A89
S11303702B2C2E2F31323436383A3B3D3E3F404110
S11303804242424242424242424242424343444641
S113039047484A4C4E505153555658595A5A5B5B2C
S11303A05B5B5A5A5959585858585858595A5C5DB1
S11303B05F61636567696B6C6E6F6F70706F6E6D94
S11303C06C6A686765636261616061626365676ADC
S11303D06D707377797C7E7F7F7E7C79746E675EC7
S11303E054493D2F211304F5E6D8CABDB0A59C930A
S11303F08C87838180808285898D92979DA3A8AE06
S1130400B3B7BBBEC1C3C5C6C6C6C6C6C5C5C4C4CC
S1130410C4C4C5C5C7C8CACCCFD2D4D7DADDE0E2DC
S1130420E4E6E8E9EBEBECECECECECECECECECEC1F
S1130430EDEEEFF0F1F3F5F7F9FBFDFF010305062F
S113044008090A0A0B0B0B0C0C0C0C0C0C0C0D0DF4
S11304500E0F1012131517191B1D1E2022232425FD
S11304602627272828282828FF0D1A2734404B55EB
S11304705E666D73777B7D7F7F7F7D7B797673701E
S11304806D6A686563626060606061626365676924
S11304906B6D6F70727374747474737371706E6D4A
S11304A06B69686665646363636364646667686AEA
S11304B06C6E6F717273747474747372716F6E6C2A
S11304C06A68666462616060606061626466696CE7
S11304D06F7275787A7C7E7F7F7E7C7975706A62B4
S11304E05950453A2E211406F9EBDED1C5BAAFA610
S11304F09D958F8A8683818080818385878A8D906C
S11305009396999B9D9E9F9F9F9F9E9D9B99979538
S11305109391908E8D8C8B8B8B8B8C8D8E909193F5
S1130520959798999B9B9C9C9C9C9B9A9997969435
S113053092918F8E8C8C8B8B8B8B8C8D8F909294D5
S113054096989A9C9D9E9F9F9F9F9D9C9A979592FB
S11305508F8C898684828080808284888C9299A101
S1130560AAB4BFCBD8E5F2FF8080808080808080F1
S11305708080808080808080808080808080808077
S11305808080808080808080808080808080808067
S11305908080808080808080808080808080808057
S11305A08080808080808080808080808080808047
S11305B08080808080808080808080808080808037
S11305C08080808080808080808080808080808027
S11305D08080808080808080808080808080808017
S11305E08080808080808080808080808080808007
S11305F080808080808080808080808080808080F7
S113060080808080808080808080808080808080E6
S113061080808080808080808080808080808080D6
S113062080808080808080808080808080808080C6
S113063080808080808080808080808080808080B6
S113064080808080808080808080808080808080A6
S11306508080808080808080808080808080808096
S1130660808080808080808011241FBECFEFD8E0FE
S1130670DEBFCDBF12E0A0E0B1E0EAE5F3E102C0E5
S113068005900D92AA37B107D9F724E0AAE7B2E0A2
S113069001C01D92A83DB207E1F70E9427060C9401
S11306A0AB090C9400001092C5008FE18093C40044
S11306B088ED8093C10086E08093C20008951F9264
S11306C00F920FB60F9211248F939F93EF93FF9382
S11306D0809180039091810301979093810380938B
S11306E08003181619065CF4E0918203F0918303E9
S11306F0EE27F170EC57FC4F80818093C600809107
S113070082039091830301969093830380938203E1
S1130710FF91EF919F918F910F900FBE0F901F90BB
S113072018951F920F920FB60F9211242F933F9397
S11307304F935F936F937F938F939F93AF93BF93E5
S1130740EF93FF9380917E0290917F022091C600E7
S1130750FC01EE27F170E058FD4F20830196909341
S11307607F0280937E0280917C0290917D020196AB
S113077090937D0280937C02E0917A02F0917B0257
S1130780309709F00995FF91EF91BF91AF919F9137
S11307908F917F916F915F914F913F912F910F9026
S11307A00FBE0F901F9018956F927F928F929F9219
S11307B0AF92BF92CF92DF92EF92FF920F931F936B
S11307C0CF93DF9300D000D0CDB7DEB780E09DE8B3
S11307D0ACE8BAE78093900490939104A0939204B8
S11307E0B093930481E090E09C838B831A821982F6
S11307F089809A80AB80BC809401A50160E070E0A0
S113080080E090E000E10E945309A12CEDE8BE2EA7
S1130810FCE8CF2EAAE7DA2EE12CF12C00E010E060
S11308200E94F60820938C0430938D0440938E0428
S113083050938F0480E091E09C838B8389809A801D
S1130840AB80BC809401A50160E070E080E090E0A2
S113085000E10E945309A12CBDE8BB2E0CE8C02E78
S1130860EAE7DE2EE12CF12C00E00E94F6083B01C1
S11308704C01B22FA32FF42FE52F2093940430932F
S1130880950440939604509397044CEC5CE060E02C
S113089070E0409398045093990460939A04709381
S11308A09B042B2F3A2F4F2F5E2FB301C40103E07B
S11308B00E945309AB2EBA2ECF2EDE2E7301840173
S11308C00E948A0901E00E945309082D0E948A09A6
S11308D059016A017B01E82F192F06E00E94530990
S11308E00E2F0E948A0902E00E94530900E10E942F
S11308F06E09C901DA0180939C0490939D04A0932E
S11309009E04B0939F048FE080937E0082E88093DE
S11309107A000E9453038091B10081608093B100FA
S11309208091B1008D7F8093B1008091B1008B7F65
S11309308093B1008091B0008F7B8093B000809150
S1130940B00080688093B0008091B0008160809393
S1130950B0008091B0008D7F8093B0008091B10091
S1130960877F8093B1007894209198043091990402
S113097040919A0450919B04609194047091950461
S113098080919604909197040E94C9080E946E0970
S1130990C901DA0180939C0490939D04A0939E0462
S11309A0B0939F04F8942091BE0430910B014091C0
S11309B0C0048091BF04082E000C990B840F911D74
S11309C047FD9A95830F911D3CE02302800D911DF4
S11309D0112497FD2DC1883591050CF0FCC0F894C5
S11309E08091BE0420910B01E091C0040E2E000CF6
S11309F0FF0B9091BF04E20FF11DE90FF11D97FD6C
S1130A00FA959CE08902E00DF11D1124EE0FFF1F01
S1130A10EE0FFF1FE45FFE4F80819181A281B381BD
S1130A208093C4049093C504A093C604B093C704F0
S1130A3078942091C1048091C2049091C304820FE0
S1130A40911D27FD9A9547E2489F9001499F300DDB
S1130A501124032E000C440B550BF8946091C4042C
S1130A607091C5048091C6049091C7040E94AE0899
S1130A70AC01772757FD7095672F8091C40490913E
S1130A80C504A091C604B091C704840F951FA61F86
S1130A90B71F8093C4049093C504A093C604B09375
S1130AA0C70478942091A904309108014091AB04C3
S1130AB08091AA04082E000C990B840F911D47FD08
S1130AC09A95830F911D3CE02302800D911D112402
S1130AD097FD9FC0883591050CF08CC0F8948091E7
S1130AE0A90420910801E091AB040E2E000CFF0B29
S1130AF09091AA04E20FF11DE90FF11D97FDFA95FB
S1130B009CE08902E00DF11D1124EE0FFF1FEE0F92
S1130B10FF1FE45FFE4F80819181A281B3818093A6
S1130B20AF049093B004A093B104B093B20478944A
S1130B302091AC048091AD049091AE04820F911D7C
S1130B4027FD9A9547E2489F9001499F300D112453
S1130B50032E000C440B550BF8946091AF04709174
S1130B60B0048091B1049091B2040E94AE08AC012B
S1130B70772757FD7095672F8091AF049091B0044B
S1130B80A091B104B091B204840F951FA61FB71FA2
S1130B908093AF049093B004A093B104B093B204D3
S1130BA07894239A80917000816080937000789487
S1130BB00F900F900F900F90DF91CF911F910F9195
S1130BC0FF90EF90DF90CF90BF90AF909F908F9069
S1130BD07F906F900895F89480E89BE1A2E2B0E0E2
S1130BE08093C4049093C504A093C604B093C7042F
S1130BF078941FCFF89480E89BE1A2E2B0E0809360
S1130C00AF049093B004A093B104B093B204789469
S1130C108FCFF8948DE599E3A0E0B0E08093AF0422
S1130C209093B004A093B104B093B204789480CFAD
S1130C30F8948DE599E3A0E0B0E08093C404909328
S1130C40C504A093C604B093C7047894F2CE0E945E
S1130C50D40320E030E08091780090917900F9018C
S1130C60EE0FFF1FE153FB4F9183808320937C00A1
S1130C7080917A00806480937A0080917A0086FD66
S1130C80FCCF80917A00806480937A0080917A000E
S1130C9086FDFCCF2F5F3F4F24303105E1F6809174
S1130CA0BD048F5F8093BD042FEF80E792E0215055
S1130CB080409040E1F700C000008091D104909101
S1130CC0D204909306018091D3049091D40490931C
S1130CD00501BFCF1F920F920FB60F9211242F93CD
S1130CE03F938F93EF93FF938091D704E82FF0E025
S1130CF02091780030917900EE0FFF1FE153FB4FF4
S1130D00318320838F5F843078F01092D70480E0A1
S1130D1080937C00FF91EF918F913F912F910F90E1
S1130D200FBE0F901F9018958093D704F1CF1F9298
S1130D300F920FB60F9211248F929F92AF92BF928F
S1130D40CF92DF92EF92FF920F931F932F933F93D3
S1130D504F935F936F937F938F939F93AF93BF93BF
S1130D60EF93FF93CF93DF9300D000D0CDB7DEB7DE
S1130D702091030130910401C9019595879520FDC7
S1130D8055C190930401809303012091070122230C
S1130D9009F40AC120918A0430918B042F5F3F4FDC
S1130DA021301DE7310708F020C130938B042093D4
S1130DB08A04C090C404D090C504E090C604F090A6
S1130DC0C7044091C8045091C9046091CA04709149
S1130DD0CB044C0D5D1D6E1D7F1D4093C8045093C4
S1130DE0C9046093CA047093CB041091CD0410938A
S1130DF0CC04B091CE04B093CD04A091CA04A093C6
S1130E00CE04309106012091BD042A0FE32FF0E0B7
S1130E10EE0FFF1FE459FD4F0190F081E02DE20F2A
S1130E20F11DE859FF4FE491EE2EF12CF092BC0431
S1130E30E092BB04E7FF03C02FEF2093BC043530DE
S1130E4009F45CC12091BB043091BC04C090AF0490
S1130E50D090B004E090B104F090B2048090B30458
S1130E609090B404A090B504B090B604C80CD91CFA
S1130E70EA1CFB1CC092B304D092B404E092B50403
S1130E80F092B604E091A104EE2319F0B11708F42E
S1130E90D9C0A0910501A53009F436C18091A804F8
S1130EA0E091B504F0E0E80FF11D87FDFA95B0E09C
S1130EB0AA0FBB1FA459BD4F4D915C91E40FF51FC0
S1130EC0E859FF4FE4918E2F90E09093A70480930C
S1130ED0A60487FF07C08FEF8093A7048091A60420
S1130EE09091A70460910A01629FA001639F500D35
S1130EF011245093BC044093BB0460910901689F82
S1130F009001699F300D11243093A7042093A60407
S1130F108091A004882309F46DC0C9018427952712
S1130F20092E000CAA0BBB0B89839A83AB83BC8369
S1130F3080918404811121C08091020181118EC0AD
S1130F4081E08093840480E09FEFA0E0B0E0809390
S1130F50860490938704A0938804B09389048091B5
S1130F6001018111D6C090910001909387041092E1
S1130F70860482E08093840408C0813081F3833046
S1130F8009F497C080918704982F8A81899FC001B2
S1130F901124092E000CAA0BBB0B89839A83AB8303
S1130FA0BC838A818093B3000F900F900F900F90B1
S1130FB0DF91CF91FF91EF91BF91AF919F918F916D
S1130FC07F916F915F914F913F912F911F910F915D
S1130FD0FF90EF90DF90CF90BF90AF909F908F9055
S1130FE00F900FBE0F901F90189510928B041092C3
S1130FF08A04DFCE052E000C660B770BC901330F74
S1131000AA0BBB0B840F951FA61FB71F9058AF4F99
S1131010BF4F81302FEF9207A105B10554F4B7FFFC
S113102098C019821A821B821C8282CF04EB9027FB
S1131030A8CE80E09FEFA0E0B0E089839A83AB83E1
S1131040BC8376CFBA1708F024CF4093B3045093EF
S1131050B4046093B5047093B6041BCF4091860426
S11310605091870460918804709189048A019B01DE
S1131070080F111D211D311D009386041093870450
S11310802093880430938904809187048F3F09F06A
S11310907BCF80E09FEFA0E0B0E080938604909344
S11310A08704A0938804B093890481E08093840426
S11310B056CF809185048823D1F0409186045091C5
S11310C0870460918804709189048A019B01081B3C
S11310D01109210931090093860410938704209390
S11310E08804309389049091870491114ECF109213
S11310F08704109286049091870447CF9093BC0490
S11311008093BB049C01A2CE9093A7048093A60471
S1131110E0CE4091860450918704609188047091D8
S113112089048A019B01081B1109210931090093D3
S11311308604109387042093880430938904909143
S1131140000180918704981708F00FCF80918404E0
S113115016CF89839A83AB83BC83EACEDB018F935A
S11311609F930E94BE08BF91AF91A29F800D911DD5
S1131170A39F900DB29F900D112408950E9493098E
S1131180A59F900DB49F900DA49F800D911D1124D7
S11311900895E894DF93CF93FC01DB010E94930947
S11311A07F936F93E9019A01AC01BF93AF933F938F
S11311B02F93DF010E94930926F46C1B7D0B820B95
S11311C0930B9E01EB01FC010E94A209AF91BF9118
S11311D02F913F910E94A209BE01CF01F9012F91E5
S11311E03F91CF91DF910895689401C0E8948F9264
S11311F09F92CF93DF930E940209DF91CF919F903A
S11312008F90089588249924F401E401B0E49F9315
S1131210AA279A158B049C04ED05FE05CF05D0077B
S1131220A10798F4AD2FDC2FCF2FFE2FE92D982C9A
S1131230892E982F872F762F652F542F432F322FE7
S11312402227B85031F7BF9127C01B2EBF91BB276F
S1131250220F331F441F551F661F771F881F991FB6
S1131260881C991CEE1FFF1FCC1FDD1FAA1FBB1F6C
S11312708A149B04EC05FD05CE05DF05A007B10724
S113128048F08A189B08EC09FD09CE09DF09A00B78
S1131290B10B21601A94E1F62EF49401AF01BE0162
S11312A0CD01000C08950F93083090F0982F872FEC
S11312B0762F652F542F432F322F22270850F4CF37
S11312C0220F331F441F551F661F771F881F991F46
S11312D00A95B2F70F91089597FB10F81694000839
S11312E00F93083098F00850232F342F452F562F92
S11312F0672F782F892F902DF4CF05949795879594
S11313007795679557954795379527950A95AAF741
S11313100F9108952A193B094C095D096E097F094B
S1131320800B910B0895A29FB001B39FC001A39FAE
S1131330700D811D1124911DB29F700D811D11240A
S1131340911D08950E949309460F571FC81FD91F66
S10D135008F431960895F894FFCFD5
S113135AFFFF0AE1AC020201247D7D245D3900000D
S113136AC33C0000634000003744000045480000C5
S113137A924C00001F510000F25500000E5B000061
S113138A7960000035660000496C0000BA720000FA
S113139A86790000C68000006E8800008A900000EA
S11313AA249900003EA20000E4AB00001CB6000031
S11313BAF2C000006ACC000092D8000074E5000074
S11313CA0CF300008C010100DC100100142101005F
S11313DA483201007C440100C8570100386C0100FE
S11313EAE4810100D498010024B10100E8CA010093
S11313FA18E6010018030200B8210200284202007C
S113140A90640200F888020090AF020070D80200CB
S113141AC8030300A831030048620300D0950300FF
S113142A30CC0300300604007043040050840400E6
S113143A20C90400F0110500205F0500E0B0050092
S113144A900706005063060090C40600A02B07000C
S113145A60980700600C0800E0860800A0080900EC
S113146A40920900E0230A0040BE0A00C0610B0052
S113147A200F0C00A0C60C0020890D0040570E0056
S113148AC0300F00C0181000C00D11004011120026
S113149A80241300C0471400807C150080C3160002
S11314AA401E1800408D190040121B0080AE1C001B
S11314BA80611E0080312000801B22000000000190
S10D14CA0002000300040000000506
S9030000FC
