:100000000C9480030C949D030C949D030C949D030D
:100010000C949D030C949D030C949D030C949D03E0
:100020000C949D030C94A3260C949D030C949D03A7
:100030000C949D030C949D030C949D030C949D03C0
:100040000C949D030C949D030C94D4220C949D035A
:100050000C949D030C946C260C949D030C949D03AE
:100060000C949D030C949D0300000000010101020B
:1000700002030405050607090A0B0C0E0F101214E3
:100080001517191B1D1F212325272A2C2E31333626
:10009000383B3E404346494C4E5154575A5D60638D
:1000A00066696C6F7376797C7F8285888B8F929579
:1000B000989B9EA1A4A7AAADB0B2B5B8BBBEC0C361
:1000C000C6C8CBCDD0D2D4D7D9DBDDDFE1E3E5E7BD
:1000D000E9EAECEEEFF0F2F3F4F5F7F8F9F9FAFBF0
:1000E000FCFCFDFDFDFEFEFEFEFEFEFEFDFDFDFC3C
:1000F000FCFBFAF9F9F8F7F5F4F3F2F0EFEEECEABD
:10010000E9E7E5E3E1DFDDDBD9D7D4D2D0CDCBC859
:10011000C6C3C0BEBBB8B5B2B0ADAAA7A4A19E9BD2
:100120009895928F8B8885827F7C7976736F6C69C6
:100130006663605D5A5754514E4C494643403E3BBE
:10014000383633312E2C2A272523211F1D1B191742
:10015000151412100F0E0C0B0A09070605050403EF
:1001600002020101010000008081838587898B8D57
:1001700090929496989A9D9FA1A4A6A8AAADAFB17B
:10018000B3B5B7B9BBBDBFC1C3C5C6C8CACCCED055
:10019000D2D5D7D9DCDEE0E3E5E8EAEDEFF1F4F61D
:1001A000F8F9FBFCFDFEFFFFFFFFFEFEFDFBFAF88A
:1001B000F7F5F3F0EEECE9E7E4E2DFDDDAD8D6D4E8
:1001C000D1CFCDCBC9C7C5C4C2C0BEBCBAB8B6B406
:1001D000B2B0AEABA9A7A5A2A09E9C99979593910A
:1001E0008E8C8A88868482807F7D7B797775737117
:1001F0006E6C6A686663615F5D5A585654514F4D24
:100200004B49474543413F3D3B3A38363432302E27
:100210002B29272522201D1B181613110F0C0A0845
:1002200007050402010100000000010203040607A3
:10023000090B0E101215171A1C1F212326282A2D10
:100240002F31333537393A3C3E40424446484A4CD8
:100250004E50525557595B5E60626567696B6D6FB2
:10026000727476787A7C7E7F575757575756565513
:10027000545351504E4D4B494745444241403F3EF7
:100280003D3D3D3D3D3D3D3D3D3D3D3D3C3C3B39A6
:1002900038373533312F2E2C2A292726252524249B
:1002A00024242525262627272727272726252322F6
:1002B000201E1C1A181614131110100F0F101112F3
:1002C000131517181A1C1D1E1E1F1E1D1C1A18158B
:1002D000120F0C0806030100000103060B11182180
:1002E0002B3642505E6C7B8A99A7B5C2CFDAE3EC1D
:1002F000F3F8FCFEFFFFFDFAF6F2EDE8E2DCD7D101
:10030000CCC8C4C1BEBCBAB9B9B9B9B9BABABBBB19
:10031000BBBBBABAB8B7B5B3B0ADABA8A5A29F9DE9
:100320009B99979694949393939393939393939386
:100330009291908F8E8C8A88868482807E7C7A7956
:100340007776757574747473737373737373727271
:1003500071706F6D6C6A68666462615F5D5C5B5A48
:100360005958585757575757A8A8A8A8A8A9A9AA8D
:10037000ABACAEAFB1B2B4B6B8BABBBDBEBFC0C114
:10038000C2C2C2C2C2C2C2C2C2C2C2C2C3C3C4C645
:10039000C7C8CACCCED0D1D3D5D6D8D9DADADBDB30
:1003A000DBDBDADAD9D9D8D8D8D8D8D8D9DADCDDB5
:1003B000DFE1E3E5E7E9EBECEEEFEFF0F0EFEEED98
:1003C000ECEAE8E7E5E3E2E1E1E0E1E2E3E5E7EAE0
:1003D000EDF0F3F7F9FCFEFFFFFEFCF9F4EEE7DECB
:1003E000D4C9BDAFA193847566584A3D30251C130E
:1003F0000C07030100000205090D12171D23282E0A
:1004000033373B3E414345464646464645454444D0
:100410004444454547484A4C4F5254575A5D6062E0
:10042000646668696B6B6C6C6C6C6C6C6C6C6C6C23
:100430006D6E6F7071737577797B7D7F8183858633
:1004400088898A8A8B8B8B8C8C8C8C8C8C8C8D8DF8
:100450008E8F9092939597999B9D9EA0A2A3A4A501
:10046000A6A7A7A8A8A8A8A87F8D9AA7B4C0CBD5EF
:10047000DEE6EDF3F7FBFDFFFFFFFDFBF9F6F3F022
:10048000EDEAE8E5E3E2E0E0E0E0E1E2E3E5E7E928
:10049000EBEDEFF0F2F3F4F4F4F4F3F3F1F0EEED4E
:1004A000EBE9E8E6E5E4E3E3E3E3E4E4E6E7E8EAEE
:1004B000ECEEEFF1F2F3F4F4F4F4F3F2F1EFEEEC2E
:1004C000EAE8E6E4E2E1E0E0E0E0E1E2E4E6E9ECEB
:1004D000EFF2F5F8FAFCFEFFFFFEFCF9F5F0EAE2B8
:1004E000D9D0C5BAAEA19486796B5E51453A2F2614
:1004F0001D150F0A0603010000010305070A0D1070
:100500001316191B1D1E1F1F1F1F1E1D1B1917153C
:100510001311100E0D0C0B0B0B0B0C0D0E101113F9
:10052000151718191B1B1C1C1C1C1B1A1917161439
:1005300012110F0E0C0C0B0B0B0B0C0D0F101214D9
:1005400016181A1C1D1E1F1F1F1F1D1C1A171512FF
:100550000F0C090604020000000204080C12192105
:100560002A343F4B5865727F0000000000000000F5
:10057000000000000000000000000000000000007B
:10058000000000000000000000000000000000006B
:10059000000000000000000000000000000000005B
:1005A000000000000000000000000000000000004B
:1005B000000000000000000000000000000000003B
:1005C000000000000000000000000000000000002B
:1005D000000000000000000000000000000000001B
:1005E000000000000000000000000000000000000B
:1005F00000000000000000000000000000000000FB
:1006000000000000000000000000000000000000EA
:1006100000000000000000000000000000000000DA
:1006200000000000000000000000000000000000CA
:1006300000000000000000000000000000000000BA
:1006400000000000000000000000000000000000AA
:10065000000000000000000000000000000000009A
:100660000000000000000000D806D306CC06C50636
:10067000BE06B706B006A906A3069D0696068E0618
:10068000FA06F606F106EC06E806E206DD06462E58
:10069000204D4F4445004355544F46460057415660
:1006A00045320057415645310050484153453200CC
:1006B0005048415345310053454D4953320053454D
:1006C0004D4953310043454E5453320043454E5437
:1006D0005331004F534332004F53433100464C4196
:1006E00054004E4F49534500535155005253415702
:1006F000004C534157005452490053494E450000A5
:1007000011241FBECFEFD8E0DEBFCDBF14E0A0E0C4
:10071000B1E0E8E2F8E502C005900D92A23FB10712
:10072000D9F726E0A2EFB4E001C01D92AB30B207CA
:10073000E1F70E94F00E0C94122C0C9400004F92E2
:100740005F926F927F928F929F92AF92BF92CF9261
:10075000DF92EF92FF920F93CF93DF93CDB7DEB787
:1007600028970FB6F894DEBF0FBECDBF8091DA0593
:10077000E091E405FF27E7FDF095E80FF11DEE0F8E
:10078000FF1FEE0FFF1FEC55FE4FC080D180E280AF
:10079000F3808091CB059091C105E091CC05FF27B6
:1007A000E7FDF095E90FF11D9CE08902E00DF11DD8
:1007B0001124EE0FFF1FEE0FFF1FEC55FE4F808040
:1007C0009180A280B3806091E505A7E26A02B00142
:1007D0001124882777FD8095982FA70196010E9404
:1007E000542800E10E94F92829833A834B835C83D3
:1007F00089819A81AB81BC81C80ED91EEA1EFB1E7D
:10080000C092F605D092F705E092F805F092F9054E
:100810002091CD0597E2290290011124442737FD4C
:100820004095542FC501B4010E9454280E94F92814
:1008300029833A834B835C836D837E838F83988780
:1008400089819A81AB81BC81880E991EAA1EBB1E2C
:100850008092D6059092D705A092D805B092D9057E
:1008600040906705509068056090690570906A0532
:10087000C701B601A30192010E9454280E94F928E1
:10088000C901DA018093E6059093E705A093E80596
:10089000B093E905C501B401A30192010E94542857
:1008A0000E94F928C901DA018093CE059093CF0503
:1008B000A093D005B093D1056091B7057091B805AC
:1008C0008091B9059091BA05A30192010E94542824
:1008D0000E94F928C901DA018093BB059093BC05F9
:1008E000A093BD05B093BE0528960FB6F894DEBF61
:1008F0000FBECDBFDF91CF910F91FF90EF90DF90B2
:10090000CF90BF90AF909F908F907F906F905F90AF
:100910004F900895CF93DF93CDB7DEB72D970FB6E5
:10092000F894DEBF0FBECDBF9CE0FB01DE01119647
:1009300001900D929A95E1F71D862D9844985C9848
:100940005D9A5C9A5C985D985C9A5C985D985C9AFC
:100950005C985D985C9A5C985D985C9A5C985D98F0
:100960005C9A5C985D985C9A5C985D985C9A5C98DF
:10097000449A2D98449880645C98282F30E0A9010F
:10098000440F452F441F550B452B09F0D6C05D98E9
:100990005C9A5C9826FDCFC05D985C9A5C9825FDBA
:1009A000C8C05D985C9A5C9824FDC1C05D985C9A53
:1009B0005C9823FDBAC05D985C9A5C9822FDB3C038
:1009C0005D985C9A5C9821FDACC05D985C9A5C98DF
:1009D00080FFA5C05D9A5C9A5C98449A89818823BF
:1009E00009F481C0DE0112962D9A44985C985D98B6
:1009F0005C9A5C985D985C9A5C985D985C9A5C984F
:100A00005D985C9A5C985D985C9A5C985D985C9A3D
:100A10005C985D985C9A5C985D985C9A5C98449A46
:100A2000992787FD90958097FC01EE0FFF1FEE0F31
:100A3000FF1FE80FF91FEE5EFC4F35E021912D9A64
:100A400044985C98822F90E0880F892F881F990B1B
:100A5000892B09F05DC05D985C9A5C9826FD5DC0AD
:100A60005D985C9A5C9825FD51C05D985C9A5C9895
:100A700024FD4AC05D985C9A5C9823FD43C05D9854
:100A80005C9A5C9822FD3CC05D985C9A5C9821FD64
:100A900035C05D985C9A5C9820FD2EC05D985C9A8C
:100AA0005C98449A315051F62D9A44985C985D9820
:100AB0005C9A5C985D985C9A5C985D985C9A5C988E
:100AC0005D985C9A5C985D985C9A5C985D985C9A7D
:100AD0005C985D985C9A5C985D985C9A5C98449A86
:100AE0008D91811181CF2D960FB6F894DEBF0FBE88
:100AF000CDBFDF91CF9108955D9AD1CF5D9ACACFD6
:100B00005D9AC3CF5D9ABCCF5D9AB5CF5D9AAECFEB
:100B10005D9A5C9A5C9826FFA3CF5D9AA2CF5D9800
:100B20005ACF5D9A53CF5D9A4CCF5D9A45CF5D9A6F
:100B30003ECF5D9A37CF5D9A30CF5D9A29CFEF9245
:100B4000FF920F931F93CF93DF93CDB7DEB7E59757
:100B50000FB6F894DEBF0FBECDBF8DE0EAE0F1E046
:100B6000DE01559601900D928A95E1F78CE0FE0129
:100B700075968E010F5F1F4FD80101900D928A95D7
:100B8000E1F71D862D9844985C985D9A5C9A5C9874
:100B90005D985C9A5C985D985C9A5C985D985C9AAC
:100BA0005C985D985C9A5C985D985C9A5C985D989E
:100BB0005C9A5C985D985C9A5C98449A2D984498ED
:100BC0005C985D985C9A5C985D9A5C9A5C985D987C
:100BD0005C9A5C985D985C9A5C985D985C9A5C986D
:100BE0005D985C9A5C985D985C9A5C985D985C9A5C
:100BF0005C98449A8981882309F482C0DE011296A8
:100C00002D9A44985C985D985C9A5C985D985C9A83
:100C10005C985D985C9A5C985D985C9A5C985D982D
:100C20005C9A5C985D985C9A5C985D985C9A5C981C
:100C30005D985C9A5C98449A992787FD9095809777
:100C4000FC01EE0FFF1FEE0FFF1FE80FF91FEE5E16
:100C5000FC4F30E021912D9A44985C98822F90E0CF
:100C6000880F892F881F990B892B09F060C45D9824
:100C70005C9A5C9826FD60C45D985C9A5C9825FD42
:100C800054C45D985C9A5C9824FD4DC45D985C9A50
:100C90005C9823FD46C45D985C9A5C9822FD3FC435
:100CA0005D985C9A5C9821FD38C45D985C9A5C986C
:100CB00020FD2FC45D985C9A5C98449A3F5F353064
:100CC00049F62D9A44985C985D985C9A5C985D987A
:100CD0005C9A5C985D985C9A5C985D985C9A5C986C
:100CE0005D985C9A5C985D985C9A5C985D985C9A5B
:100CF0005C985D985C9A5C98449A8D91811180CF44
:100D000087E0E7E1F1E0D80101900D928A95E1F7E3
:100D1000E0910301F0E0EE0FFF1FE058F94F6591FD
:100D200074918E010F5F1F4FC8010E943629D801B0
:100D30000D900020E9F7119788E0EDE3F1E00190D4
:100D40000D928A95E1F78CE0F801DE019996019009
:100D50000D928A95E1F71DAA2D9844985C985D9AAA
:100D60005C9A5C985D985C9A5C985D985C9A5C98DB
:100D70005D985C9A5C985D985C9A5C985D985C9ACA
:100D80005C985D985C9A5C985D985C9A5C98449AD3
:100D90002D9844985C985D985C9A5C985D9A5C9AF2
:100DA0005C985D985C9A5C985D985C9A5C985D989C
:100DB0005C9A5C985D985C9A5C985D9A5C9A5C9889
:100DC0005D985C9A5C98449A89A5882309F481C04F
:100DD000DE019A962D9A44985C985D985C9A5C988E
:100DE0005D985C9A5C985D985C9A5C985D985C9A5A
:100DF0005C985D985C9A5C985D985C9A5C985D984C
:100E00005C9A5C985D985C9A5C98449A992787FDF7
:100E100090958097FC01EE0FFF1FEE0FFF1FE80F6C
:100E2000F91FEE5EFC4F35E021912D9A44985C98B5
:100E3000822F90E0880F892F881F990B892B09F04A
:100E40006AC35D985C9A5C9826FD61C35D985C9A64
:100E50005C9825FD5AC35D985C9A5C9824FD53C349
:100E60005D985C9A5C9823FD4CC35D985C9A5C9895
:100E700022FD45C35D985C9A5C9821FD3EC35D9858
:100E80005C9A5C9820FD37C35D985C9A5C98449AA4
:100E9000315051F62D9A44985C985D985C9A5C9814
:100EA0005D985C9A5C985D985C9A5C985D985C9A99
:100EB0005C985D985C9A5C985D985C9A5C985D988B
:100EC0005C9A5C985D985C9A5C98449A8D918111CB
:100ED00081CF88E0EEE1F1E0D80101900D928A9592
:100EE000E1F72091E505822F992787FD90959F9343
:100EF0002F9387E091E09F938F937E0188E0E80E27
:100F0000F11CFF92EF920E944129D8010D90002020
:100F1000E9F7119788E0EDE3F1E001900D928A95F1
:100F2000E1F78CE0F801DE01999601900D928A9527
:100F3000E1F71DAA2D9844985C985D9A5C9A5C989C
:100F40005D985C9A5C985D985C9A5C985D985C9AF8
:100F50005C985D985C9A5C985D985C9A5C985D98EA
:100F60005C9A5C985D985C9A5C98449A2D98449839
:100F70005C985D985C9A5C985D9A5C9A5C985D98C8
:100F80005C9A5C985D985C9A5C985D985C9A5C98B9
:100F90005D9A5C9A5C985D985C9A5C985D985C9AA6
:100FA0005C98449A89A50F900F900F900F900F9026
:100FB0000F90882309F482C0DE019A962D9A4498F6
:100FC0005C985D985C9A5C985D985C9A5C985D987A
:100FD0005C9A5C985D985C9A5C985D985C9A5C9869
:100FE0005D985C9A5C985D985C9A5C985D985C9A58
:100FF0005C98449A992787FD90958097FC01EE0FA5
:10100000FF1FEE0FFF1FE80FF91FEE5EFC4F30E0F1
:1010100021912D9A44985C98822F90E0880F892F17
:10102000881F990B892B09F05AC25D985C9A5C98CD
:1010300026FD5AC25D985C9A5C9825FD5AC25D985F
:101040005C9A5C9824FD49C25D985C9A5C9823FD8B
:1010500042C25D985C9A5C9822FD3BC25D985C9AA6
:101060005C9821FD34C25D985C9A5C9820FD29C291
:101070005D985C9A5C98449A3F5F353049F62D9AAA
:1010800044985C985D985C9A5C985D985C9A5C98D2
:101090005D985C9A5C985D985C9A5C985D985C9AA7
:1010A0005C985D985C9A5C985D985C9A5C985D9899
:1010B0005C9A5C98449A8D91811180CF88E0E6E239
:1010C000F1E0D80101900D928A95E1F72091E405B5
:1010D000822F992787FD90959F932F9387E091E02A
:1010E0009F938F93FF92EF920E944129D8010D9018
:1010F0000020E9F7119788E0EDE3F1E001900D920F
:101100008A95E1F78CE0F801DE01999601900D9245
:101110008A95E1F71DAA2D9844985C985D9A5C9A8F
:101120005C985D985C9A5C985D985C9A5C985D9818
:101130005C9A5C985D985C9A5C985D985C9A5C9807
:101140005D985C9A5C985D985C9A5C98449A2D983E
:1011500044985C985D985C9A5C985D9A5C9A5C98FF
:101160005D985C9A5C985D985C9A5C985D985C9AD6
:101170005C985D985C9A5C985D9A5C9A5C985D9AC4
:101180005C9A5C98449A89A50F900F900F900F90ED
:101190000F900F90882309F482C0DE019A962D9A51
:1011A00044985C985D985C9A5C985D985C9A5C98B1
:1011B0005D985C9A5C985D985C9A5C985D985C9A86
:1011C0005C985D985C9A5C985D985C9A5C985D9878
:1011D0005C9A5C98449A992787FD90958097FC01CA
:1011E000EE0FFF1FEE0FFF1FE80FF91FEE5EFC4F23
:1011F00090E081912D9A44985C98282F30E0220F3E
:10120000232F221F330B232B09F05FC15D985C9ABB
:101210005C9886FD58C15D985C9A5C9885FD4FC1CD
:101220005D985C9A5C9884FD48C15D985C9A5C9876
:1012300083FD41C15D985C9A5C9882FD3AC15D98DE
:101240005C9A5C9881FD33C15D985C9A5C9880FDE6
:101250002CC15D985C9A5C98449A9F5F953049F6E2
:101260002D9A44985C985D985C9A5C985D985C9A1D
:101270005C985D985C9A5C985D985C9A5C985D98C7
:101280005C9A5C985D985C9A5C985D985C9A5C98B6
:101290005D985C9A5C98449A8D91811180CF87E02B
:1012A000EEE2F1E0D80101900D928A95E1F780918C
:1012B000DC05811143C14FE456E466E470E04F83DE
:1012C000588769877A87D8010D900020E9F7119730
:1012D00088E0EDE3F1E001900D928A95E1F78CE072
:1012E000F801DE01999601900D928A95E1F71DAA09
:1012F0002D9844985C985D9A5C9A5C985D985C9A8D
:101300005C985D985C9A5C985D985C9A5C985D9836
:101310005C9A5C985D985C9A5C985D985C9A5C9825
:101320005D985C9A5C98449A2D9844985C985D9876
:101330005C9A5C985D9A5C9A5C985D985C9A5C9803
:101340005D985C9A5C985D985C9A5C985D9A5C9AF2
:101350005C985D985C9A5C985D9A5C9A5C98449AFB
:1013600089A5882309F481C0DE019A962D9A4498B4
:101370005C985D985C9A5C985D985C9A5C985D98C6
:101380005C9A5C985D985C9A5C985D985C9A5C98B5
:101390005D985C9A5C985D985C9A5C985D985C9AA4
:1013A0005C98449A992787FD90958097FC01EE0FF1
:1013B000FF1FEE0FFF1FE80FF91FEE5EFC4F35E039
:1013C00021912D9A44985C98822F90E0880F892F64
:1013D000881F990B892B09F061C05D985C9A5C9815
:1013E00026FD61C05D985C9A5C9825FD55C05D98AE
:1013F0005C9A5C9824FD4EC05D985C9A5C9823FDD5
:1014000047C05D985C9A5C9822FD40C05D985C9AEC
:101410005C9821FD39C05D985C9A5C9820FD32C0D3
:101420005D985C9A5C98449A315051F62D9A449894
:101430005C985D985C9A5C985D985C9A5C985D9805
:101440005C9A5C985D985C9A5C985D985C9A5C98F4
:101450005D985C9A5C985D985C9A5C985D985C9AE3
:101460005C98449A8D91811181CFE5960FB6F894DE
:10147000DEBF0FBECDBFDF91CF911F910F91FF90C7
:10148000EF9008955D9ACDCF5D9AC6CF5D9ABFCF9C
:101490005D9AB8CF5D9AB1CF5D9AAACF5D9A5C9AFA
:1014A0005C9826FF9FCF5D9A9ECF5D9AD3CE5D9AC2
:1014B000CCCE5D9AC5CE5D9ABECE5D9AB7CE5D9A12
:1014C000B0CE5D9AD6CD5D9AA7CE5D9AA0CE5D9A3C
:1014D000CBCD5D9AC4CD5D9ABDCD5D9AB6CD5D9AFA
:1014E0005C9A5C9826FFA6CD5D9A5C9A5C9825FF75
:1014F000A6CD5D9AA5CD5D9AC8CC5D9AC1CC5D9A0A
:10150000BACC5D9AB3CC5D9AACCC5D9AA5CC5D9A11
:101510009ECC5D9AD0CB5D9A95CC5D9AC7CB5D9AF7
:10152000C0CB5D9AB9CB5D9AB2CB5D9AABCB5D9ADD
:101530005C9A5C9826FFA0CB5D9A9FCB2FE43EE49B
:1015400040E02F8338874987BECE0F931F93CF93F8
:10155000DF93CDB7DEB7A1970FB6F894DEBF0FBE0D
:10156000CDBF87E0E5E3F1E0DE01119601900D9239
:101570008A95E1F7E091B605F0E0EE0FFF1FE8591C
:10158000F94F659174918E010F5F1F4FC8010E9442
:101590003629D8010D900020E9F7119785E0E0E4A5
:1015A000F1E001900D928A95E1F78CE0F801DE01FF
:1015B000559601900D928A95E1F719A22D984498BD
:1015C0005C985D9A5C9A5C985D985C9A5C985D9872
:1015D0005C9A5C985D985C9A5C985D985C9A5C9863
:1015E0005D985C9A5C985D985C9A5C985D985C9A52
:1015F0005C98449A2D9844985C985D985C9A5C98A5
:101600005D9A5C9A5C985D985C9A5C985D985C9A2F
:101610005C985D985C9A5C985D9A5C9A5C985D9821
:101620005C9A5C985D9A5C9A5C98449A8D89882350
:1016300009F481C0DE0156962D9A44985C985D9815
:101640005C9A5C985D985C9A5C985D985C9A5C98F2
:101650005D985C9A5C985D985C9A5C985D985C9AE1
:101660005C985D985C9A5C985D985C9A5C98449AEA
:10167000992787FD90958097FC01EE0FFF1FEE0FD5
:10168000FF1FE80FF91FEE5EFC4F35E021912D9A08
:1016900044985C98822F90E0880F892F881F990BBF
:1016A000892B09F05FC05D985C9A5C9826FD5FC04D
:1016B0005D985C9A5C9825FD53C05D985C9A5C9837
:1016C00024FD4CC05D985C9A5C9823FD45C05D98F4
:1016D0005C9A5C9822FD3EC05D985C9A5C9821FD06
:1016E00037C05D985C9A5C9820FD30C05D985C9A2C
:1016F0005C98449A315051F62D9A44985C985D98C4
:101700005C9A5C985D985C9A5C985D985C9A5C9831
:101710005D985C9A5C985D985C9A5C985D985C9A20
:101720005C985D985C9A5C985D985C9A5C98449A29
:101730008D91811181CFA1960FB6F894DEBF0FBEB7
:10174000CDBFDF91CF911F910F9108955D9ACFCFBB
:101750005D9AC8CF5D9AC1CF5D9ABACF5D9AB3CF7B
:101760005D9AACCF5D9A5C9A5C9826FFA1CF5D9A9A
:10177000A0CF3C9A3D9A259A559A549A4598459AF5
:101780002D9844985C985D985C9A5C985D985C9AFA
:101790005C985D9A5C9A5C985D985C9A5C985D98A0
:1017A0005C9A5C985D985C9A5C985D985C9A5C9891
:1017B0005D9A5C9A5C98449A2D9844985C985D9ADE
:1017C0005C9A5C985D985C9A5C985D9A5C9A5C986F
:1017D0005D9A5C9A5C985D985C9A5C985D985C9A5E
:1017E0005C985D985C9A5C985D985C9A5C98449A69
:1017F0002D9844985C985D985C9A5C985D985C9A8A
:101800005C985D985C9A5C985D985C9A5C985D9831
:101810005C9A5C985D9A5C9A5C985D985C9A5C981E
:101820005D985C9A5C98449A2D9844985C985D9871
:101830005C9A5C985D985C9A5C985D985C9A5C9800
:101840005D9A5C9A5C985D985C9A5C985D9A5C9AEB
:101850005C985D985C9A5C985D985C9A5C98449AF8
:101860002D9844985C985D985C9A5C985D985C9A19
:101870005C985D9A5C9A5C985D985C9A5C985D98BF
:101880005C9A5C985D985C9A5C985D985C9A5C98B0
:101890005D985C9A5C98449A2D9844985C985D9801
:1018A0005C9A5C985D985C9A5C985D985C9A5C9890
:1018B0005D985C9A5C985D9A5C9A5C985D9A5C9A7B
:1018C0005C985D985C9A5C985D985C9A5C98449A88
:1018D00008952F923F924F925F926F927F928F92D4
:1018E0009F92AF92BF92CF92DF92EF92FF920F93AF
:1018F0001F93CF93DF93CDB7DEB72F970FB6F89432
:10190000DEBF0FBECDBF80E090E8ACE8BAE78093C1
:10191000630590936405A0936505B093660581E027
:1019200090E09C838B831A82198289809A80AB8095
:10193000BC809401A50160E070E080E090E000E1EF
:101940000E94DE28A12CE0E8BE2EFCE8CF2EAAE7FC
:10195000DA2EE12CF12C00E010E00E948128209387
:101960005F0530936005409361055093620580E008
:1019700091E09C838B8389809A80AB80BC809401AA
:10198000A50160E070E080E090E000E10E94DE28C8
:10199000A12CB0E8BB2E0CE8C02EEAE7DE2EE12C2D
:1019A000F12C00E00E94812839014A011B012C0121
:1019B000322F309367057092680580926905909286
:1019C0006A0588EB91E09093F9058093F8051092F1
:1019D000F7051092F6050091F6051091F705209194
:1019E000F8053091F9055801690100E010E0930114
:1019F000A401B101C2010E94FB2700E10E94F92865
:101A0000C901DA018093E6059093E705A093E80504
:101A1000B093E90580E090E8A8EBB1E08093D605AB
:101A20009093D705A093D805B093D9059301A4014D
:101A3000B101C20103E00E94DE285301640171017B
:101A400082010E941E2907E00E94DE28042D0E94C8
:101A50001E2906E00E94DE28042D0E941E2959013D
:101A60006A017B01E82F192F03E00E94DE280E2F68
:101A70000E941E2903E00E94DE28530164017101C7
:101A800082010E941E292D833D874E875F87B62FD6
:101A9000A72FF82FE92F7A2F8F2F9E2F03E00E9478
:101AA000DE2859016A017B018C012D813D854E851F
:101AB0005F856B2F7A2F8F2F9E2F0E941529530140
:101AC0006401710182010E94152900E10E94F92838
:101AD000C901DA018093CE059093CF05A093D0057C
:101AE000B093D1050E94B90B88EF91E02D9A4498EC
:101AF0005C985D985C9A5C985D985C9A5C985D983F
:101B00005C9A5C985D985C9A5C985D985C9A5C982D
:101B10005D985C9A5C985D985C9A5C985D985C9A1C
:101B20005C98449A0197009709F72D9844985C981F
:101B30005D9A5C9A5C985D985C9A5C985D985C9AFA
:101B40005C985D985C9A5C985D985C9A5C985D98EE
:101B50005C9A5C985D985C9A5C985D985C9A5C98DD
:101B6000449A2D9844985C985D985C9A5C985D9A2C
:101B70005C9A5C985D985C9A5C985D985C9A5C98BD
:101B80005D985C9A5C985D985C9A5C985D985C9AAC
:101B90005C985D985C9A5C98449A8FE080937E0094
:101BA0008AE880937A001092C5008FE18093C40088
:101BB00088E98093C10086E08093C2008091B100E3
:101BC00081608093B1008091B1008D7F8093B100DE
:101BD0008091B1008B7F8093B1008091B0008F7BAA
:101BE0008093B0008091B00080688093B0008091B5
:101BF000B00081608093B0008091B0008D7F8093B1
:101C0000B0008091B100877F8093B10056985E9AB2
:101C100057985F9A2098289A24982C9A22982A9A62
:101C20002198299A239A8091700081608093700096
:101C300078948091DA05E091E405FF27E7FDF095BF
:101C4000E80FF11DEE0FFF1FEE0FFF1FEC55FE4FCB
:101C5000C080D180E280F3808091CB059091C10556
:101C6000E091CC05FF27E7FDF095E90FF11D9CE021
:101C70008902E00DF11D1124EE0FFF1FEE0FFF1F73
:101C8000EC55FE4F80809180A280B3806091E50585
:101C9000A7E26A02B0011124882777FD8095982F6A
:101CA000A70196010E94542800E10E94F9282D8383
:101CB0003E834F8358878D819E81AF81B885C80E42
:101CC000D91EEA1EFB1EC092F605D092F705E092DF
:101CD000F805F092F9052091CD0597E229029001CF
:101CE0001124442737FD4095542FC501B4010E94AB
:101CF00054280E94F9282D833E834F835887698793
:101D00007A878B879C878D819E81AF81B885880E6D
:101D1000991EAA1EBB1E8092D6059092D705A0924E
:101D2000D805B092D905409067055090680560903D
:101D3000690570906A05C701B601A30192010E946E
:101D400054280E94F928C901DA018093E60590938E
:101D5000E705A093E805B093E905C501B401A30127
:101D600092010E9454280E94F928C901DA01809347
:101D7000CE059093CF05A093D005B093D105609187
:101D8000B7057091B8058091B9059091BA05A30186
:101D900092010E9454280E94F928C901DA01809317
:101DA000BB059093BC05A093BD05B093BE052F96CF
:101DB0000FB6F894DEBF0FBECDBFDF91CF911F915C
:101DC0000F91FF90EF90DF90CF90BF90AF909F90DA
:101DD0008F907F906F905F904F903F902F900895DD
:101DE000CF93DF93CDB7DEB7C355D1090FB6F894C3
:101DF000DEBF0FBECDBF0E94690C0E949F0580E030
:101E000092E0909384058093830590938605809358
:101E10008505909388058093870590938A05809324
:101E2000890510926B0510926C0510926D05109249
:101E30006E0590938C0580938B0590938E0580930F
:101E40008D059093900580938F05909392058093D4
:101E5000910510926F051092700510927105109205
:101E600072059093940580939305909396058093C3
:101E70009505909398058093970590939A05809384
:101E800099051092730510927405109275051092C1
:101E9000760590939C0580939B0590939E05809377
:101EA0009D059093A00580939F059093A205809334
:101EB000A10510927705109278051092790510927D
:101EC0007A059093A4058093A3059093A60580932B
:101ED000A5059093A8058093A7059093AA058093E4
:101EE000A90510927B0510927C0510927D05109239
:101EF0007E05AE014B5E5F4F5FAF4EAFCE010196E8
:101F00005C01DE011896BBAFAAAF4F5051095FAB21
:101F10004EAB069699AF88AF1296BDAFACAFBEADD3
:101F20006196BFAF61972FAD62962FAF6297450163
:101F3000B5E02B2E1A2D3B2C01E02DE0F7E0EF2E23
:101F4000A8E0FA2E3CE08091F2048F5F8093F204C7
:101F50008B3038F080917A00806480937A00109200
:101F6000F20499B1892F807496FDFFC59091FF040A
:101F700091110BC69091F904992309F406C690912A
:101F8000B30591110C94651E4F9903C690910005FD
:101F90009111A8C19091FA04992309F4A3C1813049
:101FA00009F4A0C11092F4040093B30510926F05D8
:101FB000109270051092710510927205E5E4F1E03F
:101FC0006196AFAD61976296BFAD6297822F019027
:101FD0000D928A95E1F7BE016B5E7F4F80E06396BC
:101FE0002FAF639764963FAF64970E948A04E7E13E
:101FF000F1E0D5018E2D01900D928A95E1F7E091E7
:102000000201F0E0EE0FFF1FE058F94F6591749167
:10201000A12EB32C812F932D0E943629D4010D902F
:102020000020E9F71197EDE3F1E08F2D01900D927B
:102030008A95E1F7612F732D82E00E948A04E6E21F
:10204000F1E0A12FB32D8F2D01900D928A95E1F72C
:102050004091CC05842F992787FD90959F934F93AE
:10206000A7E0B1E0BF93AF935BAD5F938AAD8F9371
:102070000E944129D4010D900020E9F71197EDE36A
:10208000F1E08F2D01900D928A95E1F7612F732D6C
:1020900083E00E948A04EEE1F1E0A12FB32D8F2DA1
:1020A00001900D928A95E1F74091CD05842F9927F3
:1020B00087FD90959F934F93A7E0B1E0BF93AF93B7
:1020C0005BAD5F938AAD8F930E944129D4010D903F
:1020D0000020E9F71197EDE3F1E08F2D01900D92CB
:1020E0008A95E1F7612F732D84E00E948A0486E0CF
:1020F000E2E5F1E0A12FB32D01900D928A95E1F771
:102100004091CB05842F992787FD90959F934F93FE
:10211000A7E0B1E0BF93AF935FA95F938EA98F93C0
:102120000E944129D4010D900020E9F7119789E020
:10213000ECE3F1E001900D928A95E1F7E12FF32DA8
:10214000DE01999664963FAD6497832F01900D92BE
:102150008A95E1F71DAA2D9844985C985D9A5C9A3F
:102160005C985D985C9A5C985D985C9A5C985D98C8
:102170005C9A5C985D985C9A5C985D985C9A5C98B7
:102180005D985C9A5C985D985C9A5C98449A2D98EE
:1021900044985C985D985C9A5C985D9A5C9A5C98AF
:1021A0005D985C9A5C985D985C9A5C985D985C9A86
:1021B0005C985D9A5C9A5C985D985C9A5C985D9A74
:1021C0005C9A5C98449A89A50FB6F894DEBF0FBE5E
:1021D000CDBF63962FAD6397882309F481C0DE01DC
:1021E0009A962D9A44985C985D985C9A5C985D9854
:1021F0005C9A5C985D985C9A5C985D985C9A5C9837
:102200005D985C9A5C985D985C9A5C985D985C9A25
:102210005C985D985C9A5C98449A992787FD9095A4
:102220008097FC01EE0FFF1FEE0FFF1FE80FF91F55
:10223000EE5EFC4F55E041912D9A44985C98842FB6
:1022400090E0880F892F881F990B892B09F08BC488
:102250005D985C9A5C9846FD70C45D985C9A5C9849
:1022600045FD70C45D985C9A5C9844FD70C45D98AF
:102270005C9A5C9843FD70C45D985C9A5C9842FDE2
:1022800070C45D985C9A5C9841FD55C45D985C9AF9
:102290005C9840FD4EC45D985C9A5C98449A51509D
:1022A00051F62D9A44985C985D985C9A5C985D987C
:1022B0005C9A5C985D985C9A5C985D985C9A5C9876
:1022C0005D985C9A5C985D985C9A5C985D985C9A65
:1022D0005C985D985C9A5C98449A8D91811181CF4D
:1022E0008091B305189969C4909101059111DCC0E2
:1022F0009091FB04992309F4D7C0823009F4D4C02B
:102300001092F50482E08093B30510927305109249
:1023100074051092750510927605E8E5F1E0619676
:10232000AFAD61976296BFAD6297822F01900D921B
:102330008A95E1F7BE016B5E7F4F80E063962FAF19
:10234000639764963FAF64970E948A04E7E1F1E0E7
:10235000D5018E2D01900D928A95E1F780910401AF
:1023600090E0880F991F8058994FFC0165917491F6
:10237000812F932D0E943629D4010D900020E9F77A
:102380001197E0E4F1E0822D01900D928A95E1F73A
:10239000612F732D82E00E948A04E5E6F1E0A12F0F
:1023A000B32D8E2D01900D928A95E1F78091B505A0
:1023B0001F928F93A7E0B1E0BF93AF9359AD5F93A6
:1023C00088AD8F930E944129D4010D900020E9F738
:1023D0001197E0E4F1E0822D01900D928A95E1F7EA
:1023E000612F732D83E00E948A04ECE6F1E0A12FB7
:1023F000B32D8E2D01900D928A95E1F78091B40551
:102400001F928F93A7E0B1E0BF93AF9359AD5F9355
:1024100088AD8F930E944129D4010D900020E9F7E7
:102420001197E0E4F1E0822D01900D928A95E1F799
:10243000612F732D84E00E948A04E5E3F1E0A12F6F
:10244000B32D8E2D01900D928A95E1F78091B605FE
:1024500090E0880F991F8859994FFC0165917491FC
:10246000A12EB32C812F932D0E943629D4010D90DB
:102470000020E9F71197E0E4F1E0822D01900D9240
:102480008A95E1F7612F732D85E00E948A0480917F
:10249000B3050FB6F894DEBF0FBECDBF63962FAD68
:1024A000639764963FAD64971C999AC39091020517
:1024B0009111E9C09091FC04992309F4E4C08330A0
:1024C00009F4EEC01092F60483E08093B3051092F5
:1024D0007705109278051092790510927A05E3E756
:1024E000F1E06196AFAD61976296BFAD6297822FC2
:1024F00001900D928A95E1F7BE016B5E7F4F80E0FF
:1025000063962FAF639764963FAF64970E948A04E7
:102510008AE0E0E8F1E0D50101900D928A95E1F7BB
:10252000809106011F928F93A7E0B1E0BF93AF9314
:102530005DAD5F938CAD8F930E944129D5010D90C5
:102540000020E9F71197E0E4F1E0822D01900D926F
:102550008A95E1F7B50182E00E948A048AE0EAE800
:10256000F1E0D50101900D928A95E1F78091C905BE
:102570001F928F93A7E0B1E0BF93AF935DAD5F93E0
:102580008CAD8F930E944129D5010D900020E9F771
:102590001197E0E4F1E0822D01900D928A95E1F728
:1025A000B50183E00E948A0489E0E4E9F1E0D50105
:1025B00001900D928A95E1F78091C2050FB6F894CB
:1025C000DEBF0FBECDBF63962FAD639764963FAD60
:1025D000649781110C9437208FE496E4A6E4B0E070
:1025E00089879A87AB87BC87D5010D900020E9F7D2
:1025F0001197E0E4F1E0822D01900D928A95E1F7C8
:10260000B50184E063962FAF639764963FAF6497FC
:102610000E948A04EDE9F1E0D5018E2D01900D9222
:102620008A95E1F78091BF0563962FAD6397649615
:102630003FAD649781110C943F208FE496E4A6E4AB
:10264000B0E08F839887A987BA87D5010D900020C5
:10265000E9F71197E0E4F1E0822D01900D928A955F
:10266000E1F7B50185E063962FAF639764963FAFBE
:1026700064970E948A048091B30563962FAD639797
:1026800064963FAD6497813009F4BEC2813008F48E
:1026900021C5823011F40C94AF1B833009F053CC68
:1026A0008091FE058823E1F080919B0590919C0527
:1026B0002091020630910306AC01475F5F4F42173D
:1026C000530774F08B30910514F40C9471200A9721
:1026D000821793072CF481E0809377051092FE0512
:1026E0008091FF058823E1F080919D0590919E05E2
:1026F0002091040630910506AC01475F5F4F4217F9
:10270000530774F08B30910514F40C9469200A97E8
:10271000821793072CF481E0809378051092FF05CF
:10272000809100068823E1F080919F059091A0059B
:102730002091060630910706AC01475F5F4F4217B4
:10274000530774F08B30910514F40C946D200A97A4
:10275000821793072CF481E080937905109200068C
:1027600080910106882311F40C94D01D2091A105BD
:102770003091A2058091080690910906A901475F52
:102780005F4F4817590714F40C94D01D2B303105B6
:1027900014F40C9465202A5031092817390714F0D5
:1027A0000C94D01D21E020937A05109201069C0123
:1027B00035952795359527954091060150E02417CA
:1027C000350709F45AC020930601422F40954093E3
:1027D000C9059093A2058093A1058AE0E0E8F1E0A5
:1027E000D50101900D928A95E1F733273F932F93FE
:1027F000A7E0B1E0BF93AF934DAD4F935CAD5F9356
:102800000E944129D5010D900020E9F71197E0E4DD
:10281000F1E0822D01900D928A95E1F7B50182E0F9
:102820000E948A048AE0EAE8F1E0D50101900D9265
:102830008A95E1F78091C9051F928F93A7E0B1E0D7
:10284000BF93AF934DAD4F935CAD5F930E94412911
:10285000D5010D900020E9F71197E0E4F1E0822D19
:1028600001900D928A95E1F7B50183E00E948A04F8
:102870000FB6F894DEBF0FBECDBF809178058823D8
:10288000B1F180910406909105068130A2E09A078B
:1028900014F40C94E31D8091C205811128C081E0DD
:1028A0008093C20589E0E4E9F1E0D50101900D9241
:1028B0008A95E1F78091C20581110C94EB208FE499
:1028C00096E4A6E4B0E089879A87AB87BC87D501F8
:1028D0000D900020E9F71197E0E4F1E0822D0190DE
:1028E0000D928A95E1F7B50184E00E948A048091F7
:1028F0007705882309F420CB809102069091030686
:102900008130A2E09A0714F40C94361E8091BF0522
:10291000811112CB81E08093BF0587E0EDE9F1E002
:10292000D50101900D928A95E1F78FE49EE4A0E035
:102930008F839887A987D5010D900020E9F711971B
:10294000E0E4F1E0822D01900D928A95E1F78CE0B0
:10295000F501DE01559601900D928A95E1F719A2D5
:102960002D9844985C985D9A5C9A5C985D985C9A06
:102970005C985D985C9A5C985D985C9A5C985D98B0
:102980005C9A5C985D985C9A5C985D985C9A5C989F
:102990005D985C9A5C98449A2D9844985C985D98F0
:1029A0005C9A5C985D9A5C9A5C985D985C9A5C987D
:1029B0005D985C9A5C985D985C9A5C985D9A5C9A6C
:1029C0005C985D985C9A5C985D9A5C9A5C98449A75
:1029D0008D89882309F4B0CADE0156962D9A449851
:1029E0005C985D985C9A5C985D985C9A5C985D9840
:1029F0005C9A5C985D985C9A5C985D985C9A5C982F
:102A00005D985C9A5C985D985C9A5C985D985C9A1D
:102A10005C98449A992787FD90958097FC01EE0F6A
:102A2000FF1FEE0FFF1FE80FF91FEE5EFC4F30E0B7
:102A30002AC05D985C9A5C9826FD36C05D985C9AC9
:102A40005C9825FD36C05D985C9A5C9824FD36C084
:102A50005D985C9A5C9823FD36C05D985C9A5C98A2
:102A600022FD36C05D985C9A5C9821FD36C05D9869
:102A70005C9A5C9820FD36C05D985C9A5C98449A9C
:102A80003F5F3530B1F121912D9A44985C98822FA7
:102A900090E0880F892F881F990B892B51F25D9A3E
:102AA0005C9A5C9826FFCACF5D9A5C9A5C9825FF79
:102AB000CACF5D9A5C9A5C9824FFCACF5D9A5C9AF3
:102AC0005C9823FFCACF5D9A5C9A5C9822FFCACFBC
:102AD0005D9A5C9A5C9821FFCACF5D9A5C9A5C987B
:102AE00020FFCACF5D9A5C9A5C98449A3F5F35306C
:102AF00051F62D9A44985C985D985C9A5C985D9824
:102B00005C9A5C985D985C9A5C985D985C9A5C981D
:102B10005D985C9A5C985D985C9A5C985D985C9A0C
:102B20005C985D985C9A5C98449A8D91811156CF1F
:102B300003CA5D9AB1CB5D9AAACB5D9A5C9A5C9808
:102B400045FF90CB5D9A5C9A5C9844FF90CB5D9A70
:102B50005C9A5C9843FF90CB5D9A5C9A5C9842FFCC
:102B600090CB5D9A8FCB5D9A74CB8091FF048111DD
:102B70001092FF048091F904882309F4A5C2809182
:102B8000F304853610F00093F9048091B3054F9B50
:102B9000FDC9909100059111109200059091FA04E1
:102BA000992311F40C94DC1D9091F404953608F4EB
:102BB00099CB0093FA04189B97CB90910105911142
:102BC000109201059091FB04992309F471C2909130
:102BD000F504953608F468CC0093FB041C9B66CC86
:102BE000909102059111109202059091FC04992395
:102BF00009F464C29091F604953608F444CD00932C
:102C0000FC04813009F042CD8091FE058823E1F07B
:102C100080918B0590918C052091020630910306DE
:102C2000AC01475F5F4F4217530774F08B3091053B
:102C300014F40C94B5200A97821793072CF481E0C2
:102C400080936F051092FE058091FF058823C1F0E7
:102C500020918D0530918E05809104069091050696
:102C6000A901475F5F4F4817590754F029503109B0
:102C7000821793072CF081E0809370051092FF0576
:102C8000809100068823C1F020918F053091900536
:102C90008091060690910706A901475F5F4F48178C
:102CA000590754F029503109821793072CF081E01D
:102CB000809371051092000680910106882309F423
:102CC0009AC62091910530919205809108069091C5
:102CD0000906A901475F5F4F481759070CF48BC6D7
:102CE00029503109821793070CF485C621E02093FF
:102CF000720510920106823991050CF089C6809107
:102D0000020181110C94152180917105882309F429
:102D10003EC180910606909107069C013595279546
:102D20003595279535952795359527956091CC054F
:102D3000772767FD7095A9014052510964177507FF
:102D400009F425C120522093CC05909390058093DF
:102D50008F0588E0E6E2F1E0D50101900D928A95B9
:102D6000E1F7822F992787FD90959F932F93A7E0F6
:102D7000B1E0BF93AF934BAD4F935AAD5F930E94B9
:102D80004129D5010D900020E9F7119788E0EDE386
:102D9000F1E001900D928A95E1F7B50183E00E9480
:102DA0008A048091DA05E091E405FF27E7FDF095BC
:102DB000E80FF11DEE0FFF1FEE0FFF1FEC55FE4F4A
:102DC00040805180628073808091CB059091C105D5
:102DD000E091CC05FF27E7FDF095E90FF11D9CE0A0
:102DE0008902E00DF11D1124EE0FFF1FEE0FFF1FF2
:102DF000EC55FE4FC080D180E280F3806091E50504
:102E0000A7E26A02B0011124882777FD8095982FE8
:102E1000A30192010E94542800E10E94F928219602
:102E20002FAF219722963FAF229723964FAF23973C
:102E300024965FAF249725966FAF259726967FAF90
:102E4000269727968FAF279728969FAF2897249687
:102E50008CAD9DADAEADBFAD2497840D951DA61D67
:102E6000B71D24968CAF9DAFAEAFBFAF24978093B4
:102E7000F6059093F705A093F805B093F905209116
:102E8000CD0597E2290290011124442737FD409592
:102E9000542FC701B6010E9454280E94F928299690
:102EA0002FAF29972A963FAF2A972B964FAF2B9794
:102EB0002C965FAF2C972D966FAF2D972E967FAFE8
:102EC0002E972F968FAF2F9760969FAF60972C9677
:102ED0004CAC5DAC6EAC7FAC2C974C0C5D1C6E1C8E
:102EE0007F1C4092D6055092D7056092D80570920B
:102EF000D905C0906705D0906805E0906905F0900D
:102F00006A0524966CAD7DAD8EAD9FAD2497A7016B
:102F100096010E9454280E94F928C901DA01809381
:102F2000E6059093E705A093E805B093E905C30192
:102F3000B201A70196010E9454280E94F928C901F4
:102F4000DA018093CE059093CF05A093D005B0937E
:102F5000D1056091B7057091B8058091B905909140
:102F6000BA05A70196010E9454280E94F928C901B8
:102F7000DA018093BB059093BC05A093BD05B09387
:102F8000BE050F900F900F900F900F900F908091B3
:102F90007005882309F442C06091CD05862F9927DA
:102FA00087FD90952091040630910506A90155955D
:102FB000479555954795405851098417950771F1E4
:102FC00030938E0520938D0588E0EEE1F1E0D50188
:102FD00001900D928A95E1F79F936F93A7E0B1E07E
:102FE000BF93AF934BAD4F935AAD5F930E9441296E
:102FF000D5010D900020E9F7119788E0EDE3F1E0AD
:1030000001900D928A95E1F7B50184E00E948A044F
:103010000F900F900F900F900F900F9080916F0571
:10302000882311F40C949C0F809102069091030662
:103030008D3C91050CF0FCC58091CB058E3F11F4C1
:103040000C949C0F2EEF2093CB0586E690E0909396
:103050008C0580938B0586E0E2E5F1E0D5010190D7
:103060000D928A95E1F78FEF8F932F93A7E0B1E050
:10307000BF93AF934FA94F935EA95F930E944129DD
:10308000D5010D900020E9F7119789E0ECE3F1E01C
:1030900001900D928A95E1F7B50185E00E948A04BE
:1030A0000F900F900F900F900F900F900C949C0F1B
:1030B0009091F5049F5F9093F5048BCD9091F60469
:1030C0009F5F9093F60498CD8091F3048F5F809377
:1030D000F30457CD8091FE058823E1F080918305AC
:1030E000909184052091020630910306AC01475F60
:1030F0005F4F4217530774F08B30910514F40C9412
:10310000B1200A97821793072CF481E080936B0516
:103110001092FE058091FF058823D9F080918505E6
:10312000909186052091040630910506AC01475F19
:103130005F4F421753076CF08B3091050CF4DBC7DF
:103140000A97821793072CF481E080936C05109204
:10315000FF05809100068823D9F080918705909122
:1031600088052091060630910706AC01475F5F4F46
:10317000421753076CF08B3091050CF4BFC70A97C8
:10318000821793072CF481E080936D05109200065E
:1031900080910106882309F4BAC4209189053091F1
:1031A0008A058091080690910906A901475F5F4F43
:1031B000481759070CF4ABC42B3031050CF498C7F1
:1031C0002A503109281739070CF0A1C421E02093B7
:1031D0006E0510920106823991050CF0A5C480910C
:1031E000030181110C94702180916D05882309F4ED
:1031F0003EC180910606909107069C013595279562
:103200003595279535952795359527956091E40552
:10321000772767FD7095A90140525109641775071A
:1032200009F425C120522093E405909388058093EA
:10323000870588E0E6E2F1E0D50101900D928A95DC
:10324000E1F7822F992787FD90959F932F93A7E011
:10325000B1E0BF93AF934BAD4F935AAD5F930E94D4
:103260004129D5010D900020E9F7119788E0EDE3A1
:10327000F1E001900D928A95E1F7B50183E00E949B
:103280008A048091DA05E091E405FF27E7FDF095D7
:10329000E80FF11DEE0FFF1FEE0FFF1FEC55FE4F65
:1032A00040805180628073808091CB059091C105F0
:1032B000E091CC05FF27E7FDF095E90FF11D9CE0BB
:1032C0008902E00DF11D1124EE0FFF1FEE0FFF1F0D
:1032D000EC55FE4FC080D180E280F3806091E5051F
:1032E000A7E26A02B0011124882777FD8095982F04
:1032F000A30192010E94542800E10E94F92821961E
:103300002FAF219722963FAF229723964FAF239757
:1033100024965FAF249725966FAF259726967FAFAB
:10332000269727968FAF279728969FAF28972496A2
:103330008CAD9DADAEADBFAD2497840D951DA61D82
:10334000B71D24968CAF9DAFAEAFBFAF24978093CF
:10335000F6059093F705A093F805B093F905209131
:10336000CD0597E2290290011124442737FD4095AD
:10337000542FC701B6010E9454280E94F9282996AB
:103380002FAF29972A963FAF2A972B964FAF2B97AF
:103390002C965FAF2C972D966FAF2D972E967FAF03
:1033A0002E972F968FAF2F9760969FAF60972C9692
:1033B0004CAC5DAC6EAC7FAC2C974C0C5D1C6E1CA9
:1033C0007F1C4092D6055092D7056092D805709226
:1033D000D905C0906705D0906805E0906905F09028
:1033E0006A0524966CAD7DAD8EAD9FAD2497A70187
:1033F00096010E9454280E94F928C901DA0180939D
:10340000E6059093E705A093E805B093E905C301AD
:10341000B201A70196010E9454280E94F928C9010F
:10342000DA018093CE059093CF05A093D005B09399
:10343000D1056091B7057091B8058091B90590915B
:10344000BA05A70196010E9454280E94F928C901D3
:10345000DA018093BB059093BC05A093BD05B093A2
:10346000BE050F900F900F900F900F900F908091CE
:103470006C05882309F436C16091E505262F3327B2
:1034800027FD30954091040650910506CA01959597
:103490008795959587959595879595958795809727
:1034A0002817390709F41EC15093860540938505F6
:1034B00088E0EEE1F1E0D50101900D928A95E1F707
:1034C0003F936F93A7E0B1E0BF93AF934BAD4F93A2
:1034D0005AAD5F930E944129D5010D900020E9F774
:1034E000119788E0EDE3F1E001900D928A95E1F704
:1034F000B50184E00E948A048091DA05E091E40538
:10350000FF27E7FDF095E80FF11DEE0FFF1FEE0F0F
:10351000FF1FEC55FE4F4080518062807380809188
:10352000CB059091C105E091CC05FF27E7FDF09513
:10353000E90FF11D9CE08902E00DF11D1124EE0F51
:10354000FF1FEE0FFF1FEC55FE4FC080D180E280C1
:10355000F3806091E505A7E26A02B0011124882793
:1035600077FD8095982FA30192010E94542800E1D5
:103570000E94F92821962FAF219722963FAF2297DC
:1035800023964FAF239724965FAF249725966FAF6E
:10359000259726967FAF269727968FAF2797289651
:1035A0009FAF289724968CAD9DADAEADBFAD24974F
:1035B000840D951DA61DB71D24968CAF9DAFAEAF93
:1035C000BFAF24978093F6059093F705A093F80575
:1035D000B093F9052091CD0597E2290290011124BD
:1035E000442737FD4095542FC701B6010E94542847
:1035F0000E94F92829962FAF29972A963FAF2A973C
:103600002B964FAF2B972C965FAF2C972D966FAFC5
:103610002D972E967FAF2E972F968FAF2F97609670
:103620009FAF60972C964CAC5DAC6EAC7FAC2C978A
:103630004C0C5D1C6E1C7F1C4092D6055092D70529
:103640006092D8057092D905C0906705D090680542
:10365000E0906905F0906A0524966CAD7DAD8EAD65
:103660009FAD2497A70196010E9454280E94F92833
:10367000C901DA018093E6059093E705A093E80578
:10368000B093E905C301B201A70196010E94542835
:103690000E94F928C901DA018093CE059093CF05E5
:1036A000A093D005B093D1056091B7057091B8058E
:1036B0008091B9059091BA05A70196010E945428FE
:1036C0000E94F928C901DA018093BB059093BC05DB
:1036D000A093BD05B093BE050F900F900F900F9073
:1036E0000F900F9080916B05882311F40C949C0F20
:1036F00080910206909103068115A2E09A070CF0D2
:1037000089C28091DC05882311F40C949C0F1092DF
:10371000DC0587E0EEE2F1E0D50101900D928A959B
:10372000E1F78091DC058111F9C58FE496E4A6E408
:10373000B0E08F839887A987BA87D5010D900020C4
:10374000E9F7119788E0EDE3F1E001900D928A9599
:10375000E1F7B50185E00E948A040C949C0F8091EA
:10376000FE058823D9F080919305909194052091CE
:10377000020630910306AC01475F5F4F42175307C3
:103780006CF08B3091050CF4D5C40A97821793071F
:103790002CF481E0809373051092FE058091FF0563
:1037A0008823D9F080919505909196052091040683
:1037B00030910506AC01475F5F4F421753076CF02D
:1037C0008B3091050CF4CAC40A97821793072CF426
:1037D00081E0809374051092FF0580910006882394
:1037E000D9F0809197059091980520910606309127
:1037F0000706AC01475F5F4F421753076CF08B30F1
:1038000091050CF4E5C40A97821793072CF481E024
:10381000809375051092000680910106882309F4B3
:1038200033C12091990530919A05809108069091B5
:103830000906A901475F5F4F481759070CF424C1D7
:103840002B3031050CF451C42A503109281739079F
:103850000CF01AC121E020937605109201068B3AF4
:1038600091050CF01EC180910401811102C5809167
:103870007505882309F440C020910606309107069B
:10388000C90195958795959587954091B50550E027
:103890008417950789F18093B50530939805209397
:1038A000970527E0E5E6F1E0D50101900D922A9514
:1038B000E1F799279F938F93A7E0B1E0BF93AF9370
:1038C00049AD4F9358AD5F930E944129D5010D90AA
:1038D0000020E9F71197E0E4F1E0822D01900D92CC
:1038E0008A95E1F7B50183E00E948A040F900F905A
:1038F0000F900F900F900F9080917405882309F41A
:1039000040C02091040630910506C9019595879520
:10391000959587954091B40550E08417950789F1F6
:103920008093B405309396052093950527E0ECE647
:10393000F1E0D50101900D922A95E1F799279F9327
:103940008F93A7E0B1E0BF93AF9349AD4F9358ADCC
:103950005F930E944129D5010D900020E9F711974E
:10396000E0E4F1E0822D01900D928A95E1F7B50136
:1039700084E00E948A040F900F900F900F900F9098
:103980000F9080917305882311F40C949C0F809103
:103990000206909103068D3591050CF023C18091AC
:1039A000B605882311F40C949C0F1092B60587E09D
:1039B000E5E3F1E0D50101900D928A95E1F7E8E6A3
:1039C000F6E0659174915401812F932D0E94362960
:1039D000D4010D900020E9F71197E0E4F1E0822D89
:1039E00001900D928A95E1F7612F732D85E00E9479
:1039F0008A040C949C0F80917205882309F484C971
:103A00008091080690910906823991050CF477C9D6
:103A10008432A1E09A070CF090C3809102018130BA
:103A200009F472C981E0809302018BED90E09093DC
:103A300092058093910587E0E7E1F1E0D5010190DF
:103A40000D928A95E1F78091020190E0880F991F0D
:103A50008058994FFC01659174915401812F932DE9
:103A60000E943629D4010D900020E9F7119788E0D3
:103A7000EDE3F1E001900D928A95E1F7612F732D4E
:103A800082E00E948A0440C980917605882309F467
:103A9000EECE80910806909109068B3A91050CF4C0
:103AA000E2CE8535A1E09A070CF0F1C280910401C5
:103AB000813009F4DCCE81E08093040180E091E064
:103AC00090939A058093990587E0E7E1F1E0D501AD
:103AD00001900D928A95E1F7E2E8F6E06591749124
:103AE0005401812F932D0E943629D4010D9000207E
:103AF000E9F71197E0E4F1E0822D01900D928A95AB
:103B0000E1F7612F732D82E00E948A04B0CE80918C
:103B10006E05882309F468CB809108069091090608
:103B2000823991050CF45BCB8432A1E09A070CF04A
:103B30003FC380910301813009F456CB81E080932B
:103B400003018BED90E090938A058093890587E0CF
:103B5000E7E1F1E0D50101900D928A95E1F78091BE
:103B6000030190E0880F991F8058994FFC016591DF
:103B700074915401812F932D0E943629D4010D9008
:103B80000020E9F7119788E0EDE3F1E001900D9254
:103B90008A95E1F7612F732D82E00E948A0424CB7D
:103BA00080917A05882311F40C943D1480910806C5
:103BB000909109060C94D7139091F4049F5F909311
:103BC000F4040C94D6158115924014F00C947714DB
:103BD0008091C205882311F40C9477141092C205C9
:103BE0000C9452148A3B91050CF08BC28091B6055F
:103BF000813011F40C949C0F81E08093B60587E02E
:103C0000E5E3F1E0D50101900D928A95E1F7EAE64E
:103C1000F6E0D7CE8F3F934014F00C949C0F809128
:103C2000DC0581110C949C0F81E08093DC0571CD43
:103C30008A39A1E09A070CF09CC28091CB058F3F96
:103C400011F40C949C0F2FEF2093CB0583E391E0AC
:103C500090938C0580938B0586E0E2E5F1E0D50139
:103C600001900D928A95E1F72F93FFC9811592403B
:103C700011F40C949C0F8091BF05882311F40C94CF
:103C80009C0F1092BF0587E0EDE9F1E0D5010190AE
:103C90000D928A95E1F78FE496E4A6E4B0E08F8375
:103CA0009887A987BA87D5010D900020E9F7119769
:103CB000E0E4F1E0822D01900D928A95E1F7B501E3
:103CC00085E00E948A040C949C0F1092F3041092D9
:103CD000B30510926B0510926C0510926D05109251
:103CE0006E05EAE0F1E06196AFAD61976296BFAD17
:103CF0006297822F01900D928A95E1F7BE016B5E6B
:103D00007F4F80E063962FAF639764963FAF6497D1
:103D10000E948A04E7E1F1E0D5018E2D01900D9219
:103D20008A95E1F78091030190E0880F991F8058F0
:103D3000994FFC0165917491A12EB32C812F932D85
:103D40000E943629D4010D900020E9F71197EDE388
:103D5000F1E08F2D01900D928A95E1F7612F732D7F
:103D600082E00E948A04EEE1F1E0A12FB32D8F2DB5
:103D700001900D928A95E1F74091E505842F9927EE
:103D800087FD90959F934F93A7E0B1E0BF93AF93CA
:103D90005BAD5F938AAD8F930E944129D4010D9052
:103DA0000020E9F71197EDE3F1E08F2D01900D92DE
:103DB0008A95E1F7E12FF32DDE01999664963FADE8
:103DC0006497832F01900D928A95E1F71DAA2D9893
:103DD00044985C985D9A5C9A5C985D985C9A5C9853
:103DE0005D985C9A5C985D985C9A5C985D985C9A2A
:103DF0005C985D985C9A5C985D985C9A5C985D981C
:103E00005C9A5C98449A2D9844985C985D985C9A6A
:103E10005C985D9A5C9A5C985D985C9A5C985D98F9
:103E20005C9A5C985D985C9A5C985D9A5C9A5C98E8
:103E30005D985C9A5C985D985C9A5C98449A89A5B8
:103E40000F900F900F900F900F900F9063962FADE3
:103E50006397882309F481C0DE019A962D9A4498CD
:103E60005C985D985C9A5C985D985C9A5C985D98AB
:103E70005C9A5C985D985C9A5C985D985C9A5C989A
:103E80005D985C9A5C985D985C9A5C985D985C9A89
:103E90005C98449A992787FD90958097FC01EE0FD6
:103EA000FF1FEE0FFF1FE80FF91FEE5EFC4F55E0FE
:103EB00041912D9A44985C98842F90E0880F892F27
:103EC000881F990B892B09F0D0C05D985C9A5C988B
:103ED00046FDBFC05D985C9A5C9845FDBFC05D988B
:103EE0005C9A5C9844FDBFC05D985C9A5C9843FD09
:103EF000AEC05D985C9A5C9842FDA7C05D985C9AE4
:103F00005C9841FDA0C05D985C9A5C9840FD99C0AA
:103F10005D985C9A5C98449A515051F62D9A449859
:103F20005C985D985C9A5C985D985C9A5C985D98EA
:103F30005C9A5C985D985C9A5C985D985C9A5C98D9
:103F40005D985C9A5C985D985C9A5C985D985C9AC8
:103F50005C98449A8D91811181CFE6E2F1E0A12F26
:103F6000B32D8F2D01900D928A95E1F74091E405D4
:103F7000842F992787FD90959F934F93A7E0B1E0F9
:103F8000BF93AF935BAD5F938AAD8F9363962FAF73
:103F9000639764963FAF64970E944129D4010D90C6
:103FA0000020E9F71197EDE3F1E08F2D01900D92DC
:103FB0008A95E1F7612F732D83E00E948A04EEE277
:103FC000F1E0A12FB32D8E2D01900D928A95E1F78E
:103FD0008091DC050F900F900F900F900F900F9035
:103FE00063962FAD639764963FAD6497811154C17A
:103FF0008FE496E4A6E4B0E08F839887A987BA8718
:10400000D4010D900020E9F71197EDE3F1E08F2D39
:1040100001900D928A95E1F7612F732D85E06396EB
:104020002FAF639764963FAF64970E948A04809194
:10403000B30563962FAD639764963FAD64970C9478
:10404000C40F5D9A66CF5D9A5FCF5D9A58CF5D9A37
:1040500051CF5D9A5C9A5C9845FF41CF5D9A5C9A1E
:104060005C9844FF41CF5D9A40CF5D9A2FCF8FE49B
:104070009EE4A0E089879A87AB870C94F4128FE4C2
:104080009EE4A0E08F839887A9870C9425138F3F27
:10409000B1E09B070CF007C180910401823009F464
:1040A000E6CB82E0809304018AEA91E090939A053E
:1040B0008093990587E0E7E1F1E0D50101900D9249
:1040C0008A95E1F7E4E8F6E009CD20E030E00C94D1
:1040D000CD1380E090E00C94881380E090E00C9485
:1040E000A81380E090E00C94681320E030E0AECBA1
:1040F00020E030E067C880E090E023C880E090E0F6
:104100003FC88731A1E09A070CF0EFC08091B60557
:10411000823011F40C949C0F82E08093B60587E006
:10412000E5E3F1E0D50101900D928A95E1F7ECE627
:10413000F6E047CC80E090E029CB863BB1E09B07DE
:104140000CF051C080910201823011F40C9484165D
:1041500082E0809302018DE691E069CC80E090E0FE
:1041600034CB80E090E00C94821880E090E00C94D6
:104170001C168736A2E09A070CF05CC08091CB0534
:10418000882311F40C949C0F1092CB0580E092E0F0
:1041900090938C0580938B0586E0E2E5F1E0D501F4
:1041A00001900D928A95E1F71F921F920C94361898
:1041B000863BB1E09B0744F580910301823011F406
:1041C0000C94F41882E0809303018DE691E0BBCC5F
:1041D00080E090E019CB8FE49EE4A0E089879A8785
:1041E000AB870C946714883422E092070CF0BBC0B4
:1041F00080910201833011F40C94841683E0809343
:1042000002018FEF91E013CC883422E092070CF08A
:10421000BBC080910301833011F40C94F41883E047
:10422000809303018FEF91E08ECC1092020189E41C
:1042300090E0FDCB8433A3E09A070CF0B6C08091E8
:10424000CB05813011F40C949C0F21E02093CB0519
:104250008DEC92E090938C0580938B0586E0E2E5EF
:10426000F1E0D50101900D928A95E1F71F920C942F
:1042700035181092040185E590E090939A0580939B
:10428000990587E0E7E1F1E0D50101900D928A956B
:10429000E1F7E0E8F6E022CC8FE49EE4A0E08F8333
:1042A0009887A987ADCE8A3A22E09207F4F58091EB
:1042B0000401833009F4DBCA83E08093040184E5C0
:1042C00092E090939A058093990587E0E7E1F1E009
:1042D000D50101900D928A95E1F7E6E8F6E0FECB74
:1042E0001092030189E490E02ECC8437B1E09B0763
:1042F0000CF06CC08091B605833011F40C949C0FC7
:1043000083E08093B60587E0E5E3F1E0D501019015
:104310000D928A95E1F7EEE6F6E053CB8FE49EE44A
:10432000A0E08F839887A98708CA843543E0940763
:104330000CF08EC080910401843009F498CA84E0A6
:10434000809304018FEF92E090939A0580939905F2
:1043500087E0E7E1F1E0D50101900D928A95E1F760
:10436000E8E8F6E0BBCB8A3D42E094070CF046C09B
:1043700080910201843011F40C94841684E08093BF
:10438000020181E992E053CB8A3D42E094070CF0B0
:104390007CC080910301843011F40C94F41884E003
:1043A0008093030181E992E0CECB8F3F934014F0DC
:1043B0000C949C0F8091CB05823011F40C949C0FCF
:1043C00022E02093CB058AE993E044CF813D21E0B0
:1043D00092072CF58091B605843011F40C949C0F53
:1043E00084E08093B60587E0E5E3F1E0D501019034
:1043F0000D928A95E1F7E0E7F6E0E3CA8C3653E0E8
:1044000095070CF052C080910201853011F40C9494
:10441000841685E08093020183E293E008CB8E321C
:1044200042E094070CF052C08091B605853011F43B
:104430000C949C0F55E05093B60587E0E5E3F1E05E
:10444000D50101900D928A95E1F7E2E7F6E0B9CA4D
:104450008F3F93400CF00BCA80910401863009F421
:1044600006CA86E08093040189EA93E090939A0556
:104470008093990587E0E7E1F1E0D50101900D9285
:104480008A95E1F7ECE8F6E029CB8C3653E0950706
:10449000ACF580910301853011F40C94F41885E09B
:1044A0008093030183E293E04ECB8F3F934014F05F
:1044B0000C94841680910201863011F40C948416B9
:1044C00086E08093020185EB93E0B1CA8B38A2E0CD
:1044D0009A072CF58091B605863011F40C949C0F48
:1044E00086E08093B60587E0E5E3F1E0D501019031
:1044F0000D928A95E1F7E4E7F6E063CA8F3F9340B7
:1045000014F00C94F41880910301863011F40C948B
:10451000F41886E08093030185EB93E014CB883E8A
:10452000B2E09B076CF48091B605873011F40C94CF
:104530009C0F87E08093B6050E94A50A0C949C0FFF
:10454000853423E092076CF48091B605883011F42D
:104550000C949C0F88E08093B6050E94A50A0C94E9
:104560009C0F823A43E094076CF48091B605893041
:1045700011F40C949C0F89E08093B6050E94A50A63
:104580000C949C0F8F3F934014F00C949C0F8091DF
:10459000B6058A3011F40C949C0F8AE08093B6051E
:1045A0000E94A50A0C949C0F1F920F920FB60F92B7
:1045B00011242F923F924F925F926F927F928F922F
:1045C0009F92AF92BF92CF92DF92EF92FF920F93A2
:1045D0002F933F934F935F936F937F938F939F930B
:1045E000AF93BF93EF93FF93CF93DF93CDB7DEB736
:1045F0002A97DEBFCDBF8091C60087FDBEC09091D7
:10460000FA05E92FF0E0E550FA4F808381E0890F49
:104610008093FA05833041F12A960FB6F894DEBFF5
:104620000FBECDBFDF91CF91FF91EF91BF91AF91C1
:104630009F918F917F916F915F914F913F912F91BA
:104640000F91FF90EF90DF90CF90BF90AF909F9031
:104650008F907F906F905F904F903F902F900F9032
:104660000FBE0F901F90189521E02093FA058091BE
:10467000FB05803909F488C0803871F68091FC050B
:10468000482F50E0455151095A874987FA01EA5F9E
:10469000FA4F108280910501882309F4A5C080910A
:1046A000DB05882309F4B8CF8091DA052091C10594
:1046B00090E0821709F411C2A985BA85A817B90735
:1046C00009F0AACF10C0E0910505FF27E7FDF0959E
:1046D000EA5FFA4F8081813009F431C2809105058B
:1046E0008150809305058091050587FFECCF1092DE
:1046F000C0058091050587FF0AC08ECF8091050512
:104700008150809305058091050587FD85CFE09157
:104710000505FF27E7FDF095EA5FFA4F80818130BC
:1047200069F7909105059093C10581E080935E053E
:104730008093C0058093DB058091E405E985FA85C7
:10474000E80FF11D87FDFA95EE0FFF1FEE0FFF1F1B
:10475000EC55FE4FC080D180E280F3808091CB0584
:10476000E091CC05FF27E7FDF095E90FF11D3CE056
:104770008302E00DF11D112404C1807F8093FB05AD
:1047800081E08093FA0548CF8091FD05882309F4E4
:1047900099C14091FC05842F90E04597FC01EA5FA8
:1047A000FA4F208320910505332727FD30952817E0
:1047B00039070CF482C18BEE840F90910501992387
:1047C00009F4B3C09091DB058093C105992309F4E6
:1047D0007DC12091DA05281708F07CC12093C1051E
:1047E0008093DA05922FABC08091DA0590E04817EC
:1047F000590709F011CF10925E051092C005109272
:10480000DB058091050587FD07CF09C0809105056F
:104810008150809305058091050587FDFDCEE091CF
:104820000505FF27E7FDF095EA5FFA4F80818130AB
:1048300069F7E0910505E093C105E093DA0581E0B1
:1048400080935E058093C0058093DB05F0E0809146
:10485000E405DF01A80FB11D87FDBA95AA0FBB1FA4
:10486000AA0FBB1FAC55BE4FCD90DD90ED90FC90D4
:104870008091CB059091CC05E90FF11D97FDFA953C
:104880005CE08502E00DF11D1124EE0FFF1FEE0F1D
:10489000FF1FEC55FE4F80809180A280B380209155
:1048A000E50587E2280290011124442737FD409551
:1048B000542FC701B6010E94542800E10E94F92834
:1048C00029833A834B835C8329813A814B815C81C4
:1048D000C20ED31EE41EF51EC092F605D092F70557
:1048E000E092F805F092F9052091CD0547E2240207
:1048F00090011124442737FD4095542FC501B40180
:104900000E9454280E94F92829833A834B835C83B0
:104910006D837E838F83988789819A81AB81BC81E7
:10492000880E991EAA1EBB1E7BC08093DA05809359
:10493000C10591E09093C0059093DB05982F21E08D
:1049400020935E05E091E405FF27E7FDF095E80F71
:10495000F11DEE0FFF1FEE0FFF1FEC55FE4FC08045
:10496000D180E280F3808091CB05E091CC05FF27D8
:10497000E7FDF095E90FF11D2CE08202E00DF11D3D
:104980001124EE0FFF1FEE0FFF1FEC55FE4F80802E
:104990009180A280B3802091E50547E22402900136
:1049A0001124442737FD4095542FC701B6010E94BA
:1049B000542800E10E94F92829833A834B835C83C1
:1049C00089819A81AB81BC81C80ED91EEA1EFB1E6B
:1049D000C092F605D092F705E092F805F092F9053D
:1049E0002091CD0597E2290290011124442737FD3B
:1049F0004095542FC501B4010E9454280E94F92803
:104A000029833A834B835C836D837E838F8398876E
:104A100029813A814B815C81820E931EA41EB51EB2
:104A20008092D6059092D705A092D805B092D9056C
:104A300040906705509068056090690570906A0520
:104A4000C701B601A30192010E9454280E94F928CF
:104A5000C901DA018093E6059093E705A093E80584
:104A6000B093E905C501B401A30192010E94542845
:104A70000E94F928C901DA018093CE059093CF05F1
:104A8000A093D005B093D1056091B7057091B8059A
:104A90008091B9059091BA05A30192010E94542812
:104AA0000E94F928C901DA018093BB059093BC05E7
:104AB000A093BD05B093BE05AFCD8BEE840F809360
:104AC00005057BCE80E88093FB05D8CD8093DA0581
:104AD000982F35CF982F822F32CF4817590709F0DA
:104AE0009BCD10925E051092C0051092DB0580915F
:104AF000050587FD91CD09C0809105058150809302
:104B000005058091050587FD87CDE0910505FF2707
:104B1000E7FDF095EA5FFA4F8081813069F7809177
:104B200005058093C1058093DA0581E080935E05D9
:104B30008093C0058093DB050E949F036DCD20907C
:104B400005052092DA0581E080935E058093C0051B
:104B50008093DB05312C8091E405F101E80FF11D14
:104B600087FDFA95EE0FFF1FEE0FFF1FEC55FE4F6E
:104B700080809180A280B3808091CB05E091CC05AC
:104B8000FF27E7FDF095E20FF11DBCE08B02E00D81
:104B9000F11D1124EE0FFF1FEE0FFF1FEC55FE4F0E
:104BA000C080D180E280F3802091E505E7E22E020B
:104BB00090011124442737FD4095542FC501B401BD
:104BC0000E94542800E10E94F92829833A834B83EC
:104BD0005C8349805A806B807C80480C591C6A1C1D
:104BE0007B1C4092F6055092F7056092F805709292
:104BF000F9052091CD05F7E22F02900111244427F9
:104C000037FD4095542FC701B6010E9454280E94D9
:104C1000F92829833A834B835C836D837E838F835A
:104C2000988789809A80AB80BC808C0C9D1CAE1CC0
:104C3000BF1C8092D6059092D705A092D805B0925D
:104C4000D905C0906705D0906805E0906905F0909F
:104C50006A05C301B201A70196010E9454280E946F
:104C6000F928C901DA018093E6059093E705A0933E
:104C7000E805B093E905C501B401A70196010E94BA
:104C800054280E94F928C901DA018093CE05909337
:104C9000CF05A093D005B093D1056091B705709171
:104CA000B8058091B9059091BA05A70196010E94B7
:104CB00054280E94F928C901DA018093BB0590931A
:104CC000BC05A093BD05B093BE0529853A85221584
:104CD000330509F40CCDA0CC1F920F920FB60F92A2
:104CE00011242F933F934F938F939F93EF93FF93B1
:104CF00040910A06842F90E020917800309179004D
:104D0000FC01EE0FFF1FEE5FF94F31832083FC01A2
:104D1000E250FA4F21E020834F5F443088F0109238
:104D20000A0640E040937C00FF91EF919F918F91A4
:104D30004F913F912F910F900FBE0F901F9018959C
:104D400040930A06EFCF1F920F920FB60F921124D5
:104D50002F933F934F935F936F937F938F939F9383
:104D6000AF93BF93EF93FF93CF93DF9300D000D027
:104D7000CDB7DEB780915E05882309F406C1809126
:104D8000EE059091EF05A091F005B091F1058093AB
:104D9000EA059093EB05A093EC05B093ED058091A7
:104DA000F2059091F305A091F405B091F50580937B
:104DB000EE059093EF05A093F005B093F1054091B7
:104DC000E6055091E7056091E8057091E90580914D
:104DD000F2059091F305A091F405B091F505840FCB
:104DE000951FA61FB71F8093F2059093F305A0931C
:104DF000F405B093F5054091CE055091CF05609133
:104E0000D0057091D1058091D2059091D305A091E4
:104E1000D405B091D505840F951FA61FB71F8093A9
:104E2000D2059093D305A093D405B093D505809176
:104E30000001909101019C013695279580FDCEC01F
:104E400030930101209300018091DF059091E005EE
:104E50009093DE058093DD058091E1059091E20558
:104E60009093E0058093DF05E09103019091F405B4
:104E70008091E305890FF0E0EE0FFF1FEC5FFC4F20
:104E80000190F081E02DE80FF11DE859FF4FE4910A
:104E9000F0E0F093E205E093E105809103018530B5
:104EA00009F49FC08091C2058823C1F08091F0056C
:104EB0004091EC05841790F4891780F48091F205F5
:104EC0009091F305A091F405B091F5058093D2057A
:104ED0009093D305A093D405B093D505E09102013A
:104EE0008091CA059091D405890FF0E0EE0FFF1F65
:104EF000EC5FFC4F0190F081E02DE80FF11DE859C7
:104F0000FF4FE491F0E0F093C805E093C70580916E
:104F10000201853009F45DC019821A821B821C824D
:104F20002091E1053091E20540910601429FC001C8
:104F3000439F900D11249093E2058093E105209109
:104F4000C7053091C8054091C905429FC001439FE4
:104F5000900D11249093C8058093C7058091BF05DB
:104F60002091E1053091E205811126C08091C705AD
:104F70009091C805820F931FA0E0B0E089839A83C7
:104F8000AB83BC838A818093B3000F900F900F9006
:104F90000F90DF91CF91FF91EF91BF91AF919F91D2
:104FA0008F917F916F915F914F913F912F910F90D2
:104FB0000FBE0F901F9018958091C7059091C8055E
:104FC00082279327A0E0B0E089839A83AB83BC83D8
:104FD000D9CF3093C8052093C7059ECF84EB3827DF
:104FE0002FCF3093E2052093E1058091C2058823FD
:104FF00009F474CF5BCFDF93CF931F930F939A9DE8
:10500000F02D219FF00D8B9DF00D8A9DE02DF10D6F
:10501000039FF00D029FE00DF11D4E9DE00DF11D6F
:105020005E9DF00D4F9DF00D7F936F93BF92AF92F9
:105030005F934F93D5010E9427298B01AC01D701C3
:105040000E942729EB01E80FF91FD6010E944B2887
:105050002F913F91D6010E942729C60FD71FE81F25
:10506000F91FAF91BF910E944B282F913F910E9451
:105070002729C60FD71FE81FF91FD6010E9427292D
:10508000E60FF71F9801BE01CF0111240F911F9168
:10509000CF91DF9108950E942729460F571FC81FFF
:1050A000D91F08F431960895E894DF93CF93FC015B
:1050B000DB010E9427297F936F93E9019A01AC01DC
:1050C000BF93AF933F932F93DF010E94272926F4CC
:1050D0006C1B7D0B820B930B9E01EB01FC010E946C
:1050E0004B28AF91BF912F913F910E944B28BE0159
:1050F000CF01F9012F913F91CF91DF9108956894ED
:1051000001C0E8948F929F92CF93DF930E948D28E5
:10511000DF91CF919F908F90089588249924F40176
:10512000E401B0E49F93AA279A158B049C04ED0533
:10513000FE05CF05D007A10798F4AD2FDC2FCF2FA8
:10514000FE2FE92D982C892E982F872F762F652FEB
:10515000542F432F322F2227B85031F7BF9127C049
:105160001B2EBF91BB27220F331F441F551F661FE5
:10517000771F881F991F881C991CEE1FFF1FCC1FCB
:10518000DD1FAA1FBB1F8A149B04EC05FD05CE057D
:10519000DF05A007B10748F08A189B08EC09FD0954
:1051A000CE09DF09A00BB10B21601A94E1F62EF4B1
:1051B0009401AF01BE01CD01000C08950F9308309A
:1051C00090F0982F872F762F652F542F432F322F53
:1051D00022270850F4CF220F331F441F551F661F8C
:1051E000771F881F991F0A95B2F70F91089597FBB3
:1051F00010F8169400080F93083098F00850232FE9
:10520000342F452F562F672F782F892F902DF4CFCD
:105210000594979587957795679557954795379511
:1052200027950A95AAF70F9108952A0D3B1D4C1D4D
:105230005D1D6E1D7F1D801F911F08952A193B095A
:105240004C095D096E097F09800B910B0895A29F9F
:10525000B001B39FC001A39F700D811D1124911D4A
:10526000B29F700D811D1124911D0895FB01DC0179
:105270000D900020E9F7119705900D920020E1F7BD
:105280000895AEE0B0E0E7E4F9E20C94E92B0D8973
:105290001E8986E08C831A8309838FEF9FE79E83A4
:1052A0008D83AE01475E5F4F6F89788DCE01019689
:1052B0000E946329EF81F885E00FF11F10822E967E
:1052C000E4E00C94052CACE0B0E0E9E6F9E20C94E3
:1052D000DB2B7C016B018A01FC0117821682838122
:1052E00081FFBDC1CE0101964C01F7019381F6010A
:1052F00093FD859193FF81916F01882309F4ABC1E0
:10530000853239F493FD859193FF81916F01853248
:1053100029F4B70190E00E944B2BE7CF512C312CA0
:1053200020E02032A0F48B3269F030F4803259F062
:10533000833269F420612CC08D3239F0803339F426
:10534000216026C02260246023C0286021C027FD80
:1053500027C030ED380F3A3078F426FF06C0FAE067
:105360005F9E300D1124532E13C08AE0389E300DFD
:105370001124332E20620CC08E3221F426FD6BC125
:10538000206406C08C3611F4206802C0883641F4CF
:10539000F60193FD859193FF81916F018111C1CF3A
:1053A000982F9F7D9554933028F40C5F1F4FFFE397
:1053B000F9830DC0833631F0833771F0833509F0FE
:1053C0005BC022C0F801808189830E5F1F4F442497
:1053D0004394512C540115C03801F2E06F0E711C3A
:1053E000F801A080B18026FF03C0652D70E002C0E7
:1053F0006FEF7FEFC5012C870E94402B2C018301AA
:105400002C852F77222E17C03801F2E06F0E711C09
:10541000F801A080B18026FF03C0652D70E002C0B6
:105420006FEF7FEFC5012C870E94352B2C012C8557
:105430002068222E830123FC1BC0832D90E0481698
:105440005906B0F4B70180E290E00E944B2B3A94E9
:10545000F4CFF50127FC859127FE81915F01B7010B
:1054600090E00E944B2B31103A94F1E04F1A510812
:105470004114510471F7E5C0843611F0893639F5CD
:10548000F80127FF07C060817181828193810C5FE1
:105490001F4F08C060817181882777FD8095982F04
:1054A0000E5F1F4F2F76B22E97FF09C09095809503
:1054B000709561957F4F8F4F9F4F2068B22E2AE0E5
:1054C00030E0A4010E947D2BA82EA81844C0853787
:1054D00029F42F7EB22E2AE030E025C0F22FF97F8A
:1054E000BF2E8F36C1F018F4883579F0B4C08037FC
:1054F00019F0883721F0AFC02F2F2061B22EB4FEF3
:105500000DC08B2D8460B82E09C024FF0AC09F2FC8
:105510009660B92E06C028E030E005C020E130E0FA
:1055200002C020E132E0F801B7FE07C0608171815E
:10553000828193810C5F1F4F06C06081718180E082
:1055400090E00E5F1F4FA4010E947D2BA82EA8188B
:10555000FB2DFF77BF2EB6FE0BC02B2D2E7FA51483
:1055600050F4B4FE0AC0B2FC08C02B2D2E7E05C03C
:105570007A2C2B2D03C07A2C01C0752C24FF0DC072
:10558000FE01EA0DF11D8081803311F4297E09C0EE
:1055900022FF06C07394739404C0822F867809F0AA
:1055A000739423FD13C020FF06C05A2C731418F403
:1055B000530C5718732C731468F4B70180E290E011
:1055C0002C870E944B2B73942C85F5CF731410F409
:1055D000371801C0312C24FF12C0B70180E390E0DE
:1055E0002C870E944B2B2C8522FF17C021FF03C064
:1055F00088E590E002C088E790E0B7010CC0822FF8
:10560000867859F021FD02C080E201C08BE227FDBF
:105610008DE2B70190E00E944B2BA51438F4B7013E
:1056200080E390E00E944B2B5A94F7CFAA94F401A8
:10563000EA0DF11D8081B70190E00E944B2BA11073
:10564000F5CF332009F451CEB70180E290E00E94FB
:105650004B2B3A94F6CFF7018681978102C08FEFEA
:105660009FEF2C96E2E10C94F72BFC010590615022
:1056700070400110D8F7809590958E0F9F1F089568
:10568000FC016150704001900110D8F78095909511
:105690008E0F9F1F08950F931F93CF93DF93182FA3
:1056A000092FEB018B8181FD03C08FEF9FEF20C09D
:1056B00082FF10C04E815F812C813D8142175307CC
:1056C0007CF4E881F9819F012F5F3F4F3983288364
:1056D000108306C0E885F985812F0995892B29F764
:1056E0002E813F812F5F3F4F3F832E83812F902F4D
:1056F000DF91CF911F910F910895FA01AA272830C9
:1057000051F1203181F1E8946F936E7F6E5F7F4F8E
:105710008F4F9F4FAF4FB1E03ED0B4E03CD0670F0A
:10572000781F891F9A1FA11D680F791F8A1F911D5D
:10573000A11D6A0F711D811D911DA11D20D009F4AD
:1057400068943F912AE0269F11243019305D3193EF
:10575000DEF6CF010895462F4770405D4193B3E0D8
:105760000FD0C9F7F6CF462F4F70405D4A3318F07F
:10577000495D31FD4052419302D0A9F7EACFB4E030
:10578000A6959795879577956795BA95C9F70097E8
:105790006105710508959B01AC010A2E0694579589
:1057A000479537952795BA95C9F7620F731F841FE0
:1057B000951FA01D08952F923F924F925F926F9276
:1057C0007F928F929F92AF92BF92CF92DF92EF9291
:1057D000FF920F931F93CF93DF93CDB7DEB7CA1B12
:1057E000DB0B0FB6F894DEBF0FBECDBF09942A883D
:1057F000398848885F846E847D848C849B84AA84E5
:10580000B984C884DF80EE80FD800C811B81AA8171
:10581000B981CE0FD11D0FB6F894DEBF0FBECDBF3C
:08582000ED010895F894FFCF9B
:10582800E1AC03020601FF256400204F53433120F9
:105838004354524C2E2000574156453A20004345C8
:105848004E54533A200053454D49533A200053597A
:105858004E433A2000525554453A2000202020203B
:105868002020202000204F534332204354524C2EF6
:1058780020004F43543A2000204C464F20204354E8
:10588800524C2E2000465245513A2000445054486C
:105898003A20004D4958494E47204354524C2E0057
:1058A800574549474854313A2000574549474854D5
:1058B800323A200053594E4320323A200052494E82
:1058C800473A200000801B004E211D0021DE1E00EB
:1058D80004B42000D6A5220046B5240012E4260010
:1058E800123429004BA72B00D23F2E00D8FF3000DE
:1058F800C0E93300000037009C423A0042BC3D003A
:1059080008684100AC4B45008C6A490024C84D002A
:1059180024685200964E5700A47F5C00B0FF6100D7
:1059280080D3670000006E003885740084787B009F
:1059380010D0820058978A0018D5920048909B0092
:1059480048D0A4002C9DAE0048FFB80060FFC300FB
:1059580000A7CF000000DC00700AE90008F1F6009B
:1059680020A00501B02E150130AA2501902037018D
:1059780090A049015E3A5D0190FE7101C0FE870169
:10598800004E9F010000B801E014D20110E2ED01C1
:1059980040400B02605D2A0260544B0220416E02B7
:1059A80020419302B074BA0220FDE30280FD0F0388
:1059B800009C3E0300007003C029A40320C4DB033D
:1059C80080801604C0BA5404C0A896044082DC043F
:1059D8004082260560E9740540FAC70500FB1F06EA
:1059E80000387D060000E006805348074088B70766
:1059F80000012D088075A90880512D098094B009EF
:105A080080044D0AC0D2E90A80F48F0B00F63F0CDF
:105A18000070FA0C0000C00D00A7900E80106F0FE8
:105A280000025A10000000010002000300040000F8
:105A38000005000000000000005F000000070007EC
:105A480000147F147F14242A7F2A12231308646207
:105A580036495522500005030000001C2241000071
:105A680041221C0014083E081408083E080800508B
:105A780030000008080808080060600000201008CE
:105A880004023E5149453E00427F4000426151496F
:105A9800462141454B311814127F10274545453999
:105AA8003C4A4949300171090503364949493606D6
:105AB8004949291E003636000000563600000814F1
:105AC8002241001414141414004122140802015134
