S010000053796E74684C43442E737265632B
S11300000C9476030C9493030C9493030C94930331
S11300100C9493030C9493030C9493030C94930304
S11300200C9493030C94A91F0C9493030C949303C2
S11300300C9493030C9493030C9493030C949303E4
S11300400C9493030C9493030C943A1F0C94930311
S11300500C9493030C94721F0C9493030C949303C9
S11300600C9493030C94930300000000010101021B
S113007002030405050607090A0B0C0E0F101214DF
S11300801517191B1D1F212325272A2C2E31333622
S1130090383B3E404346494C4E5154575A5D606389
S11300A066696C6F7376797C7F8285888B8F929575
S11300B0989B9EA1A4A7AAADB0B2B5B8BBBEC0C35D
S11300C0C6C8CBCDD0D2D4D7D9DBDDDFE1E3E5E7B9
S11300D0E9EAECEEEFF0F2F3F4F5F7F8F9F9FAFBEC
S11300E0FCFCFDFDFDFEFEFEFEFEFEFEFDFDFDFC38
S11300F0FCFBFAF9F9F8F7F5F4F3F2F0EFEEECEAB9
S1130100E9E7E5E3E1DFDDDBD9D7D4D2D0CDCBC855
S1130110C6C3C0BEBBB8B5B2B0ADAAA7A4A19E9BCE
S11301209895928F8B8885827F7C7976736F6C69C2
S11301306663605D5A5754514E4C494643403E3BBA
S1130140383633312E2C2A272523211F1D1B19173E
S1130150151412100F0E0C0B0A09070605050403EB
S113016002020101010000008081838587898B8D53
S113017090929496989A9D9FA1A4A6A8AAADAFB177
S1130180B3B5B7B9BBBDBFC1C3C5C6C8CACCCED051
S1130190D2D5D7D9DCDEE0E3E5E8EAEDEFF1F4F619
S11301A0F8F9FBFCFDFEFFFFFFFFFEFEFDFBFAF886
S11301B0F7F5F3F0EEECE9E7E4E2DFDDDAD8D6D4E4
S11301C0D1CFCDCBC9C7C5C4C2C0BEBCBAB8B6B402
S11301D0B2B0AEABA9A7A5A2A09E9C999795939106
S11301E08E8C8A88868482807F7D7B797775737113
S11301F06E6C6A686663615F5D5A585654514F4D20
S11302004B49474543413F3D3B3A38363432302E23
S11302102B29272522201D1B181613110F0C0A0841
S1130220070504020101000000000102030406079F
S1130230090B0E101215171A1C1F212326282A2D0C
S11302402F31333537393A3C3E40424446484A4CD4
S11302504E50525557595B5E60626567696B6D6FAE
S1130260727476787A7C7E7F57575757575656550F
S1130270545351504E4D4B494745444241403F3EF3
S11302803D3D3D3D3D3D3D3D3D3D3D3D3C3C3B39A2
S113029038373533312F2E2C2A2927262525242497
S11302A024242525262627272727272726252322F2
S11302B0201E1C1A181614131110100F0F101112EF
S11302C0131517181A1C1D1E1E1F1E1D1C1A181587
S11302D0120F0C0806030100000103060B1118217C
S11302E02B3642505E6C7B8A99A7B5C2CFDAE3EC19
S11302F0F3F8FCFEFFFFFDFAF6F2EDE8E2DCD7D1FD
S1130300CCC8C4C1BEBCBAB9B9B9B9B9BABABBBB15
S1130310BBBBBABAB8B7B5B3B0ADABA8A5A29F9DE5
S11303209B99979694949393939393939393939382
S11303309291908F8E8C8A88868482807E7C7A7952
S1130340777675757474747373737373737372726D
S113035071706F6D6C6A68666462615F5D5C5B5A44
S11303605958585757575757A8A8A8A8A8A9A9AA89
S1130370ABACAEAFB1B2B4B6B8BABBBDBEBFC0C110
S1130380C2C2C2C2C2C2C2C2C2C2C2C2C3C3C4C641
S1130390C7C8CACCCED0D1D3D5D6D8D9DADADBDB2C
S11303A0DBDBDADAD9D9D8D8D8D8D8D8D9DADCDDB1
S11303B0DFE1E3E5E7E9EBECEEEFEFF0F0EFEEED94
S11303C0ECEAE8E7E5E3E2E1E1E0E1E2E3E5E7EADC
S11303D0EDF0F3F7F9FCFEFFFFFEFCF9F4EEE7DEC7
S11303E0D4C9BDAFA193847566584A3D30251C130A
S11303F00C07030100000205090D12171D23282E06
S113040033373B3E414345464646464645454444CC
S11304104444454547484A4C4F5254575A5D6062DC
S1130420646668696B6B6C6C6C6C6C6C6C6C6C6C1F
S11304306D6E6F7071737577797B7D7F818385862F
S113044088898A8A8B8B8B8C8C8C8C8C8C8C8D8DF4
S11304508E8F9092939597999B9D9EA0A2A3A4A5FD
S1130460A6A7A7A8A8A8A8A87F8D9AA7B4C0CBD5EB
S1130470DEE6EDF3F7FBFDFFFFFFFDFBF9F6F3F01E
S1130480EDEAE8E5E3E2E0E0E0E0E1E2E3E5E7E924
S1130490EBEDEFF0F2F3F4F4F4F4F3F3F1F0EEED4A
S11304A0EBE9E8E6E5E4E3E3E3E3E4E4E6E7E8EAEA
S11304B0ECEEEFF1F2F3F4F4F4F4F3F2F1EFEEEC2A
S11304C0EAE8E6E4E2E1E0E0E0E0E1E2E4E6E9ECE7
S11304D0EFF2F5F8FAFCFEFFFFFEFCF9F5F0EAE2B4
S11304E0D9D0C5BAAEA19486796B5E51453A2F2610
S11304F01D150F0A0603010000010305070A0D106C
S11305001316191B1D1E1F1F1F1F1E1D1B19171538
S11305101311100E0D0C0B0B0B0B0C0D0E101113F5
S1130520151718191B1B1C1C1C1C1B1A1917161435
S113053012110F0E0C0C0B0B0B0B0C0D0F101214D5
S113054016181A1C1D1E1F1F1F1F1D1C1A171512FB
S11305500F0C090604020000000204080C12192101
S11305602A343F4B5865727F0000000000000000F1
S11305700000000000000000000000000000000077
S11305800000000000000000000000000000000067
S11305900000000000000000000000000000000057
S11305A00000000000000000000000000000000047
S11305B00000000000000000000000000000000037
S11305C00000000000000000000000000000000027
S11305D00000000000000000000000000000000017
S11305E00000000000000000000000000000000007
S11305F000000000000000000000000000000000F7
S113060000000000000000000000000000000000E6
S113061000000000000000000000000000000000D6
S113062000000000000000000000000000000000C6
S113063000000000000000000000000000000000B6
S113064000000000000000000000000000000000A6
S11306500000000000000000000000000000000096
S11306600000000000000000C506C006B906B2067E
S1130670AB06A4069D06960690068A06E706E306E0
S1130680DE06D906D506CF06CA06574156453200BE
S11306905741564531005048415345320050484176
S11306A05345310053454D4953320053454D495349
S11306B0310043454E5453320043454E54533100A8
S11306C04F534332004F53433100464C4154004E84
S11306D04F495345005351550052534157004C5311
S11306E04157005452490053494E450011241FBE3E
S11306F0CFEFD8E0DEBFCDBF14E0A0E0B1E0E6ED7F
S1130700F9E402C005900D92A03FB107D9F725E0A6
S1130710A0EFB4E001C01D92A939B207E1F70E942D
S1130720E10D0C94E9240C940000CF93DF93CDB732
S1130730DEB72D970FB6F894DEBF0FBECDBF9CE099
S1130740FB01DE01119601900D929A95E1F71D8649
S11307502D9844985C985D9A5C9A5C985D985C9A34
S11307605C985D985C9A5C985D985C9A5C985D98DE
S11307705C9A5C985D985C9A5C985D985C9A5C98CD
S11307805D985C9A5C98449A2D98449880645C982F
S1130790282F30E0A901440F452F441F550B452B4A
S11307A009F0D6C05D985C9A5C9826FDCFC05D9830
S11307B05C9A5C9825FDC8C05D985C9A5C9824FDA1
S11307C0C1C05D985C9A5C9823FDBAC05D985C9A40
S11307D05C9822FDB3C05D985C9A5C9821FDACC026
S11307E05D985C9A5C9880FFA5C05D9A5C9A5C9861
S11307F0449A8981882309F481C0DE0112962D9AD6
S113080044985C985D985C9A5C985D985C9A5C9856
S11308105D985C9A5C985D985C9A5C985D985C9A2B
S11308205C985D985C9A5C985D985C9A5C985D981D
S11308305C9A5C98449A992787FD90958097FC016F
S1130840EE0FFF1FEE0FFF1FE80FF91FE05FFC4FD5
S113085035E021912D9A44985C98822F90E0880F7E
S1130860892F881F990B892B09F05DC05D985C9ACC
S11308705C9826FD5DC05D985C9A5C9825FD51C02E
S11308805D985C9A5C9824FD4AC05D985C9A5C987B
S113089023FD43C05D985C9A5C9822FD3CC05D9842
S11308A05C9A5C9821FD35C05D985C9A5C9820FD4B
S11308B02EC05D985C9A5C98449A315051F62D9AFA
S11308C044985C985D985C9A5C985D985C9A5C9896
S11308D05D985C9A5C985D985C9A5C985D985C9A6B
S11308E05C985D985C9A5C985D985C9A5C985D985D
S11308F05C9A5C98449A8D91811181CF2D960FB6A4
S1130900F894DEBF0FBECDBFDF91CF9108955D9AFD
S1130910D1CF5D9ACACF5D9AC3CF5D9ABCCF5D9AA1
S1130920B5CF5D9AAECF5D9A5C9A5C9826FFA3CF53
S11309305D9AA2CF5D985ACF5D9A53CF5D9A4CCF02
S11309405D9A45CF5D9A3ECF5D9A37CF5D9A30CFA1
S11309505D9A29CFEF92FF920F931F93CF93DF936A
S1130960CDB7DEB7E5970FB6F894DEBF0FBECDBFA7
S11309708DE0EBE0F1E0DE01559601900D928A9551
S1130980E1F78CE0FE0175968E010F5F1F4FD801D1
S113099001900D928A95E1F71D862D9844985C98F4
S11309A05D9A5C9A5C985D985C9A5C985D985C9A98
S11309B05C985D985C9A5C985D985C9A5C985D988C
S11309C05C9A5C985D985C9A5C985D985C9A5C987B
S11309D0449A2D9844985C985D985C9A5C985D9ACA
S11309E05C9A5C985D985C9A5C985D985C9A5C985B
S11309F05D985C9A5C985D985C9A5C985D985C9A4A
S1130A005C985D985C9A5C98449A8981882309F47F
S1130A1082C0DE0112962D9A44985C985D985C9A87
S1130A205C985D985C9A5C985D985C9A5C985D981B
S1130A305C9A5C985D985C9A5C985D985C9A5C980A
S1130A405D985C9A5C985D985C9A5C98449A992746
S1130A5087FD90958097FC01EE0FFF1FEE0FFF1F9F
S1130A60E80FF91FE05FFC4F30E021912D9A449884
S1130A705C98822F90E0880F892F881F990B892B0F
S1130A8009F060C45D985C9A5C9826FD60C45D982A
S1130A905C9A5C9825FD54C45D985C9A5C9824FD2E
S1130AA04DC45D985C9A5C9823FD46C45D985C9A3D
S1130AB05C9822FD3FC45D985C9A5C9821FD38C423
S1130AC05D985C9A5C9820FD2FC45D985C9A5C9854
S1130AD0449A3F5F353049F62D9A44985C985D9866
S1130AE05C9A5C985D985C9A5C985D985C9A5C985A
S1130AF05D985C9A5C985D985C9A5C985D985C9A49
S1130B005C985D985C9A5C985D985C9A5C98449A51
S1130B108D91811180CF87E0E8E1F1E0D801019067
S1130B200D928A95E1F7E0910301F0E0EE0FFF1FCB
S1130B30E458F94F659174918E010F5F1F4FC801FE
S1130B400E940D22D8010D900020E9F7119788E04A
S1130B50E2E4F1E001900D928A95E1F78CE0F8016E
S1130B60DE01999601900D928A95E1F71DAA2D98C0
S1130B7044985C985D9A5C9A5C985D985C9A5C98E1
S1130B805D985C9A5C985D985C9A5C985D985C9AB8
S1130B905C985D985C9A5C985D985C9A5C985D98AA
S1130BA05C9A5C98449A2D9844985C985D985C9AF9
S1130BB05C985D9A5C9A5C985D985C9A5C985D9888
S1130BC05C9A5C985D985C9A5C985D985C9A5C9879
S1130BD05D9A5C9A5C985D985C9A5C98449A89A545
S1130BE0882309F481C0DE019A962D9A44985C9872
S1130BF05D985C9A5C985D985C9A5C985D985C9A48
S1130C005C985D985C9A5C985D985C9A5C985D9839
S1130C105C9A5C985D985C9A5C985D985C9A5C9828
S1130C20449A992787FD90958097FC01EE0FFF1F4A
S1130C30EE0FFF1FE80FF91FE05FFC4F35E0219135
S1130C402D9A44985C98822F90E0880F892F881FF2
S1130C50990B892B09F06AC35D985C9A5C9826FD10
S1130C6061C35D985C9A5C9825FD5AC35D985C9A53
S1130C705C9824FD53C35D985C9A5C9823FD4CC337
S1130C805D985C9A5C9822FD45C35D985C9A5C987B
S1130C9021FD3EC35D985C9A5C9820FD37C35D9846
S1130CA05C9A5C98449A315051F62D9A44985C9819
S1130CB05D985C9A5C985D985C9A5C985D985C9A87
S1130CC05C985D985C9A5C985D985C9A5C985D9879
S1130CD05C9A5C985D985C9A5C985D985C9A5C9868
S1130CE0449A8D91811181CF88E0EFE1F1E0D80140
S1130CF001900D928A95E1F720917B05822F992727
S1130D0087FD90959F932F9388E091E09F938F9315
S1130D107E0188E0E80EF11CFF92EF920E941822F7
S1130D20D8010D900020E9F7119788E0E2E4F1E0A2
S1130D3001900D928A95E1F78CE0F801DE01999615
S1130D4001900D928A95E1F71DAA2D9844985C981C
S1130D505D9A5C9A5C985D985C9A5C985D985C9AE4
S1130D605C985D985C9A5C985D985C9A5C985D98D8
S1130D705C9A5C985D985C9A5C985D985C9A5C98C7
S1130D80449A2D9844985C985D985C9A5C985D9A16
S1130D905C9A5C985D985C9A5C985D985C9A5C98A7
S1130DA05D985C9A5C985D9A5C9A5C985D985C9A94
S1130DB05C985D985C9A5C98449A89A50F900F9012
S1130DC00F900F900F900F90882309F482C0DE01DA
S1130DD09A962D9A44985C985D985C9A5C985D9874
S1130DE05C9A5C985D985C9A5C985D985C9A5C9857
S1130DF05D985C9A5C985D985C9A5C985D985C9A46
S1130E005C985D985C9A5C98449A992787FD9095C4
S1130E108097FC01EE0FFF1FEE0FFF1FE80FF91F75
S1130E20E05FFC4F30E021912D9A44985C98822F2A
S1130E3090E0880F892F881F990B892B09F05AC2DB
S1130E405D985C9A5C9826FD5AC25D985C9A5C98A1
S1130E5025FD5AC25D985C9A5C9824FD49C25D9850
S1130E605C9A5C9823FD42C25D985C9A5C9822FD72
S1130E703BC25D985C9A5C9821FD34C25D985C9A93
S1130E805C9820FD29C25D985C9A5C98449A3F5F07
S1130E90353049F62D9A44985C985D985C9A5C9834
S1130EA05D985C9A5C985D985C9A5C985D985C9A95
S1130EB05C985D985C9A5C985D985C9A5C985D9887
S1130EC05C9A5C985D985C9A5C98449A8D918111C7
S1130ED080CF88E0E7E2F1E0D80101900D928A9595
S1130EE0E1F720917A05822F992787FD90959F93AA
S1130EF02F9388E091E09F938F93FF92EF920E944B
S1130F001822D8010D900020E9F7119788E0E2E457
S1130F10F1E001900D928A95E1F78CE0F801DE0191
S1130F20999601900D928A95E1F71DAA2D984498FF
S1130F305C985D9A5C9A5C985D985C9A5C985D9804
S1130F405C9A5C985D985C9A5C985D985C9A5C98F5
S1130F505D985C9A5C985D985C9A5C985D985C9AE4
S1130F605C98449A2D9844985C985D985C9A5C9837
S1130F705D9A5C9A5C985D985C9A5C985D985C9AC2
S1130F805C985D985C9A5C985D985C9A5C985D9AB4
S1130F905C9A5C985D9A5C9A5C98449A89A50F90D7
S1130FA00F900F900F900F900F90882309F482C038
S1130FB0DE019A962D9A44985C985D985C9A5C98A8
S1130FC05D985C9A5C985D985C9A5C985D985C9A74
S1130FD05C985D985C9A5C985D985C9A5C985D9866
S1130FE05C9A5C985D985C9A5C98449A992787FD12
S1130FF090958097FC01EE0FFF1FEE0FFF1FE80F87
S1131000F91FE05FFC4F90E081912D9A44985C9821
S1131010282F30E0220F232F221F330B232B09F01C
S11310205FC15D985C9A5C9886FD58C15D985C9A36
S11310305C9885FD4FC15D985C9A5C9884FD48C1BD
S11310405D985C9A5C9883FD41C15D985C9A5C985C
S113105082FD3AC15D985C9A5C9881FD33C15D98CC
S11310605C9A5C9880FD2CC15D985C9A5C98449A6B
S11310709F5F953049F62D9A44985C985D985C9AE8
S11310805C985D985C9A5C985D985C9A5C985D98B5
S11310905C9A5C985D985C9A5C985D985C9A5C98A4
S11310A05D985C9A5C985D985C9A5C98449A8D9182
S11310B0811180CF87E0EFE2F1E0D80101900D9239
S11310C08A95E1F780917205811143C14FE456E49A
S11310D066E470E04F83588769877A87D8010D905A
S11310E00020E9F7119788E0E2E4F1E001900D9225
S11310F08A95E1F78CE0F801DE01999601900D9252
S11311008A95E1F71DAA2D9844985C985D9A5C9A9B
S11311105C985D985C9A5C985D985C9A5C985D9824
S11311205C9A5C985D985C9A5C985D985C9A5C9813
S11311305D985C9A5C985D985C9A5C98449A2D984A
S113114044985C985D985C9A5C985D9A5C9A5C980B
S11311505D985C9A5C985D985C9A5C985D985C9AE2
S11311605C985D9A5C9A5C985D985C9A5C985D9AD0
S11311705C9A5C98449A89A5882309F481C0DE01AD
S11311809A962D9A44985C985D985C9A5C985D98C0
S11311905C9A5C985D985C9A5C985D985C9A5C98A3
S11311A05D985C9A5C985D985C9A5C985D985C9A92
S11311B05C985D985C9A5C98449A992787FD909511
S11311C08097FC01EE0FFF1FEE0FFF1FE80FF91FC2
S11311D0E05FFC4F35E021912D9A44985C98822F72
S11311E090E0880F892F881F990B892B09F061C023
S11311F05D985C9A5C9826FD61C05D985C9A5C98E9
S113120025FD55C05D985C9A5C9824FD4EC05D98A0
S11312105C9A5C9823FD47C05D985C9A5C9822FDBB
S113122040C05D985C9A5C9821FD39C05D985C9AD9
S11312305C9820FD32C05D985C9A5C98449A315069
S113124051F62D9A44985C985D985C9A5C985D98E8
S11312505C9A5C985D985C9A5C985D985C9A5C98E2
S11312605D985C9A5C985D985C9A5C985D985C9AD1
S11312705C985D985C9A5C98449A8D91811181CFB9
S1131280E5960FB6F894DEBF0FBECDBFDF91CF91C8
S11312901F910F91FF90EF9008955D9ACDCF5D9AC5
S11312A0C6CF5D9ABFCF5D9AB8CF5D9AB1CF5D9A34
S11312B0AACF5D9A5C9A5C9826FF9FCF5D9A9ECFD9
S11312C05D9AD3CE5D9ACCCE5D9AC5CE5D9ABECEE4
S11312D05D9AB7CE5D9AB0CE5D9AD6CD5D9AA7CE13
S11312E05D9AA0CE5D9ACBCD5D9AC4CD5D9ABDCDFD
S11312F05D9AB6CD5D9A5C9A5C9826FFA6CD5D9A00
S11313005C9A5C9825FFA6CD5D9AA5CD5D9AC8CC64
S11313105D9AC1CC5D9ABACC5D9AB3CC5D9AACCCE3
S11313205D9AA5CC5D9A9ECC5D9AD0CB5D9A95CC06
S11313305D9AC7CB5D9AC0CB5D9AB9CB5D9AB2CBAF
S11313405D9AABCB5D9A5C9A5C9826FFA0CB5D9AC4
S11313509FCB2FE43EE440E02F8338874987BECEFD
S11313600F931F93CF93DF93CDB7DEB7A1970FB63B
S1131370F894DEBF0FBECDBF87E0E6E3F1E0DE0107
S1131380119601900D928A95E1F7E0915905F0E0EC
S1131390EE0FFF1FE859F94F659174918E010F5FAD
S11313A01F4FC8010E940D22D8010D900020E9F7BB
S11313B0119785E0E5E4F1E001900D928A95E1F75B
S11313C08CE0F801DE01559601900D928A95E1F7C3
S11313D019A22D9844985C985D9A5C9A5C985D98E3
S11313E05C9A5C985D985C9A5C985D985C9A5C9851
S11313F05D985C9A5C985D985C9A5C985D985C9A40
S11314005C985D985C9A5C98449A2D9844985C9892
S11314105D985C9A5C985D9A5C9A5C985D985C9A1D
S11314205C985D985C9A5C985D985C9A5C985D9A0F
S11314305C9A5C985D985C9A5C985D9A5C9A5C98FE
S1131440449A8D89882309F481C0DE0156962D9A29
S113145044985C985D985C9A5C985D985C9A5C98FA
S11314605D985C9A5C985D985C9A5C985D985C9ACF
S11314705C985D985C9A5C985D985C9A5C985D98C1
S11314805C9A5C98449A992787FD90958097FC0113
S1131490EE0FFF1FEE0FFF1FE80FF91FE05FFC4F79
S11314A035E021912D9A44985C98822F90E0880F22
S11314B0892F881F990B892B09F05FC05D985C9A6E
S11314C05C9826FD5FC05D985C9A5C9825FD53C0CE
S11314D05D985C9A5C9824FD4CC05D985C9A5C981D
S11314E023FD45C05D985C9A5C9822FD3EC05D98E2
S11314F05C9A5C9821FD37C05D985C9A5C9820FDED
S113150030C05D985C9A5C98449A315051F62D9A9B
S113151044985C985D985C9A5C985D985C9A5C9839
S11315205D985C9A5C985D985C9A5C985D985C9A0E
S11315305C985D985C9A5C985D985C9A5C985D9800
S11315405C9A5C98449A8D91811181CFA1960FB6D3
S1131550F894DEBF0FBECDBFDF91CF911F910F91E5
S113156008955D9ACFCF5D9AC8CF5D9AC1CF5D9A39
S1131570BACF5D9AB3CF5D9AACCF5D9A5C9A5C9812
S113158026FFA1CF5D9AA0CF3C9A3D9A259A559A01
S1131590549A4598459A2D9844985C985D985C9A1D
S11315A05C985D985C9A5C985D9A5C9A5C985D988E
S11315B05C9A5C985D985C9A5C985D985C9A5C987F
S11315C05D985C9A5C985D9A5C9A5C98449A2D98B4
S11315D044985C985D9A5C9A5C985D985C9A5C9877
S11315E05D9A5C9A5C985D9A5C9A5C985D985C9A4A
S11315F05C985D985C9A5C985D985C9A5C985D9840
S11316005C9A5C98449A2D9844985C985D985C9A8E
S11316105C985D985C9A5C985D985C9A5C985D981F
S11316205C9A5C985D985C9A5C985D9A5C9A5C980C
S11316305D985C9A5C985D985C9A5C98449A2D9845
S113164044985C985D985C9A5C985D985C9A5C9808
S11316505D985C9A5C985D9A5C9A5C985D985C9ADB
S11316605C985D9A5C9A5C985D985C9A5C985D98CD
S11316705C9A5C98449A2D9844985C985D985C9A1E
S11316805C985D985C9A5C985D9A5C9A5C985D98AD
S11316905C9A5C985D985C9A5C985D985C9A5C989E
S11316A05D985C9A5C985D985C9A5C98449A2D98D5
S11316B044985C985D985C9A5C985D985C9A5C9898
S11316C05D985C9A5C985D985C9A5C985D9A5C9A6B
S11316D05C985D9A5C9A5C985D985C9A5C985D985D
S11316E05C9A5C98449A08952F923F924F925F922D
S11316F06F927F928F929F92AF92BF92CF92DF921E
S1131700EF92FF920F931F93CF93DF93CDB7DEB782
S11317102F970FB6F894DEBF0FBECDBF80E090E8E0
S1131720ACE8BAE78093060590930705A0930805F3
S1131730B093090581E090E09C838B831A8219821F
S113174089809A80AB80BC809401A50160E070E040
S113175080E090E000E10E94B521A12CE0E8BE2EDB
S1131760FCE8CF2EAAE7DA2EE12CF12C00E010E001
S11317700E945821209302053093030540930405E9
S11317805093050580E091E09C838B8389809A8047
S1131790AB80BC809401A50160E070E080E090E043
S11317A000E10E94B521A12CB0E8BB2E0CE8C02EAC
S11317B0EAE7DE2EE12CF12C00E00E9458213901E9
S11317C04A011B012C01322F30930A0570920B053C
S11317D080920C0590920D0588EB91E0909387051B
S11317E080938605109285051092840500918405E6
S11317F0109185052091860530918705580169016E
S113180000E010E09301A401B101C2010E94D220C2
S113181000E10E94D021C901DA0180937C059093F4
S11318207D05A0937E05B0937F0580E090E8A8EB4A
S1131830B1E080936E0590936F05A0937005B0930B
S113184071059301A401B101C20103E00E94B52115
S113185053016401710182010E94F52107E00E9495
S1131860B521042D0E94F52106E00E94B521042D26
S11318700E94F52159016A017B01E82F192F03E029
S11318800E94B5210E2F0E94F52103E00E94B5218C
S113189053016401710182010E94F5212D833D876A
S11318A04E875F87B62FA72FF82FE92F7A2F8F2F18
S11318B09E2F03E00E94B52159016A017B018C012E
S11318C02D813D854E855F856B2F7A2F8F2F9E2F1F
S11318D00E94EC2153016401710182010E94EC21F8
S11318E000E10E94D021C901DA018093660590933A
S11318F06705A0936805B09369050E94C40A88EF40
S113190091E02D9A44985C985D985C9A5C985D98F7
S11319105C9A5C985D985C9A5C985D985C9A5C981B
S11319205D985C9A5C985D985C9A5C985D985C9A0A
S11319305C985D985C9A5C98449A0197009709F7C3
S11319402D9844985C985D9A5C9A5C985D985C9A32
S11319505C985D985C9A5C985D985C9A5C985D98DC
S11319605C9A5C985D985C9A5C985D985C9A5C98CB
S11319705D985C9A5C98449A2D9844985C985D981C
S11319805C9A5C985D9A5C9A5C985D985C9A5C98A9
S11319905D985C9A5C985D985C9A5C985D985C9A9A
S11319A05C985D985C9A5C985D985C9A5C98449AA3
S11319B08FE080937E008AE880937A001092C500BD
S11319C08FE18093C40088E98093C10086E080930E
S11319D0C2008091B10081608093B1008091B10018
S11319E08D7F8093B1008091B1008B7F8093B10093
S11319F08091B0008F7B8093B0008091B0008068AC
S1131A008093B0008091B00081608093B000809199
S1131A10B0008D7F8093B0008091B100877F809368
S1131A20B10056985E9A57985F9A2098289A2498FD
S1131A302C9A22982A9A2198299A239A80917000A4
S1131A408160809370007894E0910401F0E08091CB
S1131A507A05DF01A80FB11D87FDBA95AA0FBB1F38
S1131A60AA0FBB1FAE55BE4FCD90DD90ED90FC90FC
S1131A708091630590916405E90FF11D97FDFA9536
S1131A809CE08902E00DF11D1124EE0FFF1FEE0F03
S1131A90FF1FEE55FE4F80809180A280B38060913D
S1131AA07B05A7E26A02B0011124882777FD80959F
S1131AB0982FA70196010E942B2100E10E94D021BA
S1131AC02D833E834F8358878D819E81AF81B88556
S1131AD0C80ED91EEA1EFB1EC0928405D09285054D
S1131AE0E0928605F09287052091650597E2290228
S1131AF090011124442737FD4095542FC501B401AA
S1131B000E942B210E94D0212D833E834F8358872E
S1131B1069877A878B879C878D819E81AF81B88501
S1131B20880E991EAA1EBB1E80926E0590926F05A8
S1131B30A0927005B092710540900A0550900B0573
S1131B4060900C0570900D05C701B601A3019201C8
S1131B500E942B210E94D021C901DA0180937C05C7
S1131B6090937D05A0937E05B0937F05C501B401D4
S1131B70A30192010E942B210E94D021C901DA0104
S1131B808093660590936705A0936805B0936905F3
S1131B902F960FB6F894DEBF0FBECDBFDF91CF9165
S1131BA01F910F91FF90EF90DF90CF90BF90AF9077
S1131BB09F908F907F906F905F904F903F902F9069
S1131BC00895CF93DF93CDB7DEB7C155D1090FB6D2
S1131BD0F894DEBF0FBECDBF0E94740B0E94AA040E
S1131BE080E092E090932705809326059093290541
S1131BF08093280590932B0580932A0590932D05B7
S1131C0080932C0510920E0510920F05109210056A
S1131C101092110590932F0580932E059093310512
S1131C208093300590933305809332059093350566
S1131C308093340510921205109213051092140526
S1131C4010921505909337058093360590933905C6
S1131C508093380590933B0580933A0590933D0516
S1131C6080933C05109216051092170510921805E2
S1131C701092190590933F0580933E05909341057A
S1131C8080934005909343058093420590934505C6
S1131C908093440510921A0510921B0510921C059E
S1131CA010921D059093470580934605909349052E
S1131CB08093480590934B0580934A0590934D0576
S1131CC080934C0510921E0510921F05109220055A
S1131CD0109221059E012B5E3F4F3FAF2EAFCE01E8
S1131CE001965C01DE011896BBAFAAAF2F503109F3
S1131CF03FAB2EAB069699AF88AF1296BDAFACAF93
S1131D00BEAD6196BFAF61972FAD62962FAF62975C
S1131D101501882483941A2D9B2C0DE0702E87E0E6
S1131D20F82E08E096E0C92E29E0E22E3AE0D32E00
S1131D3080917A00806480937A0099B1892F8074AD
S1131D4096FD74C59091FC04911181C59091F6049F
S1131D50992309F47CC59091560591110C949E1A0F
S1131D604F9979C59091FD049111DAC09091F704CF
S1131D70992309F4D5C0813009F4D2C01092F1043A
S1131D8080925605109212051092130510921405B4
S1131D9010921505EAE4F1E06196AFAD61976296A1
S1131DA0BFAD6297872D01900D928A95E1F7BE0130
S1131DB06B5E7F4F80E00E949503E8E1F1E0D5017E
S1131DC08F2D01900D928A95E1F7E0910201F0E0E8
S1131DD0EE0FFF1FE458F94F65917491A12EB92CB1
S1131DE0812F992D0E940D22D1010D900020E9F739
S1131DF01197E2E4F1E0802F01900D928A95E1F7CA
S1131E00612F792D82E00E949503E7E2F1E0A12F92
S1131E10B92D802F01900D928A95E1F720916405E8
S1131E20822F992787FD90959F932F93A8E0B1E087
S1131E30BF93AF933BAD3F938AAD8F930E9418221B
S1131E40D1010D900020E9F71197E2E4F1E0802F31
S1131E5001900D928A95E1F7612F792D83E00E941C
S1131E609503EFE1F1E0A12FB92D802F01900D92A0
S1131E708A95E1F720916505822F992787FD909532
S1131E809F932F93A8E0B1E0BF93AF933BAD3F93F3
S1131E908AAD8F930E941822D1010D900020E9F79A
S1131EA01197E2E4F1E0802F01900D928A95E1F719
S1131EB0612F792D84E00E949503E7E5F1E0A12FDD
S1131EC0B92D8C2D01900D928A95E1F7209163052F
S1131ED0822F992787FD90959F932F93A8E0B1E0D7
S1131EE0BF93AF933FA93F938EA98F930E9418226B
S1131EF0D1010D900020E9F71197E1E4F1E08E2D76
S1131F0001900D928A95E1F7612F792D85E00E9469
S1131F109503809156050FB6F894DEBF0FBECDBF72
S1131F201899ACC49091FE049111CEC09091F8041C
S1131F30992309F4C9C0823009F4C6C01092F2048E
S1131F4082E08093560510921605109217051092A0
S1131F50180510921905EDE5F1E06196AFAD6197B2
S1131F606296BFAD6297872D01900D928A95E1F735
S1131F70BE016B5E7F4F80E00E949503E8E1F1E0D3
S1131F80D5018F2D01900D928A95E1F7E09106011C
S1131F90F0E0EE0FFF1FE458F94F65917491812F23
S1131FA0992D0E940D22D1010D900020E9F711977F
S1131FB085E0E5E4F1E001900D928A95E1F7612F67
S1131FC0792D82E00E949503EAE6F1E0A12FB92D74
S1131FD08F2D01900D928A95E1F7809158051F92FB
S1131FE08F93A8E0B1E0BF93AF9339AD3F9388AD31
S1131FF08F930E941822D1010D900020E9F71197C8
S113200085E0E5E4F1E001900D928A95E1F7612F16
S1132010792D83E00E949503E1E7F1E0A12FB92D2A
S11320208F2D01900D928A95E1F7809157051F92AB
S11320308F93A8E0B1E0BF93AF9339AD3F9388ADE0
S11320408F930E941822D1010D900020E9F7119777
S113205085E0E5E4F1E001900D928A95E1F7612FC6
S1132060792D84E00E949503E6E3F1E0A12FB92DD8
S11320708F2D01900D928A95E1F7E0915905F0E0DA
S1132080EE0FFF1FE859F94F65917491A12EB92CF9
S1132090812F992D0E940D22D1010D900020E9F786
S11320A0119785E0E5E4F1E001900D928A95E1F75E
S11320B0612F792D85E00E949503809156050FB616
S11320C0F894DEBF0FBECDBF1C99EBC39091FF0403
S11320D091116FC19091F904992309F46AC1833075
S11320E009F426CE1092F30483E0809356051092EF
S11320F01A0510921B0510921C0510921D05E8E7A5
S1132100F1E06196AFAD61976296BFAD6297872D9E
S113211001900D928A95E1F7BE016B5E7F4F80E0DE
S11321200E949503E5E8F1E0D5018D2D01900D9213
S11321308A95E1F7809107011F928F93A8E0B1E09F
S1132140BF93AF933DAD3F938CAD8F930E94182204
S1132150D5010D900020E9F7119785E0E5E4F1E061
S113216001900D928A95E1F78CE0F501DE019996D4
S113217001900D928A95E1F71DAA2D9844985C98D8
S11321805D9A5C9A5C985D985C9A5C985D985C9AA0
S11321905C985D985C9A5C985D985C9A5C985D9894
S11321A05C9A5C985D985C9A5C985D985C9A5C9883
S11321B0449A2D9844985C985D985C9A5C985D9AD2
S11321C05C9A5C985D985C9A5C985D985C9A5C9863
S11321D05D985C9A5C985D985C9A5C985D9A5C9A50
S11321E05C985D985C9A5C98449A89A50F900F90CE
S11321F00F900F900F900F90882309F482C0DE0196
S11322009A962D9A44985C985D985C9A5C985D982F
S11322105C9A5C985D985C9A5C985D985C9A5C9812
S11322205D985C9A5C985D985C9A5C985D985C9A01
S11322305C985D985C9A5C98449A992787FD909580
S11322408097FC01EE0FFF1FEE0FFF1FE80FF91F31
S1132250E05FFC4F30E021912D9A44985C98822FE6
S113226090E0880F892F881F990B892B09F0DCC215
S11322705D985C9A5C9826FDD5C25D985C9A5C98E2
S113228025FDCEC25D985C9A5C9824FDC7C25D981A
S11322905C9A5C9823FDC0C25D985C9A5C9822FDB0
S11322A0B9C25D985C9A5C9821FDB2C25D985C9A53
S11322B05C9820FDABC25D985C9A5C98449A3F5F41
S11322C0353049F62D9A44985C985D985C9A5C98F0
S11322D05D985C9A5C985D985C9A5C985D985C9A51
S11322E05C985D985C9A5C985D985C9A5C985D9843
S11322F05C9A5C985D985C9A5C98449A8D91811183
S113230080CFEFE8F1E0D5018D2D01900D928A95F3
S1132310E1F7809161051F928F93A8E0B1E0BF932C
S1132320AF933DAD3F938CAD8F930E941822D5019E
S11323300D900020E9F7119785E0E5E4F1E00190C4
S11323400D928A95E1F7B50183E00E949503E9E9CE
S1132350F1E0D5018E2D01900D928A95E1F78091DF
S11323605A050F900F900F900F900F900F908111BE
S11323700C94301D8FE496E4A6E4B0E089879A8734
S1132380AB87BC87D5010D900020E9F7119785E054
S1132390E5E4F1E001900D928A95E1F7B50184E05E
S11323A00E9495036DE371E085E00E94950380919E
S11323B05605813009F489C2813008F4F1C38230B2
S11323C009F0B6CC80918C058823D9F0809136052C
S11323D0909137052091900530919105AC01475FAC
S11323E05F4F421753076CF08B30910514F40C9433
S11323F0AD1B0A978217930724F480921605109256
S11324008C0580918D058823D9F0809138059091B1
S113241039052091920530919305AC01475F5F4FD8
S1132420421753076CF08B30910514F40C94B11BD4
S11324300A978217930724F48092170510928D054A
S113244080918E058823D9F080913A0590913B05BF
S11324502091940530919505AC01475F5F4F421779
S113246053076CF08B30910514F40C94B51B0A9748
S11324708217930724F48092180510928E05809198
S11324808F05882311F40C94521A20913C05309145
S11324903D058091960590919705A901475F5F4F8F
S11324A04817590714F40C94521A2B30310514F4BC
S11324B00C94BE1C2A5031092817390714F00C94C7
S11324C0521A8092190510928F058B3A910514F0D7
S11324D00C94611A8091060181110C94491D80911C
S11324E01805882309F403C12091940530919505BA
S11324F0C90195958795959587954091580550E024
S11325008417950709F4F3C0809358053093370571
S11325102093360527E0EAE6F1E0D50101900D921B
S11325202A95E1F799279F938F93A8E0B1E0BF9391
S1132530AF9339AD3F9388AD8F930E941822D50194
S11325400D900020E9F7119785E0E5E4F1E00190B2
S11325500D928A95E1F78CE0F501DE015596019024
S11325600D928A95E1F719A22D9844985C985D9A8A
S11325705C9A5C985D985C9A5C985D985C9A5C98AF
S11325805D985C9A5C985D985C9A5C985D985C9A9E
S11325905C985D985C9A5C985D985C9A5C98449AA7
S11325A02D9844985C985D985C9A5C985D9A5C9AC6
S11325B05C985D985C9A5C985D985C9A5C985D9870
S11325C05C9A5C985D985C9A5C985D9A5C9A5C985D
S11325D05D9A5C9A5C98449A8D890F900F900F9045
S11325E00F900F900F90882309F481C0DE01569656
S11325F02D9A44985C985D985C9A5C985D985C9A76
S11326005C985D985C9A5C985D985C9A5C985D981F
S11326105C9A5C985D985C9A5C985D985C9A5C980E
S11326205D985C9A5C98449A992787FD9095809769
S1132630FC01EE0FFF1FEE0FFF1FE80FF91FE05F15
S1132640FC4F35E021912D9A44985C98822F90E0BC
S1132650880F892F881F990B892B09F0D0C05D98AA
S11326605C9A5C9826FDD0C05D985C9A5C9825FDC8
S1132670C4C05D985C9A5C9824FDBDC05D985C9A6A
S11326805C9823FDB6C05D985C9A5C9822FDAFC04F
S11326905D985C9A5C9821FDA8C05D985C9A5C98F2
S11326A020FDA1C05D985C9A5C98449A315051F623
S11326B02D9A44985C985D985C9A5C985D985C9AB5
S11326C05C985D985C9A5C985D985C9A5C985D985F
S11326D05C9A5C985D985C9A5C985D985C9A5C984E
S11326E05D985C9A5C98449A8D91811181CF809118
S11326F01705882309F440C0209192053091930571
S1132700C90195958795959587954091570550E012
S11327108417950789F180935705309337052093E3
S1132720360527E0E1E7F1E0D50101900D922A9505
S1132730E1F799279F938F93A8E0B1E0BF93AF93FC
S113274039AD3F9388AD8F930E941822D5010D9027
S11327500020E9F7119785E0E5E4F1E001900D929E
S11327608A95E1F7B50184E00E9495030F900F90DC
S11327700F900F900F900F9080911605882309F405
S1132780CCCA80919005909191058D3591050CF0FE
S1132790CEC780915905882309F4BFCA1092590500
S11327A087E0E6E3F1E0D50101900D928A95E1F727
S11327B0E8E6F6E0659174915101812F992D0E940C
S11327C00D22D1010D900020E9F7119785E0E5E491
S11327D0F1E001900D928A95E1F7612F792D85E062
S11327E00E9495039ACA5D9A5ECF5D9A57CF5D9A0F
S11327F050CF5D9A49CF5D9A42CF5D9A3BCF5D9AA7
S11328005C9A5C9826FF30CF5D9A2FCF5D9A54CDA9
S11328105D9A4DCD5D9A46CD5D9A3FCD5D9A38CD9A
S11328205D9A31CD5D9A2ACD5D9A23CD8091FC04C9
S113283081111092FC048091F604882311F40C9405
S1132840D41D8091F004853610F08092F6048091B6
S113285056054F9B87CA9091FD0491111092FD0477
S11328609091F704992309F463C69091F104953685
S113287008F456CB8092F704189B54CB9091FE0435
S113288091111092FE049091F804992309F482C1E5
S11328909091F204953608F417CC8092F8041C9BAE
S11328A015CC9091FF0491111092FF049091F904BA
S11328B0992309F469C19091F304953608F479CD0C
S11328C08092F904813009F077CD80918C058823BA
S11328D0D9F080912E0590912F052091900530918B
S11328E09105AC01475F5F4F421753076CF08B3083
S11328F0910514F40C94C51C0A978217930724F4C9
S11329008092120510928C0580918D058823B9F070
S11329102091300530913105809192059091930575
S1132920A901475F5F4F481759074CF029503109F7
S11329308217930724F08092130510928D058091DD
S11329408E058823B9F020913205309133058091AA
S1132950940590919505A901475F5F4F4817590762
S11329604CF0295031098217930724F08092140502
S113297010928E0580918F05882309F403C5209158
S11329803405309135058091960590919705A901FC
S1132990475F5F4F481759070CF4F4C429503109B5
S11329A0821793070CF4EEC48092150510928F05DC
S11329B0823991050CF0F3C48091020181110C94C9
S11329C03F1D80911405882309F449C08091940522
S11329D0909195059C01359527953595279560919E
S11329E06405772767FD7095A9014058510964175C
S11329F07507A9F1205820936405909333058093BB
S1132A00320588E0E7E2F1E0D50101900D928A9564
S1132A10E1F7822F992787FD90959F932F93A8E044
S1132A20B1E0BF93AF933BAD3F938AAD8F930E94C8
S1132A301822D5010D900020E9F7119788E0E2E40F
S1132A40F1E001900D928A95E1F7B50183E00E94CF
S1132A5095030F900F900F900F900F900F9080910F
S1132A601305882309F449C0809192059091930538
S1132A709C013595279535952795609165057727B0
S1132A8067FD7095A9014058510964177507A9F1AC
S1132A90205820936505909331058093300588E094
S1132AA0EFE1F1E0D50101900D928A95E1F7822FD3
S1132AB0992787FD90959F932F93A8E0B1E0BF934A
S1132AC0AF933BAD3F938AAD8F930E941822D501FB
S1132AD00D900020E9F7119788E0E2E4F1E001901D
S1132AE00D928A95E1F7B50184E00E9495030F9059
S1132AF00F900F900F900F900F90809112058823E4
S1132B0009F40BC980919005909191058D3C910534
S1132B100CF0EFC5809163058E3F09F4FEC82EEFDB
S1132B202093630586E690E090932F0580932E050D
S1132B3086E0E7E5F1E0D50101900D928A95E1F791
S1132B408FEF8F932F93A8E0B1E0BF93AF933FA98A
S1132B503F938EA98F930E941822D5010D900020D7
S1132B60E9F7119789E0E1E4F1E001900D928A958B
S1132B70E1F7B50185E00E9495030F900F900F9047
S1132B800F900F900F90C9C89091F3049F5F90939A
S1132B90F30493CE9091F2049F5F9093F2047ACE63
S1132BA080918C058823D1F080912605909127058A
S1132BB02091900530919105AC01475F5F4F42171A
S1132BC0530764F08B3091050CF4DCC60A97821726
S1132BD0930724F480920E0510928C0580918D0544
S1132BE08823D1F0809128059091290520919205A0
S1132BF030919305AC01475F5F4F4217530764F070
S1132C008B3091050CF405C70A978217930724F4B7
S1132C1080920F0510928D0580918E058823D1F046
S1132C2080912A0590912B0520919405309195056A
S1132C30AC01475F5F4F4217530764F08B30910537
S1132C400CF4EAC60A978217930724F480921005BD
S1132C5010928E0580918F05882309F4DBC320919F
S1132C602C0530912D058091960590919705A90129
S1132C70475F5F4F481759070CF4CCC32B3031051D
S1132C800CF487C62A503109281739070CF0C2C33F
S1132C908092110510928F05823991050CF0C7C3FB
S1132CA0809103018111F0C680911005882309F4F5
S1132CB024C180919405909195059C0135952795A3
S1132CC035952795359527953595279560917A05FE
S1132CD0772767FD7095A90140525109641775075C
S1132CE009F40BC1205220937A0590932B0580930D
S1132CF02A0588E0E7E2F1E0D50101900D928A957A
S1132D00E1F7822F992787FD90959F932F93A8E051
S1132D10B1E0BF93AF933BAD3F938AAD8F930E94D5
S1132D201822D5010D900020E9F7119788E0E2E41C
S1132D30F1E001900D928A95E1F7B50183E00E94DC
S1132D409503E0910401F0E080917A05DF01A80F7A
S1132D50B11D87FDBA95AA0FBB1FAA0FBB1FAE55A5
S1132D60BE4F4D905D906D907C90809163059091E5
S1132D706405E90FF11D97FDFA959CE08902E00DC9
S1132D80F11D1124EE0FFF1FEE0FFF1FEE55FE4F36
S1132D90C080D180E280F38060917B05A7E26A0263
S1132DA0B0011124882777FD8095982FA301920103
S1132DB00E942B2100E10E94D02121962FAF219760
S1132DC022963FAF229723964FAF239724965FAF67
S1132DD0249725966FAF259726967FAF269727963B
S1132DE08FAF279728969FAF289724968CAD9DADDB
S1132DF0AEADBFAD2497840D951DA61DB71D2496B9
S1132E008CAF9DAFAEAFBFAF2497809384059093F2
S1132E108505A0938605B09387052091650597E203
S1132E20290290011124442737FD4095542FC701EE
S1132E30B6010E942B210E94D02129962FAF2997F9
S1132E402A963FAF2A972B964FAF2B972C965FAFBE
S1132E502C972D966FAF2D972E967FAF2E972F968A
S1132E608FAF2F9760969FAF60972C964CAC5DAC5C
S1132E706EAC7FAC2C974C0C5D1C6E1C7F1C40927E
S1132E806E0550926F056092700570927105C09046
S1132E900A05D0900B05E0900C05F0900D052496E2
S1132EA06CAD7DAD8EAD9FAD2497A70196010E94B8
S1132EB02B210E94D021C901DA0180937C059093D3
S1132EC07D05A0937E05B0937F05C301B201A701E0
S1132ED096010E942B210E94D021C901DA0180931E
S1132EE0660590936705A0936805B09369050F90F4
S1132EF00F900F900F900F900F9080910F058823E3
S1132F0009F4E7C180919205909193059C01359550
S1132F10279535952795359527953595279560916E
S1132F207B05772767FD7095A90140525109641705
S1132F30750709F4CEC1205220937B05909329058F
S1132F408093280588E0EFE1F1E0D50101900D922E
S1132F508A95E1F7822F992787FD90959F932F9368
S1132F60A8E0B1E0BF93AF933BAD3F938AAD8F939D
S1132F700E941822D5010D900020E9F7119788E0EE
S1132F80E2E4F1E001900D928A95E1F78CE0F5011D
S1132F90DE01559601900D928A95E1F719A22D98BC
S1132FA044985C985D9A5C9A5C985D985C9A5C988D
S1132FB05D985C9A5C985D985C9A5C985D985C9A64
S1132FC05C985D985C9A5C985D985C9A5C985D9856
S1132FD05C9A5C98449A2D9844985C985D985C9AA5
S1132FE05C985D9A5C9A5C985D985C9A5C985D9834
S1132FF05C9A5C985D985C9A5C985D9A5C9A5C9823
S11330005D985C9A5C985D985C9A5C98449A8D890A
S11330100F900F900F900F900F900F90882309F44A
S113302082C0DE0156962D9A44985C985D985C9A0D
S11330305C985D985C9A5C985D985C9A5C985D98E5
S11330405C9A5C985D985C9A5C985D985C9A5C98D4
S11330505D985C9A5C985D985C9A5C98449A992710
S113306087FD90958097FC01EE0FFF1FEE0FFF1F69
S1133070E80FF91FE05FFC4F30E021912D9A44984E
S11330805C98822F90E0880F892F881F990B892BD9
S113309009F076C15D985C9A5C9826FD5BC15D98E9
S11330A05C9A5C9825FD5BC15D985C9A5C9824FDF4
S11330B05BC15D985C9A5C9823FD5BC15D985C9AEA
S11330C05C9822FD5BC15D985C9A5C9821FD40C1CF
S11330D05D985C9A5C9820FD39C15D985C9A5C9817
S11330E0449A3F5F353049F62D9A44985C985D9830
S11330F05C9A5C985D985C9A5C985D985C9A5C9824
S11331005D985C9A5C985D985C9A5C985D985C9A12
S11331105C985D985C9A5C985D985C9A5C98449A1B
S11331208D91811180CFE0910401F0E080917A05C6
S1133130DF01A80FB11D87FDBA95AA0FBB1FAA0F07
S1133140BB1FAE55BE4F4D905D906D907C908091AD
S1133150630590916405E90FF11D97FDFA959CE0D4
S11331608902E00DF11D1124EE0FFF1FEE0FFF1F6A
S1133170EE55FE4FC080D180E280F38060917B05E4
S1133180A7E26A02B0011124882777FD8095982F61
S1133190A30192010E942B2100E10E94D0212196DB
S11331A02FAF219722963FAF229723964FAF2397B5
S11331B024965FAF249725966FAF259726967FAF09
S11331C0269727968FAF279728969FAF2897249600
S11331D08CAD9DADAEADBFAD2497840D951DA61DE0
S11331E0B71D24968CAF9DAFAEAFBFAF249780932D
S11331F0840590938505A0938605B0938705209157
S1133200650597E2290290011124442737FD409572
S1133210542FC701B6010E942B210E94D021299668
S11332202FAF29972A963FAF2A972B964FAF2B970C
S11332302C965FAF2C972D966FAF2D972E967FAF60
S11332402E972F968FAF2F9760969FAF60972C96EF
S11332504CAC5DAC6EAC7FAC2C974C0C5D1C6E1C06
S11332607F1C40926E0550926F05609270057092BB
S11332707105C0900A05D0900B05E0900C05F09004
S11332800D0524966CAD7DAD8EAD9FAD2497A70141
S113329096010E942B210E94D021C901DA0180935A
S11332A07C0590937D05A0937E05B0937F05C301B3
S11332B0B201A70196010E942B210E94D021C901CD
S11332C0DA018093660590936705A0936805B0932F
S11332D0690580910E05882311F40C948D0E80915C
S11332E09005909191058115A2E09A070CF0F4C124
S11332F080917205882311F40C948D0E109272053E
S113330087E0EFE2F1E0D50101900D928A95E1F7B3
S11333108091720581114FC48FE496E4A6E4B0E075
S11333208F839887A987BA87D5010D900020E9F784
S1133330119788E0E2E4F1E001900D928A95E1F7BB
S1133340B50185E00E9495030C948D0E5D9AC6CE5E
S11333505D9ABFCE5D9A5C9A5C9825FFA5CE5D9A76
S11333605C9A5C9824FFA5CE5D9A5C9A5C9823FFD6
S1133370A5CE5D9A5C9A5C9822FFA5CE5D9AA4CEF8
S11333805D9A89CE80911505882309F41ACB809122
S1133390960590919705823991050CF40DCB8432F2
S11333A0A1E09A070CF03BC380910201813009F43B
S11333B008CB809202018BED90E0909335058093C9
S11333C0340587E0E8E1F1E0D50101900D928A959A
S11333D0E1F78091020190E0880F991F8458994F7A
S11333E0FC01659174915101812F992D0E940D2248
S11333F0D1010D900020E9F7119788E0E2E4F1E0B3
S113340001900D928A95E1F7612F792D82E00E9457
S11334109503D7CA80911105882309F445CC80917E
S1133420960590919705823991050CF439CC843234
S1133430A1E09A070CF004C380910301813009F4E0
S113344033CC809203018BED90E090932D05809313
S11334502C0587E0E8E1F1E0D50101900D928A9511
S1133460E1F78091030190E0880F991F8458994FE8
S1133470FC01659174915101812F992D0E940D22B7
S1133480D1010D900020E9F7119788E0E2E4F1E022
S113349001900D928A95E1F7612F792D82E00E94C7
S11334A0950302CC80911905882311F40C946F12B2
S11334B080919605909197058B3A910514F40C949C
S11334C06A128535A1E09A070CF066C28091060164
S11334D0813011F40C946F128092060180E091E027
S11334E0909337058093360587E0E8E1F1E0D50154
S11334F001900D928A95E1F7EEE7F6E065917491FB
S11335005101812F992D0E940D22D1010D9000208F
S1133510E9F7119785E0E5E4F1E001900D928A95D1
S1133520E1F7612F792D82E00E9495030C946F12CC
S11335309091F1049F5F9093F10499C91092F00463
S11335401092560510920E0510920F051092100558
S113355010921105EBE0F1E06196AFAD61976296D0
S1133560BFAD6297872D01900D928A95E1F7BE0158
S11335706B5E7F4F80E00E949503E8E1F1E0D501A6
S11335808F2D01900D928A95E1F7E0910301F0E00F
S1133590EE0FFF1FE458F94F65917491A12EB92CD9
S11335A0812F992D0E940D22D1010D900020E9F761
S11335B01197E2E4F1E0802F01900D928A95E1F7F2
S11335C0612F792D82E00E949503EFE1F1E0A12FB4
S11335D0B92D802F01900D928A95E1F720917B05FA
S11335E0822F992787FD90959F932F93A8E0B1E0B0
S11335F0BF93AF933BAD3F938AAD8F930E94182244
S1133600D1010D900020E9F71197E2E4F1E0802F59
S113361001900D928A95E1F7612F792D84E00E9443
S11336209503E7E2F1E0A12FB92D802F01900D92CF
S11336308A95E1F720917A05822F992787FD909545
S11336409F932F93A8E0B1E0BF93AF933BAD3F931B
S11336508AAD8F930E941822D1010D900020E9F7C2
S11336601197E2E4F1E0802F01900D928A95E1F741
S1133670612F792D83E00E949503EFE2F1E0A12F01
S1133680B92D8F2D01900D928A95E1F780917205E5
S11336900FB6F894DEBF0FBECDBF8111E9C18FE430
S11336A096E4A6E4B0E08F839887A987BA87D1010E
S11336B00D900020E9F71197E2E4F1E0802F0190EA
S11336C00D928A95E1F7612F792D85E00E9495038B
S11336D0809156050C94B00E8F3F934014F00C94D7
S11336E08D0E8091720581110C948D0E809272055D
S11336F007CE8A39A1E09A070CF06DC18091630569
S11337008F3F11F40C948D0E2FEF2093630583E308
S113371091E090932F0580932E0586E0E7E5F1E094
S1133720D50101900D928A95E1F72F930BCA8A3B3C
S11337309105FCF480915905813011F40C948D0E9F
S11337408092590587E0E6E3F1E0D50101900D92FE
S11337508A95E1F7EAE6F6E02DC880E090E00C9463
S1133760FA1180E090E00C94191280E090E00C943F
S113377038128731A1E09A070CF0CEC18091590527
S1133780823011F40C948D0E82E08093590587E009
S1133790E6E3F1E0D50101900D928A95E1F7ECE6BC
S11337A0F6E0659174915101812F992D0E940D22AB
S11337B0D1010D900020E9F7119785E0E5E4F1E0EF
S11337C001900D928A95E1F78CE0E12FF92DDE014D
S11337D0559601900D928A95E1F719A22D98449877
S11337E05C985D9A5C9A5C985D985C9A5C985D982C
S11337F05C9A5C985D985C9A5C985D985C9A5C981D
S11338005D985C9A5C985D985C9A5C985D985C9A0B
S11338105C98449A2D9844985C985D985C9A5C985E
S11338205D9A5C9A5C985D985C9A5C985D985C9AE9
S11338305C985D985C9A5C985D9A5C9A5C985D98DB
S11338405C9A5C985D9A5C9A5C98449A8D8988230A
S113385011F40C948D0EDE0156962D9A44985C98C2
S11338605D985C9A5C985D985C9A5C985D985C9AAB
S11338705C985D985C9A5C985D985C9A5C985D989D
S11338805C9A5C985D985C9A5C985D985C9A5C988C
S1133890449A992787FD90958097FC01EE0FFF1FAE
S11338A0EE0FFF1FE80FF91FE05FFC4F35E0219199
S11338B02D9A44985C98822F90E0880F892F881F56
S11338C0990B892B09F058C05D985C9A5C9826FD89
S11338D051C05D985C9A5C9825FD4AC05D985C9ADD
S11338E05C9824FD43C05D985C9A5C9823FD3CC0C1
S11338F05D985C9A5C9822FD35C05D985C9A5C98F2
S113390021FD2EC05D985C9A5C9820FD27C05D98CF
S11339105C9A5C98449A315051F62D9A44985C987C
S11339205D985C9A5C985D985C9A5C985D985C9AEA
S11339305C985D985C9A5C985D985C9A5C985D98DC
S11339405C9A5C985D985C9A5C985D985C9A5C98CB
S1133950449A8D91811181CF0C948D0E5D9AD8CFAC
S11339605D9AD1CF5D9ACACF5D9AC3CF5D9ABCCF21
S11339705D9AB5CF5D9AAECF5D9AA7CF20E030E0D7
S11339800C945C1280E090E022C980E090E00C94FA
S11339907D1420E030E078C98F3FB1E09B070CF044
S11339A0D5C080910601823011F40C946F1282E02C
S11339B0809306018AEA91E0909337058093360557
S11339C087E0E8E1F1E0D50101900D928A95E1F7F5
S11339D0E0E8F6E093CD8736A2E09A070CF06CC0DD
S11339E080916305882311F40C948D0E1092630565
S11339F080E092E090932F0580932E0586E0E7E522
S1133A00F1E0D50101900D928A95E1F71F921F9282
S1133A109AC880E090E0F9C880E090E014C9863B41
S1133A20B1E09B070CF067C080910201823011F471
S1133A300C94E11482E0809302018DE691E0BDCC08
S1133A40863BB1E09B070CF0A0C08091030182305B
S1133A5009F42AC982E0809303018DE691E0F5CC54
S1133A608FE49EE4A0E089879A87AB870C94C21107
S1133A708FE49EE4A0E08F839887A98718CE1092E4
S1133A80020189E490E099CC1092030189E490E06A
S1133A90DCCC1092060185E590E090933705809385
S1133AA0360587E0E8E1F1E0D50101900D928A95B1
S1133AB0E1F7ECE7F6E022CD8433A3E09A070CF0BB
S1133AC091C080916305813011F40C948D0E809225
S1133AD063058DEC92E090932F0580932E0586E08C
S1133AE0E7E5F1E0D50101900D928A95E1F71F9287
S1133AF0B1E0BF9328C8883422E092070CF092C04A
S1133B0080910201833011F40C94E11483E08093DA
S1133B1002018FEF91E051CC8437B1E09B070CF0A8
S1133B20B1C080915905833011F40C948D0E83E05B
S1133B308093590587E0E6E3F1E0D50101900D9209
S1133B408A95E1F7EEE6F6E00C94DA138A3A22E07D
S1133B5092070CF078C080910601833011F40C9424
S1133B606F1283E08093060184E592E09093370519
S1133B708093360587E0E8E1F1E0D50101900D92EC
S1133B808A95E1F7E2E8F6E0B9CC883422E09207BE
S1133B90CCF480910301833009F486C883E08093D8
S1133BA003018FEF91E051CC8091F0048F5F8093FB
S1133BB0F0040C9423148FE49EE4A0E08F83988790
S1133BC0A987B2CB8A3D32E093070CF0C8C080913C
S1133BD00301843009F468C884E08093030181E917
S1133BE092E033CC8F3F934014F00C948D0E80916F
S1133BF06305823011F40C948D0E82E0809363058A
S1133C002AE933E030932F0520932E0596E0E7E56B
S1133C10F1E0D50101900D929A95E1F71F928F93EF
S1133C200C94A3158A3D32E093070CF044C08091B4
S1133C300201843011F40C94E11484E080930201B5
S1133C4081E992E0BACB843533E093070CF097C056
S1133C5080910601843011F40C946F1284E08093F7
S1133C6006018FEF92E0909337058093360587E045
S1133C70E8E1F1E0D50101900D928A95E1F7E4E8DD
S1133C80F6E03CCC813D21E092072CF5809159056A
S1133C90843011F40C948D0E84E08093590587E0F0
S1133CA0E6E3F1E0D50101900D928A95E1F7E0E7B2
S1133CB0F6E00C94DA138C36A3E09A072CF5809185
S1133CC00201853011F40C94E11485E08093020123
S1133CD083E293E072CB8E3232E0930734F5809125
S1133CE05905853011F40C948D0E85E080935905A7
S1133CF087E0E6E3F1E0D50101900D928A95E1F7C2
S1133D00E2E7F6E00C94DA138F3F934014F00C943E
S1133D10E11480910201863011F40C94E11486E0E0
S1133D208093020185EB93E048CB8B38A2E09A079D
S1133D300CF055C080915905863011F40C948D0E09
S1133D4086E08093590587E0E6E3F1E0D501019030
S1133D500D928A95E1F7E4E7F6E00C94DA138C36D9
S1133D60A3E09A075CF580910301853011F40C946B
S1133D70541685E08093030183E293E066CB8F3F82
S1133D80934014F00C946F1280910601863011F464
S1133D900C946F1286E08093060189EA93E0909375
S1133DA037058093360587E0E8E1F1E0D50101901D
S1133DB00D928A95E1F7E8E8F6E0A0CB8F3F9340B7
S1133DC014F00C94541680910301863011F40C9471
S1133DD0541686E08093030185EB93E036CB883E4E
S1133DE0B2E09B07A4F480915905873011F40C9438
S1133DF08D0E87E080935905E6E3F1E0D50101904B
S1133E000D928A95E1F7E6E7F6E00C94DA1385342F
S1133E1023E092076CF480915905883011F40C94D6
S1133E208D0E88E0809359050E94B0090C948D0E84
S1133E30823A33E093076CF480915905893011F488
S1133E400C948D0E89E0809359050E94B0090C945E
S1133E508D0E8F3F934014F00C948D0E8091590574
S1133E60882311F40C948D0E109259050E94B00908
S1133E700C948D0E1F920F920FB60F9211248F93F4
S1133E809F93EF93FF938091C60087FD21C090918B
S1133E908805E92FF0E0E757FA4F80839F5F93305E
S1133EA059F090938805FF91EF919F918F910F9016
S1133EB00FBE0F901F90189591E090938805809104
S1133EC08905803861F0803971F790930501EBCF53
S1133ED0807F8093890581E080938805E4CF1092E8
S1133EE00501E1CF1F920F920FB60F9211242F9369
S1133EF03F934F938F939F93EF93FF934091980534
S1133F00842F90E02091780030917900FC01EE0F2D
S1133F10FF1FE057FA4F31832083FC01E457FA4F27
S1133F2021E020834F5F443088F01092980540E0F0
S1133F3040937C00FF91EF919F918F914F913F911E
S1133F402F910F900FBE0F901F90189540939805D6
S1133F50EFCF1F920F920FB60F9211242F933F931E
S1133F604F935F936F937F938F939F93AF93BF937D
S1133F70EF93FF93CF93DF9300D000D0CDB7DEB79C
S1133F8040917C0550917D0560917E0570917F057F
S1133F908091800590918105A0918205B09183055F
S1133FA0840F951FA61FB71F8093800590938105EA
S1133FB0A0938205B09383054091660550916705EF
S1133FC0609168057091690580916A0590916B050F
S1133FD0A0916C05B0916D05840F951FA61FB71FA6
S1133FE080936A0590936B05A0936C05B0936D055F
S1133FF080910001909101019C013695279580FDE7
S1134000C4C03093010120930001809105018823ED
S113401009F483C080917505909176059093740599
S11340208093730580917705909178059093760538
S113403080937505E0910301809179059091820543
S1134040890FF0E0EE0FFF1FEE5FFC4F0190F0814F
S1134050E02DE80FF11DE859FF4FE491F0E0F093F3
S11340607805E093770580910301853009F490C0C9
S113407080915A05811168C0E0910201F0E0EE0FD1
S1134080FF1FEE5FFC4F8591949140916205509122
S11340906C05450FFC01E40FF11DE859FF4FE49155
S11340A0F0E0F0936005E0935F0585E08093020102
S11340B03093600520935F05209177053091780552
S11340C040910701429FC001439F900D112490939A
S11340D078058093770520915F05309160054091C4
S11340E06105429FC001439F900D11249093600588
S11340F080935F05209177053091780580915F0565
S113410090916005820F931FA0E0B0E089839A83A9
S1134110AB83BC838A818093B3000F900F900F9080
S11341200F90DF91CF91FF91EF91BF91AF919F914C
S11341308F917F916F915F914F913F912F910F904C
S11341400FBE0F901F9018954091750550917605FC
S113415080917305909174054817590708F08CCF26
S11341604091750550917605809177059091780579
S11341704817590708F080CF10926A0510926B0512
S113418010926C0510926D0577CF84EB382739CFE8
S1134190309378052093770580915A05882309F494
S11341A06BCFD2CFDF93CF931F930F939A9DF02DB4
S11341B0219FF00D8B9DF00D8A9DE02DF10D039F45
S11341C0F00D029FE00DF11D4E9DE00DF11D5E9D71
S11341D0F00D4F9DF00D7F936F93BF92AF925F935D
S11341E04F93D5010E94FE218B01AC01D7010E949F
S11341F0FE21EB01E80FF91FD6010E9422212F9125
S11342003F91D6010E94FE21C60FD71FE81FF91F58
S1134210AF91BF910E9422212F913F910E94FE21D4
S1134220C60FD71FE81FF91FD6010E94FE21E60F13
S1134230F71F9801BE01CF0111240F911F91CF9157
S1134240DF9108950E94FE21460F571FC81FD91FF2
S113425008F431960895E894DF93CF93FC01DB01D1
S11342600E94FE217F936F93E9019A01AC01BF93F1
S1134270AF933F932F93DF010E94FE2126F46C1B22
S11342807D0B820B930B9E01EB01FC010E9422210A
S1134290AF91BF912F913F910E942221BE01CF0186
S11342A0F9012F913F91CF91DF910895689401C056
S11342B0E8948F929F92CF93DF930E946421DF91C1
S11342C0CF919F908F90089588249924F401E4015C
S11342D0B0E49F93AA279A158B049C04ED05FE0570
S11342E0CF05D007A10798F4AD2FDC2FCF2FFE2FD9
S11342F0E92D982C892E982F872F762F652F542FF0
S1134300432F322F2227B85031F7BF9127C01B2EDD
S1134310BF91BB27220F331F441F551F661F771FF2
S1134320881F991F881C991CEE1FFF1FCC1FDD1FBF
S1134330AA1FBB1F8A149B04EC05FD05CE05DF05EF
S1134340A007B10748F08A189B08EC09FD09CE09BB
S1134350DF09A00BB10B21601A94E1F62EF494014D
S1134360AF01BE01CD01000C08950F93083090F009
S1134370982F872F762F652F542F432F322F2227E4
S11343800850F4CF220F331F441F551F661F771F99
S1134390881F991F0A95B2F70F91089597FB10F89B
S11343A0169400080F93083098F00850232F342FE8
S11343B0452F562F672F782F892F902DF4CF0594F2
S11343C09795879577956795579547953795279549
S11343D00A95AAF70F9108952A0D3B1D4C1D5D1DEA
S11343E06E1D7F1D801F911F08952A193B094C09DA
S11343F05D096E097F09800B910B0895A29FB0019E
S1134400B39FC001A39F700D811D1124911DB29F04
S1134410700D811D1124911D0895FB01DC010D9087
S11344200020E9F7119705900D920020E1F7089517
S1134430AEE0B0E0EEE1F2E20C94C0240D891E89F6
S113444086E08C831A8309838FEF9FE79E838D8395
S1134450AE01475E5F4F6F89788DCE0101960E9451
S11344603A22EF81F885E00FF11F10822E96E4E0E6
S11344700C94DC24ACE0B0E0E0E4F2E20C94B2246E
S11344807C016B018A01FC0117821682838181FF02
S1134490BDC1CE0101964C01F7019381F60193FD54
S11344A0859193FF81916F01882309F4ABC1853213
S11344B039F493FD859193FF81916F01853229F43D
S11344C0B70190E00E942224E7CF512C312C20E048
S11344D02032A0F48B3269F030F4803259F0833208
S11344E069F420612CC08D3239F0803339F42160B5
S11344F026C02260246023C0286021C027FD27C075
S113450030ED380F3A3078F426FF06C0FAE05F9EAB
S1134510300D1124532E13C08AE0389E300D11241F
S1134520332E20620CC08E3221F426FD6BC1206430
S113453006C08C3611F4206802C0883641F4F601B6
S113454093FD859193FF81916F018111C1CF982FC4
S11345509F7D9554933028F40C5F1F4FFFE3F9833C
S11345600DC0833631F0833771F0833509F05BC0B9
S113457022C0F801808189830E5F1F4F4424439435
S1134580512C540115C03801F2E06F0E711CF80172
S1134590A080B18026FF03C0652D70E002C06FEFDC
S11345A07FEFC5012C870E9417242C0183012C85E1
S11345B02F77222E17C03801F2E06F0E711CF8011C
S11345C0A080B18026FF03C0652D70E002C06FEFAC
S11345D07FEFC5012C870E940C242C012C852068B8
S11345E0222E830123FC1BC0832D90E0481659061C
S11345F0B0F4B70180E290E00E9422243A94F4CF10
S1134600F50127FC859127FE81915F01B70190E0B8
S11346100E94222431103A94F1E04F1A51084114B7
S1134620510471F7E5C0843611F0893639F5F80183
S113463027FF07C060817181828193810C5F1F4FC6
S113464008C060817181882777FD8095982F0E5F5F
S11346501F4F2F76B22E97FF09C0909580957095C5
S113466061957F4F8F4F9F4F2068B22E2AE030E034
S1134670A4010E945424A82EA81844C0853729F404
S11346802F7EB22E2AE030E025C0F22FF97FBF2E14
S11346908F36C1F018F4883579F0B4C0803719F03A
S11346A0883721F0AFC02F2F2061B22EB4FE0DC089
S11346B08B2D8460B82E09C024FF0AC09F2F9660FA
S11346C0B92E06C028E030E005C020E130E002C089
S11346D020E132E0F801B7FE07C060817181828178
S11346E093810C5F1F4F06C06081718180E090E070
S11346F00E5F1F4FA4010E945424A82EA818FB2D5E
S1134700FF77BF2EB6FE0BC02B2D2E7FA51450F4C1
S1134710B4FE0AC0B2FC08C02B2D2E7E05C07A2C34
S11347202B2D03C07A2C01C0752C24FF0DC0FE0173
S1134730EA0DF11D8081803311F4297E09C022FF26
S113474006C07394739404C0822F867809F073941E
S113475023FD13C020FF06C05A2C731418F4530C05
S11347605718732C731468F4B70180E290E02C8717
S11347700E94222473942C85F5CF731410F43718F7
S113478001C0312C24FF12C0B70180E390E02C87D4
S11347900E9422242C8522FF17C021FF03C088E534
S11347A090E002C088E790E0B7010CC0822F8678C1
S11347B059F021FD02C080E201C08BE227FD8DE2A9
S11347C0B70190E00E942224A51438F4B70180E3D5
S11347D090E00E9422245A94F7CFAA94F401EA0D9F
S11347E0F11D8081B70190E00E942224A110F5CF31
S11347F0332009F451CEB70180E290E00E942224D4
S11348003A94F6CFF7018681978102C08FEF9FEF2C
S11348102C96E2E10C94CE24FC010590615070408A
S11348200110D8F7809590958E0F9F1F0895FC0175
S11348306150704001900110D8F7809590958E0FCB
S11348409F1F08950F931F93CF93DF93182F092F62
S1134850EB018B8181FD03C08FEF9FEF20C082FFAE
S113486010C04E815F812C813D81421753077CF437
S1134870E881F9819F012F5F3F4F3983288310839B
S113488006C0E885F985812F0995892B29F72E81A2
S11348903F812F5F3F4F3F832E83812F902FDF91E6
S11348A0CF911F910F910895FA01AA27283051F151
S11348B0203181F1E8946F936E7F6E5F7F4F8F4F4D
S11348C09F4FAF4FB1E03ED0B4E03CD0670F781FAC
S11348D0891F9A1FA11D680F791F8A1F911DA11D91
S11348E06A0F711D811D911DA11D20D009F46894CA
S11348F03F912AE0269F11243019305D3193DEF672
S1134900CF010895462F4770405D4193B3E00FD027
S1134910C9F7F6CF462F4F70405D4A3318F0495D12
S113492031FD4052419302D0A9F7EACFB4E0A695F5
S11349309795879577956795BA95C9F70097610517
S1134940710508959B01AC010A2E0694579547956D
S113495037952795BA95C9F7620F731F841F951F62
S1134960A01D08952F923F924F925F926F927F9273
S11349708F929F92AF92BF92CF92DF92EF92FF926B
S11349800F931F93CF93DF93CDB7DEB7CA1BDB0B17
S11349900FB6F894DEBF0FBECDBF09942A883988BC
S11349A048885F846E847D848C849B84AA84B984C3
S11349B0C884DF80EE80FD800C811B81AA81B981CF
S11349C0CE0FD11D0FB6F894DEBF0FBECDBFED01E3
S10949D00895F894FFCFE6
S11349D6E1AC0302300106FF256400204F53433146
S11349E6204354524C2E2000574156453A2000434A
S11349F6454E54533A200053454D49533A200053EB
S1134A06594E433A2000525554453A20002020205E
S1134A1620202020202020202000204F5343322015
S1134A264354524C2E20004F43543A2000204C4607
S1134A364F20204354524C2E2000465245513A20D2
S1134A4600445054483A20004D4958494E472043A3
S1134A5654524C2E00574549474854313A20005782
S1134A664549474854323A200053594E4320323A76
S1134A76200000801B004E211D0021DE1E0004B410
S1134A862000D6A5220046B5240012E426001234DE
S1134A9629004BA72B00D23F2E00D8FF3000C0E9D7
S1134AA63300000037009C423A0042BC3D000868CF
S1134AB64100AC4B45008C6A490024C84D0024686B
S1134AC65200964E5700A47F5C00B0FF610080D36D
S1134AD6670000006E003885740084787B0010D06F
S1134AE6820058978A0018D5920048909B0048D0B7
S1134AF6A4002C9DAE0048FFB80060FFC30000A7C9
S1134B06CF000000DC00700AE90008F1F60020A0DE
S1134B160501B02E150130AA25019020370190A079
S1134B2649015E3A5D0190FE7101C0FE8701004EA7
S1134B369F010000B801E014D20110E2ED014040EB
S1134B460B02605D2A0260544B0220416E02204132
S1134B569302B074BA0220FDE30280FD0F03009CA9
S1134B663E0300007003C029A40320C4DB03808035
S1134B761604C0BA5404C0A896044082DC044082D9
S1134B86260560E9740540FAC70500FB1F060038D0
S1134B967D060000E006805348074088B7070001F9
S1134BA62D088075A90880512D098094B0098004C8
S1134BB64D0AC0D2E90A80F48F0B00F63F0C007050
S1134BC6FA0C0000C00D00A7900E80106F0F0002B3
S1134BD65A10000000010002000300040000000552
S1134BE6000000000000005F00000007000700143A
S1134BF67F147F14242A7F2A1223130864623649F9
S1134C065522500005030000001C224100004122E9
S1134C161C0014083E081408083E0808005030001A
S1134C260008080808080060600000201008040254
S1134C363E5149453E00427F40004261514946216A
S1134C4641454B311814127F1027454545393C4AD6
S1134C564949300171090503364949493606494926
S1134C66291E00363600000056360000081422417C
S1134C7600141414141400412214080201510906E4
S1134C86324979413E7E1111117E7F494949363EAA
S1134C96414141227F4141221C7F494949417F09C3
S1134CA60909013E4149497A7F0808087F00417F86
S1134CB641002040413F017F081422417F4040408B
S1134CC6407F020C027F7F0408107F3E4141413E33
S1134CD67F090909063E4151215E7F091929464685
S1134CE64949493101017F01013F4040403F1F20AE
S1134CF640201F3F4038403F631408146307087080
S1134D0608076151494543007F41410002040810E8
S1134D16200041417F00040201020440404040401B
S1134D26000102040020545454787F48444438381F
S1134D3644444420384444487F3854545418087E24
S1134D460901020C5252523E7F0804047800447D45
S1134D5640002040443D007F1028440000417F402D
S1134D66007C041804787C080404783844444438E5
S1134D767C14141408081414187C7C0804040848C9
S1134D8654545420043F4440203C4040207C1C2082
S1134D9640201C3C4030403C44281028440C5050D1
S1134DA6503C4464544C44000836410000007F00E3
S1134DB60000413608001008081008784641467875
S9030000FC
