S010000053796E74684C43442E737265632B
S11300000C9435030C945D030C945D030C945D0314
S11300100C945D030C945D030C945D030C945D03DC
S11300200C945D030C942A070C945D030C945D03FB
S11300300C945D030C945D030C945D030C945D03BC
S11300400C945D030C945D030C94FA030C945D030F
S11300500C94B5030C94DB060C945D030C945D03C3
S11300600C945D030C945D03000000000101010287
S113007002030405050607090A0B0C0E0F101214DF
S11300801517191B1D1F212325272A2C2E31333622
S1130090383B3E404346494C4E5154575A5D606389
S11300A066696C6F7376797C7F8285888B8F929575
S11300B0989B9EA1A4A7AAADB0B2B5B8BBBEC0C35D
S11300C0C6C8CBCDD0D2D4D7D9DBDDDFE1E3E5E7B9
S11300D0E9EAECEEEFF0F2F3F4F5F7F8F9F9FAFBEC
S11300E0FCFCFDFDFDFEFEFEFEFEFEFEFDFDFDFC38
S11300F0FCFBFAF9F9F8F7F5F4F3F2F0EFEEECEAB9
S1130100E9E7E5E3E1DFDDDBD9D7D4D2D0CDCBC855
S1130110C6C3C0BEBBB8B5B2B0ADAAA7A4A19E9BCE
S11301209895928F8B8885827F7C7976736F6C69C2
S11301306663605D5A5754514E4C494643403E3BBA
S1130140383633312E2C2A272523211F1D1B19173E
S1130150151412100F0E0C0B0A09070605050403EB
S113016002020101010000008081838587898B8D53
S113017090929496989A9D9FA1A4A6A8AAADAFB177
S1130180B3B5B7B9BBBDBFC1C3C5C6C8CACCCED051
S1130190D2D5D7D9DCDEE0E3E5E8EAEDEFF1F4F619
S11301A0F8F9FBFCFDFEFFFFFFFFFEFEFDFBFAF886
S11301B0F7F5F3F0EEECE9E7E4E2DFDDDAD8D6D4E4
S11301C0D1CFCDCBC9C7C5C4C2C0BEBCBAB8B6B402
S11301D0B2B0AEABA9A7A5A2A09E9C999795939106
S11301E08E8C8A88868482807F7D7B797775737113
S11301F06E6C6A686663615F5D5A585654514F4D20
S11302004B49474543413F3D3B3A38363432302E23
S11302102B29272522201D1B181613110F0C0A0841
S1130220070504020101000000000102030406079F
S1130230090B0E101215171A1C1F212326282A2D0C
S11302402F31333537393A3C3E40424446484A4CD4
S11302504E50525557595B5E60626567696B6D6FAE
S1130260727476787A7C7E7F57575757575656550F
S1130270545351504E4D4B494745444241403F3EF3
S11302803D3D3D3D3D3D3D3D3D3D3D3D3C3C3B39A2
S113029038373533312F2E2C2A2927262525242497
S11302A024242525262627272727272726252322F2
S11302B0201E1C1A181614131110100F0F101112EF
S11302C0131517181A1C1D1E1E1F1E1D1C1A181587
S11302D0120F0C0806030100000103060B1118217C
S11302E02B3642505E6C7B8A99A7B5C2CFDAE3EC19
S11302F0F3F8FCFEFFFFFDFAF6F2EDE8E2DCD7D1FD
S1130300CCC8C4C1BEBCBAB9B9B9B9B9BABABBBB15
S1130310BBBBBABAB8B7B5B3B0ADABA8A5A29F9DE5
S11303209B99979694949393939393939393939382
S11303309291908F8E8C8A88868482807E7C7A7952
S1130340777675757474747373737373737372726D
S113035071706F6D6C6A68666462615F5D5C5B5A44
S11303605958585757575757A8A8A8A8A8A9A9AA89
S1130370ABACAEAFB1B2B4B6B8BABBBDBEBFC0C110
S1130380C2C2C2C2C2C2C2C2C2C2C2C2C3C3C4C641
S1130390C7C8CACCCED0D1D3D5D6D8D9DADADBDB2C
S11303A0DBDBDADAD9D9D8D8D8D8D8D8D9DADCDDB1
S11303B0DFE1E3E5E7E9EBECEEEFEFF0F0EFEEED94
S11303C0ECEAE8E7E5E3E2E1E1E0E1E2E3E5E7EADC
S11303D0EDF0F3F7F9FCFEFFFFFEFCF9F4EEE7DEC7
S11303E0D4C9BDAFA193847566584A3D30251C130A
S11303F00C07030100000205090D12171D23282E06
S113040033373B3E414345464646464645454444CC
S11304104444454547484A4C4F5254575A5D6062DC
S1130420646668696B6B6C6C6C6C6C6C6C6C6C6C1F
S11304306D6E6F7071737577797B7D7F818385862F
S113044088898A8A8B8B8B8C8C8C8C8C8C8C8D8DF4
S11304508E8F9092939597999B9D9EA0A2A3A4A5FD
S1130460A6A7A7A8A8A8A8A87F8D9AA7B4C0CBD5EB
S1130470DEE6EDF3F7FBFDFFFFFFFDFBF9F6F3F01E
S1130480EDEAE8E5E3E2E0E0E0E0E1E2E3E5E7E924
S1130490EBEDEFF0F2F3F4F4F4F4F3F3F1F0EEED4A
S11304A0EBE9E8E6E5E4E3E3E3E3E4E4E6E7E8EAEA
S11304B0ECEEEFF1F2F3F4F4F4F4F3F2F1EFEEEC2A
S11304C0EAE8E6E4E2E1E0E0E0E0E1E2E4E6E9ECE7
S11304D0EFF2F5F8FAFCFEFFFFFEFCF9F5F0EAE2B4
S11304E0D9D0C5BAAEA19486796B5E51453A2F2610
S11304F01D150F0A0603010000010305070A0D106C
S11305001316191B1D1E1F1F1F1F1E1D1B19171538
S11305101311100E0D0C0B0B0B0B0C0D0E101113F5
S1130520151718191B1B1C1C1C1C1B1A1917161435
S113053012110F0E0C0C0B0B0B0B0C0D0F101214D5
S113054016181A1C1D1E1F1F1F1F1D1C1A171512FB
S11305500F0C090604020000000204080C12192101
S11305602A343F4B5865727F0000000000000000F1
S11305700000000000000000000000000000000077
S11305800000000000000000000000000000000067
S11305900000000000000000000000000000000057
S11305A00000000000000000000000000000000047
S11305B00000000000000000000000000000000037
S11305C00000000000000000000000000000000027
S11305D00000000000000000000000000000000017
S11305E00000000000000000000000000000000007
S11305F000000000000000000000000000000000F7
S113060000000000000000000000000000000000E6
S113061000000000000000000000000000000000D6
S113062000000000000000000000000000000000C6
S113063000000000000000000000000000000000B6
S113064000000000000000000000000000000000A6
S11306500000000000000000000000000000000096
S11306600000000000000000070C11241FBECFEFA3
S1130670D8E0DEBFCDBF12E0A0E0B1E0EAE6FAE1E7
S113068002C005900D92A43AB107D9F725E0A4EA77
S1130690B2E001C01D92AE30B207E1F716E0CAE63F
S11306A0D6E004C02297FE010E94200DC836D1076F
S11306B0C9F70E9454040C94330D0C940000CF939A
S11306C0DF93CDB7DEB785EC90E0FC01108284ECBB
S11306D090E02FE1FC01208381EC90E028EDFC0107
S11306E0208382EC90E026E0FC012083DF91CF910F
S11306F00895CF93DF931F92CDB7DEB789830000AF
S113070080EC90E0FC018081882F90E08072992732
S113071021E0009709F020E0222391F786EC90E095
S11307202981FC0120830F90DF91CF910895CF930D
S1130730DF9300D0CDB7DEB79A8389830BC089815C
S11307409A81FC0180810E94790389819A810196B2
S11307509A83898389819A81FC018081882379F72E
S11307600F900F90DF91CF9108951F920F920090F8
S11307705F000F9211242F933F938F939F93EF93D6
S1130780FF93CF93DF93CDB7DEB78091A60390910B
S1130790A70301979093A7038093A6038091A603D0
S11307A09091A7031816190674F486EC90E0209132
S11307B0A4033091A503222731702C553D4FF90134
S11307C02081FC0120838091A4039091A5030196CC
S11307D09093A5038093A403DF91CF91FF91EF91B0
S11307E09F918F913F912F910F9000925F000F90F6
S11307F01F9018951F920F9200905F000F92112482
S11308002F933F934F935F936F937F938F939F9314
S1130810AF93BF93EF93FF93CF93DF93CDB7DEB73F
S11308208091A8049091A9048827917026EC30E067
S1130830F901208188559C4FFC0120838091A804F4
S11308409091A90401969093A9048093A80480919F
S1130850AA049091AB0401969093AB048093AA04EC
S11308608091AC049091AD04009751F02091AC04B8
S11308703091AD048091AA049091AB04F9010995DB
S1130880DF91CF91FF91EF91BF91AF919F918F91A4
S11308907F916F915F914F913F912F910F900092B3
S11308A05F000F901F901895CF93DF93CDB7DEB7FD
S11308B0C456D1090FB6F894DEBF0FBECDBF0E9457
S11308C066048BE091E00E949703FFCFCF93DF9300
S11308D0CDB7DEB7C456D1090FB6F894DEBF0FBE4C
S11308E0CDBF45E055E06AE179E185EF96E40E94E9
S11308F09F0965E075E081E090E00E94BD0BDC019A
S1130900CB018093090590930A05A0930B05B0933E
S11309100C0565E075E080E091E00E94BD0BDC0110
S1130920CB018093010590930205A0930305B09336
S1130930040567EB74E080E793E00E94810961E0BD
S113094075E087EB94E00E94820ADC01CB0180937E
S1130950C7049093C804A093C904B093CA0465ED76
S113096074E080E793E00E94810961E075E085ED21
S113097094E00E94820ADC01CB018093DD04909311
S1130980DE04A093DF04B093E00446EF54E060E09B
S113099070E080EC9FE30E949F0961E075E086EFC0
S11309A094E00E94820ADC01CB018093EA049093D4
S11309B0EB04A093EC04B093ED0467E270E081E0F3
S11309C095E00E940A0BDC01CB018093FD04909317
S11309D0FE04A093FF04B09300050E9425050E9425
S11309E05F030E9436050E941E0584E290E024E223
S11309F030E0F90120812860FC0120838BE191E043
S1130A000E94970380E790E020E730E0F90120811D
S1130A102160FC01208378948BE299E09093FC049C
S1130A208093FB040E943306CC59DF4F0FB6F89431
S1130A30DEBF0FBECDBFDF91CF910895CF93DF937B
S1130A40CDB7DEB7DF91CF910895CF93DF93CDB7C4
S1130A50DEB78EE790E02FE0FC0120838AE790E088
S1130A6022E8FC012083DF91CF910895CF93DF9397
S1130A70CDB7DEB781EB90E021EB30E0F9012081C6
S1130A802160FC01208381EB90E021EB30E0F9014F
S1130A9020812D7FFC01208381EB90E021EB30E06D
S1130AA0F90120812B7FFC01208380EB90E020EB77
S1130AB030E0F90120812F7BFC01208380EB90E062
S1130AC020EB30E0F90120812068FC01208380EBD9
S1130AD090E020EB30E0F90120812160FC012083CB
S1130AE080EB90E020EB30E0F90120812D7FFC01C8
S1130AF0208381EB90E021EB30E0F9012081277F16
S1130B00FC012083DF91CF910895CF93DF93CDB77C
S1130B10DEB78091CC04282F332727FD30958091B0
S1130B20CD04992787FD9095820F931FC0961816C0
S1130B30190624F5F8948091CC04282F332727FD37
S1130B4030958091CD04992787FD9095820F931F4E
S1130B50C096880F991F880F991F8D5B9E4FFC01CB
S1130B6080819181A281B3818093C7049093C8044A
S1130B70A093C904B093CA0478940EC0F8948DE588
S1130B8099E3A0E0B0E08093C7049093C804A093D5
S1130B90C904B093CA047894DF91CF910895CF9398
S1130BA0DF9300D000D0CDB7DEB78091CB04282FDF
S1130BB0332727FD30958091000190910101280F82
S1130BC0391F47E2429FC001439F900D1124AA2779
S1130BD097FDA095BA2F89839A83AB83BC83F8943D
S1130BE08091C7049091C804A091C904B091CA042B
S1130BF029813A814B815C81BC01CD010E94140C96
S1130C00DC01CB0189839A83AB83BC8389819A817C
S1130C10AB81BC81CD01BB2797FDB095AB2F8983F8
S1130C209A83AB83BC832091C7043091C80440915C
S1130C30C9045091CA0489819A81AB81BC81820F15
S1130C40931FA41FB51F8093C7049093C804A09357
S1130C50C904B093CA0478940F900F900F900F902A
S1130C60DF91CF910895CF93DF9300D000D0CDB71B
S1130C70DEB780ED95E9A3E0B0E08093B7049093EC
S1130C80B804A093B904B093BA048091CB04282F7C
S1130C90332727FD30958091000190910101280FA1
S1130CA0391F47E2429FC001439F900D1124AA2798
S1130CB097FDA095BA2F89839A83AB83BC83CE0119
S1130CC00196BC0187EB94E00E94820A9B01AC016F
S1130CD08091B7049091B804A091B904B091BA047A
S1130CE0820F931FA41FB51F8093B7049093B80479
S1130CF0A093B904B093BA04F89480ED95E9A3E005
S1130D00B0E08093C7049093C804A093C904B0933F
S1130D10CA0461E075E085ED94E00E94820ADC017A
S1130D20CB018093DD049093DE04A093DF04B093A1
S1130D30E00461E075E086EF94E00E94820ADC0141
S1130D40CB018093EA049093EB04A093EC04B0935A
S1130D50ED0478940E9485050E94CF050F900F90B2
S1130D600F900F90DF91CF910895CF93DF931F924F
S1130D70CDB7DEB78091090190910A018170898312
S1130D808091090190910A019695879590930A01A3
S1130D90809309018981813051F4809109019091F6
S1130DA00A0124EB922790930A01809309010F9082
S1130DB0DF91CF9108951F920F9200905F000F92E0
S1130DC011242F933F934F935F936F937F938F934C
S1130DD09F93AF93BF93EF93FF93CF93DF93CDB7DD
S1130DE0DEB787E291E00E9497038091AE04882FDA
S1130DF090E028E730E0F90120813181880F991FC4
S1130E0081559B4FFC01318320838091AE048F5F19
S1130E108093AE048091AE04843010F01092AE043E
S1130E208CE790E02091AE04FC012083DF91CF9108
S1130E30FF91EF91BF91AF919F918F917F916F91AE
S1130E405F914F913F912F910F9000925F000F900F
S1130E501F9018951F920F9200905F000F9211241B
S1130E602F933F934F935F936F937F938F939F93AE
S1130E70AF93BF93EF93FF93CF93DF93CDB7DEB7D9
S1130E802D97DEBFCDBF80910501882309F4C9C128
S1130E908091BF049091C004A091C104B091C20498
S1130EA08093BB049093BC04A093BD04B093BE0490
S1130EB08091C3049091C404A091C504B091C60468
S1130EC08093BF049093C004A093C104B093C20460
S1130ED02091C3043091C4044091C5045091C604C8
S1130EE08091C7049091C804A091C904B091CA0428
S1130EF0820F931FA41FB51F8093C3049093C4044F
S1130F00A093C504B093C6042091D9043091DA04A7
S1130F104091DB045091DC048091DD049091DE0467
S1130F20A091DF04B091E004820F931FA41FB51FAA
S1130F308093D9049093DA04A093DB04B093DC0487
S1130F400E94B5068091D1049091D2049093D0046C
S1130F508093CF048091D3049091D4049093D204CD
S1130F608093D10480910701882F90E0880F991F06
S1130F708B5C9E4FFC01808191819C0185EC94E007
S1130F80FC0190818091CE04890F882F90E0820F1C
S1130F90931F88599F4F9A83898389819A81FC0181
S1130FA084918B838B81882F90E09093D4048093D9
S1130FB0D30480910701853041F480910901909117
S1130FC00A019093D4048093D3048091030188236D
S1130FD021F181EC94E0FC0120818DEB94E0FC0193
S1130FE080812817D0F481EC94E0FC01208185EC09
S1130FF094E0FC018081281780F48091C3049091CF
S1131000C404A091C504B091C6048093D9049093FC
S1131010DA04A093DB04B093DC04809108018530EA
S113102061F180910801882F90E0880F991F8B5CF3
S11310309E4FFC01808191819C018BED94E0FC0129
S11310408081882F90E0280F391F8091E10499272F
S113105087FD9095820F931F88599F4F9D838C83A2
S11310608C819D81FC0184918E838E81882F90E0F8
S11310709093E8048093E70408C08091090190915B
S11310800A019093E8048093E7042091EE043091E0
S1131090EF044091F0045091F1048091EA0490919E
S11310A0EB04A091EC04B091ED04820F931FA41FF4
S11310B0B51F8093EE049093EF04A093F004B093D3
S11310C0F1048091F4049091F5049093F3048093D7
S11310D0F2048091FA04882F90E0880F991F8B5CAA
S11310E09E4FFC01808191819C0180EF94E0FC0182
S11310F08081882F90E0820F931F88599F4F988793
S11311008F838F819885FC01849189878985882FB5
S113111090E09093F5048093F4048091F40490910A
S1131120F504805891099093F5048093F4041A8689
S11311301B861C861D864091D3045091D404809153
S11311400201282F30E0429FC001439F900D529F1F
S1131150900D11249093D4048093D3044091E70418
S11311605091E8048091E204282F30E0429FC001AE
S1131170439F900D529F900D11249093E804809307
S1131180E7048091E904882391F02091D3043091FD
S1131190D4048091E7049091E80482279327CC013A
S11311A0A0E0B0E08A879B87AC87BD871EC0809192
S11311B0D3049091D404CC01A0E0B0E08A879B874B
S11311C0AC87BD878091E7049091E8049C0140E0DE
S11311D050E08A859B85AC85BD85820F931FA41F33
S11311E0B51F8A879B87AC87BD872091F204309115
S11311F0F3048091F4049091F5042817390761F001
S11312008091FB049091FC04009731F08091FB04E1
S11312109091FC04FC01099583EB90E02B85FC0183
S113122020832D960FB6F894DEBF0FBECDBFDF919D
S1131230CF91FF91EF91BF91AF919F918F917F914A
S11312406F915F914F913F912F910F9000925F00AA
S11312500F901F901895CF93DF9300D01F92CDB7B6
S1131260DEB719824091F4045091F5048091F4049E
S11312709091F504009719F081E090E002C08FEF9F
S11312809FEF489F9001499F300D589F300D1124C6
S11312903093F5042093F4044091F4045091F50440
S11312A080910401282F30E0429FC001439F900D9C
S11312B0529F900D11249B838A8389818823A1F0F6
S11312C0CE0102960196FC01808181958093CD0424
S11312D08091F4049091F5049195819591099093EE
S11312E0F5048093F40403C08B818093CD040E94A1
S11312F085050E94CF050F900F900F90DF91CF913D
S11313000895CF93DF9300D000D0CDB7DEB79A8392
S113131089837C836B838B819C81029629813A81AA
S1131320FC01318320838B819C81FC01118210821A
S11313300F900F900F900F90DF91CF910895CF935E
S1131340DF93CDB7DEB72D970FB6F894DEBF0FBE8F
S1131350CDBF688779878A879B875D874C87CE0155
S113136008969A8389831B821C821D821E8289812E
S11313709A810296FC018081882F90E0A0E0B0E081
S11313808F779927AA27BB278B839C83AD83BE8342
S11313908B819C81AD81BE81BA2FA92F982F88277C
S11313A08B839C83AD83BE8389819A810196FC01E2
S11313B08081882F90E0A0E0B0E02B813C814D81BA
S11313C05E81822B932BA42BB52B8B839C83AD83C3
S11313D0BE838B819C81AD81BE81BA2FA92F982FAA
S11313E088278B839C83AD83BE8389819A81FC018A
S11313F08081882F90E0A0E0B0E02B813C814D817A
S11314005E81822B932BA42BB52B8B839C83AD8382
S1131410BE838B819C81AD81BE81689416F8B6959C
S1131420A795979587951694D1F78B839C83AD8365
S1131430BE831F8289819A810396FC0180818F7704
S11314408F838F81880F8F8389819A810296FC0113
S11314508081992787FD909580789927880F892F17
S1131460881F990B9F81892B8F838B819C81AD81F0
S1131470BE81A1602C853D85F90180839183A2837F
S1131480B3838F818F37D8F48C859D85FC0180814F
S11314909181A281B3812F81222F30E02F5731090E
S11314A004C0B695A795979587952A95D2F72C856C
S11314B03D85F90180839183A283B3831AC08C850F
S11314C09D85FC0180819181A281B3812F81222F8E
S11314D030E02F57310904C0880F991FAA1FBB1F82
S11314E02A95D2F72C853D85F90180839183A283C7
S11314F0B3832D960FB6F894DEBF0FBECDBFDF9138
S1131500CF910895AF92BF92CF92DF92EF92FF9264
S11315100F931F93CF93DF93CDB7DEB72C970FB6FE
S1131520F894DEBF0FBECDBF9A8789877C876B870F
S113153019821A821B821C821D821E821F821886B7
S113154089859A85FC0180819181A281B3819C0166
S1131550AD0160E070E0CB0129833A834B835C8367
S11315606D837E838F8398878B859C85FC01808126
S11315709181A281B3819C01AD0160E070E0CB0157
S1131580A22EB32EC42ED52EE62EF72E082F192FF9
S113159029813A814B815C816D817E818F8198851F
S11315A00E942F0CA22EB32EC42ED52EE62EF72E7B
S11315B0082F192FA982BA82CB82DC82ED82FE82A7
S11315C00F83188729813A814B815C816D817E81EB
S11315D08F81988500E10E94020DA22EB32EC42EA5
S11315E0D52EE62EF72E082F192FD601C501BC01E2
S11315F0CD012C960FB6F894DEBF0FBECDBFDF91A0
S1131600CF911F910F91FF90EF90DF90CF90BF90FB
S1131610AF900895CF93DF93CDB7DEB728970FB679
S1131620F894DEBF0FBECDBF9E838D8378876F8312
S11316308F8198859E012F5F3F4FB9010E948109D8
S11316408D819E819E012F5F3F4FB9010E94820AC6
S1131650DC01CB01BC01CD0128960FB6F894DEBFA6
S11316600FBECDBFDF91CF910895AF92BF92CF92BD
S1131670DF92EF92FF920F931F93CF93DF93CDB737
S1131680DEB72C970FB6F894DEBF0FBECDBF9A8796
S113169089877C876B8789859A85FC018081918104
S11316A0A281B3819C01AD0160E070E0CB0129838C
S11316B03A834B835C836D837E838F8398872981F0
S11316C03A814B815C816D817E818F81988500E1B7
S11316D00E94E70CA22EB32EC42ED52EE62EF72E92
S11316E0082F192FA982BA82CB82DC82ED82FE8276
S11316F00F8318878B859C85FC0180819181A28151
S1131700B3819C01AD0160E070E0CB01A22EB32E49
S1131710C42ED52EE62EF72E082F192F29813A81B3
S11317204B815C816D817E818F8198850E948A0CBA
S1131730A22EB32EC42ED52EE62EF72E082F192F47
S11317402A2D3B2D4C2D5D2D6E2D7F2D802F912F1D
S1131750DA01C901BC01CD012C960FB6F894DEBFA5
S11317600FBECDBFDF91CF911F910F91FF90EF90EE
S1131770DF90CF90BF90AF900895CF93DF93CDB714
S1131780DEB728970FB6F894DEBF0FBECDBF9E8399
S11317908D8378876F838D819E819E012F5F3F4F5C
S11317A0B9010E9481098F819885BC01CE010196FF
S11317B00E94350BDC01CB01BC01CD0128960FB68C
S11317C0F894DEBF0FBECDBFDF91CF910895CF93C4
S11317D0DF9300D000D0CDB7DEB79A8389837C83B2
S11317E06B8389819A818130910551F48B819C812D
S11317F08F3F2FEF920721F48091060180930D050E
S11318000F900F900F900F90DF91CF910895CF9389
S1131810DF93CDB7DEB76FEF7FEF81E090E00E94FA
S1131820E70BDF91CF910895DB018F939F930E9483
S1131830240CBF91AF91A29F800D911DA39F900D89
S1131840B29F900D112408950E94240DA59F900D20
S1131850B49F900DA49F800D911D11240895DF93D2
S1131860CF931F930F939A9DF02D219FF00D8B9D85
S1131870F00D8A9DE02DF10D039FF00D029FE00D08
S1131880F11D4E9DE00DF11D5E9DF00D4F9DF00D7F
S11318907F936F93BF92AF925F934F93D5010E9452
S11318A0240D8B01AC01D7010E94240DEB01E80F3C
S11318B0F91FD6010E947F0C2F913F91D6010E94FF
S11318C0240DC60FD71FE81FF91FAF91BF910E94C7
S11318D07F0C2F913F910E94240DC60FD71FE81F44
S11318E0F91FD6010E94240DE60FF71F9801BE01CF
S11318F0CF0111240F911F91CF91DF9108950E9480
S1131900240D460F571FC81FD91F08F43196089598
S1131910689401C0E8948F929F92CF93DF930E94C2
S1131920960CDF91CF919F908F90089588249924ED
S1131930F401E401B0E49F93AA279A158B049C0454
S1131940ED05FE05CF05D007A10798F4AD2FDC2FD8
S1131950CF2FFE2FE92D982C892E982F872F762FA5
S1131960652F542F432F322F2227B85031F7BF91C0
S113197027C01B2EBF91BB27220F331F441F551FA7
S1131980661F771F881F991F881C991CEE1FFF1F55
S1131990CC1FDD1FAA1FBB1F8A149B04EC05FD0589
S11319A0CE05DF05A007B10748F08A189B08EC09AB
S11319B0FD09CE09DF09A00BB10B21601A94E1F6F1
S11319C02EF49401AF01BE01CD01000C08950F93D4
S11319D0083090F0982F872F762F652F542F432FA0
S11319E0322F22270850F4CF220F331F441F551FD4
S11319F0661F771F881F991F0A95B2F70F910895E4
S1131A0097FB10F8169400080F93083098F00850CC
S1131A10232F342F452F562F672F782F892F902D62
S1131A20F4CF05949795879577956795579547953E
S1131A30379527950A95AAF70F910895EE0FFF1F82
S1131A400590F491E02D0994A29FB001B39FC001C9
S1131A50A39F700D811D1124911DB29F700D811DD6
S10D1A601124911D0895F894FFCF9E
S1131A6AF6FFFF0120010A0203E1AC48454C4C4F42
S1131A7A20574F524C440D0A0D0A00414443205347
S1131A8A657475700D0A004144432055706461748D
S1131A9A65640D0A0000000001000200030004004E
S1131AAA0000055D390000C33C00006340000037B4
S1131ABA44000045480000924C00001F510000F207
S1131ACA5500000E5B00007960000035660000498D
S1131ADA6C0000BA72000086790000C68000006EAD
S1131AEA8800008A900000249900003EA20000E4C5
S1131AFAAB00001CB60000F2C000006ACC000092E1
S1131B0AD8000074E500000CF300008C010100DC2D
S1131B1A10010014210100483201007C440100C86C
S1131B2A570100386C0100E4810100D498010024B3
S1131B3AB10100E8CA010018E6010018030200B85E
S1131B4A2102002842020090640200F888020090F0
S1131B5AAF020070D80200C8030300A8310300488A
S1131B6A620300D095030030CC03003006040070F1
S1131B7A4304005084040020C90400F01105002025
S1131B8A5F0500E0B0050090070600506306009068
S1131B9AC40600A02B070060980700600C0800E048
S1131BAA860800A008090040920900E0230A0040C0
S1131BBABE0A00C0610B00200F0C00A0C60C002056
S1131BCA890D0040570E00C0300F00C0181000C025
S1131BDA0D11004011120080241300C04714008024
S1131BEA7C150080C31600401E1800408D19004061
S1131BFA121B0080AE1C0080611E00803120008010
S1071C0A1B22000095
S9030000FC
