:100000000C9434030C9451030C9451030C9451033D
:100010000C9451030C9451030C9451030C94510310
:100020000C9451030C94C3060C9451030C9451038B
:100030000C9451030C9451030C9451030C945103F0
:100040000C9451030C9451030C9491030C945103A0
:100050000C945F030C9496060C9451030C9451037A
:100060000C9451030C9451030000000001010102A3
:1000700002030405050607090A0B0C0E0F101214E3
:100080001517191B1D1F212325272A2C2E31333626
:10009000383B3E404346494C4E5154575A5D60638D
:1000A00066696C6F7376797C7F8285888B8F929579
:1000B000989B9EA1A4A7AAADB0B2B5B8BBBEC0C361
:1000C000C6C8CBCDD0D2D4D7D9DBDDDFE1E3E5E7BD
:1000D000E9EAECEEEFF0F2F3F4F5F7F8F9F9FAFBF0
:1000E000FCFCFDFDFDFEFEFEFEFEFEFEFDFDFDFC3C
:1000F000FCFBFAF9F9F8F7F5F4F3F2F0EFEEECEABD
:10010000E9E7E5E3E1DFDDDBD9D7D4D2D0CDCBC859
:10011000C6C3C0BEBBB8B5B2B0ADAAA7A4A19E9BD2
:100120009895928F8B8885827F7C7976736F6C69C6
:100130006663605D5A5754514E4C494643403E3BBE
:10014000383633312E2C2A272523211F1D1B191742
:10015000151412100F0E0C0B0A09070605050403EF
:1001600002020101010000008081838587898B8D57
:1001700090929496989A9D9FA1A4A6A8AAADAFB17B
:10018000B3B5B7B9BBBDBFC1C3C5C6C8CACCCED055
:10019000D2D5D7D9DCDEE0E3E5E8EAEDEFF1F4F61D
:1001A000F8F9FBFCFDFEFFFFFFFFFEFEFDFBFAF88A
:1001B000F7F5F3F0EEECE9E7E4E2DFDDDAD8D6D4E8
:1001C000D1CFCDCBC9C7C5C4C2C0BEBCBAB8B6B406
:1001D000B2B0AEABA9A7A5A2A09E9C99979593910A
:1001E0008E8C8A88868482807F7D7B797775737117
:1001F0006E6C6A686663615F5D5A585654514F4D24
:100200004B49474543413F3D3B3A38363432302E27
:100210002B29272522201D1B181613110F0C0A0845
:1002200007050402010100000000010203040607A3
:10023000090B0E101215171A1C1F212326282A2D10
:100240002F31333537393A3C3E40424446484A4CD8
:100250004E50525557595B5E60626567696B6D6FB2
:10026000727476787A7C7E7F575757575756565513
:10027000545351504E4D4B494745444241403F3EF7
:100280003D3D3D3D3D3D3D3D3D3D3D3D3C3C3B39A6
:1002900038373533312F2E2C2A292726252524249B
:1002A00024242525262627272727272726252322F6
:1002B000201E1C1A181614131110100F0F101112F3
:1002C000131517181A1C1D1E1E1F1E1D1C1A18158B
:1002D000120F0C0806030100000103060B11182180
:1002E0002B3642505E6C7B8A99A7B5C2CFDAE3EC1D
:1002F000F3F8FCFEFFFFFDFAF6F2EDE8E2DCD7D101
:10030000CCC8C4C1BEBCBAB9B9B9B9B9BABABBBB19
:10031000BBBBBABAB8B7B5B3B0ADABA8A5A29F9DE9
:100320009B99979694949393939393939393939386
:100330009291908F8E8C8A88868482807E7C7A7956
:100340007776757574747473737373737373727271
:1003500071706F6D6C6A68666462615F5D5C5B5A48
:100360005958585757575757A8A8A8A8A8A9A9AA8D
:10037000ABACAEAFB1B2B4B6B8BABBBDBEBFC0C114
:10038000C2C2C2C2C2C2C2C2C2C2C2C2C3C3C4C645
:10039000C7C8CACCCED0D1D3D5D6D8D9DADADBDB30
:1003A000DBDBDADAD9D9D8D8D8D8D8D8D9DADCDDB5
:1003B000DFE1E3E5E7E9EBECEEEFEFF0F0EFEEED98
:1003C000ECEAE8E7E5E3E2E1E1E0E1E2E3E5E7EAE0
:1003D000EDF0F3F7F9FCFEFFFFFEFCF9F4EEE7DECB
:1003E000D4C9BDAFA193847566584A3D30251C130E
:1003F0000C07030100000205090D12171D23282E0A
:1004000033373B3E414345464646464645454444D0
:100410004444454547484A4C4F5254575A5D6062E0
:10042000646668696B6B6C6C6C6C6C6C6C6C6C6C23
:100430006D6E6F7071737577797B7D7F8183858633
:1004400088898A8A8B8B8B8C8C8C8C8C8C8C8D8DF8
:100450008E8F9092939597999B9D9EA0A2A3A4A501
:10046000A6A7A7A8A8A8A8A87F8D9AA7B4C0CBD5EF
:10047000DEE6EDF3F7FBFDFFFFFFFDFBF9F6F3F022
:10048000EDEAE8E5E3E2E0E0E0E0E1E2E3E5E7E928
:10049000EBEDEFF0F2F3F4F4F4F4F3F3F1F0EEED4E
:1004A000EBE9E8E6E5E4E3E3E3E3E4E4E6E7E8EAEE
:1004B000ECEEEFF1F2F3F4F4F4F4F3F2F1EFEEEC2E
:1004C000EAE8E6E4E2E1E0E0E0E0E1E2E4E6E9ECEB
:1004D000EFF2F5F8FAFCFEFFFFFEFCF9F5F0EAE2B8
:1004E000D9D0C5BAAEA19486796B5E51453A2F2614
:1004F0001D150F0A0603010000010305070A0D1070
:100500001316191B1D1E1F1F1F1F1E1D1B1917153C
:100510001311100E0D0C0B0B0B0B0C0D0E101113F9
:10052000151718191B1B1C1C1C1C1B1A1917161439
:1005300012110F0E0C0C0B0B0B0B0C0D0F101214D9
:1005400016181A1C1D1E1F1F1F1F1D1C1A171512FF
:100550000F0C090604020000000204080C12192105
:100560002A343F4B5865727F0000000000000000F5
:10057000000000000000000000000000000000007B
:10058000000000000000000000000000000000006B
:10059000000000000000000000000000000000005B
:1005A000000000000000000000000000000000004B
:1005B000000000000000000000000000000000003B
:1005C000000000000000000000000000000000002B
:1005D000000000000000000000000000000000001B
:1005E000000000000000000000000000000000000B
:1005F00000000000000000000000000000000000FB
:1006000000000000000000000000000000000000EA
:1006100000000000000000000000000000000000DA
:1006200000000000000000000000000000000000CA
:1006300000000000000000000000000000000000BA
:1006400000000000000000000000000000000000AA
:10065000000000000000000000000000000000009A
:10066000000000000000000011241FBECFEFD8E002
:10067000DEBFCDBF12E0A0E0B1E0E4ECF4E102C0E7
:1006800005900D92AC37B107D9F724E0ACE7B2E0A2
:1006900001C01D92A13FB207E1F70E9493060C949E
:1006A000600A0C9400001092C5008FE18093C40092
:1006B00088ED8093C10086E08093C20008951F9268
:1006C0000F920FB60F9211248F939F93EF93FF9386
:1006D0008091820390918303019790938303809389
:1006E0008203181619065CF4E0918403F0918503E7
:1006F000EE27F170EA57FC4F80818093C60080910D
:1007000084039091850301969093850380938403DD
:10071000FF91EF919F918F910F900FBE0F901F90BF
:1007200018951F920F920FB60F9211242F933F939B
:100730004F935F936F937F938F939F93AF93BF93E9
:10074000EF93FF9380918002909181022091C600E7
:10075000FC01EE27F170EE57FD4F20830196909338
:1007600081028093800280917E0290917F020196A7
:1007700090937F0280937E02E0917C02F0917D0253
:10078000309709F00995FF91EF91BF91AF919F913B
:100790008F917F916F915F914F913F912F910F902A
:1007A0000FBE0F901F901895CF93DF9300D0CDB759
:1007B000DEB72091A4043091A50421153105F1F490
:1007C0004FEF5FEF429FC001439F900D529F900DEE
:1007D00011249093A5048093A40440910701489F9D
:1007E0009001499F300D11243A8329838A81809397
:1007F00086040F900F90DF91CF91089541E050E073
:10080000E1CF2F923F924F925F926F927F928F92A1
:100810009F92AF92BF92CF92DF92EF92FF920F938F
:100820001F93CF93DF9300D000D0CDB7DEB780E029
:100830009DE8ACE8BAE78093930490939404A09366
:100840009504B093960481E090E09C838B831A8298
:10085000198289809A80AB80BC809401A50160E0F8
:1008600070E080E090E000E10E941A0AA12CEDE81F
:10087000BE2EFCE8CF2EAAE7DA2EE12CF12C00E008
:1008800010E00E94BD0920938F04309390044093A0
:1008900091045093920480E091E09C838B83898043
:1008A0009A80AB80BC809401A50160E070E080E09C
:1008B00090E000E10E941A0AA12CBDE8BB2E0CE8D2
:1008C000C02EEAE7DE2EE12CF12C00E00E94BD09EB
:1008D00039014A011B012C01322F30939704709289
:1008E00098048092990490929A0480E793E0909300
:1008F000E7048093E6041092E5041092E40400916A
:10090000E4041091E5042091E6043091E7045801D5
:10091000690100E010E09301A401B101C2010E944D
:10092000370900E10E94350AC901DA018093D40435
:100930009093D504A093D604B093D70480E793E0B6
:100940009093C6048093C5041092C4041092C3040B
:100950000091C3041091C4042091C5043091C604D1
:100960005801690100E010E09301A401B101C20146
:100970000E94370900E10E94350AC901DA0180931B
:10098000BB049093BC04A093BD04B093BE0480E06C
:1009900090E8A0E0B0E080939E0490939F04A09321
:1009A000A004B093A1049301A401B101C2010FE01E
:1009B0000E941A0A00E10E94350AC901DA018093F7
:1009C000AA049093AB04A093AC04B093AD048FE061
:1009D00080937E0082E880937A000E945303809186
:1009E000B10081608093B1008091B1008D7F8093D0
:1009F000B1008091B1008B7F8093B1008091B000F5
:100A00008F7B8093B0008091B00080688093B000AD
:100A10008091B00081608093B0008091B0008D7FA4
:100A20008093B0008091B100877F8093B10078946B
:100A300020919E0430919F044091A0045091A10404
:100A400060919704709198048091990490919A0410
:100A50000E9490090E94350AC901DA018093AA0414
:100A60009093AB04A093AC04B093AD04F8942091A0
:100A7000CE0430910D014091D0048091CF0499278C
:100A800087FD9095840F911D47FD9A95830F911DC9
:100A90003CE02302800D911D112497FD35C188355E
:100AA00091050CF004C1F8948091CE0420910D01C1
:100AB000E091D004FF27E7FDF0959091CF04E20F7D
:100AC000F11DE90FF11D97FDFA959CE08902E00DFB
:100AD000F11D1124EE0FFF1FEE0FFF1FE25FFE4F0F
:100AE00080819181A281B3818093D4049093D504B5
:100AF000A093D604B093D70478942091D104809128
:100B0000D2049091D304820F911D27FD9A9547E25C
:100B1000489F9001499F300D1124442737FD40958F
:100B2000542FF8946091D4047091D5048091D60428
:100B30009091D7040E941409BB2797FDB095AB2F65
:100B40004091D4045091D5046091D6047091D7049B
:100B5000840F951FA61FB71F8093D4049093D504CC
:100B6000A093D604B093D70478942091B704309121
:100B700008014091B9048091B804992787FD9095A8
:100B8000840F911D47FD9A95830F911D3CE0230230
:100B9000800D911D112497FDA8C0883591050CF09A
:100BA00095C0F8948091B70420910801E091B904B0
:100BB000FF27E7FDF0959091B804E20FF11DE90FD2
:100BC000F11D97FDFA959CE08902E00DF11D1124BD
:100BD000EE0FFF1FEE0FFF1FE25FFE4F808191813E
:100BE000A281B3818093BB049093BC04A093BD0405
:100BF000B093BE0478942091BA0480910A01909138
:100C00000B01820F911D27FD9A9547E2489F9001A5
:100C1000499F300D1124442737FD4095542FF894F7
:100C20006091BB047091BC048091BD049091BE049E
:100C30000E941409BB2797FDB095AB2F4091BB04D0
:100C40005091BC046091BD047091BE04840F951F47
:100C5000A61FB71F8093BB049093BC04A093BD0450
:100C6000B093BE047894239A809170008160809341
:100C70007000789484ED93E090939C0480939B049F
:100C80000F900F900F900F90DF91CF911F910F91C8
:100C9000FF90EF90DF90CF90BF90AF909F908F909C
:100CA0007F906F905F904F903F902F900895F894B1
:100CB00080E89BE1A2E2B0E08093D4049093D50455
:100CC000A093D604B093D704789417CFF89480E813
:100CD0009BE1A2E2B0E08093BB049093BC04A0939C
:100CE000BD04B093BE04789486CFF8948DE599E363
:100CF000A0E0B0E08093BB049093BC04A093BD043B
:100D0000B093BE04789477CFF8948DE599E3A0E092
:100D1000B0E08093D4049093D504A093D604B0930C
:100D2000D7047894EACE0E940104FFCF1F920F925D
:100D30000FB60F9211242F938F939F93EF93FF93EE
:100D40002091F004E22FF0E08091780090917900FA
:100D5000EE0FFF1FE851FB4F918380832F5F2430FC
:100D600078F01092F00420E020937C00FF91EF9146
:100D70009F918F912F910F900FBE0F901F901895FC
:100D80002093F004F1CF1F920F920FB60F9211240F
:100D9000BF92CF92DF92EF92FF920F931F932F9308
:100DA0003F934F935F936F937F938F939F93AF93F3
:100DB000BF93EF93FF93CF93DF9300D000D0CDB7D5
:100DC000DEB780910601882309F45CC1809100019F
:100DD00090910101AC015695479580FDEAC1509371
:100DE0000101409300018091DC049091DD04A09109
:100DF000DE04B091DF048093D8049093D904A093CB
:100E0000DA04B093DB040091E0041091E104209136
:100E1000E2043091E3040093DC041093DD0420939A
:100E2000DE043093DF048091D4049091D504A09126
:100E3000D604B091D704800F911FA21FB31F8093D7
:100E4000E0049093E104A093E204B093E3042091C2
:100E5000C9043091CA043093C8042093C704209178
:100E6000CB043091CC043093CA042093C904309150
:100E70000501B090E2042091CD042B0DE32FF0E0AA
:100E8000EE0FFF1FE259FD4F0190F081E02DE20FC0
:100E9000F11DE859FF4FE491353009F484C16E2FFC
:100EA00070E07093CC046093CB04C090BB04D090EE
:100EB000BC04E090BD04F090BE040091BF0410910A
:100EC000C0042091C1043091C2040C0D1D1D2E1DC3
:100ED0003F1D0093BF041093C0042093C1043093BE
:100EE000C2042091AF04222339F02091DE04309116
:100EF000DA04231708F460C1A0910401A530B1F011
:100F00008091B604E091C104F0E0E80FF11D87FD87
:100F1000FA95B0E0AA0FBB1FA259BD4F8D919C91CD
:100F2000E80FF91FE859FF4F449150E00091AA04DF
:100F30001091AB042091AC043091AD048091A604D3
:100F40009091A704A091A804B091A904800F911FCB
:100F5000A21FB31F8093A6049093A704A093A80494
:100F6000B093A9040091A4041091A5041093A304C4
:100F70000093A204E0919D04F0E0EE0FFF1FE25900
:100F8000FD4F8091A8040190F081E02DE80FF11D44
:100F9000E859FF4FE491F0E0E058F109F093A5041F
:100FA000E093A40480910C01869F9001879F300DEF
:100FB00011243093CC042093CB0460910901649FE9
:100FC000C001659F900D11249093B5048093B404E3
:100FD0004091AE04442309F473C028273927C9017E
:100FE000A0E0B0E089839A83AB83BC83AC01BD01F0
:100FF00080910201823009F473C0833008F08EC002
:10100000882309F4E5C0813081F5E0908704F090F1
:1010100088049A01AB012E193F09410951098091B9
:101020000301A0918604BB27A7FDB095A80FB11DB1
:10103000B7FDEEC0AF3FB10519F014F0AFEFB0E06F
:101040000E942F0969837A838B839C832A813B8149
:101050002E0D3F1DC901A0E0B0E089839A83AB83C8
:10106000BC8330938804209387040E171F0739F040
:10107000E0919B04F0919C04309709F009958A81D6
:101080008093B3000F900F900F900F90DF91CF914E
:10109000FF91EF91BF91AF919F918F917F916F9150
:1010A0005F914F913F912F911F910F91FF90EF9082
:1010B000DF90CF90BF900F900FBE0F901F901895AC
:1010C000A90160E070E0480F591F611D711D49833F
:1010D0005A836B837C8380910201823009F08DCF2B
:1010E000C0908704D09088049A01AB012C193D0967
:1010F0004109510980910301A0918604BB27A7FDF6
:10110000B095A80FB11DB7FD86C0AF3FB10519F06E
:1011100014F0AFEFB0E00E942F0939C0833009F41A
:1011200059C0843009F0A1CF80910301A0918604B9
:10113000BB27A7FDB095A80FB11DB7FD72C0C09029
:101140008704D09088049A01AB012C193D0941090C
:101150005109AF3FB10519F014F0AFEFB0E00E94B4
:101160002F0969837A838B839C83EA80FB80EC0C54
:10117000FD1C60E070E0CB0169837A838B839C83E4
:10118000CA80DB80CE0CDF1C60E070E0CB0169839D
:101190007A838B839C83EA80FB80EC0CFD1C60E0EF
:1011A00070E0CB014FCF5093CC044093CB04BA01F5
:1011B0007CCE84EB582713CE2B1508F09DCE809360
:1011C000BF049093C004A093C104B093C20494CE12
:1011D00000004BCFE0908704F09088049A01AB01A7
:1011E0002E193F094109510980910301A0918604FC
:1011F000BB27A7FDB095A80FB11DB7FD0FC0AF3F2E
:10120000B10519F014F0AFEFB0E00E942F09B4CF90
:10121000A0E0B0E00FCFA0E0B0E077CFA0E0B0E07A
:10122000EECFA0E0B0E08BCFDB018F939F930E94C5
:101230002409BF91AF91A29F800D911DA39F900D96
:10124000B29F900D112408950E94510AA59F900D00
:10125000B49F900DA49F800D911D11240895B7FF98
:101260000C9424090E942409821B930B0895DF9398
:10127000CF931F930F939A9DF02D219FF00D8B9D7F
:10128000F00D8A9DE02DF10D039FF00D029FE00D02
:10129000F11D4E9DE00DF11D5E9DF00D4F9DF00D79
:1012A0007F936F93BF92AF925F934F93D5010E944C
:1012B000510A8B01AC01D7010E94510AEB01E80FE2
:1012C000F91FD6010E9487092F913F91D6010E94F4
:1012D000510AC60FD71FE81FF91FAF91BF910E9497
:1012E00087092F913F910E94510AC60FD71FE81F0F
:1012F000F91FD6010E94510AE60FF71F9801BE019F
:10130000CF0111240F911F91CF91DF9108950E9479
:10131000510A460F571FC81FD91F08F43196089568
:10132000E894DF93CF93FC01DB010E94510A7F9385
:101330006F93E9019A01AC01BF93AF933F932F9351
:10134000DF010E94510A26F46C1B7D0B820B930B6C
:101350009E01EB01FC010E948709AF91BF912F9183
:101360003F910E948709BE01CF01F9012F913F9162
:10137000CF91DF910895689401C0E8948F929F9275
:10138000CF93DF930E94C909DF91CF919F908F90F7
:10139000089588249924F401E401B0E49F93AA27D6
:1013A0009A158B049C04ED05FE05CF05D007A10717
:1013B00098F4AD2FDC2FCF2FFE2FE92D982C892EFE
:1013C000982F872F762F652F542F432F322F2227C8
:1013D000B85031F7BF9127C01B2EBF91BB27220FFA
:1013E000331F441F551F661F771F881F991F881CB6
:1013F000991CEE1FFF1FCC1FDD1FAA1FBB1F8A14E5
:101400009B04EC05FD05CE05DF05A007B10748F0FC
:101410008A189B08EC09FD09CE09DF09A00BB10B66
:1014200021601A94E1F62EF49401AF01BE01CD01C2
:10143000000C08950F93083090F0982F872F762F87
:10144000652F542F432F322F22270850F4CF220F1D
:10145000331F441F551F661F771F881F991F0A954A
:10146000B2F70F91089597FB10F8169400080F93A8
:10147000083098F00850232F342F452F562F672F10
:10148000782F892F902DF4CF059497958795779590
:10149000679557954795379527950A95AAF70F9120
:1014A0000895A29FB001B39FC001A39F700D811D3D
:1014B0001124911DB29F700D811D1124911D08955D
:0414C000F894FFCFCE
:1014C400E1AC01FF020201FF308001007F305D3991
:1014D4000000C33C0000634000003744000045485E
:1014E4000000924C00001F510000F25500000E5BFA
:1014F40000007960000035660000496C0000BA7293
:10150400000086790000C68000006E8800008A9082
:101514000000249900003EA20000E4AB00001CB6C9
:101524000000F2C000006ACC000092D8000074E50C
:1015340000000CF300008C010100DC1001001421F8
:101544000100483201007C440100C8570100386C96
:101554000100E4810100D498010024B10100E8CA2B
:10156400010018E6010018030200B8210200284215
:10157400020090640200F888020090AF020070D864
:101584000200C8030300A831030048620300D09599
:10159400030030CC03003006040070430400508480
:1015A400040020C90400F0110500205F0500E0B02C
:1015B4000500900706005063060090C40600A02BA7
:1015C400070060980700600C0800E0860800A00887
:1015D400090040920900E0230A0040BE0A00C061ED
:1015E4000B00200F0C00A0C60C0020890D004057F2
:1015F4000E00C0300F00C0181000C00D11004011C3
:10160400120080241300C0471400807C150080C39E
:101614001600401E1800408D190040121B0080AEB9
:101624001C0080611E0080312000801B220000000D
:0C1634000001000200030004000000059B
:00000001FF
